{
  "_format": "hh-sol-artifact-1",
  "contractName": "ClaimsContract",
  "sourceName": "contracts/ClaimsContract.sol",
  "abi": [
    {
      "inputs": [
        {
          "internalType": "address",
          "name": "_policyContractAddr",
          "type": "address"
        },
        {
          "internalType": "address",
          "name": "_medicalRecordAddr",
          "type": "address"
        }
      ],
      "stateMutability": "nonpayable",
      "type": "constructor"
    },
    {
      "anonymous": false,
      "inputs": [
        {
          "indexed": true,
          "internalType": "bytes32",
          "name": "claimId",
          "type": "bytes32"
        },
        {
          "indexed": false,
          "internalType": "uint256",
          "name": "amount",
          "type": "uint256"
        }
      ],
      "name": "ClaimApproved",
      "type": "event"
    },
    {
      "anonymous": false,
      "inputs": [
        {
          "indexed": true,
          "internalType": "bytes32",
          "name": "claimId",
          "type": "bytes32"
        },
        {
          "indexed": false,
          "internalType": "uint256",
          "name": "recordId",
          "type": "uint256"
        }
      ],
      "name": "ClaimPaid",
      "type": "event"
    },
    {
      "anonymous": false,
      "inputs": [
        {
          "indexed": true,
          "internalType": "bytes32",
          "name": "claimId",
          "type": "bytes32"
        },
        {
          "indexed": true,
          "internalType": "address",
          "name": "holder",
          "type": "address"
        },
        {
          "indexed": false,
          "internalType": "bytes32",
          "name": "policyId",
          "type": "bytes32"
        },
        {
          "indexed": false,
          "internalType": "uint256",
          "name": "amount",
          "type": "uint256"
        }
      ],
      "name": "ClaimSubmitted",
      "type": "event"
    },
    {
      "inputs": [],
      "name": "MContract",
      "outputs": [
        {
          "internalType": "contract MedicalRecordInterface",
          "name": "",
          "type": "address"
        }
      ],
      "stateMutability": "view",
      "type": "function"
    },
    {
      "inputs": [],
      "name": "PContract",
      "outputs": [
        {
          "internalType": "contract PolicyContractInterFace",
          "name": "",
          "type": "address"
        }
      ],
      "stateMutability": "view",
      "type": "function"
    },
    {
      "inputs": [
        {
          "internalType": "bytes32",
          "name": "",
          "type": "bytes32"
        }
      ],
      "name": "claims",
      "outputs": [
        {
          "internalType": "bytes32",
          "name": "_id",
          "type": "bytes32"
        },
        {
          "internalType": "address",
          "name": "holder",
          "type": "address"
        },
        {
          "internalType": "string",
          "name": "typeOfTreatment",
          "type": "string"
        },
        {
          "internalType": "bytes32",
          "name": "policyId",
          "type": "bytes32"
        },
        {
          "internalType": "uint256",
          "name": "recordId",
          "type": "uint256"
        },
        {
          "internalType": "uint256",
          "name": "amount",
          "type": "uint256"
        },
        {
          "internalType": "uint256",
          "name": "date",
          "type": "uint256"
        },
        {
          "internalType": "bool",
          "name": "isApproved",
          "type": "bool"
        },
        {
          "internalType": "bool",
          "name": "isRejected",
          "type": "bool"
        },
        {
          "internalType": "bool",
          "name": "isPaid",
          "type": "bool"
        }
      ],
      "stateMutability": "view",
      "type": "function"
    },
    {
      "inputs": [
        {
          "internalType": "bytes32",
          "name": "_claimId",
          "type": "bytes32"
        }
      ],
      "name": "getClaim",
      "outputs": [
        {
          "components": [
            {
              "internalType": "bytes32",
              "name": "_id",
              "type": "bytes32"
            },
            {
              "internalType": "address",
              "name": "holder",
              "type": "address"
            },
            {
              "internalType": "string",
              "name": "typeOfTreatment",
              "type": "string"
            },
            {
              "internalType": "bytes32",
              "name": "policyId",
              "type": "bytes32"
            },
            {
              "internalType": "uint256",
              "name": "recordId",
              "type": "uint256"
            },
            {
              "internalType": "uint256",
              "name": "amount",
              "type": "uint256"
            },
            {
              "internalType": "uint256",
              "name": "date",
              "type": "uint256"
            },
            {
              "internalType": "bool",
              "name": "isApproved",
              "type": "bool"
            },
            {
              "internalType": "bool",
              "name": "isRejected",
              "type": "bool"
            },
            {
              "internalType": "bool",
              "name": "isPaid",
              "type": "bool"
            }
          ],
          "internalType": "struct ClaimsContract.Claim",
          "name": "userClaim",
          "type": "tuple"
        }
      ],
      "stateMutability": "view",
      "type": "function"
    },
    {
      "inputs": [
        {
          "internalType": "bytes32",
          "name": "_claimId",
          "type": "bytes32"
        }
      ],
      "name": "payClaim",
      "outputs": [],
      "stateMutability": "nonpayable",
      "type": "function"
    },
    {
      "inputs": [
        {
          "internalType": "bytes32",
          "name": "_claimId",
          "type": "bytes32"
        }
      ],
      "name": "processClaim",
      "outputs": [],
      "stateMutability": "nonpayable",
      "type": "function"
    },
    {
      "inputs": [
        {
          "internalType": "bytes32",
          "name": "_policyId",
          "type": "bytes32"
        },
        {
          "internalType": "uint256",
          "name": "_recordId",
          "type": "uint256"
        },
        {
          "internalType": "uint256",
          "name": "_amount",
          "type": "uint256"
        },
        {
          "internalType": "string",
          "name": "_typeOfTreatment",
          "type": "string"
        }
      ],
      "name": "submitClaim",
      "outputs": [],
      "stateMutability": "nonpayable",
      "type": "function"
    }
  ],
  "bytecode": "0x60806040523480156200001157600080fd5b50604051620020dd380380620020dd83398181016040528101906200003791906200012b565b81600160006101000a81548173ffffffffffffffffffffffffffffffffffffffff021916908373ffffffffffffffffffffffffffffffffffffffff16021790555080600260006101000a81548173ffffffffffffffffffffffffffffffffffffffff021916908373ffffffffffffffffffffffffffffffffffffffff160217905550505062000172565b600080fd5b600073ffffffffffffffffffffffffffffffffffffffff82169050919050565b6000620000f382620000c6565b9050919050565b6200010581620000e6565b81146200011157600080fd5b50565b6000815190506200012581620000fa565b92915050565b60008060408385031215620001455762000144620000c1565b5b6000620001558582860162000114565b9250506020620001688582860162000114565b9150509250929050565b611f5b80620001826000396000f3fe608060405234801561001057600080fd5b506004361061007d5760003560e01c806396da41fd1161005b57806396da41fd146100da578063b5a38480146100f6578063c9100bcb14610112578063eff0f592146101425761007d565b806318d9ba00146100825780632b84b64b1461009e5780635958c399146100bc575b600080fd5b61009c60048036038101906100979190610caa565b61017b565b005b6100a661036a565b6040516100b39190610d56565b60405180910390f35b6100c4610390565b6040516100d19190610d92565b60405180910390f35b6100f460048036038101906100ef9190610f29565b6103b6565b005b610110600480360381019061010b9190610caa565b6105eb565b005b61012c60048036038101906101279190610caa565b61092a565b604051610139919061115f565b60405180910390f35b61015c60048036038101906101579190610caa565b610ac8565b6040516101729a99989796959493929190611207565b60405180910390f35b60008082815260200190815260200160002060070160009054906101000a900460ff166101dd576040517f08c379a00000000000000000000000000000000000000000000000000000000081526004016101d4906112f6565b60405180910390fd5b60008082815260200190815260200160002060070160029054906101000a900460ff1615610240576040517f08c379a000000000000000000000000000000000000000000000000000000000815260040161023790611362565b60405180910390fd5b600160008083815260200190815260200160002060070160026101000a81548160ff0219169083151502179055506000600260009054906101000a900473ffffffffffffffffffffffffffffffffffffffff1673ffffffffffffffffffffffffffffffffffffffff1663e75b8b23600080858152602001908152602001600020600401546040518263ffffffff1660e01b81526004016102e09190611382565b6000604051808303816000875af11580156102ff573d6000803e3d6000fd5b505050506040513d6000823e3d601f19601f820116820180604052508101906103289190611766565b9050817fd5f55ff5d4fb61f42bbcd23202076cc1c7840f2d2813ee48a5f6523d40cba7ef826000015160405161035e9190611382565b60405180910390a25050565b600160009054906101000a900473ffffffffffffffffffffffffffffffffffffffff1681565b600260009054906101000a900473ffffffffffffffffffffffffffffffffffffffff1681565b600082116103f9576040517f08c379a00000000000000000000000000000000000000000000000000000000081526004016103f090611821565b60405180910390fd5b6000334244604051602001610410939291906118aa565b6040516020818303038152906040528051906020012090506040518061014001604052808281526020013373ffffffffffffffffffffffffffffffffffffffff168152602001838152602001868152602001858152602001848152602001428152602001600015158152602001600015158152602001600015158152506000808381526020019081526020016000206000820151816000015560208201518160010160006101000a81548173ffffffffffffffffffffffffffffffffffffffff021916908373ffffffffffffffffffffffffffffffffffffffff16021790555060408201518160020190816105059190611ae9565b50606082015181600301556080820151816004015560a0820151816005015560c0820151816006015560e08201518160070160006101000a81548160ff0219169083151502179055506101008201518160070160016101000a81548160ff0219169083151502179055506101208201518160070160026101000a81548160ff0219169083151502179055509050503373ffffffffffffffffffffffffffffffffffffffff16817f58e1e88c287270014b1b34c220c54d8e5feb69259793da509a6ffcf1e4face6287866040516105dc929190611bbb565b60405180910390a35050505050565b60008082815260200190815260200160002060070160009054906101000a900460ff161561064e576040517f08c379a000000000000000000000000000000000000000000000000000000000815260040161064590611c30565b60405180910390fd5b6000600160009054906101000a900473ffffffffffffffffffffffffffffffffffffffff1673ffffffffffffffffffffffffffffffffffffffff1663a3f685f9600080858152602001908152602001600020600301546040518263ffffffff1660e01b81526004016106c09190611c50565b600060405180830381865afa1580156106dd573d6000803e3d6000fd5b505050506040513d6000823e3d601f19601f820116820180604052508101906107069190611d98565b90506000600260009054906101000a900473ffffffffffffffffffffffffffffffffffffffff1673ffffffffffffffffffffffffffffffffffffffff1663e75b8b23600080868152602001908152602001600020600401546040518263ffffffff1660e01b815260040161077a9190611382565b6000604051808303816000875af1158015610799573d6000803e3d6000fd5b505050506040513d6000823e3d601f19601f820116820180604052508101906107c29190611766565b90508160a00151610808576040517f08c379a00000000000000000000000000000000000000000000000000000000081526004016107ff90611e2d565b60405180910390fd5b8160c00151600080858152602001908152602001600020600501541115610864576040517f08c379a000000000000000000000000000000000000000000000000000000000815260040161085b90611e99565b60405180910390fd5b806101800151156108aa576040517f08c379a00000000000000000000000000000000000000000000000000000000081526004016108a190611f05565b60405180910390fd5b600160008085815260200190815260200160002060070160006101000a81548160ff021916908315150217905550827f18ecd6d8c2fbfbfadaa27444d213869784ae2265484a2d9e31f15a909096e03e6000808681526020019081526020016000206005015460405161091d9190611382565b60405180910390a2505050565b610932610beb565b600080600084815260200190815260200160002090508060405180610140016040529081600082015481526020016001820160009054906101000a900473ffffffffffffffffffffffffffffffffffffffff1673ffffffffffffffffffffffffffffffffffffffff1673ffffffffffffffffffffffffffffffffffffffff1681526020016002820180546109c590611916565b80601f01602080910402602001604051908101604052809291908181526020018280546109f190611916565b8015610a3e5780601f10610a1357610100808354040283529160200191610a3e565b820191906000526020600020905b815481529060010190602001808311610a2157829003601f168201915b50505050508152602001600382015481526020016004820154815260200160058201548152602001600682015481526020016007820160009054906101000a900460ff161515151581526020016007820160019054906101000a900460ff161515151581526020016007820160029054906101000a900460ff161515151581525050915050919050565b60006020528060005260406000206000915090508060000154908060010160009054906101000a900473ffffffffffffffffffffffffffffffffffffffff1690806002018054610b1790611916565b80601f0160208091040260200160405190810160405280929190818152602001828054610b4390611916565b8015610b905780601f10610b6557610100808354040283529160200191610b90565b820191906000526020600020905b815481529060010190602001808311610b7357829003601f168201915b5050505050908060030154908060040154908060050154908060060154908060070160009054906101000a900460ff16908060070160019054906101000a900460ff16908060070160029054906101000a900460ff1690508a565b60405180610140016040528060008019168152602001600073ffffffffffffffffffffffffffffffffffffffff16815260200160608152602001600080191681526020016000815260200160008152602001600081526020016000151581526020016000151581526020016000151581525090565b6000604051905090565b600080fd5b600080fd5b6000819050919050565b610c8781610c74565b8114610c9257600080fd5b50565b600081359050610ca481610c7e565b92915050565b600060208284031215610cc057610cbf610c6a565b5b6000610cce84828501610c95565b91505092915050565b600073ffffffffffffffffffffffffffffffffffffffff82169050919050565b6000819050919050565b6000610d1c610d17610d1284610cd7565b610cf7565b610cd7565b9050919050565b6000610d2e82610d01565b9050919050565b6000610d4082610d23565b9050919050565b610d5081610d35565b82525050565b6000602082019050610d6b6000830184610d47565b92915050565b6000610d7c82610d23565b9050919050565b610d8c81610d71565b82525050565b6000602082019050610da76000830184610d83565b92915050565b6000819050919050565b610dc081610dad565b8114610dcb57600080fd5b50565b600081359050610ddd81610db7565b92915050565b600080fd5b600080fd5b6000601f19601f8301169050919050565b7f4e487b7100000000000000000000000000000000000000000000000000000000600052604160045260246000fd5b610e3682610ded565b810181811067ffffffffffffffff82111715610e5557610e54610dfe565b5b80604052505050565b6000610e68610c60565b9050610e748282610e2d565b919050565b600067ffffffffffffffff821115610e9457610e93610dfe565b5b610e9d82610ded565b9050602081019050919050565b82818337600083830152505050565b6000610ecc610ec784610e79565b610e5e565b905082815260208101848484011115610ee857610ee7610de8565b5b610ef3848285610eaa565b509392505050565b600082601f830112610f1057610f0f610de3565b5b8135610f20848260208601610eb9565b91505092915050565b60008060008060808587031215610f4357610f42610c6a565b5b6000610f5187828801610c95565b9450506020610f6287828801610dce565b9350506040610f7387828801610dce565b925050606085013567ffffffffffffffff811115610f9457610f93610c6f565b5b610fa087828801610efb565b91505092959194509250565b610fb581610c74565b82525050565b6000610fc682610cd7565b9050919050565b610fd681610fbb565b82525050565b600081519050919050565b600082825260208201905092915050565b60005b83811015611016578082015181840152602081019050610ffb565b60008484015250505050565b600061102d82610fdc565b6110378185610fe7565b9350611047818560208601610ff8565b61105081610ded565b840191505092915050565b61106481610dad565b82525050565b60008115159050919050565b61107f8161106a565b82525050565b60006101408301600083015161109e6000860182610fac565b5060208301516110b16020860182610fcd565b50604083015184820360408601526110c98282611022565b91505060608301516110de6060860182610fac565b5060808301516110f1608086018261105b565b5060a083015161110460a086018261105b565b5060c083015161111760c086018261105b565b5060e083015161112a60e0860182611076565b5061010083015161113f610100860182611076565b50610120830151611154610120860182611076565b508091505092915050565b600060208201905081810360008301526111798184611085565b905092915050565b61118a81610c74565b82525050565b61119981610fbb565b82525050565b600082825260208201905092915050565b60006111bb82610fdc565b6111c5818561119f565b93506111d5818560208601610ff8565b6111de81610ded565b840191505092915050565b6111f281610dad565b82525050565b6112018161106a565b82525050565b60006101408201905061121d600083018d611181565b61122a602083018c611190565b818103604083015261123c818b6111b0565b905061124b606083018a611181565b61125860808301896111e9565b61126560a08301886111e9565b61127260c08301876111e9565b61127f60e08301866111f8565b61128d6101008301856111f8565b61129b6101208301846111f8565b9b9a5050505050505050505050565b7f436c61696d206973206e6f7420617070726f7665642079657400000000000000600082015250565b60006112e060198361119f565b91506112eb826112aa565b602082019050919050565b6000602082019050818103600083015261130f816112d3565b9050919050565b7f436c61696d20697320616c726561647920706169640000000000000000000000600082015250565b600061134c60158361119f565b915061135782611316565b602082019050919050565b6000602082019050818103600083015261137b8161133f565b9050919050565b600060208201905061139760008301846111e9565b92915050565b600080fd5b600080fd5b6000815190506113b681610db7565b92915050565b60006113cf6113ca84610e79565b610e5e565b9050828152602081018484840111156113eb576113ea610de8565b5b6113f6848285610ff8565b509392505050565b600082601f83011261141357611412610de3565b5b81516114238482602086016113bc565b91505092915050565b61143581610fbb565b811461144057600080fd5b50565b6000815190506114528161142c565b92915050565b600067ffffffffffffffff82111561147357611472610dfe565b5b602082029050602081019050919050565b600080fd5b600061149c61149784611458565b610e5e565b905080838252602082019050602084028301858111156114bf576114be611484565b5b835b8181101561150657805167ffffffffffffffff8111156114e4576114e3610de3565b5b8086016114f189826113fe565b855260208501945050506020810190506114c1565b5050509392505050565b600082601f83011261152557611524610de3565b5b8151611535848260208601611489565b91505092915050565b6115478161106a565b811461155257600080fd5b50565b6000815190506115648161153e565b92915050565b60006101a082840312156115815761158061139d565b5b61158c6101a0610e5e565b9050600061159c848285016113a7565b600083015250602082015167ffffffffffffffff8111156115c0576115bf6113a2565b5b6115cc848285016113fe565b60208301525060406115e084828501611443565b60408301525060606115f484828501611443565b606083015250608082015167ffffffffffffffff811115611618576116176113a2565b5b611624848285016113fe565b60808301525060a082015167ffffffffffffffff811115611648576116476113a2565b5b611654848285016113fe565b60a08301525060c082015167ffffffffffffffff811115611678576116776113a2565b5b611684848285016113fe565b60c08301525060e082015167ffffffffffffffff8111156116a8576116a76113a2565b5b6116b4848285016113fe565b60e08301525061010082015167ffffffffffffffff8111156116d9576116d86113a2565b5b6116e584828501611510565b610100830152506101206116fb848285016113a7565b6101208301525061014082015167ffffffffffffffff811115611721576117206113a2565b5b61172d848285016113fe565b61014083015250610160611743848285016113a7565b6101608301525061018061175984828501611555565b6101808301525092915050565b60006020828403121561177c5761177b610c6a565b5b600082015167ffffffffffffffff81111561179a57611799610c6f565b5b6117a68482850161156a565b91505092915050565b7f436c61696d20616d6f756e742073686f756c642062652067726561746572207460008201527f68616e207a65726f000000000000000000000000000000000000000000000000602082015250565b600061180b60288361119f565b9150611816826117af565b604082019050919050565b6000602082019050818103600083015261183a816117fe565b9050919050565b60008160601b9050919050565b600061185982611841565b9050919050565b600061186b8261184e565b9050919050565b61188361187e82610fbb565b611860565b82525050565b6000819050919050565b6118a461189f82610dad565b611889565b82525050565b60006118b68286611872565b6014820191506118c68285611893565b6020820191506118d68284611893565b602082019150819050949350505050565b7f4e487b7100000000000000000000000000000000000000000000000000000000600052602260045260246000fd5b6000600282049050600182168061192e57607f821691505b602082108103611941576119406118e7565b5b50919050565b60008190508160005260206000209050919050565b60006020601f8301049050919050565b600082821b905092915050565b6000600883026119a97fffffffffffffffffffffffffffffffffffffffffffffffffffffffffffffffff8261196c565b6119b3868361196c565b95508019841693508086168417925050509392505050565b60006119e66119e16119dc84610dad565b610cf7565b610dad565b9050919050565b6000819050919050565b611a00836119cb565b611a14611a0c826119ed565b848454611979565b825550505050565b600090565b611a29611a1c565b611a348184846119f7565b505050565b5b81811015611a5857611a4d600082611a21565b600181019050611a3a565b5050565b601f821115611a9d57611a6e81611947565b611a778461195c565b81016020851015611a86578190505b611a9a611a928561195c565b830182611a39565b50505b505050565b600082821c905092915050565b6000611ac060001984600802611aa2565b1980831691505092915050565b6000611ad98383611aaf565b9150826002028217905092915050565b611af282610fdc565b67ffffffffffffffff811115611b0b57611b0a610dfe565b5b611b158254611916565b611b20828285611a5c565b600060209050601f831160018114611b535760008415611b41578287015190505b611b4b8582611acd565b865550611bb3565b601f198416611b6186611947565b60005b82811015611b8957848901518255600182019150602085019450602081019050611b64565b86831015611ba65784890151611ba2601f891682611aaf565b8355505b6001600288020188555050505b505050505050565b6000604082019050611bd06000830185611181565b611bdd60208301846111e9565b9392505050565b7f436c61696d20697320616c726561647920617070726f76656400000000000000600082015250565b6000611c1a60198361119f565b9150611c2582611be4565b602082019050919050565b60006020820190508181036000830152611c4981611c0d565b9050919050565b6000602082019050611c656000830184611181565b92915050565b600081519050611c7a81610c7e565b92915050565b60006101208284031215611c9757611c9661139d565b5b611ca2610120610e5e565b90506000611cb284828501611c6b565b6000830152506020611cc684828501611443565b6020830152506040611cda848285016113a7565b6040830152506060611cee848285016113a7565b6060830152506080611d02848285016113a7565b60808301525060a0611d1684828501611555565b60a08301525060c0611d2a848285016113a7565b60c08301525060e082015167ffffffffffffffff811115611d4e57611d4d6113a2565b5b611d5a848285016113fe565b60e08301525061010082015167ffffffffffffffff811115611d7f57611d7e6113a2565b5b611d8b848285016113fe565b6101008301525092915050565b600060208284031215611dae57611dad610c6a565b5b600082015167ffffffffffffffff811115611dcc57611dcb610c6f565b5b611dd884828501611c80565b91505092915050565b7f506f6c696379206973206e6f7420616374697665000000000000000000000000600082015250565b6000611e1760148361119f565b9150611e2282611de1565b602082019050919050565b60006020820190508181036000830152611e4681611e0a565b9050919050565b7f436c61696d20616d6f756e74206578636565647320636f766572616765000000600082015250565b6000611e83601d8361119f565b9150611e8e82611e4d565b602082019050919050565b60006020820190508181036000830152611eb281611e76565b9050919050565b7f54726561746d656e7420616c726561647920636c61696d656400000000000000600082015250565b6000611eef60198361119f565b9150611efa82611eb9565b602082019050919050565b60006020820190508181036000830152611f1e81611ee2565b905091905056fea264697066735822122045ae553e5959359f1fb80bf444d1df2e205a59297b4a946cf186edb91fe201d564736f6c63430008180033",
  "linkReferences": {},
  "deployedLinkReferences": {}
}