{
  "_format": "hh-sol-artifact-1",
  "contractName": "ClaimsContract",
  "sourceName": "contracts/ClaimsContract.sol",
  "abi": [
    {
      "inputs": [
        {
          "internalType": "address",
          "name": "_policyContractAddr",
          "type": "address"
        },
        {
          "internalType": "address",
          "name": "_medicalRecordAddr",
          "type": "address"
        }
      ],
      "stateMutability": "nonpayable",
      "type": "constructor"
    },
    {
      "anonymous": false,
      "inputs": [
        {
          "indexed": true,
          "internalType": "bytes32",
          "name": "claimId",
          "type": "bytes32"
        },
        {
          "indexed": false,
          "internalType": "uint256",
          "name": "amount",
          "type": "uint256"
        }
      ],
      "name": "ClaimApproved",
      "type": "event"
    },
    {
      "anonymous": false,
      "inputs": [
        {
          "indexed": true,
          "internalType": "bytes32",
          "name": "claimId",
          "type": "bytes32"
        },
        {
          "indexed": false,
          "internalType": "uint256",
          "name": "recordId",
          "type": "uint256"
        }
      ],
      "name": "ClaimPaid",
      "type": "event"
    },
    {
      "anonymous": false,
      "inputs": [
        {
          "indexed": true,
          "internalType": "bytes32",
          "name": "claimId",
          "type": "bytes32"
        },
        {
          "indexed": true,
          "internalType": "address",
          "name": "holder",
          "type": "address"
        },
        {
          "indexed": false,
          "internalType": "bytes32",
          "name": "policyId",
          "type": "bytes32"
        },
        {
          "indexed": false,
          "internalType": "uint256",
          "name": "amount",
          "type": "uint256"
        }
      ],
      "name": "ClaimSubmitted",
      "type": "event"
    },
    {
      "inputs": [],
      "name": "MContract",
      "outputs": [
        {
          "internalType": "contract MedicalRecordInterface",
          "name": "",
          "type": "address"
        }
      ],
      "stateMutability": "view",
      "type": "function"
    },
    {
      "inputs": [],
      "name": "PContract",
      "outputs": [
        {
          "internalType": "contract PolicyContractInterFace",
          "name": "",
          "type": "address"
        }
      ],
      "stateMutability": "view",
      "type": "function"
    },
    {
      "inputs": [
        {
          "internalType": "bytes32",
          "name": "",
          "type": "bytes32"
        }
      ],
      "name": "claims",
      "outputs": [
        {
          "internalType": "bytes32",
          "name": "_id",
          "type": "bytes32"
        },
        {
          "internalType": "address",
          "name": "holder",
          "type": "address"
        },
        {
          "internalType": "string",
          "name": "typeOfTreatment",
          "type": "string"
        },
        {
          "internalType": "bytes32",
          "name": "policyId",
          "type": "bytes32"
        },
        {
          "internalType": "uint256",
          "name": "recordId",
          "type": "uint256"
        },
        {
          "internalType": "uint256",
          "name": "amount",
          "type": "uint256"
        },
        {
          "internalType": "uint256",
          "name": "date",
          "type": "uint256"
        },
        {
          "internalType": "bool",
          "name": "isApproved",
          "type": "bool"
        },
        {
          "internalType": "bool",
          "name": "isRejected",
          "type": "bool"
        },
        {
          "internalType": "bool",
          "name": "isPaid",
          "type": "bool"
        }
      ],
      "stateMutability": "view",
      "type": "function"
    },
    {
      "inputs": [
        {
          "internalType": "bytes32",
          "name": "_claimId",
          "type": "bytes32"
        }
      ],
      "name": "getClaim",
      "outputs": [
        {
          "components": [
            {
              "internalType": "bytes32",
              "name": "_id",
              "type": "bytes32"
            },
            {
              "internalType": "address",
              "name": "holder",
              "type": "address"
            },
            {
              "internalType": "string",
              "name": "typeOfTreatment",
              "type": "string"
            },
            {
              "internalType": "bytes32",
              "name": "policyId",
              "type": "bytes32"
            },
            {
              "internalType": "uint256",
              "name": "recordId",
              "type": "uint256"
            },
            {
              "internalType": "uint256",
              "name": "amount",
              "type": "uint256"
            },
            {
              "internalType": "uint256",
              "name": "date",
              "type": "uint256"
            },
            {
              "internalType": "bool",
              "name": "isApproved",
              "type": "bool"
            },
            {
              "internalType": "bool",
              "name": "isRejected",
              "type": "bool"
            },
            {
              "internalType": "bool",
              "name": "isPaid",
              "type": "bool"
            }
          ],
          "internalType": "struct ClaimsContract.Claim",
          "name": "userClaim",
          "type": "tuple"
        }
      ],
      "stateMutability": "view",
      "type": "function"
    },
    {
      "inputs": [
        {
          "internalType": "bytes32",
          "name": "_claimId",
          "type": "bytes32"
        }
      ],
      "name": "payClaim",
      "outputs": [],
      "stateMutability": "nonpayable",
      "type": "function"
    },
    {
      "inputs": [
        {
          "internalType": "bytes32",
          "name": "_claimId",
          "type": "bytes32"
        }
      ],
      "name": "processClaim",
      "outputs": [],
      "stateMutability": "nonpayable",
      "type": "function"
    },
    {
      "inputs": [
        {
          "internalType": "bytes32",
          "name": "_policyId",
          "type": "bytes32"
        },
        {
          "internalType": "uint256",
          "name": "_recordId",
          "type": "uint256"
        },
        {
          "internalType": "uint256",
          "name": "_amount",
          "type": "uint256"
        },
        {
          "internalType": "string",
          "name": "_typeOfTreatment",
          "type": "string"
        }
      ],
      "name": "submitClaim",
      "outputs": [],
      "stateMutability": "nonpayable",
      "type": "function"
    }
  ],
  "bytecode": "0x60806040523480156200001157600080fd5b506040516200248a3803806200248a83398181016040528101906200003791906200012b565b81600160006101000a81548173ffffffffffffffffffffffffffffffffffffffff021916908373ffffffffffffffffffffffffffffffffffffffff16021790555080600260006101000a81548173ffffffffffffffffffffffffffffffffffffffff021916908373ffffffffffffffffffffffffffffffffffffffff160217905550505062000172565b600080fd5b600073ffffffffffffffffffffffffffffffffffffffff82169050919050565b6000620000f382620000c6565b9050919050565b6200010581620000e6565b81146200011157600080fd5b50565b6000815190506200012581620000fa565b92915050565b60008060408385031215620001455762000144620000c1565b5b6000620001558582860162000114565b9250506020620001688582860162000114565b9150509250929050565b61230880620001826000396000f3fe608060405234801561001057600080fd5b506004361061007d5760003560e01c806396da41fd1161005b57806396da41fd146100da578063b5a38480146100f6578063c9100bcb14610112578063eff0f592146101425761007d565b806318d9ba00146100825780632b84b64b1461009e5780635958c399146100bc575b600080fd5b61009c60048036038101906100979190610e6c565b61017b565b005b6100a661036a565b6040516100b39190610f18565b60405180910390f35b6100c4610390565b6040516100d19190610f54565b60405180910390f35b6100f460048036038101906100ef91906110eb565b6103b6565b005b610110600480360381019061010b9190610e6c565b6105eb565b005b61012c60048036038101906101279190610e6c565b610aec565b6040516101399190611321565b60405180910390f35b61015c60048036038101906101579190610e6c565b610c8a565b6040516101729a999897969594939291906113c9565b60405180910390f35b60008082815260200190815260200160002060070160009054906101000a900460ff166101dd576040517f08c379a00000000000000000000000000000000000000000000000000000000081526004016101d4906114b8565b60405180910390fd5b60008082815260200190815260200160002060070160029054906101000a900460ff1615610240576040517f08c379a000000000000000000000000000000000000000000000000000000000815260040161023790611524565b60405180910390fd5b600160008083815260200190815260200160002060070160026101000a81548160ff0219169083151502179055506000600260009054906101000a900473ffffffffffffffffffffffffffffffffffffffff1673ffffffffffffffffffffffffffffffffffffffff1663e75b8b23600080858152602001908152602001600020600401546040518263ffffffff1660e01b81526004016102e09190611544565b6000604051808303816000875af11580156102ff573d6000803e3d6000fd5b505050506040513d6000823e3d601f19601f820116820180604052508101906103289190611928565b9050817fd5f55ff5d4fb61f42bbcd23202076cc1c7840f2d2813ee48a5f6523d40cba7ef826000015160405161035e9190611544565b60405180910390a25050565b600160009054906101000a900473ffffffffffffffffffffffffffffffffffffffff1681565b600260009054906101000a900473ffffffffffffffffffffffffffffffffffffffff1681565b600082116103f9576040517f08c379a00000000000000000000000000000000000000000000000000000000081526004016103f0906119e3565b60405180910390fd5b600033424460405160200161041093929190611a6c565b6040516020818303038152906040528051906020012090506040518061014001604052808281526020013373ffffffffffffffffffffffffffffffffffffffff168152602001838152602001868152602001858152602001848152602001428152602001600015158152602001600015158152602001600015158152506000808381526020019081526020016000206000820151816000015560208201518160010160006101000a81548173ffffffffffffffffffffffffffffffffffffffff021916908373ffffffffffffffffffffffffffffffffffffffff16021790555060408201518160020190816105059190611cab565b50606082015181600301556080820151816004015560a0820151816005015560c0820151816006015560e08201518160070160006101000a81548160ff0219169083151502179055506101008201518160070160016101000a81548160ff0219169083151502179055506101208201518160070160026101000a81548160ff0219169083151502179055509050503373ffffffffffffffffffffffffffffffffffffffff16817f58e1e88c287270014b1b34c220c54d8e5feb69259793da509a6ffcf1e4face6287866040516105dc929190611d7d565b60405180910390a35050505050565b60008082815260200190815260200160002060070160009054906101000a900460ff161561064e576040517f08c379a000000000000000000000000000000000000000000000000000000000815260040161064590611df2565b60405180910390fd5b60008082815260200190815260200160002060070160019054906101000a900460ff16156106b1576040517f08c379a00000000000000000000000000000000000000000000000000000000081526004016106a890611e5e565b60405180910390fd5b6000600160009054906101000a900473ffffffffffffffffffffffffffffffffffffffff1673ffffffffffffffffffffffffffffffffffffffff1663a3f685f9600080858152602001908152602001600020600301546040518263ffffffff1660e01b81526004016107239190611e7e565b600060405180830381865afa158015610740573d6000803e3d6000fd5b505050506040513d6000823e3d601f19601f820116820180604052508101906107699190611fc6565b90506000600260009054906101000a900473ffffffffffffffffffffffffffffffffffffffff1673ffffffffffffffffffffffffffffffffffffffff1663e75b8b23600080868152602001908152602001600020600401546040518263ffffffff1660e01b81526004016107dd9190611544565b6000604051808303816000875af11580156107fc573d6000803e3d6000fd5b505050506040513d6000823e3d601f19601f820116820180604052508101906108259190611928565b90508160a0015161089957600160008085815260200190815260200160002060070160016101000a81548160ff0219169083151502179055506040517f08c379a00000000000000000000000000000000000000000000000000000000081526004016108909061205b565b60405180910390fd5b8160c0015160008085815260200190815260200160002060050154111561092357600160008085815260200190815260200160002060070160016101000a81548160ff0219169083151502179055506040517f08c379a000000000000000000000000000000000000000000000000000000000815260040161091a906120c7565b60405180910390fd5b8161010001516040516020016109399190612123565b6040516020818303038152906040528051906020012060008085815260200190815260200160002060020160405160200161097491906121bd565b60405160208183030381529060405280519060200120146109f857600160008085815260200190815260200160002060070160016101000a81548160ff0219169083151502179055506040517f08c379a00000000000000000000000000000000000000000000000000000000081526004016109ef90612246565b60405180910390fd5b80610180015115610a6c57600160008085815260200190815260200160002060070160016101000a81548160ff0219169083151502179055506040517f08c379a0000000000000000000000000000000000000000000000000000000008152600401610a63906122b2565b60405180910390fd5b600160008085815260200190815260200160002060070160006101000a81548160ff021916908315150217905550827f18ecd6d8c2fbfbfadaa27444d213869784ae2265484a2d9e31f15a909096e03e60008086815260200190815260200160002060050154604051610adf9190611544565b60405180910390a2505050565b610af4610dad565b600080600084815260200190815260200160002090508060405180610140016040529081600082015481526020016001820160009054906101000a900473ffffffffffffffffffffffffffffffffffffffff1673ffffffffffffffffffffffffffffffffffffffff1673ffffffffffffffffffffffffffffffffffffffff168152602001600282018054610b8790611ad8565b80601f0160208091040260200160405190810160405280929190818152602001828054610bb390611ad8565b8015610c005780601f10610bd557610100808354040283529160200191610c00565b820191906000526020600020905b815481529060010190602001808311610be357829003601f168201915b50505050508152602001600382015481526020016004820154815260200160058201548152602001600682015481526020016007820160009054906101000a900460ff161515151581526020016007820160019054906101000a900460ff161515151581526020016007820160029054906101000a900460ff161515151581525050915050919050565b60006020528060005260406000206000915090508060000154908060010160009054906101000a900473ffffffffffffffffffffffffffffffffffffffff1690806002018054610cd990611ad8565b80601f0160208091040260200160405190810160405280929190818152602001828054610d0590611ad8565b8015610d525780601f10610d2757610100808354040283529160200191610d52565b820191906000526020600020905b815481529060010190602001808311610d3557829003601f168201915b5050505050908060030154908060040154908060050154908060060154908060070160009054906101000a900460ff16908060070160019054906101000a900460ff16908060070160029054906101000a900460ff1690508a565b60405180610140016040528060008019168152602001600073ffffffffffffffffffffffffffffffffffffffff16815260200160608152602001600080191681526020016000815260200160008152602001600081526020016000151581526020016000151581526020016000151581525090565b6000604051905090565b600080fd5b600080fd5b6000819050919050565b610e4981610e36565b8114610e5457600080fd5b50565b600081359050610e6681610e40565b92915050565b600060208284031215610e8257610e81610e2c565b5b6000610e9084828501610e57565b91505092915050565b600073ffffffffffffffffffffffffffffffffffffffff82169050919050565b6000819050919050565b6000610ede610ed9610ed484610e99565b610eb9565b610e99565b9050919050565b6000610ef082610ec3565b9050919050565b6000610f0282610ee5565b9050919050565b610f1281610ef7565b82525050565b6000602082019050610f2d6000830184610f09565b92915050565b6000610f3e82610ee5565b9050919050565b610f4e81610f33565b82525050565b6000602082019050610f696000830184610f45565b92915050565b6000819050919050565b610f8281610f6f565b8114610f8d57600080fd5b50565b600081359050610f9f81610f79565b92915050565b600080fd5b600080fd5b6000601f19601f8301169050919050565b7f4e487b7100000000000000000000000000000000000000000000000000000000600052604160045260246000fd5b610ff882610faf565b810181811067ffffffffffffffff8211171561101757611016610fc0565b5b80604052505050565b600061102a610e22565b90506110368282610fef565b919050565b600067ffffffffffffffff82111561105657611055610fc0565b5b61105f82610faf565b9050602081019050919050565b82818337600083830152505050565b600061108e6110898461103b565b611020565b9050828152602081018484840111156110aa576110a9610faa565b5b6110b584828561106c565b509392505050565b600082601f8301126110d2576110d1610fa5565b5b81356110e284826020860161107b565b91505092915050565b6000806000806080858703121561110557611104610e2c565b5b600061111387828801610e57565b945050602061112487828801610f90565b935050604061113587828801610f90565b925050606085013567ffffffffffffffff81111561115657611155610e31565b5b611162878288016110bd565b91505092959194509250565b61117781610e36565b82525050565b600061118882610e99565b9050919050565b6111988161117d565b82525050565b600081519050919050565b600082825260208201905092915050565b60005b838110156111d85780820151818401526020810190506111bd565b60008484015250505050565b60006111ef8261119e565b6111f981856111a9565b93506112098185602086016111ba565b61121281610faf565b840191505092915050565b61122681610f6f565b82525050565b60008115159050919050565b6112418161122c565b82525050565b600061014083016000830151611260600086018261116e565b506020830151611273602086018261118f565b506040830151848203604086015261128b82826111e4565b91505060608301516112a0606086018261116e565b5060808301516112b3608086018261121d565b5060a08301516112c660a086018261121d565b5060c08301516112d960c086018261121d565b5060e08301516112ec60e0860182611238565b50610100830151611301610100860182611238565b50610120830151611316610120860182611238565b508091505092915050565b6000602082019050818103600083015261133b8184611247565b905092915050565b61134c81610e36565b82525050565b61135b8161117d565b82525050565b600082825260208201905092915050565b600061137d8261119e565b6113878185611361565b93506113978185602086016111ba565b6113a081610faf565b840191505092915050565b6113b481610f6f565b82525050565b6113c38161122c565b82525050565b6000610140820190506113df600083018d611343565b6113ec602083018c611352565b81810360408301526113fe818b611372565b905061140d606083018a611343565b61141a60808301896113ab565b61142760a08301886113ab565b61143460c08301876113ab565b61144160e08301866113ba565b61144f6101008301856113ba565b61145d6101208301846113ba565b9b9a5050505050505050505050565b7f436c61696d206973206e6f7420617070726f7665642079657400000000000000600082015250565b60006114a2601983611361565b91506114ad8261146c565b602082019050919050565b600060208201905081810360008301526114d181611495565b9050919050565b7f436c61696d20697320616c726561647920706169640000000000000000000000600082015250565b600061150e601583611361565b9150611519826114d8565b602082019050919050565b6000602082019050818103600083015261153d81611501565b9050919050565b600060208201905061155960008301846113ab565b92915050565b600080fd5b600080fd5b60008151905061157881610f79565b92915050565b600061159161158c8461103b565b611020565b9050828152602081018484840111156115ad576115ac610faa565b5b6115b88482856111ba565b509392505050565b600082601f8301126115d5576115d4610fa5565b5b81516115e584826020860161157e565b91505092915050565b6115f78161117d565b811461160257600080fd5b50565b600081519050611614816115ee565b92915050565b600067ffffffffffffffff82111561163557611634610fc0565b5b602082029050602081019050919050565b600080fd5b600061165e6116598461161a565b611020565b9050808382526020820190506020840283018581111561168157611680611646565b5b835b818110156116c857805167ffffffffffffffff8111156116a6576116a5610fa5565b5b8086016116b389826115c0565b85526020850194505050602081019050611683565b5050509392505050565b600082601f8301126116e7576116e6610fa5565b5b81516116f784826020860161164b565b91505092915050565b6117098161122c565b811461171457600080fd5b50565b60008151905061172681611700565b92915050565b60006101a082840312156117435761174261155f565b5b61174e6101a0611020565b9050600061175e84828501611569565b600083015250602082015167ffffffffffffffff81111561178257611781611564565b5b61178e848285016115c0565b60208301525060406117a284828501611605565b60408301525060606117b684828501611605565b606083015250608082015167ffffffffffffffff8111156117da576117d9611564565b5b6117e6848285016115c0565b60808301525060a082015167ffffffffffffffff81111561180a57611809611564565b5b611816848285016115c0565b60a08301525060c082015167ffffffffffffffff81111561183a57611839611564565b5b611846848285016115c0565b60c08301525060e082015167ffffffffffffffff81111561186a57611869611564565b5b611876848285016115c0565b60e08301525061010082015167ffffffffffffffff81111561189b5761189a611564565b5b6118a7848285016116d2565b610100830152506101206118bd84828501611569565b6101208301525061014082015167ffffffffffffffff8111156118e3576118e2611564565b5b6118ef848285016115c0565b6101408301525061016061190584828501611569565b6101608301525061018061191b84828501611717565b6101808301525092915050565b60006020828403121561193e5761193d610e2c565b5b600082015167ffffffffffffffff81111561195c5761195b610e31565b5b6119688482850161172c565b91505092915050565b7f436c61696d20616d6f756e742073686f756c642062652067726561746572207460008201527f68616e207a65726f000000000000000000000000000000000000000000000000602082015250565b60006119cd602883611361565b91506119d882611971565b604082019050919050565b600060208201905081810360008301526119fc816119c0565b9050919050565b60008160601b9050919050565b6000611a1b82611a03565b9050919050565b6000611a2d82611a10565b9050919050565b611a45611a408261117d565b611a22565b82525050565b6000819050919050565b611a66611a6182610f6f565b611a4b565b82525050565b6000611a788286611a34565b601482019150611a888285611a55565b602082019150611a988284611a55565b602082019150819050949350505050565b7f4e487b7100000000000000000000000000000000000000000000000000000000600052602260045260246000fd5b60006002820490506001821680611af057607f821691505b602082108103611b0357611b02611aa9565b5b50919050565b60008190508160005260206000209050919050565b60006020601f8301049050919050565b600082821b905092915050565b600060088302611b6b7fffffffffffffffffffffffffffffffffffffffffffffffffffffffffffffffff82611b2e565b611b758683611b2e565b95508019841693508086168417925050509392505050565b6000611ba8611ba3611b9e84610f6f565b610eb9565b610f6f565b9050919050565b6000819050919050565b611bc283611b8d565b611bd6611bce82611baf565b848454611b3b565b825550505050565b600090565b611beb611bde565b611bf6818484611bb9565b505050565b5b81811015611c1a57611c0f600082611be3565b600181019050611bfc565b5050565b601f821115611c5f57611c3081611b09565b611c3984611b1e565b81016020851015611c48578190505b611c5c611c5485611b1e565b830182611bfb565b50505b505050565b600082821c905092915050565b6000611c8260001984600802611c64565b1980831691505092915050565b6000611c9b8383611c71565b9150826002028217905092915050565b611cb48261119e565b67ffffffffffffffff811115611ccd57611ccc610fc0565b5b611cd78254611ad8565b611ce2828285611c1e565b600060209050601f831160018114611d155760008415611d03578287015190505b611d0d8582611c8f565b865550611d75565b601f198416611d2386611b09565b60005b82811015611d4b57848901518255600182019150602085019450602081019050611d26565b86831015611d685784890151611d64601f891682611c71565b8355505b6001600288020188555050505b505050505050565b6000604082019050611d926000830185611343565b611d9f60208301846113ab565b9392505050565b7f436c61696d20697320616c726561647920617070726f7665642e000000000000600082015250565b6000611ddc601a83611361565b9150611de782611da6565b602082019050919050565b60006020820190508181036000830152611e0b81611dcf565b9050919050565b7f436c61696d20697320616c72656164792072656a656374656400000000000000600082015250565b6000611e48601983611361565b9150611e5382611e12565b602082019050919050565b60006020820190508181036000830152611e7781611e3b565b9050919050565b6000602082019050611e936000830184611343565b92915050565b600081519050611ea881610e40565b92915050565b60006101208284031215611ec557611ec461155f565b5b611ed0610120611020565b90506000611ee084828501611e99565b6000830152506020611ef484828501611605565b6020830152506040611f0884828501611569565b6040830152506060611f1c84828501611569565b6060830152506080611f3084828501611569565b60808301525060a0611f4484828501611717565b60a08301525060c0611f5884828501611569565b60c08301525060e082015167ffffffffffffffff811115611f7c57611f7b611564565b5b611f88848285016115c0565b60e08301525061010082015167ffffffffffffffff811115611fad57611fac611564565b5b611fb9848285016115c0565b6101008301525092915050565b600060208284031215611fdc57611fdb610e2c565b5b600082015167ffffffffffffffff811115611ffa57611ff9610e31565b5b61200684828501611eae565b91505092915050565b7f506f6c696379206973206e6f74206163746976652e0000000000000000000000600082015250565b6000612045601583611361565b91506120508261200f565b602082019050919050565b6000602082019050818103600083015261207481612038565b9050919050565b7f436c61696d20616d6f756e74206578636565647320636f7665726167652e0000600082015250565b60006120b1601e83611361565b91506120bc8261207b565b602082019050919050565b600060208201905081810360008301526120e0816120a4565b9050919050565b600081905092915050565b60006120fd8261119e565b61210781856120e7565b93506121178185602086016111ba565b80840191505092915050565b600061212f82846120f2565b915081905092915050565b6000815461214781611ad8565b61215181866120e7565b9450600182166000811461216c5760018114612181576121b4565b60ff19831686528115158202860193506121b4565b61218a85611b09565b60005b838110156121ac5781548189015260018201915060208101905061218d565b838801955050505b50505092915050565b60006121c9828461213a565b915081905092915050565b7f54726561746d656e742074797065206e6f7420636f766572656420696e20746860008201527f6520706f6c6963792e0000000000000000000000000000000000000000000000602082015250565b6000612230602983611361565b915061223b826121d4565b604082019050919050565b6000602082019050818103600083015261225f81612223565b9050919050565b7f54726561746d656e7420616c726561647920636c61696d65642e000000000000600082015250565b600061229c601a83611361565b91506122a782612266565b602082019050919050565b600060208201905081810360008301526122cb8161228f565b905091905056fea2646970667358221220fd384bdf1af980b82fcd4eecbad848b0eba25c6165314eae44d6c89ac26cafc364736f6c63430008180033",
  "linkReferences": {},
  "deployedLinkReferences": {}
}