{
  "_format": "hh-sol-artifact-1",
  "contractName": "ClaimsContract",
  "sourceName": "contracts/ClaimsContract.sol",
  "abi": [
    {
      "anonymous": false,
      "inputs": [
        {
          "indexed": true,
          "internalType": "bytes32",
          "name": "claimId",
          "type": "bytes32"
        },
        {
          "indexed": false,
          "internalType": "uint256",
          "name": "amount",
          "type": "uint256"
        }
      ],
      "name": "ClaimApproved",
      "type": "event"
    },
    {
      "anonymous": false,
      "inputs": [
        {
          "indexed": true,
          "internalType": "bytes32",
          "name": "claimId",
          "type": "bytes32"
        }
      ],
      "name": "ClaimPaid",
      "type": "event"
    },
    {
      "anonymous": false,
      "inputs": [
        {
          "indexed": true,
          "internalType": "bytes32",
          "name": "claimId",
          "type": "bytes32"
        },
        {
          "indexed": true,
          "internalType": "address",
          "name": "holder",
          "type": "address"
        },
        {
          "indexed": false,
          "internalType": "bytes32",
          "name": "policyId",
          "type": "bytes32"
        },
        {
          "indexed": false,
          "internalType": "uint256",
          "name": "amount",
          "type": "uint256"
        }
      ],
      "name": "ClaimSubmitted",
      "type": "event"
    },
    {
      "inputs": [
        {
          "internalType": "bytes32",
          "name": "_claimId",
          "type": "bytes32"
        }
      ],
      "name": "approveClaim",
      "outputs": [],
      "stateMutability": "nonpayable",
      "type": "function"
    },
    {
      "inputs": [
        {
          "internalType": "bytes32",
          "name": "",
          "type": "bytes32"
        }
      ],
      "name": "claims",
      "outputs": [
        {
          "internalType": "address",
          "name": "holder",
          "type": "address"
        },
        {
          "internalType": "bytes32",
          "name": "policyId",
          "type": "bytes32"
        },
        {
          "internalType": "uint256",
          "name": "amount",
          "type": "uint256"
        },
        {
          "internalType": "bool",
          "name": "isApproved",
          "type": "bool"
        },
        {
          "internalType": "bool",
          "name": "isPaid",
          "type": "bool"
        }
      ],
      "stateMutability": "view",
      "type": "function"
    },
    {
      "inputs": [
        {
          "internalType": "bytes32",
          "name": "_claimId",
          "type": "bytes32"
        }
      ],
      "name": "getClaim",
      "outputs": [
        {
          "internalType": "address",
          "name": "",
          "type": "address"
        },
        {
          "internalType": "bytes32",
          "name": "",
          "type": "bytes32"
        },
        {
          "internalType": "uint256",
          "name": "",
          "type": "uint256"
        },
        {
          "internalType": "bool",
          "name": "",
          "type": "bool"
        },
        {
          "internalType": "bool",
          "name": "",
          "type": "bool"
        }
      ],
      "stateMutability": "view",
      "type": "function"
    },
    {
      "inputs": [
        {
          "internalType": "bytes32",
          "name": "_claimId",
          "type": "bytes32"
        }
      ],
      "name": "payClaim",
      "outputs": [],
      "stateMutability": "payable",
      "type": "function"
    },
    {
      "inputs": [
        {
          "internalType": "bytes32",
          "name": "_policyId",
          "type": "bytes32"
        },
        {
          "internalType": "uint256",
          "name": "_amount",
          "type": "uint256"
        }
      ],
      "name": "submitClaim",
      "outputs": [],
      "stateMutability": "nonpayable",
      "type": "function"
    }
  ],
  "bytecode": "0x608060405234801561001057600080fd5b50610c70806100206000396000f3fe60806040526004361061004a5760003560e01c806318d9ba001461004f5780632b6778411461006b5780633719f09614610094578063c9100bcb146100bd578063eff0f592146100fe575b600080fd5b61006960048036038101906100649190610767565b61013f565b005b34801561007757600080fd5b50610092600480360381019061008d91906107ca565b6102f9565b005b3480156100a057600080fd5b506100bb60048036038101906100b69190610767565b6104b4565b005b3480156100c957600080fd5b506100e460048036038101906100df9190610767565b610638565b6040516100f5959493929190610884565b60405180910390f35b34801561010a57600080fd5b5061012560048036038101906101209190610767565b6106bc565b604051610136959493929190610884565b60405180910390f35b60008082815260200190815260200160002060030160009054906101000a900460ff166101a1576040517f08c379a000000000000000000000000000000000000000000000000000000000815260040161019890610934565b60405180910390fd5b60008082815260200190815260200160002060030160019054906101000a900460ff1615610204576040517f08c379a00000000000000000000000000000000000000000000000000000000081526004016101fb906109a0565b60405180910390fd5b600080600083815260200190815260200160002060000160009054906101000a900473ffffffffffffffffffffffffffffffffffffffff1690508073ffffffffffffffffffffffffffffffffffffffff166108fc600080858152602001908152602001600020600201549081150290604051600060405180830381858888f19350505050158015610299573d6000803e3d6000fd5b50600160008084815260200190815260200160002060030160016101000a81548160ff021916908315150217905550817f559bb300e3bf305f5ad174196d306347ba920470570a6e51245fb2d9957659cb60405160405180910390a25050565b6000811161033c576040517f08c379a000000000000000000000000000000000000000000000000000000000815260040161033390610a32565b60405180910390fd5b600033424460405160200161035393929190610abb565b6040516020818303038152906040528051906020012090506040518060a001604052803373ffffffffffffffffffffffffffffffffffffffff1681526020018481526020018381526020016000151581526020016000151581525060008083815260200190815260200160002060008201518160000160006101000a81548173ffffffffffffffffffffffffffffffffffffffff021916908373ffffffffffffffffffffffffffffffffffffffff160217905550602082015181600101556040820151816002015560608201518160030160006101000a81548160ff02191690831515021790555060808201518160030160016101000a81548160ff0219169083151502179055509050503373ffffffffffffffffffffffffffffffffffffffff16817f58e1e88c287270014b1b34c220c54d8e5feb69259793da509a6ffcf1e4face6285856040516104a7929190610af8565b60405180910390a3505050565b3373ffffffffffffffffffffffffffffffffffffffff1660008083815260200190815260200160002060000160009054906101000a900473ffffffffffffffffffffffffffffffffffffffff1673ffffffffffffffffffffffffffffffffffffffff1614610557576040517f08c379a000000000000000000000000000000000000000000000000000000000815260040161054e90610b93565b60405180910390fd5b60008082815260200190815260200160002060030160009054906101000a900460ff16156105ba576040517f08c379a00000000000000000000000000000000000000000000000000000000081526004016105b190610bff565b60405180910390fd5b600160008083815260200190815260200160002060030160006101000a81548160ff021916908315150217905550807f18ecd6d8c2fbfbfadaa27444d213869784ae2265484a2d9e31f15a909096e03e6000808481526020019081526020016000206002015460405161062d9190610c1f565b60405180910390a250565b60008060008060008060008088815260200190815260200160002090508060000160009054906101000a900473ffffffffffffffffffffffffffffffffffffffff16816001015482600201548360030160009054906101000a900460ff168460030160019054906101000a900460ff16955095509550955095505091939590929450565b60006020528060005260406000206000915090508060000160009054906101000a900473ffffffffffffffffffffffffffffffffffffffff16908060010154908060020154908060030160009054906101000a900460ff16908060030160019054906101000a900460ff16905085565b600080fd5b6000819050919050565b61074481610731565b811461074f57600080fd5b50565b6000813590506107618161073b565b92915050565b60006020828403121561077d5761077c61072c565b5b600061078b84828501610752565b91505092915050565b6000819050919050565b6107a781610794565b81146107b257600080fd5b50565b6000813590506107c48161079e565b92915050565b600080604083850312156107e1576107e061072c565b5b60006107ef85828601610752565b9250506020610800858286016107b5565b9150509250929050565b600073ffffffffffffffffffffffffffffffffffffffff82169050919050565b60006108358261080a565b9050919050565b6108458161082a565b82525050565b61085481610731565b82525050565b61086381610794565b82525050565b60008115159050919050565b61087e81610869565b82525050565b600060a082019050610899600083018861083c565b6108a6602083018761084b565b6108b3604083018661085a565b6108c06060830185610875565b6108cd6080830184610875565b9695505050505050565b600082825260208201905092915050565b7f436c61696d206973206e6f7420617070726f7665642079657400000000000000600082015250565b600061091e6019836108d7565b9150610929826108e8565b602082019050919050565b6000602082019050818103600083015261094d81610911565b9050919050565b7f436c61696d20697320616c726561647920706169640000000000000000000000600082015250565b600061098a6015836108d7565b915061099582610954565b602082019050919050565b600060208201905081810360008301526109b98161097d565b9050919050565b7f436c61696d20616d6f756e742073686f756c642062652067726561746572207460008201527f68616e207a65726f000000000000000000000000000000000000000000000000602082015250565b6000610a1c6028836108d7565b9150610a27826109c0565b604082019050919050565b60006020820190508181036000830152610a4b81610a0f565b9050919050565b60008160601b9050919050565b6000610a6a82610a52565b9050919050565b6000610a7c82610a5f565b9050919050565b610a94610a8f8261082a565b610a71565b82525050565b6000819050919050565b610ab5610ab082610794565b610a9a565b82525050565b6000610ac78286610a83565b601482019150610ad78285610aa4565b602082019150610ae78284610aa4565b602082019150819050949350505050565b6000604082019050610b0d600083018561084b565b610b1a602083018461085a565b9392505050565b7f596f7520617265206e6f7420617574686f72697a656420746f20617070726f7660008201527f65207468697320636c61696d0000000000000000000000000000000000000000602082015250565b6000610b7d602c836108d7565b9150610b8882610b21565b604082019050919050565b60006020820190508181036000830152610bac81610b70565b9050919050565b7f436c61696d20697320616c726561647920617070726f76656400000000000000600082015250565b6000610be96019836108d7565b9150610bf482610bb3565b602082019050919050565b60006020820190508181036000830152610c1881610bdc565b9050919050565b6000602082019050610c34600083018461085a565b9291505056fea26469706673582212208d1d6aa92684fbc13fcd460954edb71a906b097a0d0783f064e80368c39def9c64736f6c63430008180033",
  "linkReferences": {},
  "deployedLinkReferences": {}
}