{
  "_format": "hh-sol-artifact-1",
  "contractName": "ClaimsContract",
  "sourceName": "contracts/ClaimsContract.sol",
  "abi": [
    {
      "inputs": [
        {
          "internalType": "address",
          "name": "_policyContractAddr",
          "type": "address"
        },
        {
          "internalType": "address",
          "name": "_medicalRecordAddr",
          "type": "address"
        }
      ],
      "stateMutability": "nonpayable",
      "type": "constructor"
    },
    {
      "anonymous": false,
      "inputs": [
        {
          "indexed": true,
          "internalType": "bytes32",
          "name": "claimId",
          "type": "bytes32"
        },
        {
          "indexed": false,
          "internalType": "uint256",
          "name": "amount",
          "type": "uint256"
        }
      ],
      "name": "ClaimApproved",
      "type": "event"
    },
    {
      "anonymous": false,
      "inputs": [
        {
          "indexed": true,
          "internalType": "bytes32",
          "name": "claimId",
          "type": "bytes32"
        },
        {
          "indexed": false,
          "internalType": "uint256",
          "name": "recordId",
          "type": "uint256"
        }
      ],
      "name": "ClaimPaid",
      "type": "event"
    },
    {
      "anonymous": false,
      "inputs": [
        {
          "indexed": true,
          "internalType": "bytes32",
          "name": "claimId",
          "type": "bytes32"
        },
        {
          "indexed": true,
          "internalType": "address",
          "name": "holder",
          "type": "address"
        },
        {
          "indexed": false,
          "internalType": "bytes32",
          "name": "policyId",
          "type": "bytes32"
        },
        {
          "indexed": false,
          "internalType": "uint256",
          "name": "amount",
          "type": "uint256"
        }
      ],
      "name": "ClaimSubmitted",
      "type": "event"
    },
    {
      "anonymous": false,
      "inputs": [
        {
          "components": [
            {
              "internalType": "bytes32",
              "name": "_id",
              "type": "bytes32"
            },
            {
              "internalType": "address",
              "name": "holder",
              "type": "address"
            },
            {
              "internalType": "address",
              "name": "insurerAddr",
              "type": "address"
            },
            {
              "internalType": "string",
              "name": "typeOfTreatment",
              "type": "string"
            },
            {
              "internalType": "bytes32",
              "name": "policyId",
              "type": "bytes32"
            },
            {
              "internalType": "uint256",
              "name": "recordId",
              "type": "uint256"
            },
            {
              "internalType": "uint256",
              "name": "amount",
              "type": "uint256"
            },
            {
              "internalType": "uint256",
              "name": "date",
              "type": "uint256"
            },
            {
              "internalType": "bool",
              "name": "isApproved",
              "type": "bool"
            },
            {
              "internalType": "bool",
              "name": "isRejected",
              "type": "bool"
            },
            {
              "internalType": "bool",
              "name": "isPaid",
              "type": "bool"
            }
          ],
          "indexed": false,
          "internalType": "struct ClaimsContract.Claim[]",
          "name": "insurerClaims",
          "type": "tuple[]"
        }
      ],
      "name": "ReturnInsurerClaims",
      "type": "event"
    },
    {
      "anonymous": false,
      "inputs": [
        {
          "components": [
            {
              "internalType": "bytes32",
              "name": "_id",
              "type": "bytes32"
            },
            {
              "internalType": "address",
              "name": "holder",
              "type": "address"
            },
            {
              "internalType": "address",
              "name": "insurerAddr",
              "type": "address"
            },
            {
              "internalType": "string",
              "name": "typeOfTreatment",
              "type": "string"
            },
            {
              "internalType": "bytes32",
              "name": "policyId",
              "type": "bytes32"
            },
            {
              "internalType": "uint256",
              "name": "recordId",
              "type": "uint256"
            },
            {
              "internalType": "uint256",
              "name": "amount",
              "type": "uint256"
            },
            {
              "internalType": "uint256",
              "name": "date",
              "type": "uint256"
            },
            {
              "internalType": "bool",
              "name": "isApproved",
              "type": "bool"
            },
            {
              "internalType": "bool",
              "name": "isRejected",
              "type": "bool"
            },
            {
              "internalType": "bool",
              "name": "isPaid",
              "type": "bool"
            }
          ],
          "indexed": false,
          "internalType": "struct ClaimsContract.Claim[]",
          "name": "userClaims",
          "type": "tuple[]"
        }
      ],
      "name": "ReturnUserClaims",
      "type": "event"
    },
    {
      "inputs": [],
      "name": "MContract",
      "outputs": [
        {
          "internalType": "contract MedicalRecordInterface",
          "name": "",
          "type": "address"
        }
      ],
      "stateMutability": "view",
      "type": "function"
    },
    {
      "inputs": [],
      "name": "PContract",
      "outputs": [
        {
          "internalType": "contract PolicyContractInterFace",
          "name": "",
          "type": "address"
        }
      ],
      "stateMutability": "view",
      "type": "function"
    },
    {
      "inputs": [
        {
          "internalType": "bytes32",
          "name": "",
          "type": "bytes32"
        }
      ],
      "name": "claims",
      "outputs": [
        {
          "internalType": "bytes32",
          "name": "_id",
          "type": "bytes32"
        },
        {
          "internalType": "address",
          "name": "holder",
          "type": "address"
        },
        {
          "internalType": "address",
          "name": "insurerAddr",
          "type": "address"
        },
        {
          "internalType": "string",
          "name": "typeOfTreatment",
          "type": "string"
        },
        {
          "internalType": "bytes32",
          "name": "policyId",
          "type": "bytes32"
        },
        {
          "internalType": "uint256",
          "name": "recordId",
          "type": "uint256"
        },
        {
          "internalType": "uint256",
          "name": "amount",
          "type": "uint256"
        },
        {
          "internalType": "uint256",
          "name": "date",
          "type": "uint256"
        },
        {
          "internalType": "bool",
          "name": "isApproved",
          "type": "bool"
        },
        {
          "internalType": "bool",
          "name": "isRejected",
          "type": "bool"
        },
        {
          "internalType": "bool",
          "name": "isPaid",
          "type": "bool"
        }
      ],
      "stateMutability": "view",
      "type": "function"
    },
    {
      "inputs": [
        {
          "internalType": "bytes32",
          "name": "_claimId",
          "type": "bytes32"
        }
      ],
      "name": "getClaim",
      "outputs": [
        {
          "components": [
            {
              "internalType": "bytes32",
              "name": "_id",
              "type": "bytes32"
            },
            {
              "internalType": "address",
              "name": "holder",
              "type": "address"
            },
            {
              "internalType": "address",
              "name": "insurerAddr",
              "type": "address"
            },
            {
              "internalType": "string",
              "name": "typeOfTreatment",
              "type": "string"
            },
            {
              "internalType": "bytes32",
              "name": "policyId",
              "type": "bytes32"
            },
            {
              "internalType": "uint256",
              "name": "recordId",
              "type": "uint256"
            },
            {
              "internalType": "uint256",
              "name": "amount",
              "type": "uint256"
            },
            {
              "internalType": "uint256",
              "name": "date",
              "type": "uint256"
            },
            {
              "internalType": "bool",
              "name": "isApproved",
              "type": "bool"
            },
            {
              "internalType": "bool",
              "name": "isRejected",
              "type": "bool"
            },
            {
              "internalType": "bool",
              "name": "isPaid",
              "type": "bool"
            }
          ],
          "internalType": "struct ClaimsContract.Claim",
          "name": "userClaim",
          "type": "tuple"
        }
      ],
      "stateMutability": "view",
      "type": "function"
    },
    {
      "inputs": [
        {
          "internalType": "address",
          "name": "_insurerAddr",
          "type": "address"
        }
      ],
      "name": "getInsurerClaims",
      "outputs": [
        {
          "components": [
            {
              "internalType": "bytes32",
              "name": "_id",
              "type": "bytes32"
            },
            {
              "internalType": "address",
              "name": "holder",
              "type": "address"
            },
            {
              "internalType": "address",
              "name": "insurerAddr",
              "type": "address"
            },
            {
              "internalType": "string",
              "name": "typeOfTreatment",
              "type": "string"
            },
            {
              "internalType": "bytes32",
              "name": "policyId",
              "type": "bytes32"
            },
            {
              "internalType": "uint256",
              "name": "recordId",
              "type": "uint256"
            },
            {
              "internalType": "uint256",
              "name": "amount",
              "type": "uint256"
            },
            {
              "internalType": "uint256",
              "name": "date",
              "type": "uint256"
            },
            {
              "internalType": "bool",
              "name": "isApproved",
              "type": "bool"
            },
            {
              "internalType": "bool",
              "name": "isRejected",
              "type": "bool"
            },
            {
              "internalType": "bool",
              "name": "isPaid",
              "type": "bool"
            }
          ],
          "internalType": "struct ClaimsContract.Claim[]",
          "name": "InsurerClaims",
          "type": "tuple[]"
        }
      ],
      "stateMutability": "nonpayable",
      "type": "function"
    },
    {
      "inputs": [
        {
          "internalType": "address",
          "name": "_userAddr",
          "type": "address"
        }
      ],
      "name": "getUserClaims",
      "outputs": [
        {
          "components": [
            {
              "internalType": "bytes32",
              "name": "_id",
              "type": "bytes32"
            },
            {
              "internalType": "address",
              "name": "holder",
              "type": "address"
            },
            {
              "internalType": "address",
              "name": "insurerAddr",
              "type": "address"
            },
            {
              "internalType": "string",
              "name": "typeOfTreatment",
              "type": "string"
            },
            {
              "internalType": "bytes32",
              "name": "policyId",
              "type": "bytes32"
            },
            {
              "internalType": "uint256",
              "name": "recordId",
              "type": "uint256"
            },
            {
              "internalType": "uint256",
              "name": "amount",
              "type": "uint256"
            },
            {
              "internalType": "uint256",
              "name": "date",
              "type": "uint256"
            },
            {
              "internalType": "bool",
              "name": "isApproved",
              "type": "bool"
            },
            {
              "internalType": "bool",
              "name": "isRejected",
              "type": "bool"
            },
            {
              "internalType": "bool",
              "name": "isPaid",
              "type": "bool"
            }
          ],
          "internalType": "struct ClaimsContract.Claim[]",
          "name": "UserClaims",
          "type": "tuple[]"
        }
      ],
      "stateMutability": "nonpayable",
      "type": "function"
    },
    {
      "inputs": [
        {
          "internalType": "address",
          "name": "",
          "type": "address"
        },
        {
          "internalType": "uint256",
          "name": "",
          "type": "uint256"
        }
      ],
      "name": "insurerClaims",
      "outputs": [
        {
          "internalType": "bytes32",
          "name": "",
          "type": "bytes32"
        }
      ],
      "stateMutability": "view",
      "type": "function"
    },
    {
      "inputs": [
        {
          "internalType": "bytes32",
          "name": "_claimId",
          "type": "bytes32"
        }
      ],
      "name": "payClaim",
      "outputs": [],
      "stateMutability": "nonpayable",
      "type": "function"
    },
    {
      "inputs": [
        {
          "internalType": "bytes32",
          "name": "_claimId",
          "type": "bytes32"
        }
      ],
      "name": "processClaim",
      "outputs": [],
      "stateMutability": "nonpayable",
      "type": "function"
    },
    {
      "inputs": [
        {
          "internalType": "address",
          "name": "_insurerAddr",
          "type": "address"
        },
        {
          "internalType": "bytes32",
          "name": "_policyId",
          "type": "bytes32"
        },
        {
          "internalType": "uint256",
          "name": "_recordId",
          "type": "uint256"
        },
        {
          "internalType": "uint256",
          "name": "_amount",
          "type": "uint256"
        },
        {
          "internalType": "string",
          "name": "_typeOfTreatment",
          "type": "string"
        }
      ],
      "name": "submitClaim",
      "outputs": [],
      "stateMutability": "nonpayable",
      "type": "function"
    },
    {
      "inputs": [
        {
          "internalType": "address",
          "name": "",
          "type": "address"
        },
        {
          "internalType": "uint256",
          "name": "",
          "type": "uint256"
        }
      ],
      "name": "userClaims",
      "outputs": [
        {
          "internalType": "bytes32",
          "name": "",
          "type": "bytes32"
        }
      ],
      "stateMutability": "view",
      "type": "function"
    }
  ],
  "bytecode": "0x60806040523480156200001157600080fd5b506040516200322f3803806200322f83398181016040528101906200003791906200012b565b81600360006101000a81548173ffffffffffffffffffffffffffffffffffffffff021916908373ffffffffffffffffffffffffffffffffffffffff16021790555080600460006101000a81548173ffffffffffffffffffffffffffffffffffffffff021916908373ffffffffffffffffffffffffffffffffffffffff160217905550505062000172565b600080fd5b600073ffffffffffffffffffffffffffffffffffffffff82169050919050565b6000620000f382620000c6565b9050919050565b6200010581620000e6565b81146200011157600080fd5b50565b6000815190506200012581620000fa565b92915050565b60008060408385031215620001455762000144620000c1565b5b6000620001558582860162000114565b9250506020620001688582860162000114565b9150509250929050565b6130ad80620001826000396000f3fe608060405234801561001057600080fd5b50600436106100a95760003560e01c8063b5a3848011610071578063b5a3848014610166578063c9100bcb14610182578063ca9748ea146101b2578063cd10b92e146101e2578063def4f13d14610212578063eff0f5921461022e576100a9565b806318d9ba00146100ae57806320c8bb4b146100ca5780632b84b64b146100fa5780635958c399146101185780637bcb4a6414610136575b600080fd5b6100c860048036038101906100c391906117c1565b610268565b005b6100e460048036038101906100df9190611882565b6104fa565b6040516100f191906118d1565b60405180910390f35b61010261052b565b60405161010f919061194b565b60405180910390f35b610120610551565b60405161012d9190611987565b60405180910390f35b610150600480360381019061014b91906119a2565b610577565b60405161015d9190611c58565b60405180910390f35b610180600480360381019061017b91906117c1565b610785565b005b61019c600480360381019061019791906117c1565b610c71565b6040516101a99190611d69565b60405180910390f35b6101cc60048036038101906101c79190611882565b610f09565b6040516101d991906118d1565b60405180910390f35b6101fc60048036038101906101f791906119a2565b610f3a565b6040516102099190611c58565b60405180910390f35b61022c60048036038101906102279190611ec0565b611148565b005b610248600480360381019061024391906117c1565b61159c565b60405161025f9b9a99989796959493929190611fce565b60405180910390f35b60008082815260200190815260200160002060020160009054906101000a900473ffffffffffffffffffffffffffffffffffffffff1673ffffffffffffffffffffffffffffffffffffffff163373ffffffffffffffffffffffffffffffffffffffff161461030b576040517f08c379a0000000000000000000000000000000000000000000000000000000008152600401610302906120cc565b60405180910390fd5b60008082815260200190815260200160002060080160009054906101000a900460ff1661036d576040517f08c379a000000000000000000000000000000000000000000000000000000000815260040161036490612138565b60405180910390fd5b60008082815260200190815260200160002060080160029054906101000a900460ff16156103d0576040517f08c379a00000000000000000000000000000000000000000000000000000000081526004016103c7906121a4565b60405180910390fd5b600160008083815260200190815260200160002060080160026101000a81548160ff0219169083151502179055506000600460009054906101000a900473ffffffffffffffffffffffffffffffffffffffff1673ffffffffffffffffffffffffffffffffffffffff1663e75b8b23600080858152602001908152602001600020600501546040518263ffffffff1660e01b815260040161047091906121c4565b6000604051808303816000875af115801561048f573d6000803e3d6000fd5b505050506040513d6000823e3d601f19601f820116820180604052508101906104b8919061255f565b9050817fd5f55ff5d4fb61f42bbcd23202076cc1c7840f2d2813ee48a5f6523d40cba7ef82600001516040516104ee91906121c4565b60405180910390a25050565b6002602052816000526040600020818154811061051657600080fd5b90600052602060002001600091509150505481565b600360009054906101000a900473ffffffffffffffffffffffffffffffffffffffff1681565b600460009054906101000a900473ffffffffffffffffffffffffffffffffffffffff1681565b60606000600160008473ffffffffffffffffffffffffffffffffffffffff1673ffffffffffffffffffffffffffffffffffffffff16815260200190815260200160002080549050116105fe576040517f08c379a00000000000000000000000000000000000000000000000000000000081526004016105f5906125f4565b60405180910390fd5b6000600160008473ffffffffffffffffffffffffffffffffffffffff1673ffffffffffffffffffffffffffffffffffffffff16815260200190815260200160002080548060200260200160405190810160405280929190818152602001828054801561068957602002820191906000526020600020905b815481526020019060010190808311610675575b505050505090506000815167ffffffffffffffff8111156106ad576106ac611d95565b5b6040519080825280602002602001820160405280156106e657816020015b6106d36116e5565b8152602001906001900390816106cb5790505b50905060005b82518110156107435761071883828151811061070b5761070a612614565b5b6020026020010151610c71565b82828151811061072b5761072a612614565b5b602002602001018190525080806001019150506106ec565b507fe43277bcc1c5414dd7030e7f91625ec328b52a10816b62730469a62ba8af94ba816040516107739190611c58565b60405180910390a18092505050919050565b60008082815260200190815260200160002060020160009054906101000a900473ffffffffffffffffffffffffffffffffffffffff1673ffffffffffffffffffffffffffffffffffffffff163373ffffffffffffffffffffffffffffffffffffffff1614610828576040517f08c379a000000000000000000000000000000000000000000000000000000000815260040161081f906120cc565b60405180910390fd5b60008082815260200190815260200160002060080160009054906101000a900460ff161561088b576040517f08c379a00000000000000000000000000000000000000000000000000000000081526004016108829061268f565b60405180910390fd5b60008082815260200190815260200160002060080160019054906101000a900460ff16156108ee576040517f08c379a00000000000000000000000000000000000000000000000000000000081526004016108e5906126fb565b60405180910390fd5b6000600360009054906101000a900473ffffffffffffffffffffffffffffffffffffffff1673ffffffffffffffffffffffffffffffffffffffff1663a3f685f9600080858152602001908152602001600020600401546040518263ffffffff1660e01b815260040161096091906118d1565b600060405180830381865afa15801561097d573d6000803e3d6000fd5b505050506040513d6000823e3d601f19601f820116820180604052508101906109a6919061285e565b90506000600460009054906101000a900473ffffffffffffffffffffffffffffffffffffffff1673ffffffffffffffffffffffffffffffffffffffff1663e75b8b23600080868152602001908152602001600020600501546040518263ffffffff1660e01b8152600401610a1a91906121c4565b6000604051808303816000875af1158015610a39573d6000803e3d6000fd5b505050506040513d6000823e3d601f19601f82011682018060405250810190610a62919061255f565b90508160c00151610aa8576040517f08c379a0000000000000000000000000000000000000000000000000000000008152600401610a9f906128f3565b60405180910390fd5b8160e00151600080858152602001908152602001600020600601541115610b04576040517f08c379a0000000000000000000000000000000000000000000000000000000008152600401610afb9061295f565b60405180910390fd5b816101200151604051602001610b1a91906129bb565b60405160208183030381529060405280519060200120600080858152602001908152602001600020600301604051602001610b559190612aca565b6040516020818303038152906040528051906020012014610bab576040517f08c379a0000000000000000000000000000000000000000000000000000000008152600401610ba290612b53565b60405180910390fd5b80610160015115610bf1576040517f08c379a0000000000000000000000000000000000000000000000000000000008152600401610be890612bbf565b60405180910390fd5b600160008085815260200190815260200160002060080160006101000a81548160ff021916908315150217905550827f18ecd6d8c2fbfbfadaa27444d213869784ae2265484a2d9e31f15a909096e03e60008086815260200190815260200160002060060154604051610c6491906121c4565b60405180910390a2505050565b610c796116e5565b600073ffffffffffffffffffffffffffffffffffffffff1660008084815260200190815260200160002060010160009054906101000a900473ffffffffffffffffffffffffffffffffffffffff1673ffffffffffffffffffffffffffffffffffffffff1603610d1d576040517f08c379a0000000000000000000000000000000000000000000000000000000008152600401610d1490612c2b565b60405180910390fd5b600080600084815260200190815260200160002090508060405180610160016040529081600082015481526020016001820160009054906101000a900473ffffffffffffffffffffffffffffffffffffffff1673ffffffffffffffffffffffffffffffffffffffff1673ffffffffffffffffffffffffffffffffffffffff1681526020016002820160009054906101000a900473ffffffffffffffffffffffffffffffffffffffff1673ffffffffffffffffffffffffffffffffffffffff1673ffffffffffffffffffffffffffffffffffffffff168152602001600382018054610e0690612a01565b80601f0160208091040260200160405190810160405280929190818152602001828054610e3290612a01565b8015610e7f5780601f10610e5457610100808354040283529160200191610e7f565b820191906000526020600020905b815481529060010190602001808311610e6257829003601f168201915b50505050508152602001600482015481526020016005820154815260200160068201548152602001600782015481526020016008820160009054906101000a900460ff161515151581526020016008820160019054906101000a900460ff161515151581526020016008820160029054906101000a900460ff161515151581525050915050919050565b60016020528160005260406000208181548110610f2557600080fd5b90600052602060002001600091509150505481565b60606000600260008473ffffffffffffffffffffffffffffffffffffffff1673ffffffffffffffffffffffffffffffffffffffff1681526020019081526020016000208054905011610fc1576040517f08c379a0000000000000000000000000000000000000000000000000000000008152600401610fb890612c97565b60405180910390fd5b6000600260008473ffffffffffffffffffffffffffffffffffffffff1673ffffffffffffffffffffffffffffffffffffffff16815260200190815260200160002080548060200260200160405190810160405280929190818152602001828054801561104c57602002820191906000526020600020905b815481526020019060010190808311611038575b505050505090506000815167ffffffffffffffff8111156110705761106f611d95565b5b6040519080825280602002602001820160405280156110a957816020015b6110966116e5565b81526020019060019003908161108e5790505b50905060005b8251811015611106576110db8382815181106110ce576110cd612614565b5b6020026020010151610c71565b8282815181106110ee576110ed612614565b5b602002602001018190525080806001019150506110af565b507f916a90d03cde2ab261437c6ece843d0faad47e9af18a80cb3729df63901a0a0a816040516111369190611c58565b60405180910390a18092505050919050565b6000600460009054906101000a900473ffffffffffffffffffffffffffffffffffffffff1673ffffffffffffffffffffffffffffffffffffffff1663e75b8b23856040518263ffffffff1660e01b81526004016111a591906121c4565b6000604051808303816000875af11580156111c4573d6000803e3d6000fd5b505050506040513d6000823e3d601f19601f820116820180604052508101906111ed919061255f565b905080610160015115611235576040517f08c379a000000000000000000000000000000000000000000000000000000000815260040161122c90612bbf565b60405180910390fd5b60008311611278576040517f08c379a000000000000000000000000000000000000000000000000000000000815260040161126f90612d29565b60405180910390fd5b600033424460405160200161128f93929190612db2565b6040516020818303038152906040528051906020012090506040518061016001604052808281526020013373ffffffffffffffffffffffffffffffffffffffff1681526020018873ffffffffffffffffffffffffffffffffffffffff168152602001848152602001878152602001868152602001858152602001428152602001600015158152602001600015158152602001600015158152506000808381526020019081526020016000206000820151816000015560208201518160010160006101000a81548173ffffffffffffffffffffffffffffffffffffffff021916908373ffffffffffffffffffffffffffffffffffffffff16021790555060408201518160020160006101000a81548173ffffffffffffffffffffffffffffffffffffffff021916908373ffffffffffffffffffffffffffffffffffffffff16021790555060608201518160030190816113e79190612f7c565b506080820151816004015560a0820151816005015560c0820151816006015560e082015181600701556101008201518160080160006101000a81548160ff0219169083151502179055506101208201518160080160016101000a81548160ff0219169083151502179055506101408201518160080160026101000a81548160ff021916908315150217905550905050600160003373ffffffffffffffffffffffffffffffffffffffff1673ffffffffffffffffffffffffffffffffffffffff168152602001908152602001600020819080600181540180825580915050600190039060005260206000200160009091909190915055600260008873ffffffffffffffffffffffffffffffffffffffff1673ffffffffffffffffffffffffffffffffffffffff1681526020019081526020016000208190806001815401808255809150506001900390600052602060002001600090919091909150553373ffffffffffffffffffffffffffffffffffffffff16817f58e1e88c287270014b1b34c220c54d8e5feb69259793da509a6ffcf1e4face62888760405161158b92919061304e565b60405180910390a350505050505050565b60006020528060005260406000206000915090508060000154908060010160009054906101000a900473ffffffffffffffffffffffffffffffffffffffff16908060020160009054906101000a900473ffffffffffffffffffffffffffffffffffffffff169080600301805461161190612a01565b80601f016020809104026020016040519081016040528092919081815260200182805461163d90612a01565b801561168a5780601f1061165f5761010080835404028352916020019161168a565b820191906000526020600020905b81548152906001019060200180831161166d57829003601f168201915b5050505050908060040154908060050154908060060154908060070154908060080160009054906101000a900460ff16908060080160019054906101000a900460ff16908060080160029054906101000a900460ff1690508b565b60405180610160016040528060008019168152602001600073ffffffffffffffffffffffffffffffffffffffff168152602001600073ffffffffffffffffffffffffffffffffffffffff16815260200160608152602001600080191681526020016000815260200160008152602001600081526020016000151581526020016000151581526020016000151581525090565b6000604051905090565b600080fd5b600080fd5b6000819050919050565b61179e8161178b565b81146117a957600080fd5b50565b6000813590506117bb81611795565b92915050565b6000602082840312156117d7576117d6611781565b5b60006117e5848285016117ac565b91505092915050565b600073ffffffffffffffffffffffffffffffffffffffff82169050919050565b6000611819826117ee565b9050919050565b6118298161180e565b811461183457600080fd5b50565b60008135905061184681611820565b92915050565b6000819050919050565b61185f8161184c565b811461186a57600080fd5b50565b60008135905061187c81611856565b92915050565b6000806040838503121561189957611898611781565b5b60006118a785828601611837565b92505060206118b88582860161186d565b9150509250929050565b6118cb8161178b565b82525050565b60006020820190506118e660008301846118c2565b92915050565b6000819050919050565b600061191161190c611907846117ee565b6118ec565b6117ee565b9050919050565b6000611923826118f6565b9050919050565b600061193582611918565b9050919050565b6119458161192a565b82525050565b6000602082019050611960600083018461193c565b92915050565b600061197182611918565b9050919050565b61198181611966565b82525050565b600060208201905061199c6000830184611978565b92915050565b6000602082840312156119b8576119b7611781565b5b60006119c684828501611837565b91505092915050565b600081519050919050565b600082825260208201905092915050565b6000819050602082019050919050565b611a048161178b565b82525050565b611a138161180e565b82525050565b600081519050919050565b600082825260208201905092915050565b60005b83811015611a53578082015181840152602081019050611a38565b60008484015250505050565b6000601f19601f8301169050919050565b6000611a7b82611a19565b611a858185611a24565b9350611a95818560208601611a35565b611a9e81611a5f565b840191505092915050565b611ab28161184c565b82525050565b60008115159050919050565b611acd81611ab8565b82525050565b600061016083016000830151611aec60008601826119fb565b506020830151611aff6020860182611a0a565b506040830151611b126040860182611a0a565b5060608301518482036060860152611b2a8282611a70565b9150506080830151611b3f60808601826119fb565b5060a0830151611b5260a0860182611aa9565b5060c0830151611b6560c0860182611aa9565b5060e0830151611b7860e0860182611aa9565b50610100830151611b8d610100860182611ac4565b50610120830151611ba2610120860182611ac4565b50610140830151611bb7610140860182611ac4565b508091505092915050565b6000611bce8383611ad3565b905092915050565b6000602082019050919050565b6000611bee826119cf565b611bf881856119da565b935083602082028501611c0a856119eb565b8060005b85811015611c465784840389528151611c278582611bc2565b9450611c3283611bd6565b925060208a01995050600181019050611c0e565b50829750879550505050505092915050565b60006020820190508181036000830152611c728184611be3565b905092915050565b600061016083016000830151611c9360008601826119fb565b506020830151611ca66020860182611a0a565b506040830151611cb96040860182611a0a565b5060608301518482036060860152611cd18282611a70565b9150506080830151611ce660808601826119fb565b5060a0830151611cf960a0860182611aa9565b5060c0830151611d0c60c0860182611aa9565b5060e0830151611d1f60e0860182611aa9565b50610100830151611d34610100860182611ac4565b50610120830151611d49610120860182611ac4565b50610140830151611d5e610140860182611ac4565b508091505092915050565b60006020820190508181036000830152611d838184611c7a565b905092915050565b600080fd5b600080fd5b7f4e487b7100000000000000000000000000000000000000000000000000000000600052604160045260246000fd5b611dcd82611a5f565b810181811067ffffffffffffffff82111715611dec57611deb611d95565b5b80604052505050565b6000611dff611777565b9050611e0b8282611dc4565b919050565b600067ffffffffffffffff821115611e2b57611e2a611d95565b5b611e3482611a5f565b9050602081019050919050565b82818337600083830152505050565b6000611e63611e5e84611e10565b611df5565b905082815260208101848484011115611e7f57611e7e611d90565b5b611e8a848285611e41565b509392505050565b600082601f830112611ea757611ea6611d8b565b5b8135611eb7848260208601611e50565b91505092915050565b600080600080600060a08688031215611edc57611edb611781565b5b6000611eea88828901611837565b9550506020611efb888289016117ac565b9450506040611f0c8882890161186d565b9350506060611f1d8882890161186d565b925050608086013567ffffffffffffffff811115611f3e57611f3d611786565b5b611f4a88828901611e92565b9150509295509295909350565b611f608161180e565b82525050565b600082825260208201905092915050565b6000611f8282611a19565b611f8c8185611f66565b9350611f9c818560208601611a35565b611fa581611a5f565b840191505092915050565b611fb98161184c565b82525050565b611fc881611ab8565b82525050565b600061016082019050611fe4600083018e6118c2565b611ff1602083018d611f57565b611ffe604083018c611f57565b8181036060830152612010818b611f77565b905061201f608083018a6118c2565b61202c60a0830189611fb0565b61203960c0830188611fb0565b61204660e0830187611fb0565b612054610100830186611fbf565b612062610120830185611fbf565b612070610140830184611fbf565b9c9b505050505050505050505050565b7f556e617574686f72697a65642061636365737300000000000000000000000000600082015250565b60006120b6601383611f66565b91506120c182612080565b602082019050919050565b600060208201905081810360008301526120e5816120a9565b9050919050565b7f436c61696d206973206e6f7420617070726f7665642079657400000000000000600082015250565b6000612122601983611f66565b915061212d826120ec565b602082019050919050565b6000602082019050818103600083015261215181612115565b9050919050565b7f436c61696d20697320616c726561647920706169640000000000000000000000600082015250565b600061218e601583611f66565b915061219982612158565b602082019050919050565b600060208201905081810360008301526121bd81612181565b9050919050565b60006020820190506121d96000830184611fb0565b92915050565b600080fd5b600080fd5b6000815190506121f881611856565b92915050565b600061221161220c84611e10565b611df5565b90508281526020810184848401111561222d5761222c611d90565b5b612238848285611a35565b509392505050565b600082601f83011261225557612254611d8b565b5b81516122658482602086016121fe565b91505092915050565b60008151905061227d81611820565b92915050565b600067ffffffffffffffff82111561229e5761229d611d95565b5b602082029050602081019050919050565b600080fd5b60006122c76122c284612283565b611df5565b905080838252602082019050602084028301858111156122ea576122e96122af565b5b835b8181101561233157805167ffffffffffffffff81111561230f5761230e611d8b565b5b80860161231c8982612240565b855260208501945050506020810190506122ec565b5050509392505050565b600082601f8301126123505761234f611d8b565b5b81516123608482602086016122b4565b91505092915050565b61237281611ab8565b811461237d57600080fd5b50565b60008151905061238f81612369565b92915050565b600061018082840312156123ac576123ab6121df565b5b6123b7610180611df5565b905060006123c7848285016121e9565b600083015250602082015167ffffffffffffffff8111156123eb576123ea6121e4565b5b6123f784828501612240565b602083015250604061240b8482850161226e565b604083015250606061241f8482850161226e565b606083015250608082015167ffffffffffffffff811115612443576124426121e4565b5b61244f84828501612240565b60808301525060a082015167ffffffffffffffff811115612473576124726121e4565b5b61247f84828501612240565b60a08301525060c082015167ffffffffffffffff8111156124a3576124a26121e4565b5b6124af8482850161233b565b60c08301525060e06124c3848285016121e9565b60e08301525061010082015167ffffffffffffffff8111156124e8576124e76121e4565b5b6124f484828501612240565b6101008301525061012082015167ffffffffffffffff81111561251a576125196121e4565b5b61252684828501612240565b6101208301525061014061253c848285016121e9565b6101408301525061016061255284828501612380565b6101608301525092915050565b60006020828403121561257557612574611781565b5b600082015167ffffffffffffffff81111561259357612592611786565b5b61259f84828501612395565b91505092915050565b7f5573657220636c61696d73206e6f742070726573656e74000000000000000000600082015250565b60006125de601783611f66565b91506125e9826125a8565b602082019050919050565b6000602082019050818103600083015261260d816125d1565b9050919050565b7f4e487b7100000000000000000000000000000000000000000000000000000000600052603260045260246000fd5b7f436c61696d20697320616c726561647920617070726f7665642e000000000000600082015250565b6000612679601a83611f66565b915061268482612643565b602082019050919050565b600060208201905081810360008301526126a88161266c565b9050919050565b7f436c61696d20697320616c72656164792072656a656374656400000000000000600082015250565b60006126e5601983611f66565b91506126f0826126af565b602082019050919050565b60006020820190508181036000830152612714816126d8565b9050919050565b60008151905061272a81611795565b92915050565b60006101408284031215612747576127466121df565b5b612752610140611df5565b905060006127628482850161271b565b60008301525060206127768482850161226e565b602083015250604061278a8482850161226e565b604083015250606061279e848285016121e9565b60608301525060806127b2848285016121e9565b60808301525060a06127c6848285016121e9565b60a08301525060c06127da84828501612380565b60c08301525060e06127ee848285016121e9565b60e08301525061010082015167ffffffffffffffff811115612813576128126121e4565b5b61281f84828501612240565b6101008301525061012082015167ffffffffffffffff811115612845576128446121e4565b5b61285184828501612240565b6101208301525092915050565b60006020828403121561287457612873611781565b5b600082015167ffffffffffffffff81111561289257612891611786565b5b61289e84828501612730565b91505092915050565b7f506f6c696379206973206e6f74206163746976652e0000000000000000000000600082015250565b60006128dd601583611f66565b91506128e8826128a7565b602082019050919050565b6000602082019050818103600083015261290c816128d0565b9050919050565b7f436c61696d20616d6f756e74206578636565647320636f7665726167652e0000600082015250565b6000612949601e83611f66565b915061295482612913565b602082019050919050565b600060208201905081810360008301526129788161293c565b9050919050565b600081905092915050565b600061299582611a19565b61299f818561297f565b93506129af818560208601611a35565b80840191505092915050565b60006129c7828461298a565b915081905092915050565b7f4e487b7100000000000000000000000000000000000000000000000000000000600052602260045260246000fd5b60006002820490506001821680612a1957607f821691505b602082108103612a2c57612a2b6129d2565b5b50919050565b60008190508160005260206000209050919050565b60008154612a5481612a01565b612a5e818661297f565b94506001821660008114612a795760018114612a8e57612ac1565b60ff1983168652811515820286019350612ac1565b612a9785612a32565b60005b83811015612ab957815481890152600182019150602081019050612a9a565b838801955050505b50505092915050565b6000612ad68284612a47565b915081905092915050565b7f54726561746d656e742074797065206e6f7420636f766572656420696e20746860008201527f6520706f6c6963792e0000000000000000000000000000000000000000000000602082015250565b6000612b3d602983611f66565b9150612b4882612ae1565b604082019050919050565b60006020820190508181036000830152612b6c81612b30565b9050919050565b7f54726561746d656e7420616c726561647920636c61696d65642e000000000000600082015250565b6000612ba9601a83611f66565b9150612bb482612b73565b602082019050919050565b60006020820190508181036000830152612bd881612b9c565b9050919050565b7f436c61696d20646f6573206e6f74206578697374000000000000000000000000600082015250565b6000612c15601483611f66565b9150612c2082612bdf565b602082019050919050565b60006020820190508181036000830152612c4481612c08565b9050919050565b7f496e737572657220636c61696d73206e6f742070726573656e74000000000000600082015250565b6000612c81601a83611f66565b9150612c8c82612c4b565b602082019050919050565b60006020820190508181036000830152612cb081612c74565b9050919050565b7f436c61696d20616d6f756e742073686f756c642062652067726561746572207460008201527f68616e207a65726f000000000000000000000000000000000000000000000000602082015250565b6000612d13602883611f66565b9150612d1e82612cb7565b604082019050919050565b60006020820190508181036000830152612d4281612d06565b9050919050565b60008160601b9050919050565b6000612d6182612d49565b9050919050565b6000612d7382612d56565b9050919050565b612d8b612d868261180e565b612d68565b82525050565b6000819050919050565b612dac612da78261184c565b612d91565b82525050565b6000612dbe8286612d7a565b601482019150612dce8285612d9b565b602082019150612dde8284612d9b565b602082019150819050949350505050565b60006020601f8301049050919050565b600082821b905092915050565b600060088302612e3c7fffffffffffffffffffffffffffffffffffffffffffffffffffffffffffffffff82612dff565b612e468683612dff565b95508019841693508086168417925050509392505050565b6000612e79612e74612e6f8461184c565b6118ec565b61184c565b9050919050565b6000819050919050565b612e9383612e5e565b612ea7612e9f82612e80565b848454612e0c565b825550505050565b600090565b612ebc612eaf565b612ec7818484612e8a565b505050565b5b81811015612eeb57612ee0600082612eb4565b600181019050612ecd565b5050565b601f821115612f3057612f0181612a32565b612f0a84612def565b81016020851015612f19578190505b612f2d612f2585612def565b830182612ecc565b50505b505050565b600082821c905092915050565b6000612f5360001984600802612f35565b1980831691505092915050565b6000612f6c8383612f42565b9150826002028217905092915050565b612f8582611a19565b67ffffffffffffffff811115612f9e57612f9d611d95565b5b612fa88254612a01565b612fb3828285612eef565b600060209050601f831160018114612fe65760008415612fd4578287015190505b612fde8582612f60565b865550613046565b601f198416612ff486612a32565b60005b8281101561301c57848901518255600182019150602085019450602081019050612ff7565b868310156130395784890151613035601f891682612f42565b8355505b6001600288020188555050505b505050505050565b600060408201905061306360008301856118c2565b6130706020830184611fb0565b939250505056fea264697066735822122039d0ac6ceca1c6270665d961731f23358971e20a6187a406b4689f0e7e80fc8c64736f6c63430008180033",
  "linkReferences": {},
  "deployedLinkReferences": {}
}