{
  "_format": "hh-sol-artifact-1",
  "contractName": "FullContract",
  "sourceName": "contracts/FullContract.sol",
  "abi": [
    {
      "inputs": [],
      "name": "Identify",
      "outputs": [
        {
          "internalType": "uint256",
          "name": "val",
          "type": "uint256"
        }
      ],
      "stateMutability": "nonpayable",
      "type": "function"
    },
    {
      "inputs": [
        {
          "internalType": "uint256",
          "name": "patient_id",
          "type": "uint256"
        },
        {
          "internalType": "uint256",
          "name": "doctor_id",
          "type": "uint256"
        },
        {
          "internalType": "string",
          "name": "diagnosis",
          "type": "string"
        },
        {
          "internalType": "string",
          "name": "test_conducted",
          "type": "string"
        },
        {
          "internalType": "uint256",
          "name": "bill",
          "type": "uint256"
        },
        {
          "internalType": "string",
          "name": "date",
          "type": "string"
        },
        {
          "internalType": "string",
          "name": "medicine",
          "type": "string"
        }
      ],
      "name": "TreatPatient",
      "outputs": [
        {
          "internalType": "uint256",
          "name": "_tiid",
          "type": "uint256"
        }
      ],
      "stateMutability": "nonpayable",
      "type": "function"
    },
    {
      "inputs": [
        {
          "internalType": "uint256",
          "name": "_adharCardNumber",
          "type": "uint256"
        },
        {
          "internalType": "string",
          "name": "_Precautions",
          "type": "string"
        }
      ],
      "name": "UpdatePrecautions",
      "outputs": [],
      "stateMutability": "nonpayable",
      "type": "function"
    },
    {
      "inputs": [
        {
          "internalType": "uint256",
          "name": "chem_id",
          "type": "uint256"
        },
        {
          "internalType": "string",
          "name": "Address",
          "type": "string"
        },
        {
          "internalType": "string",
          "name": "name",
          "type": "string"
        },
        {
          "internalType": "uint256",
          "name": "phone_no",
          "type": "uint256"
        }
      ],
      "name": "addChemist",
      "outputs": [],
      "stateMutability": "nonpayable",
      "type": "function"
    },
    {
      "inputs": [
        {
          "internalType": "uint256",
          "name": "doc_id",
          "type": "uint256"
        },
        {
          "internalType": "string",
          "name": "name",
          "type": "string"
        },
        {
          "internalType": "string",
          "name": "practice_type",
          "type": "string"
        },
        {
          "internalType": "string",
          "name": "area_of_expertize",
          "type": "string"
        },
        {
          "internalType": "uint256",
          "name": "phone_no",
          "type": "uint256"
        },
        {
          "internalType": "string",
          "name": "Address",
          "type": "string"
        }
      ],
      "name": "addDoctor",
      "outputs": [],
      "stateMutability": "nonpayable",
      "type": "function"
    },
    {
      "inputs": [
        {
          "internalType": "uint256",
          "name": "p_id",
          "type": "uint256"
        },
        {
          "internalType": "string",
          "name": "_medication",
          "type": "string"
        }
      ],
      "name": "addInsuranceKeep",
      "outputs": [],
      "stateMutability": "nonpayable",
      "type": "function"
    },
    {
      "inputs": [
        {
          "internalType": "uint256",
          "name": "_companyId",
          "type": "uint256"
        },
        {
          "internalType": "string",
          "name": "_name",
          "type": "string"
        },
        {
          "internalType": "uint256",
          "name": "phone_no",
          "type": "uint256"
        }
      ],
      "name": "addInsurancecompany",
      "outputs": [],
      "stateMutability": "nonpayable",
      "type": "function"
    },
    {
      "inputs": [
        {
          "internalType": "string",
          "name": "_Medication",
          "type": "string"
        }
      ],
      "name": "addNotCoverdMedicationInInsurance",
      "outputs": [],
      "stateMutability": "nonpayable",
      "type": "function"
    },
    {
      "inputs": [
        {
          "internalType": "uint256",
          "name": "_adharCardNumber",
          "type": "uint256"
        },
        {
          "internalType": "string",
          "name": "_name",
          "type": "string"
        },
        {
          "internalType": "string",
          "name": "_addres",
          "type": "string"
        },
        {
          "internalType": "uint256",
          "name": "_phoneNo",
          "type": "uint256"
        },
        {
          "internalType": "string",
          "name": "_bloodGroup",
          "type": "string"
        },
        {
          "internalType": "uint256",
          "name": "_insuranceCompany",
          "type": "uint256"
        },
        {
          "internalType": "uint256",
          "name": "_emergencyContact",
          "type": "uint256"
        }
      ],
      "name": "addPatientInfo",
      "outputs": [],
      "stateMutability": "nonpayable",
      "type": "function"
    },
    {
      "inputs": [
        {
          "internalType": "uint256",
          "name": "p_id",
          "type": "uint256"
        }
      ],
      "name": "addToinsurance",
      "outputs": [],
      "stateMutability": "nonpayable",
      "type": "function"
    },
    {
      "inputs": [
        {
          "internalType": "uint64",
          "name": "_adharCardNumber",
          "type": "uint64"
        }
      ],
      "name": "applyForInsurance",
      "outputs": [
        {
          "internalType": "string",
          "name": "InsuranceStatus",
          "type": "string"
        }
      ],
      "stateMutability": "view",
      "type": "function"
    },
    {
      "inputs": [
        {
          "internalType": "uint256",
          "name": "p_id",
          "type": "uint256"
        },
        {
          "internalType": "uint256",
          "name": "t_id",
          "type": "uint256"
        },
        {
          "internalType": "string",
          "name": "approve",
          "type": "string"
        }
      ],
      "name": "coverInsurance",
      "outputs": [],
      "stateMutability": "nonpayable",
      "type": "function"
    },
    {
      "inputs": [
        {
          "internalType": "uint256",
          "name": "_adharCardNumber",
          "type": "uint256"
        },
        {
          "internalType": "uint256",
          "name": "OTP",
          "type": "uint256"
        }
      ],
      "name": "getDetailsOfAllTID",
      "outputs": [
        {
          "internalType": "uint256[]",
          "name": "",
          "type": "uint256[]"
        }
      ],
      "stateMutability": "nonpayable",
      "type": "function"
    },
    {
      "inputs": [
        {
          "internalType": "uint256",
          "name": "_d_id",
          "type": "uint256"
        }
      ],
      "name": "getDoctorDetails",
      "outputs": [
        {
          "internalType": "uint256",
          "name": "doc_id",
          "type": "uint256"
        },
        {
          "internalType": "string",
          "name": "name",
          "type": "string"
        },
        {
          "internalType": "string",
          "name": "practice_type",
          "type": "string"
        },
        {
          "internalType": "string",
          "name": "area_of_expertize",
          "type": "string"
        },
        {
          "internalType": "uint256",
          "name": "phone_no",
          "type": "uint256"
        },
        {
          "internalType": "string",
          "name": "Address",
          "type": "string"
        }
      ],
      "stateMutability": "view",
      "type": "function"
    },
    {
      "inputs": [
        {
          "internalType": "uint256",
          "name": "Insu_id",
          "type": "uint256"
        }
      ],
      "name": "getInsuranceCompany",
      "outputs": [
        {
          "internalType": "string",
          "name": "name",
          "type": "string"
        },
        {
          "internalType": "uint256",
          "name": "phoneNo",
          "type": "uint256"
        }
      ],
      "stateMutability": "view",
      "type": "function"
    },
    {
      "inputs": [
        {
          "internalType": "uint256",
          "name": "pid",
          "type": "uint256"
        },
        {
          "internalType": "uint256",
          "name": "_tid",
          "type": "uint256"
        }
      ],
      "name": "getMbill",
      "outputs": [
        {
          "internalType": "uint256",
          "name": "mbill",
          "type": "uint256"
        },
        {
          "internalType": "string",
          "name": "insu_status",
          "type": "string"
        }
      ],
      "stateMutability": "view",
      "type": "function"
    },
    {
      "inputs": [
        {
          "internalType": "uint256",
          "name": "pid",
          "type": "uint256"
        },
        {
          "internalType": "uint256",
          "name": "_tid",
          "type": "uint256"
        }
      ],
      "name": "getPTDetails",
      "outputs": [
        {
          "internalType": "uint256",
          "name": "p_id",
          "type": "uint256"
        },
        {
          "internalType": "uint256",
          "name": "d_id",
          "type": "uint256"
        },
        {
          "internalType": "string",
          "name": "date",
          "type": "string"
        },
        {
          "internalType": "string",
          "name": "medicine",
          "type": "string"
        }
      ],
      "stateMutability": "view",
      "type": "function"
    },
    {
      "inputs": [
        {
          "internalType": "uint256",
          "name": "_adharCardNumber",
          "type": "uint256"
        }
      ],
      "name": "getPatientInfo",
      "outputs": [
        {
          "internalType": "string",
          "name": "name",
          "type": "string"
        },
        {
          "internalType": "string",
          "name": "addres",
          "type": "string"
        },
        {
          "internalType": "uint256",
          "name": "phoneNo",
          "type": "uint256"
        },
        {
          "internalType": "string",
          "name": "bloodGroup",
          "type": "string"
        },
        {
          "internalType": "uint256",
          "name": "insuranceCompany",
          "type": "uint256"
        },
        {
          "internalType": "uint256",
          "name": "emergencyContacts",
          "type": "uint256"
        },
        {
          "internalType": "string",
          "name": "Precautions",
          "type": "string"
        }
      ],
      "stateMutability": "view",
      "type": "function"
    },
    {
      "inputs": [
        {
          "internalType": "uint256",
          "name": "pid",
          "type": "uint256"
        },
        {
          "internalType": "uint256",
          "name": "_tid",
          "type": "uint256"
        }
      ],
      "name": "getTreatmentDetails",
      "outputs": [
        {
          "internalType": "uint256",
          "name": "p_id",
          "type": "uint256"
        },
        {
          "internalType": "uint256",
          "name": "d_id",
          "type": "uint256"
        },
        {
          "internalType": "string",
          "name": "diagnosis",
          "type": "string"
        },
        {
          "internalType": "string",
          "name": "test_conducted",
          "type": "string"
        },
        {
          "internalType": "uint256",
          "name": "bill",
          "type": "uint256"
        },
        {
          "internalType": "string",
          "name": "date",
          "type": "string"
        },
        {
          "internalType": "string",
          "name": "medicine",
          "type": "string"
        }
      ],
      "stateMutability": "view",
      "type": "function"
    },
    {
      "inputs": [],
      "name": "getTreatmentIds",
      "outputs": [
        {
          "internalType": "uint256[]",
          "name": "treatmentId",
          "type": "uint256[]"
        },
        {
          "internalType": "string[]",
          "name": "treatmentDate",
          "type": "string[]"
        }
      ],
      "stateMutability": "view",
      "type": "function"
    },
    {
      "inputs": [
        {
          "internalType": "uint256",
          "name": "pid",
          "type": "uint256"
        }
      ],
      "name": "getTreatmentIdsforDr",
      "outputs": [
        {
          "internalType": "uint256[]",
          "name": "treatmentId",
          "type": "uint256[]"
        },
        {
          "internalType": "string",
          "name": "precaution",
          "type": "string"
        }
      ],
      "stateMutability": "view",
      "type": "function"
    },
    {
      "inputs": [
        {
          "internalType": "uint256",
          "name": "chem_id",
          "type": "uint256"
        }
      ],
      "name": "getchemistinfo",
      "outputs": [
        {
          "internalType": "string",
          "name": "Address",
          "type": "string"
        },
        {
          "internalType": "string",
          "name": "name",
          "type": "string"
        },
        {
          "internalType": "uint256",
          "name": "phone_no",
          "type": "uint256"
        }
      ],
      "stateMutability": "nonpayable",
      "type": "function"
    },
    {
      "inputs": [
        {
          "internalType": "uint256",
          "name": "d_id",
          "type": "uint256"
        }
      ],
      "name": "giveAccessToDoctor",
      "outputs": [
        {
          "internalType": "uint256",
          "name": "id",
          "type": "uint256"
        }
      ],
      "stateMutability": "nonpayable",
      "type": "function"
    },
    {
      "inputs": [
        {
          "internalType": "uint256",
          "name": "p_id",
          "type": "uint256"
        }
      ],
      "name": "giveMedicines",
      "outputs": [
        {
          "internalType": "string",
          "name": "",
          "type": "string"
        }
      ],
      "stateMutability": "view",
      "type": "function"
    },
    {
      "inputs": [
        {
          "internalType": "uint256",
          "name": "d_id",
          "type": "uint256"
        },
        {
          "internalType": "address",
          "name": "ms",
          "type": "address"
        }
      ],
      "name": "myfunc",
      "outputs": [],
      "stateMutability": "nonpayable",
      "type": "function"
    },
    {
      "inputs": [
        {
          "internalType": "uint256",
          "name": "pid",
          "type": "uint256"
        },
        {
          "internalType": "string",
          "name": "date",
          "type": "string"
        },
        {
          "internalType": "string",
          "name": "reason",
          "type": "string"
        }
      ],
      "name": "raiseEmergency",
      "outputs": [],
      "stateMutability": "nonpayable",
      "type": "function"
    },
    {
      "inputs": [],
      "name": "raisedEmergencyDetails",
      "outputs": [
        {
          "internalType": "uint256[]",
          "name": "emergencyLogID",
          "type": "uint256[]"
        },
        {
          "internalType": "string[]",
          "name": "emergencyDate",
          "type": "string[]"
        },
        {
          "internalType": "string[]",
          "name": "emergencyReason",
          "type": "string[]"
        }
      ],
      "stateMutability": "view",
      "type": "function"
    },
    {
      "inputs": [
        {
          "internalType": "uint256",
          "name": "p_id",
          "type": "uint256"
        }
      ],
      "name": "recApp",
      "outputs": [
        {
          "internalType": "uint256[]",
          "name": "appInsurance",
          "type": "uint256[]"
        },
        {
          "internalType": "string[]",
          "name": "iStatus",
          "type": "string[]"
        }
      ],
      "stateMutability": "view",
      "type": "function"
    },
    {
      "inputs": [
        {
          "internalType": "uint256",
          "name": "_adharCardNumber",
          "type": "uint256"
        }
      ],
      "name": "requestAccessToPatient",
      "outputs": [
        {
          "internalType": "uint256",
          "name": "",
          "type": "uint256"
        }
      ],
      "stateMutability": "nonpayable",
      "type": "function"
    },
    {
      "inputs": [
        {
          "internalType": "uint256",
          "name": "insu_id",
          "type": "uint256"
        }
      ],
      "name": "updateInsuComp",
      "outputs": [],
      "stateMutability": "nonpayable",
      "type": "function"
    },
    {
      "inputs": [
        {
          "internalType": "uint256",
          "name": "pid",
          "type": "uint256"
        },
        {
          "internalType": "uint256",
          "name": "_tid",
          "type": "uint256"
        },
        {
          "internalType": "uint256",
          "name": "amt",
          "type": "uint256"
        }
      ],
      "name": "uploadBill",
      "outputs": [],
      "stateMutability": "nonpayable",
      "type": "function"
    }
  ],
  "bytecode": "0x6080604052600160005534801561001557600080fd5b50614b2e806100256000396000f3fe608060405234801561001057600080fd5b50600436106101e55760003560e01c8063a22dbdf11161010f578063d63bb6e4116100a2578063eb7d01c211610071578063eb7d01c2146105d4578063f67fac4314610604578063fd22936d14610637578063ff4e08771461066d576101e5565b8063d63bb6e414610525578063db132d6e14610541578063e22900ff14610571578063e4837d61146105a2576101e5565b8063bf7d2c9f116100de578063bf7d2c9f1461049f578063cb96b1aa146104bb578063d0b89101146104d7578063d48b2e9214610507576101e5565b8063a22dbdf1146103f1578063a6f27faf14610422578063b47b82e114610452578063b483cefe14610483576101e5565b806353a58880116101875780637c759e91116101565780637c759e911461036757806381e86d4814610383578063828927c41461039f5780639ecb17a7146103d5576101e5565b806353a58880146102e05780635b8126df146103105780636c0559001461032c5780637699ad221461034b576101e5565b80633c8a8f29116101c35780633c8a8f29146102575780633cfc5ff914610273578063422a4363146102935780634f922abf146102af576101e5565b80632536ae31146101ea5780632a239456146102065780633b6d5b8c14610222575b600080fd5b61020460048036038101906101ff91906138f3565b61069d565b005b610220600480360381019061021b9190613962565b61083f565b005b61023c60048036038101906102379190613a5f565b610a0f565b60405161024e96959493929190613b1a565b60405180910390f35b610271600480360381019061026c9190613bf5565b610d67565b005b61027b610dc5565b60405161028a93929190613dff565b60405180910390f35b6102ad60048036038101906102a89190613e4b565b611073565b005b6102c960048036038101906102c49190613a5f565b6111e5565b6040516102d7929190613ed6565b60405180910390f35b6102fa60048036038101906102f59190613f0d565b611360565b604051610307919061401f565b60405180910390f35b61032a6004803603810190610325919061403a565b61160a565b005b610334611651565b604051610342929190614096565b60405180910390f35b610365600480360381019061036091906140cd565b611811565b005b610381600480360381019061037c9190613a5f565b6118f0565b005b61039d6004803603810190610398919061413c565b611a61565b005b6103b960048036038101906103b49190613a5f565b611ae2565b6040516103cc979695949392919061418f565b60405180910390f35b6103ef60048036038101906103ea919061421a565b611e3d565b005b61040b60048036038101906104069190613a5f565b611fda565b604051610419929190614096565b60405180910390f35b61043c60048036038101906104379190613a5f565b61219c565b60405161044991906142b9565b60405180910390f35b61046c600480360381019061046791906142db565b6122e6565b60405161047a92919061431b565b60405180910390f35b61049d6004803603810190610498919061403a565b612458565b005b6104b960048036038101906104b49190613a5f565b612567565b005b6104d560048036038101906104d0919061434b565b6125e9565b005b6104f160048036038101906104ec91906143d4565b61269a565b6040516104fe91906142b9565b60405180910390f35b61050f6129b8565b60405161051c919061401f565b60405180910390f35b61053f600480360381019061053a9190614401565b612a3d565b005b61055b60048036038101906105569190613a5f565b612c38565b604051610568919061401f565b60405180910390f35b61058b60048036038101906105869190613a5f565b612ca1565b6040516105999291906144f7565b60405180910390f35b6105bc60048036038101906105b79190613a5f565b612e07565b6040516105cb93929190614527565b60405180910390f35b6105ee60048036038101906105e99190613a5f565b612fb1565b6040516105fb919061401f565b60405180910390f35b61061e600480360381019061061991906142db565b61306e565b60405161062e949392919061456c565b60405180910390f35b610651600480360381019061064c91906142db565b6132b4565b60405161066497969594939291906145bf565b60405180910390f35b610687600480360381019061068291906142db565b613671565b604051610694919061464a565b60405180910390f35b600060016000858152602001908152602001600020541480156106ff57506000600360003373ffffffffffffffffffffffffffffffffffffffff1673ffffffffffffffffffffffffffffffffffffffff16815260200190815260200160002054145b61070857600080fd5b8160066000858152602001908152602001600020600001908161072b9190614878565b5080600660008581526020019081526020016000206001018190555082600360003373ffffffffffffffffffffffffffffffffffffffff1673ffffffffffffffffffffffffffffffffffffffff168152602001908152602001600020819055506003600160008581526020019081526020016000208190555082600360003373ffffffffffffffffffffffffffffffffffffffff1673ffffffffffffffffffffffffffffffffffffffff16815260200190815260200160002081905550336004600085815260200190815260200160002060006101000a81548173ffffffffffffffffffffffffffffffffffffffff021916908373ffffffffffffffffffffffffffffffffffffffff160217905550505050565b6000600160008881526020019081526020016000205414806108a057506000600360003373ffffffffffffffffffffffffffffffffffffffff1673ffffffffffffffffffffffffffffffffffffffff16815260200190815260200160002054145b6108a957600080fd5b6040518060c0016040528087815260200186815260200185815260200184815260200183815260200182815250600860008881526020019081526020016000206000820151816000015560208201518160010190816109089190614878565b50604082015181600201908161091e9190614878565b5060608201518160030190816109349190614878565b506080820151816004015560a08201518160050190816109549190614878565b509050506002600160008881526020019081526020016000208190555085600360003373ffffffffffffffffffffffffffffffffffffffff1673ffffffffffffffffffffffffffffffffffffffff16815260200190815260200160002081905550336004600088815260200190815260200160002060006101000a81548173ffffffffffffffffffffffffffffffffffffffff021916908373ffffffffffffffffffffffffffffffffffffffff160217905550505050505050565b60006060806060600060606000600360003373ffffffffffffffffffffffffffffffffffffffff1673ffffffffffffffffffffffffffffffffffffffff168152602001908152602001600020549050600260016000838152602001908152602001600020541480610a925750600180600083815260200190815260200160002054145b610a9b57600080fd5b6008600089815260200190815260200160002060000154600860008a8152602001908152602001600020600101600860008b8152602001908152602001600020600201600860008c8152602001908152602001600020600301600860008d815260200190815260200160002060040154600860008e8152602001908152602001600020600501848054610b2d9061469b565b80601f0160208091040260200160405190810160405280929190818152602001828054610b599061469b565b8015610ba65780601f10610b7b57610100808354040283529160200191610ba6565b820191906000526020600020905b815481529060010190602001808311610b8957829003601f168201915b50505050509450838054610bb99061469b565b80601f0160208091040260200160405190810160405280929190818152602001828054610be59061469b565b8015610c325780601f10610c0757610100808354040283529160200191610c32565b820191906000526020600020905b815481529060010190602001808311610c1557829003601f168201915b50505050509350828054610c459061469b565b80601f0160208091040260200160405190810160405280929190818152602001828054610c719061469b565b8015610cbe5780601f10610c9357610100808354040283529160200191610cbe565b820191906000526020600020905b815481529060010190602001808311610ca157829003601f168201915b50505050509250808054610cd19061469b565b80601f0160208091040260200160405190810160405280929190818152602001828054610cfd9061469b565b8015610d4a5780601f10610d1f57610100808354040283529160200191610d4a565b820191906000526020600020905b815481529060010190602001808311610d2d57829003601f168201915b505050505090509650965096509650965096505091939550919395565b8160026000600360008573ffffffffffffffffffffffffffffffffffffffff1673ffffffffffffffffffffffffffffffffffffffff168152602001908152602001600020548152602001908152602001600020600b01819055505050565b60608060606000600360003373ffffffffffffffffffffffffffffffffffffffff1673ffffffffffffffffffffffffffffffffffffffff16815260200190815260200160002054905060018060008381526020019081526020016000205414610e2d57600080fd5b60026000828152602001908152602001600020600c0160026000838152602001908152602001600020600d0160026000848152602001908152602001600020600e0182805480602002602001604051908101604052809291908181526020018280548015610eba57602002820191906000526020600020905b815481526020019060010190808311610ea6575b5050505050925081805480602002602001604051908101604052809291908181526020016000905b82821015610f8e578382906000526020600020018054610f019061469b565b80601f0160208091040260200160405190810160405280929190818152602001828054610f2d9061469b565b8015610f7a5780601f10610f4f57610100808354040283529160200191610f7a565b820191906000526020600020905b815481529060010190602001808311610f5d57829003601f168201915b505050505081526020019060010190610ee2565b50505050915080805480602002602001604051908101604052809291908181526020016000905b82821015611061578382906000526020600020018054610fd49061469b565b80601f01602080910402602001604051908101604052809291908181526020018280546110009061469b565b801561104d5780601f106110225761010080835404028352916020019161104d565b820191906000526020600020905b81548152906001019060200180831161103057829003601f168201915b505050505081526020019060010190610fb5565b50505050905093509350935050909192565b6000600360003373ffffffffffffffffffffffffffffffffffffffff1673ffffffffffffffffffffffffffffffffffffffff1681526020019081526020016000205490506001806000868152602001908152602001600020541480156110ec575060026001600083815260200190815260200160002054145b6110f557600080fd5b8060026000868152602001908152602001600020600b018190555060026000858152602001908152602001600020600c0181908060018154018082558091505060019003906000526020600020016000909190919091505560026000858152602001908152602001600020600d01839080600181540180825580915050600190039060005260206000200160009091909190915090816111959190614878565b5060026000858152602001908152602001600020600e01829080600181540180825580915050600190039060005260206000200160009091909190915090816111de9190614878565b5050505050565b6060806000600360003373ffffffffffffffffffffffffffffffffffffffff1673ffffffffffffffffffffffffffffffffffffffff168152602001908152602001600020549050600260016000838152602001908152602001600020541461124c57600080fd5b6002600085815260200190815260200160002060070160026000868152602001908152602001600020600601818054806020026020016040519081016040528092919081815260200182805480156112c357602002820191906000526020600020905b8154815260200190600101908083116112af575b505050505091508080546112d69061469b565b80601f01602080910402602001604051908101604052809291908181526020018280546113029061469b565b801561134f5780601f106113245761010080835404028352916020019161134f565b820191906000526020600020905b81548152906001019060200180831161133257829003601f168201915b505050505090509250925050915091565b600080600360003373ffffffffffffffffffffffffffffffffffffffff1673ffffffffffffffffffffffffffffffffffffffff16815260200190815260200160002054905060018060008b81526020019081526020016000205414806113fa5750600260016000838152602001908152602001600020541480156113f9575080600260008b8152602001908152602001600020600b0154145b5b61140357600080fd5b60008054905060016000546114189190614979565b600081905550896007600083815260200190815260200160002060000181905550886007600083815260200190815260200160002060010181905550876007600083815260200190815260200160002060020190816114779190614878565b508660076000838152602001908152602001600020600301908161149b9190614878565b50856007600083815260200190815260200160002060040181905550846007600083815260200190815260200160002060060190816114da9190614878565b50836007600083815260200190815260200160002060070190816114fe9190614878565b50600060076000838152602001908152602001600020600501819055506040518060400160405280600b81526020017f4e6f74206170706c6965640000000000000000000000000000000000000000008152506007600083815260200190815260200160002060090190816115739190614878565b50600260008b8152602001908152602001600020600701819080600181540180825580915050600190039060005260206000200160009091909190915055600260008b8152602001908152602001600020600a01859080600181540180825580915050600190039060005260206000200160009091909190915090816115f99190614878565b508092505050979650505050505050565b6001806000848152602001908152602001600020541461162957600080fd5b8060026000848152602001908152602001600020600601908161164c9190614878565b505050565b6060806000600360003373ffffffffffffffffffffffffffffffffffffffff1673ffffffffffffffffffffffffffffffffffffffff168152602001908152602001600020549050600180600083815260200190815260200160002054146116b757600080fd5b6002600082815260200190815260200160002060070160026000838152602001908152602001600020600a018180548060200260200160405190810160405280929190818152602001828054801561172e57602002820191906000526020600020905b81548152602001906001019080831161171a575b5050505050915080805480602002602001604051908101604052809291908181526020016000905b828210156118025783829060005260206000200180546117759061469b565b80601f01602080910402602001604051908101604052809291908181526020018280546117a19061469b565b80156117ee5780601f106117c3576101008083540402835291602001916117ee565b820191906000526020600020905b8154815290600101906020018083116117d157829003601f168201915b505050505081526020019060010190611756565b50505050905092509250509091565b806007600084815260200190815260200160002060090190816118349190614878565b5060006002600085815260200190815260200160002060090180549050905060005b818110156118e95783600260008781526020019081526020016000206008018281548110611887576118866149ad565b5b9060005260206000200154036118dc57826002600087815260200190815260200160002060090182815481106118c0576118bf6149ad565b5b9060005260206000200190816118d69190614878565b506118e9565b8080600101915050611856565b5050505050565b6000600260008381526020019081526020016000206007016001600260008581526020019081526020016000206007018054905061192e91906149dc565b8154811061193f5761193e6149ad565b5b90600052602060002001549050600260008381526020019081526020016000206008018190806001815401808255809150506001900390600052602060002001600090919091909150556002600083815260200190815260200160002060090180600181540180825580915050600190039060005260206000200160006040518060400160405280600781526020017f4170706c6965640000000000000000000000000000000000000000000000000081525090919091509081611a039190614878565b506040518060400160405280600781526020017f4170706c69656400000000000000000000000000000000000000000000000000815250600760008381526020019081526020016000206009019081611a5c9190614878565b505050565b600360003373ffffffffffffffffffffffffffffffffffffffff1673ffffffffffffffffffffffffffffffffffffffff1681526020019081526020016000205460026000858152602001908152602001600020600b015414611ac257600080fd5b806007600084815260200190815260200160002060050181905550505050565b60608060006060600080606087600360003373ffffffffffffffffffffffffffffffffffffffff1673ffffffffffffffffffffffffffffffffffffffff168152602001908152602001600020541480611b4e57506002600160008a815260200190815260200160002054145b611b5757600080fd5b60026000898152602001908152602001600020600001600260008a8152602001908152602001600020600101600260008b815260200190815260200160002060020154600260008c8152602001908152602001600020600301600260008d815260200190815260200160002060040154600260008e815260200190815260200160002060050154600260008f8152602001908152602001600020600601868054611c009061469b565b80601f0160208091040260200160405190810160405280929190818152602001828054611c2c9061469b565b8015611c795780601f10611c4e57610100808354040283529160200191611c79565b820191906000526020600020905b815481529060010190602001808311611c5c57829003601f168201915b50505050509650858054611c8c9061469b565b80601f0160208091040260200160405190810160405280929190818152602001828054611cb89061469b565b8015611d055780601f10611cda57610100808354040283529160200191611d05565b820191906000526020600020905b815481529060010190602001808311611ce857829003601f168201915b50505050509550838054611d189061469b565b80601f0160208091040260200160405190810160405280929190818152602001828054611d449061469b565b8015611d915780601f10611d6657610100808354040283529160200191611d91565b820191906000526020600020905b815481529060010190602001808311611d7457829003601f168201915b50505050509350808054611da49061469b565b80601f0160208091040260200160405190810160405280929190818152602001828054611dd09061469b565b8015611e1d5780601f10611df257610100808354040283529160200191611e1d565b820191906000526020600020905b815481529060010190602001808311611e0057829003601f168201915b505050505090509650965096509650965096509650919395979092949650565b600060016000868152602001908152602001600020541480611e9e57506000600360003373ffffffffffffffffffffffffffffffffffffffff1673ffffffffffffffffffffffffffffffffffffffff16815260200190815260200160002054145b611ea757600080fd5b83600a60008681526020019081526020016000206000018190555082600a60008681526020019081526020016000206001019081611ee59190614878565b5081600a60008681526020019081526020016000206002019081611f099190614878565b5080600a6000868152602001908152602001600020600301819055506004600160008681526020019081526020016000208190555083600360003373ffffffffffffffffffffffffffffffffffffffff1673ffffffffffffffffffffffffffffffffffffffff16815260200190815260200160002081905550336004600086815260200190815260200160002060006101000a81548173ffffffffffffffffffffffffffffffffffffffff021916908373ffffffffffffffffffffffffffffffffffffffff16021790555050505050565b6060806000600360003373ffffffffffffffffffffffffffffffffffffffff1673ffffffffffffffffffffffffffffffffffffffff168152602001908152602001600020549050600360016000838152602001908152602001600020541461204157600080fd5b6002600085815260200190815260200160002060080160026000868152602001908152602001600020600901818054806020026020016040519081016040528092919081815260200182805480156120b857602002820191906000526020600020905b8154815260200190600101908083116120a4575b5050505050915080805480602002602001604051908101604052809291908181526020016000905b8282101561218c5783829060005260206000200180546120ff9061469b565b80601f016020809104026020016040519081016040528092919081815260200182805461212b9061469b565b80156121785780601f1061214d57610100808354040283529160200191612178565b820191906000526020600020905b81548152906001019060200180831161215b57829003601f168201915b5050505050815260200190600101906120e0565b5050505090509250925050915091565b60606000600360003373ffffffffffffffffffffffffffffffffffffffff1673ffffffffffffffffffffffffffffffffffffffff168152602001908152602001600020549050600060076000600260008781526020019081526020016000206007016001600260008981526020019081526020016000206007018054905061222491906149dc565b81548110612235576122346149ad565b5b90600052602060002001548152602001908152602001600020600701805461225c9061469b565b80601f01602080910402602001604051908101604052809291908181526020018280546122889061469b565b80156122d55780601f106122aa576101008083540402835291602001916122d5565b820191906000526020600020905b8154815290600101906020018083116122b857829003601f168201915b505050505090508092505050919050565b60006060600360003373ffffffffffffffffffffffffffffffffffffffff1673ffffffffffffffffffffffffffffffffffffffff1681526020019081526020016000205460026000868152602001908152602001600020600b0154148061238b575083600360003373ffffffffffffffffffffffffffffffffffffffff1673ffffffffffffffffffffffffffffffffffffffff16815260200190815260200160002054145b61239457600080fd5b6007600084815260200190815260200160002060050154600760008581526020019081526020016000206009018080546123cd9061469b565b80601f01602080910402602001604051908101604052809291908181526020018280546123f99061469b565b80156124465780601f1061241b57610100808354040283529160200191612446565b820191906000526020600020905b81548152906001019060200180831161242957829003601f168201915b50505050509050915091509250929050565b6000600360003373ffffffffffffffffffffffffffffffffffffffff1673ffffffffffffffffffffffffffffffffffffffff16815260200190815260200160002054905060026001600083815260200190815260200160002054146124bc57600080fd5b600060026000858152602001908152602001600020600701600160026000878152602001908152602001600020600701805490506124fa91906149dc565b8154811061250b5761250a6149ad565b5b9060005260206000200154905060076000828152602001908152602001600020600801839080600181540180825580915050600190039060005260206000200160009091909190915090816125609190614878565b5050505050565b6000600360003373ffffffffffffffffffffffffffffffffffffffff1673ffffffffffffffffffffffffffffffffffffffff168152602001908152602001600020549050600180600083815260200190815260200160002054146125ca57600080fd5b8160026000838152602001908152602001600020600401819055505050565b6000600360003373ffffffffffffffffffffffffffffffffffffffff1673ffffffffffffffffffffffffffffffffffffffff168152602001908152602001600020549050600360016000838152602001908152602001600020541461264d57600080fd5b60066000828152602001908152602001600020600201829080600181540180825580915050600190039060005260206000200160009091909190915090816126959190614878565b505050565b60606000600360003373ffffffffffffffffffffffffffffffffffffffff1673ffffffffffffffffffffffffffffffffffffffff16815260200190815260200160002054905060018060008567ffffffffffffffff16815260200190815260200160002054148061272857506002600160008567ffffffffffffffff16815260200190815260200160002054145b80156127655750600180600083815260200190815260200160002054148061276457506002600160006002815260200190815260200160002054145b5b61276e57600080fd5b6000600260008567ffffffffffffffff1681526020019081526020016000206004015490506000600260008667ffffffffffffffff1681526020019081526020016000206007016001600260008867ffffffffffffffff168152602001908152602001600020600701805490506127e591906149dc565b815481106127f6576127f56149ad565b5b9060005260206000200154905060006001905060005b600660008581526020019081526020016000206002018054905081101561292e57600115158215150361292e5760005b600760008581526020019081526020016000206008018054905081101561292057600760008581526020019081526020016000206008018181548110612885576128846149ad565b5b9060005260206000200160405160200161289f9190614a94565b604051602081830303815290604052805190602001206006600087815260200190815260200160002060020183815481106128dd576128dc6149ad565b5b906000526020600020016040516020016128f79190614a94565b604051602081830303815290604052805190602001200361291b5760009250612920565b61283c565b50808060010191505061280c565b508015612976576040518060400160405280600781526020017f73756363657373000000000000000000000000000000000000000000000000008152509450505050506129b3565b6040518060400160405280600481526020017f6661696c000000000000000000000000000000000000000000000000000000008152509450505050505b919050565b600080600360003373ffffffffffffffffffffffffffffffffffffffff1673ffffffffffffffffffffffffffffffffffffffff1681526020019081526020016000205490506000600160008381526020019081526020016000205403612a22576000915050612a3a565b60016000828152602001908152602001600020549150505b90565b60006001600089815260200190815260200160002054148015612a9f57506000600360003373ffffffffffffffffffffffffffffffffffffffff1673ffffffffffffffffffffffffffffffffffffffff16815260200190815260200160002054145b612aa857600080fd5b85600260008981526020019081526020016000206000019081612acb9190614878565b5084600260008981526020019081526020016000206001019081612aef9190614878565b5083600260008981526020019081526020016000206002018190555082600260008981526020019081526020016000206003019081612b2e9190614878565b50816002600089815260200190815260200160002060040181905550806002600089815260200190815260200160002060050181905550600060026000898152602001908152602001600020600b018190555060018060008981526020019081526020016000208190555086600360003373ffffffffffffffffffffffffffffffffffffffff1673ffffffffffffffffffffffffffffffffffffffff16815260200190815260200160002081905550336004600089815260200190815260200160002060006101000a81548173ffffffffffffffffffffffffffffffffffffffff021916908373ffffffffffffffffffffffffffffffffffffffff16021790555050505050505050565b6000612c448233610d67565b60026000600360003373ffffffffffffffffffffffffffffffffffffffff1673ffffffffffffffffffffffffffffffffffffffff168152602001908152602001600020548152602001908152602001600020600b01549050919050565b6060600080600360003373ffffffffffffffffffffffffffffffffffffffff1673ffffffffffffffffffffffffffffffffffffffff1681526020019081526020016000205490506001806000838152602001908152602001600020541480612d1c575060036001600086815260200190815260200160002054145b612d2557600080fd5b600060066000868152602001908152602001600020600201805490509050600660008681526020019081526020016000206000016006600087815260200190815260200160002060010154818054612d7c9061469b565b80601f0160208091040260200160405190810160405280929190818152602001828054612da89061469b565b8015612df55780601f10612dca57610100808354040283529160200191612df5565b820191906000526020600020905b815481529060010190602001808311612dd857829003601f168201915b50505050509150935093505050915091565b6060806000600460016000868152602001908152602001600020541480612e405750600180600086815260200190815260200160002054145b612e4957600080fd5b600a6000858152602001908152602001600020600101600a6000868152602001908152602001600020600201600a600087815260200190815260200160002060030154828054612e989061469b565b80601f0160208091040260200160405190810160405280929190818152602001828054612ec49061469b565b8015612f115780601f10612ee657610100808354040283529160200191612f11565b820191906000526020600020905b815481529060010190602001808311612ef457829003601f168201915b50505050509250818054612f249061469b565b80601f0160208091040260200160405190810160405280929190818152602001828054612f509061469b565b8015612f9d5780601f10612f7257610100808354040283529160200191612f9d565b820191906000526020600020905b815481529060010190602001808311612f8057829003601f168201915b505050505091509250925092509193909250565b600080600360003373ffffffffffffffffffffffffffffffffffffffff1673ffffffffffffffffffffffffffffffffffffffff168152602001908152602001600020549050600260016000838152602001908152602001600020541461301657600080fd5b600083426130249190614ab6565b604051602001613034919061401f565b6040516020818303038152906040528051906020012060001c90508060096000868152602001908152602001600020819055505050919050565b600080606080600360003373ffffffffffffffffffffffffffffffffffffffff1673ffffffffffffffffffffffffffffffffffffffff1681526020019081526020016000205460026000888152602001908152602001600020600b0154148061312857506001806000600360003373ffffffffffffffffffffffffffffffffffffffff1673ffffffffffffffffffffffffffffffffffffffff16815260200190815260200160002054815260200190815260200160002054145b61313157600080fd5b6007600086815260200190815260200160002060000154600760008781526020019081526020016000206001015460076000888152602001908152602001600020600601600760008981526020019081526020016000206007018180546131979061469b565b80601f01602080910402602001604051908101604052809291908181526020018280546131c39061469b565b80156132105780601f106131e557610100808354040283529160200191613210565b820191906000526020600020905b8154815290600101906020018083116131f357829003601f168201915b505050505091508080546132239061469b565b80601f016020809104026020016040519081016040528092919081815260200182805461324f9061469b565b801561329c5780601f106132715761010080835404028352916020019161329c565b820191906000526020600020905b81548152906001019060200180831161327f57829003601f168201915b50505050509050935093509350935092959194509250565b6000806060806000606080600360003373ffffffffffffffffffffffffffffffffffffffff1673ffffffffffffffffffffffffffffffffffffffff16815260200190815260200160002054600260008b8152602001908152602001600020600b0154148015613338575088600760008a815260200190815260200160002060000154145b80613381575088600360003373ffffffffffffffffffffffffffffffffffffffff1673ffffffffffffffffffffffffffffffffffffffff16815260200190815260200160002054145b61338a57600080fd5b6007600089815260200190815260200160002060000154600760008a815260200190815260200160002060010154600760008b8152602001908152602001600020600201600760008c8152602001908152602001600020600301600760008d815260200190815260200160002060040154600760008e8152602001908152602001600020600601600760008f81526020019081526020016000206007018480546134339061469b565b80601f016020809104026020016040519081016040528092919081815260200182805461345f9061469b565b80156134ac5780601f10613481576101008083540402835291602001916134ac565b820191906000526020600020905b81548152906001019060200180831161348f57829003601f168201915b505050505094508380546134bf9061469b565b80601f01602080910402602001604051908101604052809291908181526020018280546134eb9061469b565b80156135385780601f1061350d57610100808354040283529160200191613538565b820191906000526020600020905b81548152906001019060200180831161351b57829003601f168201915b5050505050935081805461354b9061469b565b80601f01602080910402602001604051908101604052809291908181526020018280546135779061469b565b80156135c45780601f10613599576101008083540402835291602001916135c4565b820191906000526020600020905b8154815290600101906020018083116135a757829003601f168201915b505050505091508080546135d79061469b565b80601f01602080910402602001604051908101604052809291908181526020018280546136039061469b565b80156136505780601f1061362557610100808354040283529160200191613650565b820191906000526020600020905b81548152906001019060200180831161363357829003601f168201915b50505050509050965096509650965096509650965092959891949750929550565b60606000600360003373ffffffffffffffffffffffffffffffffffffffff1673ffffffffffffffffffffffffffffffffffffffff168152602001908152602001600020549050600260016000838152602001908152602001600020541480156136ec5750826009600086815260200190815260200160002054145b6136f557600080fd5b6002600085815260200190815260200160002060070180548060200260200160405190810160405280929190818152602001828054801561375557602002820191906000526020600020905b815481526020019060010190808311613741575b505050505091505092915050565b6000604051905090565b600080fd5b600080fd5b6000819050919050565b61378a81613777565b811461379557600080fd5b50565b6000813590506137a781613781565b92915050565b600080fd5b600080fd5b6000601f19601f8301169050919050565b7f4e487b7100000000000000000000000000000000000000000000000000000000600052604160045260246000fd5b613800826137b7565b810181811067ffffffffffffffff8211171561381f5761381e6137c8565b5b80604052505050565b6000613832613763565b905061383e82826137f7565b919050565b600067ffffffffffffffff82111561385e5761385d6137c8565b5b613867826137b7565b9050602081019050919050565b82818337600083830152505050565b600061389661389184613843565b613828565b9050828152602081018484840111156138b2576138b16137b2565b5b6138bd848285613874565b509392505050565b600082601f8301126138da576138d96137ad565b5b81356138ea848260208601613883565b91505092915050565b60008060006060848603121561390c5761390b61376d565b5b600061391a86828701613798565b935050602084013567ffffffffffffffff81111561393b5761393a613772565b5b613947868287016138c5565b925050604061395886828701613798565b9150509250925092565b60008060008060008060c0878903121561397f5761397e61376d565b5b600061398d89828a01613798565b965050602087013567ffffffffffffffff8111156139ae576139ad613772565b5b6139ba89828a016138c5565b955050604087013567ffffffffffffffff8111156139db576139da613772565b5b6139e789828a016138c5565b945050606087013567ffffffffffffffff811115613a0857613a07613772565b5b613a1489828a016138c5565b9350506080613a2589828a01613798565b92505060a087013567ffffffffffffffff811115613a4657613a45613772565b5b613a5289828a016138c5565b9150509295509295509295565b600060208284031215613a7557613a7461376d565b5b6000613a8384828501613798565b91505092915050565b613a9581613777565b82525050565b600081519050919050565b600082825260208201905092915050565b60005b83811015613ad5578082015181840152602081019050613aba565b60008484015250505050565b6000613aec82613a9b565b613af68185613aa6565b9350613b06818560208601613ab7565b613b0f816137b7565b840191505092915050565b600060c082019050613b2f6000830189613a8c565b8181036020830152613b418188613ae1565b90508181036040830152613b558187613ae1565b90508181036060830152613b698186613ae1565b9050613b786080830185613a8c565b81810360a0830152613b8a8184613ae1565b9050979650505050505050565b600073ffffffffffffffffffffffffffffffffffffffff82169050919050565b6000613bc282613b97565b9050919050565b613bd281613bb7565b8114613bdd57600080fd5b50565b600081359050613bef81613bc9565b92915050565b60008060408385031215613c0c57613c0b61376d565b5b6000613c1a85828601613798565b9250506020613c2b85828601613be0565b9150509250929050565b600081519050919050565b600082825260208201905092915050565b6000819050602082019050919050565b613c6a81613777565b82525050565b6000613c7c8383613c61565b60208301905092915050565b6000602082019050919050565b6000613ca082613c35565b613caa8185613c40565b9350613cb583613c51565b8060005b83811015613ce6578151613ccd8882613c70565b9750613cd883613c88565b925050600181019050613cb9565b5085935050505092915050565b600081519050919050565b600082825260208201905092915050565b6000819050602082019050919050565b600082825260208201905092915050565b6000613d3b82613a9b565b613d458185613d1f565b9350613d55818560208601613ab7565b613d5e816137b7565b840191505092915050565b6000613d758383613d30565b905092915050565b6000602082019050919050565b6000613d9582613cf3565b613d9f8185613cfe565b935083602082028501613db185613d0f565b8060005b85811015613ded5784840389528151613dce8582613d69565b9450613dd983613d7d565b925060208a01995050600181019050613db5565b50829750879550505050505092915050565b60006060820190508181036000830152613e198186613c95565b90508181036020830152613e2d8185613d8a565b90508181036040830152613e418184613d8a565b9050949350505050565b600080600060608486031215613e6457613e6361376d565b5b6000613e7286828701613798565b935050602084013567ffffffffffffffff811115613e9357613e92613772565b5b613e9f868287016138c5565b925050604084013567ffffffffffffffff811115613ec057613ebf613772565b5b613ecc868287016138c5565b9150509250925092565b60006040820190508181036000830152613ef08185613c95565b90508181036020830152613f048184613ae1565b90509392505050565b600080600080600080600060e0888a031215613f2c57613f2b61376d565b5b6000613f3a8a828b01613798565b9750506020613f4b8a828b01613798565b965050604088013567ffffffffffffffff811115613f6c57613f6b613772565b5b613f788a828b016138c5565b955050606088013567ffffffffffffffff811115613f9957613f98613772565b5b613fa58a828b016138c5565b9450506080613fb68a828b01613798565b93505060a088013567ffffffffffffffff811115613fd757613fd6613772565b5b613fe38a828b016138c5565b92505060c088013567ffffffffffffffff81111561400457614003613772565b5b6140108a828b016138c5565b91505092959891949750929550565b60006020820190506140346000830184613a8c565b92915050565b600080604083850312156140515761405061376d565b5b600061405f85828601613798565b925050602083013567ffffffffffffffff8111156140805761407f613772565b5b61408c858286016138c5565b9150509250929050565b600060408201905081810360008301526140b08185613c95565b905081810360208301526140c48184613d8a565b90509392505050565b6000806000606084860312156140e6576140e561376d565b5b60006140f486828701613798565b935050602061410586828701613798565b925050604084013567ffffffffffffffff81111561412657614125613772565b5b614132868287016138c5565b9150509250925092565b6000806000606084860312156141555761415461376d565b5b600061416386828701613798565b935050602061417486828701613798565b925050604061418586828701613798565b9150509250925092565b600060e08201905081810360008301526141a9818a613ae1565b905081810360208301526141bd8189613ae1565b90506141cc6040830188613a8c565b81810360608301526141de8187613ae1565b90506141ed6080830186613a8c565b6141fa60a0830185613a8c565b81810360c083015261420c8184613ae1565b905098975050505050505050565b600080600080608085870312156142345761423361376d565b5b600061424287828801613798565b945050602085013567ffffffffffffffff81111561426357614262613772565b5b61426f878288016138c5565b935050604085013567ffffffffffffffff8111156142905761428f613772565b5b61429c878288016138c5565b92505060606142ad87828801613798565b91505092959194509250565b600060208201905081810360008301526142d38184613ae1565b905092915050565b600080604083850312156142f2576142f161376d565b5b600061430085828601613798565b925050602061431185828601613798565b9150509250929050565b60006040820190506143306000830185613a8c565b81810360208301526143428184613ae1565b90509392505050565b6000602082840312156143615761436061376d565b5b600082013567ffffffffffffffff81111561437f5761437e613772565b5b61438b848285016138c5565b91505092915050565b600067ffffffffffffffff82169050919050565b6143b181614394565b81146143bc57600080fd5b50565b6000813590506143ce816143a8565b92915050565b6000602082840312156143ea576143e961376d565b5b60006143f8848285016143bf565b91505092915050565b600080600080600080600060e0888a0312156144205761441f61376d565b5b600061442e8a828b01613798565b975050602088013567ffffffffffffffff81111561444f5761444e613772565b5b61445b8a828b016138c5565b965050604088013567ffffffffffffffff81111561447c5761447b613772565b5b6144888a828b016138c5565b95505060606144998a828b01613798565b945050608088013567ffffffffffffffff8111156144ba576144b9613772565b5b6144c68a828b016138c5565b93505060a06144d78a828b01613798565b92505060c06144e88a828b01613798565b91505092959891949750929550565b600060408201905081810360008301526145118185613ae1565b90506145206020830184613a8c565b9392505050565b600060608201905081810360008301526145418186613ae1565b905081810360208301526145558185613ae1565b90506145646040830184613a8c565b949350505050565b60006080820190506145816000830187613a8c565b61458e6020830186613a8c565b81810360408301526145a08185613ae1565b905081810360608301526145b48184613ae1565b905095945050505050565b600060e0820190506145d4600083018a613a8c565b6145e16020830189613a8c565b81810360408301526145f38188613ae1565b905081810360608301526146078187613ae1565b90506146166080830186613a8c565b81810360a08301526146288185613ae1565b905081810360c083015261463c8184613ae1565b905098975050505050505050565b600060208201905081810360008301526146648184613c95565b905092915050565b7f4e487b7100000000000000000000000000000000000000000000000000000000600052602260045260246000fd5b600060028204905060018216806146b357607f821691505b6020821081036146c6576146c561466c565b5b50919050565b60008190508160005260206000209050919050565b60006020601f8301049050919050565b600082821b905092915050565b60006008830261472e7fffffffffffffffffffffffffffffffffffffffffffffffffffffffffffffffff826146f1565b61473886836146f1565b95508019841693508086168417925050509392505050565b6000819050919050565b600061477561477061476b84613777565b614750565b613777565b9050919050565b6000819050919050565b61478f8361475a565b6147a361479b8261477c565b8484546146fe565b825550505050565b600090565b6147b86147ab565b6147c3818484614786565b505050565b5b818110156147e7576147dc6000826147b0565b6001810190506147c9565b5050565b601f82111561482c576147fd816146cc565b614806846146e1565b81016020851015614815578190505b614829614821856146e1565b8301826147c8565b50505b505050565b600082821c905092915050565b600061484f60001984600802614831565b1980831691505092915050565b6000614868838361483e565b9150826002028217905092915050565b61488182613a9b565b67ffffffffffffffff81111561489a576148996137c8565b5b6148a4825461469b565b6148af8282856147eb565b600060209050601f8311600181146148e257600084156148d0578287015190505b6148da858261485c565b865550614942565b601f1984166148f0866146cc565b60005b82811015614918578489015182556001820191506020850194506020810190506148f3565b868310156149355784890151614931601f89168261483e565b8355505b6001600288020188555050505b505050505050565b7f4e487b7100000000000000000000000000000000000000000000000000000000600052601160045260246000fd5b600061498482613777565b915061498f83613777565b92508282019050808211156149a7576149a661494a565b5b92915050565b7f4e487b7100000000000000000000000000000000000000000000000000000000600052603260045260246000fd5b60006149e782613777565b91506149f283613777565b9250828203905081811115614a0a57614a0961494a565b5b92915050565b60008154614a1d8161469b565b614a278186613aa6565b94506001821660008114614a425760018114614a5857614a8b565b60ff198316865281151560200286019350614a8b565b614a61856146cc565b60005b83811015614a8357815481890152600182019150602081019050614a64565b808801955050505b50505092915050565b60006020820190508181036000830152614aae8184614a10565b905092915050565b6000614ac182613777565b9150614acc83613777565b9250828202614ada81613777565b91508282048414831517614af157614af061494a565b5b509291505056fea2646970667358221220523f47df8964919e97770d7bf8a2b7d5f9b7542bea42b77ab8f184227e3d3e5364736f6c63430008180033",
  "linkReferences": {},
  "deployedLinkReferences": {}
}