{
  "_format": "hh-sol-artifact-1",
  "contractName": "MedicalRecords",
  "sourceName": "contracts/MedicalRecords.sol",
  "abi": [
    {
      "anonymous": false,
      "inputs": [
        {
          "indexed": true,
          "internalType": "uint256",
          "name": "recordID",
          "type": "uint256"
        },
        {
          "indexed": false,
          "internalType": "address",
          "name": "patientAddr",
          "type": "address"
        }
      ],
      "name": "RecordCreated",
      "type": "event"
    },
    {
      "anonymous": false,
      "inputs": [
        {
          "components": [
            {
              "internalType": "string",
              "name": "name",
              "type": "string"
            },
            {
              "internalType": "address",
              "name": "addr",
              "type": "address"
            },
            {
              "internalType": "address",
              "name": "hospitalAddr",
              "type": "address"
            },
            {
              "internalType": "address",
              "name": "insuranceAddr",
              "type": "address"
            },
            {
              "internalType": "string",
              "name": "aadhaarNo",
              "type": "string"
            },
            {
              "internalType": "string",
              "name": "phoneNo",
              "type": "string"
            },
            {
              "internalType": "string",
              "name": "bloodGroup",
              "type": "string"
            },
            {
              "internalType": "string",
              "name": "email",
              "type": "string"
            },
            {
              "internalType": "string[]",
              "name": "medicalRecords",
              "type": "string[]"
            },
            {
              "internalType": "uint256",
              "name": "date",
              "type": "uint256"
            },
            {
              "internalType": "string",
              "name": "diagnosis",
              "type": "string"
            },
            {
              "internalType": "uint256",
              "name": "billAmount",
              "type": "uint256"
            }
          ],
          "indexed": false,
          "internalType": "struct MedicalRecords.PatientRecord[]",
          "name": "patientRecord",
          "type": "tuple[]"
        }
      ],
      "name": "ReturnHospitalRecords",
      "type": "event"
    },
    {
      "anonymous": false,
      "inputs": [
        {
          "components": [
            {
              "internalType": "string",
              "name": "name",
              "type": "string"
            },
            {
              "internalType": "address",
              "name": "addr",
              "type": "address"
            },
            {
              "internalType": "address",
              "name": "hospitalAddr",
              "type": "address"
            },
            {
              "internalType": "address",
              "name": "insuranceAddr",
              "type": "address"
            },
            {
              "internalType": "string",
              "name": "aadhaarNo",
              "type": "string"
            },
            {
              "internalType": "string",
              "name": "phoneNo",
              "type": "string"
            },
            {
              "internalType": "string",
              "name": "bloodGroup",
              "type": "string"
            },
            {
              "internalType": "string",
              "name": "email",
              "type": "string"
            },
            {
              "internalType": "string[]",
              "name": "medicalRecords",
              "type": "string[]"
            },
            {
              "internalType": "uint256",
              "name": "date",
              "type": "uint256"
            },
            {
              "internalType": "string",
              "name": "diagnosis",
              "type": "string"
            },
            {
              "internalType": "uint256",
              "name": "billAmount",
              "type": "uint256"
            }
          ],
          "indexed": false,
          "internalType": "struct MedicalRecords.PatientRecord[]",
          "name": "patientRecord",
          "type": "tuple[]"
        },
        {
          "indexed": false,
          "internalType": "bytes32[]",
          "name": "patientPolicies",
          "type": "bytes32[]"
        }
      ],
      "name": "ReturnPatientRecords",
      "type": "event"
    },
    {
      "anonymous": false,
      "inputs": [
        {
          "components": [
            {
              "internalType": "string",
              "name": "name",
              "type": "string"
            },
            {
              "internalType": "address",
              "name": "addr",
              "type": "address"
            },
            {
              "internalType": "address",
              "name": "hospitalAddr",
              "type": "address"
            },
            {
              "internalType": "address",
              "name": "insuranceAddr",
              "type": "address"
            },
            {
              "internalType": "string",
              "name": "aadhaarNo",
              "type": "string"
            },
            {
              "internalType": "string",
              "name": "phoneNo",
              "type": "string"
            },
            {
              "internalType": "string",
              "name": "bloodGroup",
              "type": "string"
            },
            {
              "internalType": "string",
              "name": "email",
              "type": "string"
            },
            {
              "internalType": "string[]",
              "name": "medicalRecords",
              "type": "string[]"
            },
            {
              "internalType": "uint256",
              "name": "date",
              "type": "uint256"
            },
            {
              "internalType": "string",
              "name": "diagnosis",
              "type": "string"
            },
            {
              "internalType": "uint256",
              "name": "billAmount",
              "type": "uint256"
            }
          ],
          "indexed": false,
          "internalType": "struct MedicalRecords.PatientRecord",
          "name": "patientRecord",
          "type": "tuple"
        }
      ],
      "name": "ReturnRecordById",
      "type": "event"
    },
    {
      "inputs": [
        {
          "internalType": "string",
          "name": "recordFile",
          "type": "string"
        },
        {
          "internalType": "address",
          "name": "_patientAddr",
          "type": "address"
        },
        {
          "internalType": "uint256",
          "name": "_recordId",
          "type": "uint256"
        }
      ],
      "name": "addMedicalRecord",
      "outputs": [],
      "stateMutability": "nonpayable",
      "type": "function"
    },
    {
      "inputs": [
        {
          "internalType": "string",
          "name": "_name",
          "type": "string"
        },
        {
          "internalType": "string",
          "name": "_aadhaarNo",
          "type": "string"
        },
        {
          "internalType": "string",
          "name": "_phoneNo",
          "type": "string"
        },
        {
          "internalType": "string",
          "name": "_bloodGroup",
          "type": "string"
        },
        {
          "internalType": "string",
          "name": "_email",
          "type": "string"
        },
        {
          "internalType": "string",
          "name": "_diagnosis",
          "type": "string"
        },
        {
          "internalType": "string[]",
          "name": "_medicalRecords",
          "type": "string[]"
        },
        {
          "internalType": "uint256",
          "name": "_billAmount",
          "type": "uint256"
        },
        {
          "internalType": "address",
          "name": "_patientAddr",
          "type": "address"
        }
      ],
      "name": "addPatientRecord",
      "outputs": [],
      "stateMutability": "nonpayable",
      "type": "function"
    },
    {
      "inputs": [],
      "name": "getAllRecordsByHospital",
      "outputs": [
        {
          "components": [
            {
              "internalType": "string",
              "name": "name",
              "type": "string"
            },
            {
              "internalType": "address",
              "name": "addr",
              "type": "address"
            },
            {
              "internalType": "address",
              "name": "hospitalAddr",
              "type": "address"
            },
            {
              "internalType": "address",
              "name": "insuranceAddr",
              "type": "address"
            },
            {
              "internalType": "string",
              "name": "aadhaarNo",
              "type": "string"
            },
            {
              "internalType": "string",
              "name": "phoneNo",
              "type": "string"
            },
            {
              "internalType": "string",
              "name": "bloodGroup",
              "type": "string"
            },
            {
              "internalType": "string",
              "name": "email",
              "type": "string"
            },
            {
              "internalType": "string[]",
              "name": "medicalRecords",
              "type": "string[]"
            },
            {
              "internalType": "uint256",
              "name": "date",
              "type": "uint256"
            },
            {
              "internalType": "string",
              "name": "diagnosis",
              "type": "string"
            },
            {
              "internalType": "uint256",
              "name": "billAmount",
              "type": "uint256"
            }
          ],
          "internalType": "struct MedicalRecords.PatientRecord[]",
          "name": "patientRecord",
          "type": "tuple[]"
        }
      ],
      "stateMutability": "nonpayable",
      "type": "function"
    },
    {
      "inputs": [
        {
          "internalType": "address",
          "name": "_patientAddr",
          "type": "address"
        }
      ],
      "name": "getPatientRecords",
      "outputs": [
        {
          "components": [
            {
              "internalType": "string",
              "name": "name",
              "type": "string"
            },
            {
              "internalType": "address",
              "name": "addr",
              "type": "address"
            },
            {
              "internalType": "address",
              "name": "hospitalAddr",
              "type": "address"
            },
            {
              "internalType": "address",
              "name": "insuranceAddr",
              "type": "address"
            },
            {
              "internalType": "string",
              "name": "aadhaarNo",
              "type": "string"
            },
            {
              "internalType": "string",
              "name": "phoneNo",
              "type": "string"
            },
            {
              "internalType": "string",
              "name": "bloodGroup",
              "type": "string"
            },
            {
              "internalType": "string",
              "name": "email",
              "type": "string"
            },
            {
              "internalType": "string[]",
              "name": "medicalRecords",
              "type": "string[]"
            },
            {
              "internalType": "uint256",
              "name": "date",
              "type": "uint256"
            },
            {
              "internalType": "string",
              "name": "diagnosis",
              "type": "string"
            },
            {
              "internalType": "uint256",
              "name": "billAmount",
              "type": "uint256"
            }
          ],
          "internalType": "struct MedicalRecords.PatientRecord[]",
          "name": "patientRecord",
          "type": "tuple[]"
        },
        {
          "internalType": "bytes32[]",
          "name": "patientPolicies",
          "type": "bytes32[]"
        }
      ],
      "stateMutability": "nonpayable",
      "type": "function"
    },
    {
      "inputs": [
        {
          "internalType": "uint256",
          "name": "_recordId",
          "type": "uint256"
        }
      ],
      "name": "getRecordById",
      "outputs": [
        {
          "components": [
            {
              "internalType": "string",
              "name": "name",
              "type": "string"
            },
            {
              "internalType": "address",
              "name": "addr",
              "type": "address"
            },
            {
              "internalType": "address",
              "name": "hospitalAddr",
              "type": "address"
            },
            {
              "internalType": "address",
              "name": "insuranceAddr",
              "type": "address"
            },
            {
              "internalType": "string",
              "name": "aadhaarNo",
              "type": "string"
            },
            {
              "internalType": "string",
              "name": "phoneNo",
              "type": "string"
            },
            {
              "internalType": "string",
              "name": "bloodGroup",
              "type": "string"
            },
            {
              "internalType": "string",
              "name": "email",
              "type": "string"
            },
            {
              "internalType": "string[]",
              "name": "medicalRecords",
              "type": "string[]"
            },
            {
              "internalType": "uint256",
              "name": "date",
              "type": "uint256"
            },
            {
              "internalType": "string",
              "name": "diagnosis",
              "type": "string"
            },
            {
              "internalType": "uint256",
              "name": "billAmount",
              "type": "uint256"
            }
          ],
          "internalType": "struct MedicalRecords.PatientRecord",
          "name": "patientRecord",
          "type": "tuple"
        }
      ],
      "stateMutability": "nonpayable",
      "type": "function"
    },
    {
      "inputs": [
        {
          "internalType": "address",
          "name": "",
          "type": "address"
        },
        {
          "internalType": "uint256",
          "name": "",
          "type": "uint256"
        }
      ],
      "name": "hospitalAddrToRecordId",
      "outputs": [
        {
          "internalType": "uint256",
          "name": "",
          "type": "uint256"
        }
      ],
      "stateMutability": "view",
      "type": "function"
    },
    {
      "inputs": [
        {
          "internalType": "address",
          "name": "",
          "type": "address"
        },
        {
          "internalType": "uint256",
          "name": "",
          "type": "uint256"
        }
      ],
      "name": "insurancePolicies",
      "outputs": [
        {
          "internalType": "bytes32",
          "name": "",
          "type": "bytes32"
        }
      ],
      "stateMutability": "view",
      "type": "function"
    },
    {
      "inputs": [
        {
          "internalType": "address",
          "name": "",
          "type": "address"
        },
        {
          "internalType": "uint256",
          "name": "",
          "type": "uint256"
        }
      ],
      "name": "patientAddrToRecordId",
      "outputs": [
        {
          "internalType": "uint256",
          "name": "",
          "type": "uint256"
        }
      ],
      "stateMutability": "view",
      "type": "function"
    },
    {
      "inputs": [
        {
          "internalType": "uint256",
          "name": "",
          "type": "uint256"
        }
      ],
      "name": "patientRecords",
      "outputs": [
        {
          "internalType": "string",
          "name": "name",
          "type": "string"
        },
        {
          "internalType": "address",
          "name": "addr",
          "type": "address"
        },
        {
          "internalType": "address",
          "name": "hospitalAddr",
          "type": "address"
        },
        {
          "internalType": "address",
          "name": "insuranceAddr",
          "type": "address"
        },
        {
          "internalType": "string",
          "name": "aadhaarNo",
          "type": "string"
        },
        {
          "internalType": "string",
          "name": "phoneNo",
          "type": "string"
        },
        {
          "internalType": "string",
          "name": "bloodGroup",
          "type": "string"
        },
        {
          "internalType": "string",
          "name": "email",
          "type": "string"
        },
        {
          "internalType": "uint256",
          "name": "date",
          "type": "uint256"
        },
        {
          "internalType": "string",
          "name": "diagnosis",
          "type": "string"
        },
        {
          "internalType": "uint256",
          "name": "billAmount",
          "type": "uint256"
        }
      ],
      "stateMutability": "view",
      "type": "function"
    },
    {
      "inputs": [],
      "name": "recordIndex",
      "outputs": [
        {
          "internalType": "uint256",
          "name": "",
          "type": "uint256"
        }
      ],
      "stateMutability": "view",
      "type": "function"
    }
  ],
  "bytecode": "0x608060405234801561001057600080fd5b50612e29806100206000396000f3fe608060405234801561001057600080fd5b506004361061009e5760003560e01c80636b726805116100665780636b7268051461018057806395e11dde1461019e578063b43fabb9146101ba578063d3d188a1146101d8578063e75b8b23146102125761009e565b806303e9dc3e146100a357806318bd4847146100bf57806330e94624146100f0578063531a78b314610120578063636abb1f14610150575b600080fd5b6100bd60048036038101906100b89190611b15565b610242565b005b6100d960048036038101906100d49190611ca3565b6104a6565b6040516100e79291906120e7565b60405180910390f35b61010a6004803603810190610105919061211e565b610786565b604051610117919061216d565b60405180910390f35b61013a6004803603810190610135919061211e565b6107b7565b6040516101479190612197565b60405180910390f35b61016a6004803603810190610165919061211e565b6107e8565b6040516101779190612197565b60405180910390f35b610188610819565b6040516101959190612197565b60405180910390f35b6101b860048036038101906101b391906121b2565b61081f565b005b6101c2610911565b6040516101cf9190612221565b60405180910390f35b6101f260048036038101906101ed9190612243565b610b1d565b6040516102099b9a999897969594939291906122c9565b60405180910390f35b61022c60048036038101906102279190612243565b610f07565b60405161023991906124cc565b60405180910390f35b600060016000600454815260200190815260200160002090508981600001908161026c91906126fa565b50818160010160006101000a81548173ffffffffffffffffffffffffffffffffffffffff021916908373ffffffffffffffffffffffffffffffffffffffff160217905550888160040190816102c191906126fa565b50878160050190816102d391906126fa565b50868160060190816102e591906126fa565b50858160070190816102f791906126fa565b504281600901819055508481600a01908161031291906126fa565b508281600b0181905550838160080190805190602001906103349291906116c4565b50338160020160006101000a81548173ffffffffffffffffffffffffffffffffffffffff021916908373ffffffffffffffffffffffffffffffffffffffff160217905550600260008373ffffffffffffffffffffffffffffffffffffffff1673ffffffffffffffffffffffffffffffffffffffff1681526020019081526020016000206004549080600181540180825580915050600190039060005260206000200160009091909190915055600360003373ffffffffffffffffffffffffffffffffffffffff1673ffffffffffffffffffffffffffffffffffffffff16815260200190815260200160002060045490806001815401808255809150506001900390600052602060002001600090919091909150556004547f9a96995fdafdb50a11bfbcd015e3313b1a7de85a9a5c033e9ceccc3ee1b4c8938360405161047a91906127cc565b60405180910390a26004600081548092919061049590612816565b919050555050505050505050505050565b6060806000600260008573ffffffffffffffffffffffffffffffffffffffff1673ffffffffffffffffffffffffffffffffffffffff168152602001908152602001600020805490501161052e576040517f08c379a0000000000000000000000000000000000000000000000000000000008152600401610525906128aa565b60405180910390fd5b6000600260008573ffffffffffffffffffffffffffffffffffffffff1673ffffffffffffffffffffffffffffffffffffffff1681526020019081526020016000208054806020026020016040519081016040528092919081815260200182805480156105b957602002820191906000526020600020905b8154815260200190600101908083116105a5575b505050505090506000815167ffffffffffffffff8111156105dd576105dc611870565b5b60405190808252806020026020018201604052801561061657816020015b61060361171d565b8152602001906001900390816105fb5790505b50905060005b82518110156106735761064883828151811061063b5761063a6128ca565b5b6020026020010151610f07565b82828151811061065b5761065a6128ca565b5b6020026020010181905250808060010191505061061c565b507fdae3329b45b2571c05fe4fb73306724079b5f440eaec516de550367f722d2651816000808873ffffffffffffffffffffffffffffffffffffffff1673ffffffffffffffffffffffffffffffffffffffff1681526020019081526020016000206040516106e29291906129cf565b60405180910390a1806000808773ffffffffffffffffffffffffffffffffffffffff1673ffffffffffffffffffffffffffffffffffffffff1681526020019081526020016000208080548060200260200160405190810160405280929190818152602001828054801561077457602002820191906000526020600020905b815481526020019060010190808311610760575b50505050509050935093505050915091565b600060205281600052604060002081815481106107a257600080fd5b90600052602060002001600091509150505481565b600360205281600052604060002081815481106107d357600080fd5b90600052602060002001600091509150505481565b6002602052816000526040600020818154811061080457600080fd5b90600052602060002001600091509150505481565b60045481565b8173ffffffffffffffffffffffffffffffffffffffff166001600083815260200190815260200160002060010160009054906101000a900473ffffffffffffffffffffffffffffffffffffffff1673ffffffffffffffffffffffffffffffffffffffff16146108c3576040517f08c379a00000000000000000000000000000000000000000000000000000000081526004016108ba90612a52565b60405180910390fd5b600160008281526020019081526020016000206008018390806001815401808255809150506001900390600052602060002001600090919091909150908161090b91906126fa565b50505050565b60606000600360003373ffffffffffffffffffffffffffffffffffffffff1673ffffffffffffffffffffffffffffffffffffffff1681526020019081526020016000208054905011610998576040517f08c379a000000000000000000000000000000000000000000000000000000000815260040161098f906128aa565b60405180910390fd5b6000600360003373ffffffffffffffffffffffffffffffffffffffff1673ffffffffffffffffffffffffffffffffffffffff168152602001908152602001600020805480602002602001604051908101604052809291908181526020018280548015610a2357602002820191906000526020600020905b815481526020019060010190808311610a0f575b505050505090506000815167ffffffffffffffff811115610a4757610a46611870565b5b604051908082528060200260200182016040528015610a8057816020015b610a6d61171d565b815260200190600190039081610a655790505b50905060005b8251811015610add57610ab2838281518110610aa557610aa46128ca565b5b6020026020010151610f07565b828281518110610ac557610ac46128ca565b5b60200260200101819052508080600101915050610a86565b507fcccd6c02f22da4e43a7921f59e159b25c0de3277cb7a2ea313bea3bda10e189181604051610b0d9190612221565b60405180910390a1809250505090565b6001602052806000526040600020600091509050806000018054610b409061251d565b80601f0160208091040260200160405190810160405280929190818152602001828054610b6c9061251d565b8015610bb95780601f10610b8e57610100808354040283529160200191610bb9565b820191906000526020600020905b815481529060010190602001808311610b9c57829003601f168201915b5050505050908060010160009054906101000a900473ffffffffffffffffffffffffffffffffffffffff16908060020160009054906101000a900473ffffffffffffffffffffffffffffffffffffffff16908060030160009054906101000a900473ffffffffffffffffffffffffffffffffffffffff1690806004018054610c409061251d565b80601f0160208091040260200160405190810160405280929190818152602001828054610c6c9061251d565b8015610cb95780601f10610c8e57610100808354040283529160200191610cb9565b820191906000526020600020905b815481529060010190602001808311610c9c57829003601f168201915b505050505090806005018054610cce9061251d565b80601f0160208091040260200160405190810160405280929190818152602001828054610cfa9061251d565b8015610d475780601f10610d1c57610100808354040283529160200191610d47565b820191906000526020600020905b815481529060010190602001808311610d2a57829003601f168201915b505050505090806006018054610d5c9061251d565b80601f0160208091040260200160405190810160405280929190818152602001828054610d889061251d565b8015610dd55780601f10610daa57610100808354040283529160200191610dd5565b820191906000526020600020905b815481529060010190602001808311610db857829003601f168201915b505050505090806007018054610dea9061251d565b80601f0160208091040260200160405190810160405280929190818152602001828054610e169061251d565b8015610e635780601f10610e3857610100808354040283529160200191610e63565b820191906000526020600020905b815481529060010190602001808311610e4657829003601f168201915b50505050509080600901549080600a018054610e7e9061251d565b80601f0160208091040260200160405190810160405280929190818152602001828054610eaa9061251d565b8015610ef75780601f10610ecc57610100808354040283529160200191610ef7565b820191906000526020600020905b815481529060010190602001808311610eda57829003601f168201915b50505050509080600b015490508b565b610f0f61171d565b600073ffffffffffffffffffffffffffffffffffffffff166001600084815260200190815260200160002060010160009054906101000a900473ffffffffffffffffffffffffffffffffffffffff1673ffffffffffffffffffffffffffffffffffffffff1603610fb4576040517f08c379a0000000000000000000000000000000000000000000000000000000008152600401610fab90612a52565b60405180910390fd5b3073ffffffffffffffffffffffffffffffffffffffff163373ffffffffffffffffffffffffffffffffffffffff16148061104f57506001600083815260200190815260200160002060010160009054906101000a900473ffffffffffffffffffffffffffffffffffffffff1673ffffffffffffffffffffffffffffffffffffffff163373ffffffffffffffffffffffffffffffffffffffff16145b806110bb57506001600083815260200190815260200160002060020160009054906101000a900473ffffffffffffffffffffffffffffffffffffffff1673ffffffffffffffffffffffffffffffffffffffff163373ffffffffffffffffffffffffffffffffffffffff16145b6110fa576040517f08c379a00000000000000000000000000000000000000000000000000000000081526004016110f190612abe565b60405180910390fd5b7f109c0683cbcbd73ec964b7f3cdd6ae32247bf438fe4ca6356a1ee0e82fa8591c6001600084815260200190815260200160002060405161113b9190612dd1565b60405180910390a160016000838152602001908152602001600020604051806101800160405290816000820180546111729061251d565b80601f016020809104026020016040519081016040528092919081815260200182805461119e9061251d565b80156111eb5780601f106111c0576101008083540402835291602001916111eb565b820191906000526020600020905b8154815290600101906020018083116111ce57829003601f168201915b505050505081526020016001820160009054906101000a900473ffffffffffffffffffffffffffffffffffffffff1673ffffffffffffffffffffffffffffffffffffffff1673ffffffffffffffffffffffffffffffffffffffff1681526020016002820160009054906101000a900473ffffffffffffffffffffffffffffffffffffffff1673ffffffffffffffffffffffffffffffffffffffff1673ffffffffffffffffffffffffffffffffffffffff1681526020016003820160009054906101000a900473ffffffffffffffffffffffffffffffffffffffff1673ffffffffffffffffffffffffffffffffffffffff1673ffffffffffffffffffffffffffffffffffffffff1681526020016004820180546113069061251d565b80601f01602080910402602001604051908101604052809291908181526020018280546113329061251d565b801561137f5780601f106113545761010080835404028352916020019161137f565b820191906000526020600020905b81548152906001019060200180831161136257829003601f168201915b505050505081526020016005820180546113989061251d565b80601f01602080910402602001604051908101604052809291908181526020018280546113c49061251d565b80156114115780601f106113e657610100808354040283529160200191611411565b820191906000526020600020905b8154815290600101906020018083116113f457829003601f168201915b5050505050815260200160068201805461142a9061251d565b80601f01602080910402602001604051908101604052809291908181526020018280546114569061251d565b80156114a35780601f10611478576101008083540402835291602001916114a3565b820191906000526020600020905b81548152906001019060200180831161148657829003601f168201915b505050505081526020016007820180546114bc9061251d565b80601f01602080910402602001604051908101604052809291908181526020018280546114e89061251d565b80156115355780601f1061150a57610100808354040283529160200191611535565b820191906000526020600020905b81548152906001019060200180831161151857829003601f168201915b5050505050815260200160088201805480602002602001604051908101604052809291908181526020016000905b8282101561160f5783829060005260206000200180546115829061251d565b80601f01602080910402602001604051908101604052809291908181526020018280546115ae9061251d565b80156115fb5780601f106115d0576101008083540402835291602001916115fb565b820191906000526020600020905b8154815290600101906020018083116115de57829003601f168201915b505050505081526020019060010190611563565b50505050815260200160098201548152602001600a820180546116319061251d565b80601f016020809104026020016040519081016040528092919081815260200182805461165d9061251d565b80156116aa5780601f1061167f576101008083540402835291602001916116aa565b820191906000526020600020905b81548152906001019060200180831161168d57829003601f168201915b50505050508152602001600b820154815250509050919050565b82805482825590600052602060002090810192821561170c579160200282015b8281111561170b5782518290816116fb91906126fa565b50916020019190600101906116e4565b5b50905061171991906117c0565b5090565b60405180610180016040528060608152602001600073ffffffffffffffffffffffffffffffffffffffff168152602001600073ffffffffffffffffffffffffffffffffffffffff168152602001600073ffffffffffffffffffffffffffffffffffffffff16815260200160608152602001606081526020016060815260200160608152602001606081526020016000815260200160608152602001600081525090565b5b808211156117e057600081816117d791906117e4565b506001016117c1565b5090565b5080546117f09061251d565b6000825580601f106118025750611821565b601f0160209004906000526020600020908101906118209190611824565b5b50565b5b8082111561183d576000816000905550600101611825565b5090565b6000604051905090565b600080fd5b600080fd5b600080fd5b600080fd5b6000601f19601f8301169050919050565b7f4e487b7100000000000000000000000000000000000000000000000000000000600052604160045260246000fd5b6118a88261185f565b810181811067ffffffffffffffff821117156118c7576118c6611870565b5b80604052505050565b60006118da611841565b90506118e6828261189f565b919050565b600067ffffffffffffffff82111561190657611905611870565b5b61190f8261185f565b9050602081019050919050565b82818337600083830152505050565b600061193e611939846118eb565b6118d0565b90508281526020810184848401111561195a5761195961185a565b5b61196584828561191c565b509392505050565b600082601f83011261198257611981611855565b5b813561199284826020860161192b565b91505092915050565b600067ffffffffffffffff8211156119b6576119b5611870565b5b602082029050602081019050919050565b600080fd5b60006119df6119da8461199b565b6118d0565b90508083825260208201905060208402830185811115611a0257611a016119c7565b5b835b81811015611a4957803567ffffffffffffffff811115611a2757611a26611855565b5b808601611a34898261196d565b85526020850194505050602081019050611a04565b5050509392505050565b600082601f830112611a6857611a67611855565b5b8135611a788482602086016119cc565b91505092915050565b6000819050919050565b611a9481611a81565b8114611a9f57600080fd5b50565b600081359050611ab181611a8b565b92915050565b600073ffffffffffffffffffffffffffffffffffffffff82169050919050565b6000611ae282611ab7565b9050919050565b611af281611ad7565b8114611afd57600080fd5b50565b600081359050611b0f81611ae9565b92915050565b60008060008060008060008060006101208a8c031215611b3857611b3761184b565b5b60008a013567ffffffffffffffff811115611b5657611b55611850565b5b611b628c828d0161196d565b99505060208a013567ffffffffffffffff811115611b8357611b82611850565b5b611b8f8c828d0161196d565b98505060408a013567ffffffffffffffff811115611bb057611baf611850565b5b611bbc8c828d0161196d565b97505060608a013567ffffffffffffffff811115611bdd57611bdc611850565b5b611be98c828d0161196d565b96505060808a013567ffffffffffffffff811115611c0a57611c09611850565b5b611c168c828d0161196d565b95505060a08a013567ffffffffffffffff811115611c3757611c36611850565b5b611c438c828d0161196d565b94505060c08a013567ffffffffffffffff811115611c6457611c63611850565b5b611c708c828d01611a53565b93505060e0611c818c828d01611aa2565b925050610100611c938c828d01611b00565b9150509295985092959850929598565b600060208284031215611cb957611cb861184b565b5b6000611cc784828501611b00565b91505092915050565b600081519050919050565b600082825260208201905092915050565b6000819050602082019050919050565b600081519050919050565b600082825260208201905092915050565b60005b83811015611d36578082015181840152602081019050611d1b565b60008484015250505050565b6000611d4d82611cfc565b611d578185611d07565b9350611d67818560208601611d18565b611d708161185f565b840191505092915050565b611d8481611ad7565b82525050565b600081519050919050565b600082825260208201905092915050565b6000819050602082019050919050565b6000611dc28383611d42565b905092915050565b6000602082019050919050565b6000611de282611d8a565b611dec8185611d95565b935083602082028501611dfe85611da6565b8060005b85811015611e3a5784840389528151611e1b8582611db6565b9450611e2683611dca565b925060208a01995050600181019050611e02565b50829750879550505050505092915050565b611e5581611a81565b82525050565b6000610180830160008301518482036000860152611e798282611d42565b9150506020830151611e8e6020860182611d7b565b506040830151611ea16040860182611d7b565b506060830151611eb46060860182611d7b565b5060808301518482036080860152611ecc8282611d42565b91505060a083015184820360a0860152611ee68282611d42565b91505060c083015184820360c0860152611f008282611d42565b91505060e083015184820360e0860152611f1a8282611d42565b915050610100830151848203610100860152611f368282611dd7565b915050610120830151611f4d610120860182611e4c565b50610140830151848203610140860152611f678282611d42565b915050610160830151611f7e610160860182611e4c565b508091505092915050565b6000611f958383611e5b565b905092915050565b6000602082019050919050565b6000611fb582611cd0565b611fbf8185611cdb565b935083602082028501611fd185611cec565b8060005b8581101561200d5784840389528151611fee8582611f89565b9450611ff983611f9d565b925060208a01995050600181019050611fd5565b50829750879550505050505092915050565b600081519050919050565b600082825260208201905092915050565b6000819050602082019050919050565b6000819050919050565b61205e8161204b565b82525050565b60006120708383612055565b60208301905092915050565b6000602082019050919050565b60006120948261201f565b61209e818561202a565b93506120a98361203b565b8060005b838110156120da5781516120c18882612064565b97506120cc8361207c565b9250506001810190506120ad565b5085935050505092915050565b600060408201905081810360008301526121018185611faa565b905081810360208301526121158184612089565b90509392505050565b600080604083850312156121355761213461184b565b5b600061214385828601611b00565b925050602061215485828601611aa2565b9150509250929050565b6121678161204b565b82525050565b6000602082019050612182600083018461215e565b92915050565b61219181611a81565b82525050565b60006020820190506121ac6000830184612188565b92915050565b6000806000606084860312156121cb576121ca61184b565b5b600084013567ffffffffffffffff8111156121e9576121e8611850565b5b6121f58682870161196d565b935050602061220686828701611b00565b925050604061221786828701611aa2565b9150509250925092565b6000602082019050818103600083015261223b8184611faa565b905092915050565b6000602082840312156122595761225861184b565b5b600061226784828501611aa2565b91505092915050565b600082825260208201905092915050565b600061228c82611cfc565b6122968185612270565b93506122a6818560208601611d18565b6122af8161185f565b840191505092915050565b6122c381611ad7565b82525050565b60006101608201905081810360008301526122e4818e612281565b90506122f3602083018d6122ba565b612300604083018c6122ba565b61230d606083018b6122ba565b818103608083015261231f818a612281565b905081810360a08301526123338189612281565b905081810360c08301526123478188612281565b905081810360e083015261235b8187612281565b905061236b610100830186612188565b81810361012083015261237e8185612281565b905061238e610140830184612188565b9c9b505050505050505050505050565b60006101808301600083015184820360008601526123bc8282611d42565b91505060208301516123d16020860182611d7b565b5060408301516123e46040860182611d7b565b5060608301516123f76060860182611d7b565b506080830151848203608086015261240f8282611d42565b91505060a083015184820360a08601526124298282611d42565b91505060c083015184820360c08601526124438282611d42565b91505060e083015184820360e086015261245d8282611d42565b9150506101008301518482036101008601526124798282611dd7565b915050610120830151612490610120860182611e4c565b506101408301518482036101408601526124aa8282611d42565b9150506101608301516124c1610160860182611e4c565b508091505092915050565b600060208201905081810360008301526124e6818461239e565b905092915050565b7f4e487b7100000000000000000000000000000000000000000000000000000000600052602260045260246000fd5b6000600282049050600182168061253557607f821691505b602082108103612548576125476124ee565b5b50919050565b60008190508160005260206000209050919050565b60006020601f8301049050919050565b600082821b905092915050565b6000600883026125b07fffffffffffffffffffffffffffffffffffffffffffffffffffffffffffffffff82612573565b6125ba8683612573565b95508019841693508086168417925050509392505050565b6000819050919050565b60006125f76125f26125ed84611a81565b6125d2565b611a81565b9050919050565b6000819050919050565b612611836125dc565b61262561261d826125fe565b848454612580565b825550505050565b600090565b61263a61262d565b612645818484612608565b505050565b5b818110156126695761265e600082612632565b60018101905061264b565b5050565b601f8211156126ae5761267f8161254e565b61268884612563565b81016020851015612697578190505b6126ab6126a385612563565b83018261264a565b50505b505050565b600082821c905092915050565b60006126d1600019846008026126b3565b1980831691505092915050565b60006126ea83836126c0565b9150826002028217905092915050565b61270382611cfc565b67ffffffffffffffff81111561271c5761271b611870565b5b612726825461251d565b61273182828561266d565b600060209050601f8311600181146127645760008415612752578287015190505b61275c85826126de565b8655506127c4565b601f1984166127728661254e565b60005b8281101561279a57848901518255600182019150602085019450602081019050612775565b868310156127b757848901516127b3601f8916826126c0565b8355505b6001600288020188555050505b505050505050565b60006020820190506127e160008301846122ba565b92915050565b7f4e487b7100000000000000000000000000000000000000000000000000000000600052601160045260246000fd5b600061282182611a81565b91507fffffffffffffffffffffffffffffffffffffffffffffffffffffffffffffffff8203612853576128526127e7565b5b600182019050919050565b7f50617469656e74207265636f726473206e6f742070726573656e740000000000600082015250565b6000612894601b83612270565b915061289f8261285e565b602082019050919050565b600060208201905081810360008301526128c381612887565b9050919050565b7f4e487b7100000000000000000000000000000000000000000000000000000000600052603260045260246000fd5b600081549050919050565b60008190508160005260206000209050919050565b60008160001c9050919050565b6000819050919050565b600061294361293e83612919565b612926565b9050919050565b60006129568254612930565b9050919050565b6000600182019050919050565b6000612975826128f9565b61297f818561202a565b935061298a83612904565b8060005b838110156129c25761299f8261294a565b6129a98882612064565b97506129b48361295d565b92505060018101905061298e565b5085935050505092915050565b600060408201905081810360008301526129e98185611faa565b905081810360208301526129fd818461296a565b90509392505050565b7f50617469656e74207265636f7264206e6f742070726573656e74000000000000600082015250565b6000612a3c601a83612270565b9150612a4782612a06565b602082019050919050565b60006020820190508181036000830152612a6b81612a2f565b9050919050565b7f556e617574686f72697a65642061636365737300000000000000000000000000600082015250565b6000612aa8601383612270565b9150612ab382612a72565b602082019050919050565b60006020820190508181036000830152612ad781612a9b565b9050919050565b60008154612aeb8161251d565b612af58186611d07565b94506001821660008114612b105760018114612b2657612b59565b60ff198316865281151560200286019350612b59565b612b2f8561254e565b60005b83811015612b5157815481890152600182019150602081019050612b32565b808801955050505b50505092915050565b600073ffffffffffffffffffffffffffffffffffffffff82169050919050565b6000612b95612b9083612919565b612b62565b9050919050565b600081549050919050565b60008190508160005260206000209050919050565b6000612bc88383612ade565b905092915050565b6000600182019050919050565b6000612be882612b9c565b612bf28185611d95565b935083602082028501612c0485612ba7565b8060005b85811015612c3f57848403895281612c208582612bbc565b9450612c2b83612bd0565b925060208a01995050600181019050612c08565b50829750879550505050505092915050565b6000819050919050565b6000612c6e612c6983612919565b612c51565b9050919050565b6000610180830160008084018583036000870152612c938382612ade565b92505060018401549050612ca681612b82565b612cb36020870182611d7b565b5060028401549050612cc481612b82565b612cd16040870182611d7b565b5060038401549050612ce281612b82565b612cef6060870182611d7b565b50600484018583036080870152612d068382612ade565b9250506005840185830360a0870152612d1f8382612ade565b9250506006840185830360c0870152612d388382612ade565b9250506007840185830360e0870152612d518382612ade565b92505060088401858303610100870152612d6b8382612bdd565b92505060098401549050612d7e81612c5b565b612d8c610120870182611e4c565b50600a8401858303610140870152612da48382612ade565b925050600b8401549050612db781612c5b565b612dc5610160870182611e4c565b50819250505092915050565b60006020820190508181036000830152612deb8184612c75565b90509291505056fea2646970667358221220521b37987b8e0a741fea9dd88177cd4039141f879f4eb2d3401714e82ed34a7f64736f6c63430008180033",
  "linkReferences": {},
  "deployedLinkReferences": {}
}