{
  "_format": "hh-sol-artifact-1",
  "contractName": "PolicyContract",
  "sourceName": "contracts/PolicyContract.sol",
  "abi": [
    {
      "anonymous": false,
      "inputs": [
        {
          "indexed": true,
          "internalType": "bytes32",
          "name": "policyId",
          "type": "bytes32"
        },
        {
          "indexed": true,
          "internalType": "address",
          "name": "holder",
          "type": "address"
        },
        {
          "indexed": false,
          "internalType": "uint256",
          "name": "startDate",
          "type": "uint256"
        },
        {
          "indexed": false,
          "internalType": "uint256",
          "name": "endDate",
          "type": "uint256"
        }
      ],
      "name": "PolicyCreated",
      "type": "event"
    },
    {
      "inputs": [
        {
          "internalType": "bytes32",
          "name": "_policyId",
          "type": "bytes32"
        }
      ],
      "name": "cancelPolicy",
      "outputs": [],
      "stateMutability": "nonpayable",
      "type": "function"
    },
    {
      "inputs": [
        {
          "internalType": "uint256",
          "name": "_premiumAmount",
          "type": "uint256"
        },
        {
          "internalType": "uint256",
          "name": "_duration",
          "type": "uint256"
        }
      ],
      "name": "createPolicy",
      "outputs": [],
      "stateMutability": "payable",
      "type": "function"
    },
    {
      "inputs": [
        {
          "internalType": "bytes32",
          "name": "_policyId",
          "type": "bytes32"
        }
      ],
      "name": "getPolicy",
      "outputs": [
        {
          "internalType": "address",
          "name": "",
          "type": "address"
        },
        {
          "internalType": "uint256",
          "name": "",
          "type": "uint256"
        },
        {
          "internalType": "uint256",
          "name": "",
          "type": "uint256"
        },
        {
          "internalType": "uint256",
          "name": "",
          "type": "uint256"
        },
        {
          "internalType": "bool",
          "name": "",
          "type": "bool"
        }
      ],
      "stateMutability": "view",
      "type": "function"
    },
    {
      "inputs": [
        {
          "internalType": "bytes32",
          "name": "",
          "type": "bytes32"
        }
      ],
      "name": "policies",
      "outputs": [
        {
          "internalType": "address",
          "name": "holder",
          "type": "address"
        },
        {
          "internalType": "uint256",
          "name": "premiumAmount",
          "type": "uint256"
        },
        {
          "internalType": "uint256",
          "name": "startDate",
          "type": "uint256"
        },
        {
          "internalType": "uint256",
          "name": "endDate",
          "type": "uint256"
        },
        {
          "internalType": "bool",
          "name": "isActive",
          "type": "bool"
        }
      ],
      "stateMutability": "view",
      "type": "function"
    }
  ],
  "bytecode": "0x608060405234801561001057600080fd5b50610a47806100206000396000f3fe60806040526004361061003f5760003560e01c8063a3f685f914610044578063a86146d014610085578063c7e2f28e146100ae578063ddbfd8ef146100ca575b600080fd5b34801561005057600080fd5b5061006b6004803603810190610066919061054b565b61010b565b60405161007c9594939291906105ed565b60405180910390f35b34801561009157600080fd5b506100ac60048036038101906100a7919061054b565b610182565b005b6100c860048036038101906100c3919061066c565b6102b8565b005b3480156100d657600080fd5b506100f160048036038101906100ec919061054b565b6104ad565b6040516101029594939291906105ed565b60405180910390f35b60008060008060008060008088815260200190815260200160002090508060000160009054906101000a900473ffffffffffffffffffffffffffffffffffffffff168160010154826002015483600301548460040160009054906101000a900460ff16955095509550955095505091939590929450565b3373ffffffffffffffffffffffffffffffffffffffff1660008083815260200190815260200160002060000160009054906101000a900473ffffffffffffffffffffffffffffffffffffffff1673ffffffffffffffffffffffffffffffffffffffff1614610225576040517f08c379a000000000000000000000000000000000000000000000000000000000815260040161021c9061072f565b60405180910390fd5b60008082815260200190815260200160002060040160009054906101000a900460ff16610287576040517f08c379a000000000000000000000000000000000000000000000000000000000815260040161027e9061079b565b60405180910390fd5b600080600083815260200190815260200160002060040160006101000a81548160ff02191690831515021790555050565b8134146102fa576040517f08c379a00000000000000000000000000000000000000000000000000000000081526004016102f19061082d565b60405180910390fd5b6000811161033d576040517f08c379a0000000000000000000000000000000000000000000000000000000008152600401610334906108bf565b60405180910390fd5b6000814261034b919061090e565b90506000334244604051602001610364939291906109ab565b6040516020818303038152906040528051906020012090506040518060a001604052803373ffffffffffffffffffffffffffffffffffffffff1681526020018581526020014281526020018381526020016001151581525060008083815260200190815260200160002060008201518160000160006101000a81548173ffffffffffffffffffffffffffffffffffffffff021916908373ffffffffffffffffffffffffffffffffffffffff16021790555060208201518160010155604082015181600201556060820151816003015560808201518160040160006101000a81548160ff0219169083151502179055509050503373ffffffffffffffffffffffffffffffffffffffff16817f205277be9ac92163fe2e90703802f84c6722bf45927714baa72ea9295c360ff6428560405161049f9291906109e8565b60405180910390a350505050565b60006020528060005260406000206000915090508060000160009054906101000a900473ffffffffffffffffffffffffffffffffffffffff16908060010154908060020154908060030154908060040160009054906101000a900460ff16905085565b600080fd5b6000819050919050565b61052881610515565b811461053357600080fd5b50565b6000813590506105458161051f565b92915050565b60006020828403121561056157610560610510565b5b600061056f84828501610536565b91505092915050565b600073ffffffffffffffffffffffffffffffffffffffff82169050919050565b60006105a382610578565b9050919050565b6105b381610598565b82525050565b6000819050919050565b6105cc816105b9565b82525050565b60008115159050919050565b6105e7816105d2565b82525050565b600060a08201905061060260008301886105aa565b61060f60208301876105c3565b61061c60408301866105c3565b61062960608301856105c3565b61063660808301846105de565b9695505050505050565b610649816105b9565b811461065457600080fd5b50565b60008135905061066681610640565b92915050565b6000806040838503121561068357610682610510565b5b600061069185828601610657565b92505060206106a285828601610657565b9150509250929050565b600082825260208201905092915050565b7f596f7520617265206e6f742074686520686f6c646572206f662074686973207060008201527f6f6c696379000000000000000000000000000000000000000000000000000000602082015250565b60006107196025836106ac565b9150610724826106bd565b604082019050919050565b600060208201905081810360008301526107488161070c565b9050919050565b7f506f6c69637920697320616c72656164792063616e63656c6564000000000000600082015250565b6000610785601a836106ac565b91506107908261074f565b602082019050919050565b600060208201905081810360008301526107b481610778565b9050919050565b7f5072656d69756d20616d6f756e742073686f756c64206265207061696420647560008201527f72696e6720706f6c696379206372656174696f6e000000000000000000000000602082015250565b60006108176034836106ac565b9150610822826107bb565b604082019050919050565b600060208201905081810360008301526108468161080a565b9050919050565b7f506f6c696379206475726174696f6e2073686f756c642062652067726561746560008201527f72207468616e207a65726f000000000000000000000000000000000000000000602082015250565b60006108a9602b836106ac565b91506108b48261084d565b604082019050919050565b600060208201905081810360008301526108d88161089c565b9050919050565b7f4e487b7100000000000000000000000000000000000000000000000000000000600052601160045260246000fd5b6000610919826105b9565b9150610924836105b9565b925082820190508082111561093c5761093b6108df565b5b92915050565b60008160601b9050919050565b600061095a82610942565b9050919050565b600061096c8261094f565b9050919050565b61098461097f82610598565b610961565b82525050565b6000819050919050565b6109a56109a0826105b9565b61098a565b82525050565b60006109b78286610973565b6014820191506109c78285610994565b6020820191506109d78284610994565b602082019150819050949350505050565b60006040820190506109fd60008301856105c3565b610a0a60208301846105c3565b939250505056fea2646970667358221220f8f1104082c4987e01bfa590eaf71ca491036a9cc0ca05a90299dd6761ad8b7064736f6c63430008180033",
  "linkReferences": {},
  "deployedLinkReferences": {}
}