{
  "_format": "hh-sol-artifact-1",
  "contractName": "PolicyContract",
  "sourceName": "contracts/PolicyContract.sol",
  "abi": [
    {
      "inputs": [],
      "stateMutability": "nonpayable",
      "type": "constructor"
    },
    {
      "anonymous": false,
      "inputs": [
        {
          "indexed": true,
          "internalType": "bytes32",
          "name": "policyId",
          "type": "bytes32"
        },
        {
          "indexed": true,
          "internalType": "address",
          "name": "holder",
          "type": "address"
        },
        {
          "indexed": false,
          "internalType": "uint256",
          "name": "startDate",
          "type": "uint256"
        },
        {
          "indexed": false,
          "internalType": "uint256",
          "name": "endDate",
          "type": "uint256"
        }
      ],
      "name": "PolicyCreated",
      "type": "event"
    },
    {
      "anonymous": false,
      "inputs": [
        {
          "components": [
            {
              "internalType": "bytes32",
              "name": "_id",
              "type": "bytes32"
            },
            {
              "internalType": "address",
              "name": "holder",
              "type": "address"
            },
            {
              "internalType": "uint256",
              "name": "premiumAmount",
              "type": "uint256"
            },
            {
              "internalType": "uint256",
              "name": "startDate",
              "type": "uint256"
            },
            {
              "internalType": "uint256",
              "name": "endDate",
              "type": "uint256"
            },
            {
              "internalType": "bool",
              "name": "isActive",
              "type": "bool"
            },
            {
              "internalType": "uint256",
              "name": "maturityAmount",
              "type": "uint256"
            },
            {
              "internalType": "string",
              "name": "name",
              "type": "string"
            },
            {
              "internalType": "string",
              "name": "typeOfTreatment",
              "type": "string"
            }
          ],
          "indexed": false,
          "internalType": "struct PolicyContract.Policy[]",
          "name": "userPolicies",
          "type": "tuple[]"
        }
      ],
      "name": "ReturnUserPolicies",
      "type": "event"
    },
    {
      "inputs": [
        {
          "internalType": "bytes32",
          "name": "_policyId",
          "type": "bytes32"
        }
      ],
      "name": "cancelPolicy",
      "outputs": [],
      "stateMutability": "nonpayable",
      "type": "function"
    },
    {
      "inputs": [
        {
          "internalType": "string",
          "name": "_name",
          "type": "string"
        },
        {
          "internalType": "string",
          "name": "_typeOfTreatment",
          "type": "string"
        },
        {
          "internalType": "uint256",
          "name": "_premiumAmount",
          "type": "uint256"
        },
        {
          "internalType": "uint256",
          "name": "_duration",
          "type": "uint256"
        },
        {
          "internalType": "uint256",
          "name": "_maturityAmount",
          "type": "uint256"
        }
      ],
      "name": "createPolicy",
      "outputs": [],
      "stateMutability": "nonpayable",
      "type": "function"
    },
    {
      "inputs": [
        {
          "internalType": "bytes32",
          "name": "_policyId",
          "type": "bytes32"
        }
      ],
      "name": "getPolicy",
      "outputs": [
        {
          "components": [
            {
              "internalType": "bytes32",
              "name": "_id",
              "type": "bytes32"
            },
            {
              "internalType": "address",
              "name": "holder",
              "type": "address"
            },
            {
              "internalType": "uint256",
              "name": "premiumAmount",
              "type": "uint256"
            },
            {
              "internalType": "uint256",
              "name": "startDate",
              "type": "uint256"
            },
            {
              "internalType": "uint256",
              "name": "endDate",
              "type": "uint256"
            },
            {
              "internalType": "bool",
              "name": "isActive",
              "type": "bool"
            },
            {
              "internalType": "uint256",
              "name": "maturityAmount",
              "type": "uint256"
            },
            {
              "internalType": "string",
              "name": "name",
              "type": "string"
            },
            {
              "internalType": "string",
              "name": "typeOfTreatment",
              "type": "string"
            }
          ],
          "internalType": "struct PolicyContract.Policy",
          "name": "",
          "type": "tuple"
        }
      ],
      "stateMutability": "view",
      "type": "function"
    },
    {
      "inputs": [
        {
          "internalType": "address",
          "name": "_userAddr",
          "type": "address"
        }
      ],
      "name": "getUserPolicies",
      "outputs": [
        {
          "components": [
            {
              "internalType": "bytes32",
              "name": "_id",
              "type": "bytes32"
            },
            {
              "internalType": "address",
              "name": "holder",
              "type": "address"
            },
            {
              "internalType": "uint256",
              "name": "premiumAmount",
              "type": "uint256"
            },
            {
              "internalType": "uint256",
              "name": "startDate",
              "type": "uint256"
            },
            {
              "internalType": "uint256",
              "name": "endDate",
              "type": "uint256"
            },
            {
              "internalType": "bool",
              "name": "isActive",
              "type": "bool"
            },
            {
              "internalType": "uint256",
              "name": "maturityAmount",
              "type": "uint256"
            },
            {
              "internalType": "string",
              "name": "name",
              "type": "string"
            },
            {
              "internalType": "string",
              "name": "typeOfTreatment",
              "type": "string"
            }
          ],
          "internalType": "struct PolicyContract.Policy[]",
          "name": "UserPolicies",
          "type": "tuple[]"
        }
      ],
      "stateMutability": "nonpayable",
      "type": "function"
    },
    {
      "inputs": [],
      "name": "owner",
      "outputs": [
        {
          "internalType": "address payable",
          "name": "",
          "type": "address"
        }
      ],
      "stateMutability": "view",
      "type": "function"
    },
    {
      "inputs": [
        {
          "internalType": "bytes32",
          "name": "",
          "type": "bytes32"
        }
      ],
      "name": "policies",
      "outputs": [
        {
          "internalType": "bytes32",
          "name": "_id",
          "type": "bytes32"
        },
        {
          "internalType": "address",
          "name": "holder",
          "type": "address"
        },
        {
          "internalType": "uint256",
          "name": "premiumAmount",
          "type": "uint256"
        },
        {
          "internalType": "uint256",
          "name": "startDate",
          "type": "uint256"
        },
        {
          "internalType": "uint256",
          "name": "endDate",
          "type": "uint256"
        },
        {
          "internalType": "bool",
          "name": "isActive",
          "type": "bool"
        },
        {
          "internalType": "uint256",
          "name": "maturityAmount",
          "type": "uint256"
        },
        {
          "internalType": "string",
          "name": "name",
          "type": "string"
        },
        {
          "internalType": "string",
          "name": "typeOfTreatment",
          "type": "string"
        }
      ],
      "stateMutability": "view",
      "type": "function"
    },
    {
      "inputs": [
        {
          "internalType": "address",
          "name": "",
          "type": "address"
        },
        {
          "internalType": "uint256",
          "name": "",
          "type": "uint256"
        }
      ],
      "name": "userPolicies",
      "outputs": [
        {
          "internalType": "bytes32",
          "name": "",
          "type": "bytes32"
        }
      ],
      "stateMutability": "view",
      "type": "function"
    },
    {
      "inputs": [],
      "name": "withdraw",
      "outputs": [],
      "stateMutability": "nonpayable",
      "type": "function"
    }
  ],
  "bytecode": "0x608060405234801561001057600080fd5b5033600260006101000a81548173ffffffffffffffffffffffffffffffffffffffff021916908373ffffffffffffffffffffffffffffffffffffffff160217905550611bfe806100616000396000f3fe608060405234801561001057600080fd5b50600436106100885760003560e01c80638da5cb5b1161005b5780638da5cb5b14610113578063a3f685f914610131578063a86146d014610161578063ddbfd8ef1461017d57610088565b806319ac46141461008d5780633ccfd60b146100bd5780633d36adc5146100c7578063664ecc2a146100f7575b600080fd5b6100a760048036038101906100a29190610d1f565b6101b5565b6040516100b49190610fc6565b60405180910390f35b6100c56103c3565b005b6100e160048036038101906100dc9190611014565b6104be565b6040516100ee9190611063565b60405180910390f35b610111600480360381019061010c91906111b3565b6104ef565b005b61011b610765565b6040516101289190611287565b60405180910390f35b61014b600480360381019061014691906112ce565b61078b565b60405161015891906113c7565b60405180910390f35b61017b600480360381019061017691906112ce565b610985565b005b610197600480360381019061019291906112ce565b610abb565b6040516101ac99989796959493929190611460565b60405180910390f35b60606000600160008473ffffffffffffffffffffffffffffffffffffffff1673ffffffffffffffffffffffffffffffffffffffff168152602001908152602001600020805490501161023c576040517f08c379a000000000000000000000000000000000000000000000000000000000815260040161023390611547565b60405180910390fd5b6000600160008473ffffffffffffffffffffffffffffffffffffffff1673ffffffffffffffffffffffffffffffffffffffff1681526020019081526020016000208054806020026020016040519081016040528092919081815260200182805480156102c757602002820191906000526020600020905b8154815260200190600101908083116102b3575b505050505090506000815167ffffffffffffffff8111156102eb576102ea611088565b5b60405190808252806020026020018201604052801561032457816020015b610311610c46565b8152602001906001900390816103095790505b50905060005b82518110156103815761035683828151811061034957610348611567565b5b602002602001015161078b565b82828151811061036957610368611567565b5b6020026020010181905250808060010191505061032a565b507f44a6ae2f9bb593f609c7e1beb7becd1230e98b61adf6269ac466d90f51926cce816040516103b19190610fc6565b60405180910390a18092505050919050565b600260009054906101000a900473ffffffffffffffffffffffffffffffffffffffff1673ffffffffffffffffffffffffffffffffffffffff163373ffffffffffffffffffffffffffffffffffffffff1614610453576040517f08c379a000000000000000000000000000000000000000000000000000000000815260040161044a90611608565b60405180910390fd5b600260009054906101000a900473ffffffffffffffffffffffffffffffffffffffff1673ffffffffffffffffffffffffffffffffffffffff166108fc479081150290604051600060405180830381858888f193505050501580156104bb573d6000803e3d6000fd5b50565b600160205281600052604060002081815481106104da57600080fd5b90600052602060002001600091509150505481565b60008211610532576040517f08c379a00000000000000000000000000000000000000000000000000000000081526004016105299061169a565b60405180910390fd5b6000824261054091906116e9565b9050600033424460405160200161055993929190611786565b6040516020818303038152906040528051906020012090506040518061012001604052808281526020013373ffffffffffffffffffffffffffffffffffffffff168152602001868152602001428152602001838152602001600115158152602001848152602001888152602001878152506000808381526020019081526020016000206000820151816000015560208201518160010160006101000a81548173ffffffffffffffffffffffffffffffffffffffff021916908373ffffffffffffffffffffffffffffffffffffffff16021790555060408201518160020155606082015181600301556080820151816004015560a08201518160050160006101000a81548160ff02191690831515021790555060c0820151816006015560e082015181600701908161068a91906119cf565b506101008201518160080190816106a191906119cf565b50905050600160003373ffffffffffffffffffffffffffffffffffffffff1673ffffffffffffffffffffffffffffffffffffffff1681526020019081526020016000208190806001815401808255809150506001900390600052602060002001600090919091909150553373ffffffffffffffffffffffffffffffffffffffff16817f205277be9ac92163fe2e90703802f84c6722bf45927714baa72ea9295c360ff64285604051610754929190611aa1565b60405180910390a350505050505050565b600260009054906101000a900473ffffffffffffffffffffffffffffffffffffffff1681565b610793610c46565b600080600084815260200190815260200160002090508060405180610120016040529081600082015481526020016001820160009054906101000a900473ffffffffffffffffffffffffffffffffffffffff1673ffffffffffffffffffffffffffffffffffffffff1673ffffffffffffffffffffffffffffffffffffffff1681526020016002820154815260200160038201548152602001600482015481526020016005820160009054906101000a900460ff1615151515815260200160068201548152602001600782018054610869906117f2565b80601f0160208091040260200160405190810160405280929190818152602001828054610895906117f2565b80156108e25780601f106108b7576101008083540402835291602001916108e2565b820191906000526020600020905b8154815290600101906020018083116108c557829003601f168201915b505050505081526020016008820180546108fb906117f2565b80601f0160208091040260200160405190810160405280929190818152602001828054610927906117f2565b80156109745780601f1061094957610100808354040283529160200191610974565b820191906000526020600020905b81548152906001019060200180831161095757829003601f168201915b505050505081525050915050919050565b3373ffffffffffffffffffffffffffffffffffffffff1660008083815260200190815260200160002060010160009054906101000a900473ffffffffffffffffffffffffffffffffffffffff1673ffffffffffffffffffffffffffffffffffffffff1614610a28576040517f08c379a0000000000000000000000000000000000000000000000000000000008152600401610a1f90611b3c565b60405180910390fd5b60008082815260200190815260200160002060050160009054906101000a900460ff16610a8a576040517f08c379a0000000000000000000000000000000000000000000000000000000008152600401610a8190611ba8565b60405180910390fd5b600080600083815260200190815260200160002060050160006101000a81548160ff02191690831515021790555050565b60006020528060005260406000206000915090508060000154908060010160009054906101000a900473ffffffffffffffffffffffffffffffffffffffff16908060020154908060030154908060040154908060050160009054906101000a900460ff1690806006015490806007018054610b35906117f2565b80601f0160208091040260200160405190810160405280929190818152602001828054610b61906117f2565b8015610bae5780601f10610b8357610100808354040283529160200191610bae565b820191906000526020600020905b815481529060010190602001808311610b9157829003601f168201915b505050505090806008018054610bc3906117f2565b80601f0160208091040260200160405190810160405280929190818152602001828054610bef906117f2565b8015610c3c5780601f10610c1157610100808354040283529160200191610c3c565b820191906000526020600020905b815481529060010190602001808311610c1f57829003601f168201915b5050505050905089565b60405180610120016040528060008019168152602001600073ffffffffffffffffffffffffffffffffffffffff1681526020016000815260200160008152602001600081526020016000151581526020016000815260200160608152602001606081525090565b6000604051905090565b600080fd5b600080fd5b600073ffffffffffffffffffffffffffffffffffffffff82169050919050565b6000610cec82610cc1565b9050919050565b610cfc81610ce1565b8114610d0757600080fd5b50565b600081359050610d1981610cf3565b92915050565b600060208284031215610d3557610d34610cb7565b5b6000610d4384828501610d0a565b91505092915050565b600081519050919050565b600082825260208201905092915050565b6000819050602082019050919050565b6000819050919050565b610d8b81610d78565b82525050565b610d9a81610ce1565b82525050565b6000819050919050565b610db381610da0565b82525050565b60008115159050919050565b610dce81610db9565b82525050565b600081519050919050565b600082825260208201905092915050565b60005b83811015610e0e578082015181840152602081019050610df3565b60008484015250505050565b6000601f19601f8301169050919050565b6000610e3682610dd4565b610e408185610ddf565b9350610e50818560208601610df0565b610e5981610e1a565b840191505092915050565b600061012083016000830151610e7d6000860182610d82565b506020830151610e906020860182610d91565b506040830151610ea36040860182610daa565b506060830151610eb66060860182610daa565b506080830151610ec96080860182610daa565b5060a0830151610edc60a0860182610dc5565b5060c0830151610eef60c0860182610daa565b5060e083015184820360e0860152610f078282610e2b565b915050610100830151848203610100860152610f238282610e2b565b9150508091505092915050565b6000610f3c8383610e64565b905092915050565b6000602082019050919050565b6000610f5c82610d4c565b610f668185610d57565b935083602082028501610f7885610d68565b8060005b85811015610fb45784840389528151610f958582610f30565b9450610fa083610f44565b925060208a01995050600181019050610f7c565b50829750879550505050505092915050565b60006020820190508181036000830152610fe08184610f51565b905092915050565b610ff181610da0565b8114610ffc57600080fd5b50565b60008135905061100e81610fe8565b92915050565b6000806040838503121561102b5761102a610cb7565b5b600061103985828601610d0a565b925050602061104a85828601610fff565b9150509250929050565b61105d81610d78565b82525050565b60006020820190506110786000830184611054565b92915050565b600080fd5b600080fd5b7f4e487b7100000000000000000000000000000000000000000000000000000000600052604160045260246000fd5b6110c082610e1a565b810181811067ffffffffffffffff821117156110df576110de611088565b5b80604052505050565b60006110f2610cad565b90506110fe82826110b7565b919050565b600067ffffffffffffffff82111561111e5761111d611088565b5b61112782610e1a565b9050602081019050919050565b82818337600083830152505050565b600061115661115184611103565b6110e8565b90508281526020810184848401111561117257611171611083565b5b61117d848285611134565b509392505050565b600082601f83011261119a5761119961107e565b5b81356111aa848260208601611143565b91505092915050565b600080600080600060a086880312156111cf576111ce610cb7565b5b600086013567ffffffffffffffff8111156111ed576111ec610cbc565b5b6111f988828901611185565b955050602086013567ffffffffffffffff81111561121a57611219610cbc565b5b61122688828901611185565b945050604061123788828901610fff565b935050606061124888828901610fff565b925050608061125988828901610fff565b9150509295509295909350565b600061127182610cc1565b9050919050565b61128181611266565b82525050565b600060208201905061129c6000830184611278565b92915050565b6112ab81610d78565b81146112b657600080fd5b50565b6000813590506112c8816112a2565b92915050565b6000602082840312156112e4576112e3610cb7565b5b60006112f2848285016112b9565b91505092915050565b6000610120830160008301516113146000860182610d82565b5060208301516113276020860182610d91565b50604083015161133a6040860182610daa565b50606083015161134d6060860182610daa565b5060808301516113606080860182610daa565b5060a083015161137360a0860182610dc5565b5060c083015161138660c0860182610daa565b5060e083015184820360e086015261139e8282610e2b565b9150506101008301518482036101008601526113ba8282610e2b565b9150508091505092915050565b600060208201905081810360008301526113e181846112fb565b905092915050565b6113f281610ce1565b82525050565b61140181610da0565b82525050565b61141081610db9565b82525050565b600082825260208201905092915050565b600061143282610dd4565b61143c8185611416565b935061144c818560208601610df0565b61145581610e1a565b840191505092915050565b600061012082019050611476600083018c611054565b611483602083018b6113e9565b611490604083018a6113f8565b61149d60608301896113f8565b6114aa60808301886113f8565b6114b760a0830187611407565b6114c460c08301866113f8565b81810360e08301526114d68185611427565b90508181036101008301526114eb8184611427565b90509a9950505050505050505050565b7f5573657220706f6c6963696573206e6f742070726573656e7400000000000000600082015250565b6000611531601983611416565b915061153c826114fb565b602082019050919050565b6000602082019050818103600083015261156081611524565b9050919050565b7f4e487b7100000000000000000000000000000000000000000000000000000000600052603260045260246000fd5b7f4f6e6c7920746865206f776e65722063616e2077697468647261772066756e6460008201527f7300000000000000000000000000000000000000000000000000000000000000602082015250565b60006115f2602183611416565b91506115fd82611596565b604082019050919050565b60006020820190508181036000830152611621816115e5565b9050919050565b7f506f6c696379206475726174696f6e2073686f756c642062652067726561746560008201527f72207468616e207a65726f000000000000000000000000000000000000000000602082015250565b6000611684602b83611416565b915061168f82611628565b604082019050919050565b600060208201905081810360008301526116b381611677565b9050919050565b7f4e487b7100000000000000000000000000000000000000000000000000000000600052601160045260246000fd5b60006116f482610da0565b91506116ff83610da0565b9250828201905080821115611717576117166116ba565b5b92915050565b60008160601b9050919050565b60006117358261171d565b9050919050565b60006117478261172a565b9050919050565b61175f61175a82610ce1565b61173c565b82525050565b6000819050919050565b61178061177b82610da0565b611765565b82525050565b6000611792828661174e565b6014820191506117a2828561176f565b6020820191506117b2828461176f565b602082019150819050949350505050565b7f4e487b7100000000000000000000000000000000000000000000000000000000600052602260045260246000fd5b6000600282049050600182168061180a57607f821691505b60208210810361181d5761181c6117c3565b5b50919050565b60008190508160005260206000209050919050565b60006020601f8301049050919050565b600082821b905092915050565b6000600883026118857fffffffffffffffffffffffffffffffffffffffffffffffffffffffffffffffff82611848565b61188f8683611848565b95508019841693508086168417925050509392505050565b6000819050919050565b60006118cc6118c76118c284610da0565b6118a7565b610da0565b9050919050565b6000819050919050565b6118e6836118b1565b6118fa6118f2826118d3565b848454611855565b825550505050565b600090565b61190f611902565b61191a8184846118dd565b505050565b5b8181101561193e57611933600082611907565b600181019050611920565b5050565b601f8211156119835761195481611823565b61195d84611838565b8101602085101561196c578190505b61198061197885611838565b83018261191f565b50505b505050565b600082821c905092915050565b60006119a660001984600802611988565b1980831691505092915050565b60006119bf8383611995565b9150826002028217905092915050565b6119d882610dd4565b67ffffffffffffffff8111156119f1576119f0611088565b5b6119fb82546117f2565b611a06828285611942565b600060209050601f831160018114611a395760008415611a27578287015190505b611a3185826119b3565b865550611a99565b601f198416611a4786611823565b60005b82811015611a6f57848901518255600182019150602085019450602081019050611a4a565b86831015611a8c5784890151611a88601f891682611995565b8355505b6001600288020188555050505b505050505050565b6000604082019050611ab660008301856113f8565b611ac360208301846113f8565b9392505050565b7f596f7520617265206e6f742074686520686f6c646572206f662074686973207060008201527f6f6c696379000000000000000000000000000000000000000000000000000000602082015250565b6000611b26602583611416565b9150611b3182611aca565b604082019050919050565b60006020820190508181036000830152611b5581611b19565b9050919050565b7f506f6c69637920697320616c72656164792063616e63656c6564000000000000600082015250565b6000611b92601a83611416565b9150611b9d82611b5c565b602082019050919050565b60006020820190508181036000830152611bc181611b85565b905091905056fea2646970667358221220ef81c4212cf0d3a1408f38c159bf0b34ffb2d76b5561e04f11af1dd911cc6f3264736f6c63430008180033",
  "linkReferences": {},
  "deployedLinkReferences": {}
}