{
  "contracts/PolicyContract.sol": {
    "PolicyContract": {
      "abi": [
        {
          "inputs": [],
          "stateMutability": "nonpayable",
          "type": "constructor"
        },
        {
          "anonymous": false,
          "inputs": [
            {
              "indexed": true,
              "internalType": "bytes32",
              "name": "policyId",
              "type": "bytes32"
            },
            {
              "indexed": true,
              "internalType": "address",
              "name": "holder",
              "type": "address"
            },
            {
              "indexed": false,
              "internalType": "uint256",
              "name": "startDate",
              "type": "uint256"
            },
            {
              "indexed": false,
              "internalType": "uint256",
              "name": "endDate",
              "type": "uint256"
            }
          ],
          "name": "PolicyCreated",
          "type": "event"
        },
        {
          "anonymous": false,
          "inputs": [
            {
              "components": [
                {
                  "internalType": "address",
                  "name": "holder",
                  "type": "address"
                },
                {
                  "internalType": "uint256",
                  "name": "premiumAmount",
                  "type": "uint256"
                },
                {
                  "internalType": "uint256",
                  "name": "startDate",
                  "type": "uint256"
                },
                {
                  "internalType": "uint256",
                  "name": "endDate",
                  "type": "uint256"
                },
                {
                  "internalType": "bool",
                  "name": "isActive",
                  "type": "bool"
                },
                {
                  "internalType": "uint256",
                  "name": "maturityAmount",
                  "type": "uint256"
                },
                {
                  "internalType": "string",
                  "name": "name",
                  "type": "string"
                },
                {
                  "internalType": "string",
                  "name": "typeOfTreatment",
                  "type": "string"
                }
              ],
              "indexed": false,
              "internalType": "struct PolicyContract.Policy[]",
              "name": "userPolicies",
              "type": "tuple[]"
            }
          ],
          "name": "ReturnUserPolicies",
          "type": "event"
        },
        {
          "inputs": [
            {
              "internalType": "bytes32",
              "name": "_policyId",
              "type": "bytes32"
            }
          ],
          "name": "cancelPolicy",
          "outputs": [],
          "stateMutability": "nonpayable",
          "type": "function"
        },
        {
          "inputs": [
            {
              "internalType": "string",
              "name": "name",
              "type": "string"
            },
            {
              "internalType": "string",
              "name": "_typeOfTreatment",
              "type": "string"
            },
            {
              "internalType": "uint256",
              "name": "_premiumAmount",
              "type": "uint256"
            },
            {
              "internalType": "uint256",
              "name": "_duration",
              "type": "uint256"
            },
            {
              "internalType": "uint256",
              "name": "_maturityAmount",
              "type": "uint256"
            }
          ],
          "name": "createPolicy",
          "outputs": [],
          "stateMutability": "nonpayable",
          "type": "function"
        },
        {
          "inputs": [
            {
              "internalType": "bytes32",
              "name": "_policyId",
              "type": "bytes32"
            }
          ],
          "name": "getPolicy",
          "outputs": [
            {
              "components": [
                {
                  "internalType": "address",
                  "name": "holder",
                  "type": "address"
                },
                {
                  "internalType": "uint256",
                  "name": "premiumAmount",
                  "type": "uint256"
                },
                {
                  "internalType": "uint256",
                  "name": "startDate",
                  "type": "uint256"
                },
                {
                  "internalType": "uint256",
                  "name": "endDate",
                  "type": "uint256"
                },
                {
                  "internalType": "bool",
                  "name": "isActive",
                  "type": "bool"
                },
                {
                  "internalType": "uint256",
                  "name": "maturityAmount",
                  "type": "uint256"
                },
                {
                  "internalType": "string",
                  "name": "name",
                  "type": "string"
                },
                {
                  "internalType": "string",
                  "name": "typeOfTreatment",
                  "type": "string"
                }
              ],
              "internalType": "struct PolicyContract.Policy",
              "name": "",
              "type": "tuple"
            }
          ],
          "stateMutability": "view",
          "type": "function"
        },
        {
          "inputs": [
            {
              "internalType": "address",
              "name": "_userAddr",
              "type": "address"
            }
          ],
          "name": "getUserPolicies",
          "outputs": [
            {
              "components": [
                {
                  "internalType": "address",
                  "name": "holder",
                  "type": "address"
                },
                {
                  "internalType": "uint256",
                  "name": "premiumAmount",
                  "type": "uint256"
                },
                {
                  "internalType": "uint256",
                  "name": "startDate",
                  "type": "uint256"
                },
                {
                  "internalType": "uint256",
                  "name": "endDate",
                  "type": "uint256"
                },
                {
                  "internalType": "bool",
                  "name": "isActive",
                  "type": "bool"
                },
                {
                  "internalType": "uint256",
                  "name": "maturityAmount",
                  "type": "uint256"
                },
                {
                  "internalType": "string",
                  "name": "name",
                  "type": "string"
                },
                {
                  "internalType": "string",
                  "name": "typeOfTreatment",
                  "type": "string"
                }
              ],
              "internalType": "struct PolicyContract.Policy[]",
              "name": "UserPolicies",
              "type": "tuple[]"
            }
          ],
          "stateMutability": "nonpayable",
          "type": "function"
        },
        {
          "inputs": [],
          "name": "owner",
          "outputs": [
            {
              "internalType": "address payable",
              "name": "",
              "type": "address"
            }
          ],
          "stateMutability": "view",
          "type": "function"
        },
        {
          "inputs": [
            {
              "internalType": "bytes32",
              "name": "",
              "type": "bytes32"
            }
          ],
          "name": "policies",
          "outputs": [
            {
              "internalType": "address",
              "name": "holder",
              "type": "address"
            },
            {
              "internalType": "uint256",
              "name": "premiumAmount",
              "type": "uint256"
            },
            {
              "internalType": "uint256",
              "name": "startDate",
              "type": "uint256"
            },
            {
              "internalType": "uint256",
              "name": "endDate",
              "type": "uint256"
            },
            {
              "internalType": "bool",
              "name": "isActive",
              "type": "bool"
            },
            {
              "internalType": "uint256",
              "name": "maturityAmount",
              "type": "uint256"
            },
            {
              "internalType": "string",
              "name": "name",
              "type": "string"
            },
            {
              "internalType": "string",
              "name": "typeOfTreatment",
              "type": "string"
            }
          ],
          "stateMutability": "view",
          "type": "function"
        },
        {
          "inputs": [
            {
              "internalType": "address",
              "name": "",
              "type": "address"
            },
            {
              "internalType": "uint256",
              "name": "",
              "type": "uint256"
            }
          ],
          "name": "userPolicies",
          "outputs": [
            {
              "internalType": "bytes32",
              "name": "",
              "type": "bytes32"
            }
          ],
          "stateMutability": "view",
          "type": "function"
        },
        {
          "inputs": [],
          "name": "withdraw",
          "outputs": [],
          "stateMutability": "nonpayable",
          "type": "function"
        }
      ],
      "evm": {
        "bytecode": {
          "linkReferences": {},
          "object": "608060405234801561001057600080fd5b5033600260006101000a81548173ffffffffffffffffffffffffffffffffffffffff021916908373ffffffffffffffffffffffffffffffffffffffff160217905550611b8a806100616000396000f3fe608060405234801561001057600080fd5b50600436106100885760003560e01c80638da5cb5b1161005b5780638da5cb5b14610113578063a3f685f914610131578063a86146d014610161578063ddbfd8ef1461017d57610088565b806319ac46141461008d5780633ccfd60b146100bd5780633d36adc5146100c7578063664ecc2a146100f7575b600080fd5b6100a760048036038101906100a29190610cf3565b6101b4565b6040516100b49190610f6c565b60405180910390f35b6100c56103c2565b005b6100e160048036038101906100dc9190610fba565b6104bd565b6040516100ee9190611013565b60405180910390f35b610111600480360381019061010c9190611163565b6104ee565b005b61011b610753565b6040516101289190611237565b60405180910390f35b61014b6004803603810190610146919061127e565b610779565b6040516101589190611362565b60405180910390f35b61017b6004803603810190610176919061127e565b610969565b005b6101976004803603810190610192919061127e565b610a9f565b6040516101ab9897969594939291906113fb565b60405180910390f35b60606000600160008473ffffffffffffffffffffffffffffffffffffffff1673ffffffffffffffffffffffffffffffffffffffff168152602001908152602001600020805490501161023b576040517f08c379a0000000000000000000000000000000000000000000000000000000008152600401610232906114d3565b60405180910390fd5b6000600160008473ffffffffffffffffffffffffffffffffffffffff1673ffffffffffffffffffffffffffffffffffffffff1681526020019081526020016000208054806020026020016040519081016040528092919081815260200182805480156102c657602002820191906000526020600020905b8154815260200190600101908083116102b2575b505050505090506000815167ffffffffffffffff8111156102ea576102e9611038565b5b60405190808252806020026020018201604052801561032357816020015b610310610c24565b8152602001906001900390816103085790505b50905060005b825181101561038057610355838281518110610348576103476114f3565b5b6020026020010151610779565b828281518110610368576103676114f3565b5b60200260200101819052508080600101915050610329565b507f48dc643358ba0a4edaaa5a2da4959e13d9540c569230bc374431f4ee843a4fc9816040516103b09190610f6c565b60405180910390a18092505050919050565b600260009054906101000a900473ffffffffffffffffffffffffffffffffffffffff1673ffffffffffffffffffffffffffffffffffffffff163373ffffffffffffffffffffffffffffffffffffffff1614610452576040517f08c379a000000000000000000000000000000000000000000000000000000000815260040161044990611594565b60405180910390fd5b600260009054906101000a900473ffffffffffffffffffffffffffffffffffffffff1673ffffffffffffffffffffffffffffffffffffffff166108fc479081150290604051600060405180830381858888f193505050501580156104ba573d6000803e3d6000fd5b50565b600160205281600052604060002081815481106104d957600080fd5b90600052602060002001600091509150505481565b60008211610531576040517f08c379a000000000000000000000000000000000000000000000000000000000815260040161052890611626565b60405180910390fd5b6000824261053f9190611675565b9050600033424460405160200161055893929190611712565b6040516020818303038152906040528051906020012090506040518061010001604052803373ffffffffffffffffffffffffffffffffffffffff1681526020018681526020014281526020018381526020016001151581526020018481526020018881526020018781525060008083815260200190815260200160002060008201518160000160006101000a81548173ffffffffffffffffffffffffffffffffffffffff021916908373ffffffffffffffffffffffffffffffffffffffff16021790555060208201518160010155604082015181600201556060820151816003015560808201518160040160006101000a81548160ff02191690831515021790555060a0820151816005015560c0820151816006019081610679919061195b565b5060e082015181600701908161068f919061195b565b50905050600160003373ffffffffffffffffffffffffffffffffffffffff1673ffffffffffffffffffffffffffffffffffffffff1681526020019081526020016000208190806001815401808255809150506001900390600052602060002001600090919091909150553373ffffffffffffffffffffffffffffffffffffffff16817f205277be9ac92163fe2e90703802f84c6722bf45927714baa72ea9295c360ff64285604051610742929190611a2d565b60405180910390a350505050505050565b600260009054906101000a900473ffffffffffffffffffffffffffffffffffffffff1681565b610781610c24565b6000806000848152602001908152602001600020905080604051806101000160405290816000820160009054906101000a900473ffffffffffffffffffffffffffffffffffffffff1673ffffffffffffffffffffffffffffffffffffffff1673ffffffffffffffffffffffffffffffffffffffff1681526020016001820154815260200160028201548152602001600382015481526020016004820160009054906101000a900460ff161515151581526020016005820154815260200160068201805461084d9061177e565b80601f01602080910402602001604051908101604052809291908181526020018280546108799061177e565b80156108c65780601f1061089b576101008083540402835291602001916108c6565b820191906000526020600020905b8154815290600101906020018083116108a957829003601f168201915b505050505081526020016007820180546108df9061177e565b80601f016020809104026020016040519081016040528092919081815260200182805461090b9061177e565b80156109585780601f1061092d57610100808354040283529160200191610958565b820191906000526020600020905b81548152906001019060200180831161093b57829003601f168201915b505050505081525050915050919050565b3373ffffffffffffffffffffffffffffffffffffffff1660008083815260200190815260200160002060000160009054906101000a900473ffffffffffffffffffffffffffffffffffffffff1673ffffffffffffffffffffffffffffffffffffffff1614610a0c576040517f08c379a0000000000000000000000000000000000000000000000000000000008152600401610a0390611ac8565b60405180910390fd5b60008082815260200190815260200160002060040160009054906101000a900460ff16610a6e576040517f08c379a0000000000000000000000000000000000000000000000000000000008152600401610a6590611b34565b60405180910390fd5b600080600083815260200190815260200160002060040160006101000a81548160ff02191690831515021790555050565b60006020528060005260406000206000915090508060000160009054906101000a900473ffffffffffffffffffffffffffffffffffffffff16908060010154908060020154908060030154908060040160009054906101000a900460ff1690806005015490806006018054610b139061177e565b80601f0160208091040260200160405190810160405280929190818152602001828054610b3f9061177e565b8015610b8c5780601f10610b6157610100808354040283529160200191610b8c565b820191906000526020600020905b815481529060010190602001808311610b6f57829003601f168201915b505050505090806007018054610ba19061177e565b80601f0160208091040260200160405190810160405280929190818152602001828054610bcd9061177e565b8015610c1a5780601f10610bef57610100808354040283529160200191610c1a565b820191906000526020600020905b815481529060010190602001808311610bfd57829003601f168201915b5050505050905088565b604051806101000160405280600073ffffffffffffffffffffffffffffffffffffffff1681526020016000815260200160008152602001600081526020016000151581526020016000815260200160608152602001606081525090565b6000604051905090565b600080fd5b600080fd5b600073ffffffffffffffffffffffffffffffffffffffff82169050919050565b6000610cc082610c95565b9050919050565b610cd081610cb5565b8114610cdb57600080fd5b50565b600081359050610ced81610cc7565b92915050565b600060208284031215610d0957610d08610c8b565b5b6000610d1784828501610cde565b91505092915050565b600081519050919050565b600082825260208201905092915050565b6000819050602082019050919050565b610d5581610cb5565b82525050565b6000819050919050565b610d6e81610d5b565b82525050565b60008115159050919050565b610d8981610d74565b82525050565b600081519050919050565b600082825260208201905092915050565b60005b83811015610dc9578082015181840152602081019050610dae565b60008484015250505050565b6000601f19601f8301169050919050565b6000610df182610d8f565b610dfb8185610d9a565b9350610e0b818560208601610dab565b610e1481610dd5565b840191505092915050565b600061010083016000830151610e386000860182610d4c565b506020830151610e4b6020860182610d65565b506040830151610e5e6040860182610d65565b506060830151610e716060860182610d65565b506080830151610e846080860182610d80565b5060a0830151610e9760a0860182610d65565b5060c083015184820360c0860152610eaf8282610de6565b91505060e083015184820360e0860152610ec98282610de6565b9150508091505092915050565b6000610ee28383610e1f565b905092915050565b6000602082019050919050565b6000610f0282610d20565b610f0c8185610d2b565b935083602082028501610f1e85610d3c565b8060005b85811015610f5a5784840389528151610f3b8582610ed6565b9450610f4683610eea565b925060208a01995050600181019050610f22565b50829750879550505050505092915050565b60006020820190508181036000830152610f868184610ef7565b905092915050565b610f9781610d5b565b8114610fa257600080fd5b50565b600081359050610fb481610f8e565b92915050565b60008060408385031215610fd157610fd0610c8b565b5b6000610fdf85828601610cde565b9250506020610ff085828601610fa5565b9150509250929050565b6000819050919050565b61100d81610ffa565b82525050565b60006020820190506110286000830184611004565b92915050565b600080fd5b600080fd5b7f4e487b7100000000000000000000000000000000000000000000000000000000600052604160045260246000fd5b61107082610dd5565b810181811067ffffffffffffffff8211171561108f5761108e611038565b5b80604052505050565b60006110a2610c81565b90506110ae8282611067565b919050565b600067ffffffffffffffff8211156110ce576110cd611038565b5b6110d782610dd5565b9050602081019050919050565b82818337600083830152505050565b6000611106611101846110b3565b611098565b90508281526020810184848401111561112257611121611033565b5b61112d8482856110e4565b509392505050565b600082601f83011261114a5761114961102e565b5b813561115a8482602086016110f3565b91505092915050565b600080600080600060a0868803121561117f5761117e610c8b565b5b600086013567ffffffffffffffff81111561119d5761119c610c90565b5b6111a988828901611135565b955050602086013567ffffffffffffffff8111156111ca576111c9610c90565b5b6111d688828901611135565b94505060406111e788828901610fa5565b93505060606111f888828901610fa5565b925050608061120988828901610fa5565b9150509295509295909350565b600061122182610c95565b9050919050565b61123181611216565b82525050565b600060208201905061124c6000830184611228565b92915050565b61125b81610ffa565b811461126657600080fd5b50565b60008135905061127881611252565b92915050565b60006020828403121561129457611293610c8b565b5b60006112a284828501611269565b91505092915050565b6000610100830160008301516112c46000860182610d4c565b5060208301516112d76020860182610d65565b5060408301516112ea6040860182610d65565b5060608301516112fd6060860182610d65565b5060808301516113106080860182610d80565b5060a083015161132360a0860182610d65565b5060c083015184820360c086015261133b8282610de6565b91505060e083015184820360e08601526113558282610de6565b9150508091505092915050565b6000602082019050818103600083015261137c81846112ab565b905092915050565b61138d81610cb5565b82525050565b61139c81610d5b565b82525050565b6113ab81610d74565b82525050565b600082825260208201905092915050565b60006113cd82610d8f565b6113d781856113b1565b93506113e7818560208601610dab565b6113f081610dd5565b840191505092915050565b600061010082019050611411600083018b611384565b61141e602083018a611393565b61142b6040830189611393565b6114386060830188611393565b61144560808301876113a2565b61145260a0830186611393565b81810360c083015261146481856113c2565b905081810360e083015261147881846113c2565b90509998505050505050505050565b7f5573657220706f6c6963696573206e6f742070726573656e7400000000000000600082015250565b60006114bd6019836113b1565b91506114c882611487565b602082019050919050565b600060208201905081810360008301526114ec816114b0565b9050919050565b7f4e487b7100000000000000000000000000000000000000000000000000000000600052603260045260246000fd5b7f4f6e6c7920746865206f776e65722063616e2077697468647261772066756e6460008201527f7300000000000000000000000000000000000000000000000000000000000000602082015250565b600061157e6021836113b1565b915061158982611522565b604082019050919050565b600060208201905081810360008301526115ad81611571565b9050919050565b7f506f6c696379206475726174696f6e2073686f756c642062652067726561746560008201527f72207468616e207a65726f000000000000000000000000000000000000000000602082015250565b6000611610602b836113b1565b915061161b826115b4565b604082019050919050565b6000602082019050818103600083015261163f81611603565b9050919050565b7f4e487b7100000000000000000000000000000000000000000000000000000000600052601160045260246000fd5b600061168082610d5b565b915061168b83610d5b565b92508282019050808211156116a3576116a2611646565b5b92915050565b60008160601b9050919050565b60006116c1826116a9565b9050919050565b60006116d3826116b6565b9050919050565b6116eb6116e682610cb5565b6116c8565b82525050565b6000819050919050565b61170c61170782610d5b565b6116f1565b82525050565b600061171e82866116da565b60148201915061172e82856116fb565b60208201915061173e82846116fb565b602082019150819050949350505050565b7f4e487b7100000000000000000000000000000000000000000000000000000000600052602260045260246000fd5b6000600282049050600182168061179657607f821691505b6020821081036117a9576117a861174f565b5b50919050565b60008190508160005260206000209050919050565b60006020601f8301049050919050565b600082821b905092915050565b6000600883026118117fffffffffffffffffffffffffffffffffffffffffffffffffffffffffffffffff826117d4565b61181b86836117d4565b95508019841693508086168417925050509392505050565b6000819050919050565b600061185861185361184e84610d5b565b611833565b610d5b565b9050919050565b6000819050919050565b6118728361183d565b61188661187e8261185f565b8484546117e1565b825550505050565b600090565b61189b61188e565b6118a6818484611869565b505050565b5b818110156118ca576118bf600082611893565b6001810190506118ac565b5050565b601f82111561190f576118e0816117af565b6118e9846117c4565b810160208510156118f8578190505b61190c611904856117c4565b8301826118ab565b50505b505050565b600082821c905092915050565b600061193260001984600802611914565b1980831691505092915050565b600061194b8383611921565b9150826002028217905092915050565b61196482610d8f565b67ffffffffffffffff81111561197d5761197c611038565b5b611987825461177e565b6119928282856118ce565b600060209050601f8311600181146119c557600084156119b3578287015190505b6119bd858261193f565b865550611a25565b601f1984166119d3866117af565b60005b828110156119fb578489015182556001820191506020850194506020810190506119d6565b86831015611a185784890151611a14601f891682611921565b8355505b6001600288020188555050505b505050505050565b6000604082019050611a426000830185611393565b611a4f6020830184611393565b9392505050565b7f596f7520617265206e6f742074686520686f6c646572206f662074686973207060008201527f6f6c696379000000000000000000000000000000000000000000000000000000602082015250565b6000611ab26025836113b1565b9150611abd82611a56565b604082019050919050565b60006020820190508181036000830152611ae181611aa5565b9050919050565b7f506f6c69637920697320616c72656164792063616e63656c6564000000000000600082015250565b6000611b1e601a836113b1565b9150611b2982611ae8565b602082019050919050565b60006020820190508181036000830152611b4d81611b11565b905091905056fea2646970667358221220faaf7fe182c06c7c562fb76b4930632ca9cc9df5c2797347d78d430d1576406a64736f6c63430008180033",
          "opcodes": "PUSH1 0x80 PUSH1 0x40 MSTORE CALLVALUE DUP1 ISZERO PUSH2 0x10 JUMPI PUSH1 0x0 DUP1 REVERT JUMPDEST POP CALLER PUSH1 0x2 PUSH1 0x0 PUSH2 0x100 EXP DUP2 SLOAD DUP2 PUSH20 0xFFFFFFFFFFFFFFFFFFFFFFFFFFFFFFFFFFFFFFFF MUL NOT AND SWAP1 DUP4 PUSH20 0xFFFFFFFFFFFFFFFFFFFFFFFFFFFFFFFFFFFFFFFF AND MUL OR SWAP1 SSTORE POP PUSH2 0x1B8A DUP1 PUSH2 0x61 PUSH1 0x0 CODECOPY PUSH1 0x0 RETURN INVALID PUSH1 0x80 PUSH1 0x40 MSTORE CALLVALUE DUP1 ISZERO PUSH2 0x10 JUMPI PUSH1 0x0 DUP1 REVERT JUMPDEST POP PUSH1 0x4 CALLDATASIZE LT PUSH2 0x88 JUMPI PUSH1 0x0 CALLDATALOAD PUSH1 0xE0 SHR DUP1 PUSH4 0x8DA5CB5B GT PUSH2 0x5B JUMPI DUP1 PUSH4 0x8DA5CB5B EQ PUSH2 0x113 JUMPI DUP1 PUSH4 0xA3F685F9 EQ PUSH2 0x131 JUMPI DUP1 PUSH4 0xA86146D0 EQ PUSH2 0x161 JUMPI DUP1 PUSH4 0xDDBFD8EF EQ PUSH2 0x17D JUMPI PUSH2 0x88 JUMP JUMPDEST DUP1 PUSH4 0x19AC4614 EQ PUSH2 0x8D JUMPI DUP1 PUSH4 0x3CCFD60B EQ PUSH2 0xBD JUMPI DUP1 PUSH4 0x3D36ADC5 EQ PUSH2 0xC7 JUMPI DUP1 PUSH4 0x664ECC2A EQ PUSH2 0xF7 JUMPI JUMPDEST PUSH1 0x0 DUP1 REVERT JUMPDEST PUSH2 0xA7 PUSH1 0x4 DUP1 CALLDATASIZE SUB DUP2 ADD SWAP1 PUSH2 0xA2 SWAP2 SWAP1 PUSH2 0xCF3 JUMP JUMPDEST PUSH2 0x1B4 JUMP JUMPDEST PUSH1 0x40 MLOAD PUSH2 0xB4 SWAP2 SWAP1 PUSH2 0xF6C JUMP JUMPDEST PUSH1 0x40 MLOAD DUP1 SWAP2 SUB SWAP1 RETURN JUMPDEST PUSH2 0xC5 PUSH2 0x3C2 JUMP JUMPDEST STOP JUMPDEST PUSH2 0xE1 PUSH1 0x4 DUP1 CALLDATASIZE SUB DUP2 ADD SWAP1 PUSH2 0xDC SWAP2 SWAP1 PUSH2 0xFBA JUMP JUMPDEST PUSH2 0x4BD JUMP JUMPDEST PUSH1 0x40 MLOAD PUSH2 0xEE SWAP2 SWAP1 PUSH2 0x1013 JUMP JUMPDEST PUSH1 0x40 MLOAD DUP1 SWAP2 SUB SWAP1 RETURN JUMPDEST PUSH2 0x111 PUSH1 0x4 DUP1 CALLDATASIZE SUB DUP2 ADD SWAP1 PUSH2 0x10C SWAP2 SWAP1 PUSH2 0x1163 JUMP JUMPDEST PUSH2 0x4EE JUMP JUMPDEST STOP JUMPDEST PUSH2 0x11B PUSH2 0x753 JUMP JUMPDEST PUSH1 0x40 MLOAD PUSH2 0x128 SWAP2 SWAP1 PUSH2 0x1237 JUMP JUMPDEST PUSH1 0x40 MLOAD DUP1 SWAP2 SUB SWAP1 RETURN JUMPDEST PUSH2 0x14B PUSH1 0x4 DUP1 CALLDATASIZE SUB DUP2 ADD SWAP1 PUSH2 0x146 SWAP2 SWAP1 PUSH2 0x127E JUMP JUMPDEST PUSH2 0x779 JUMP JUMPDEST PUSH1 0x40 MLOAD PUSH2 0x158 SWAP2 SWAP1 PUSH2 0x1362 JUMP JUMPDEST PUSH1 0x40 MLOAD DUP1 SWAP2 SUB SWAP1 RETURN JUMPDEST PUSH2 0x17B PUSH1 0x4 DUP1 CALLDATASIZE SUB DUP2 ADD SWAP1 PUSH2 0x176 SWAP2 SWAP1 PUSH2 0x127E JUMP JUMPDEST PUSH2 0x969 JUMP JUMPDEST STOP JUMPDEST PUSH2 0x197 PUSH1 0x4 DUP1 CALLDATASIZE SUB DUP2 ADD SWAP1 PUSH2 0x192 SWAP2 SWAP1 PUSH2 0x127E JUMP JUMPDEST PUSH2 0xA9F JUMP JUMPDEST PUSH1 0x40 MLOAD PUSH2 0x1AB SWAP9 SWAP8 SWAP7 SWAP6 SWAP5 SWAP4 SWAP3 SWAP2 SWAP1 PUSH2 0x13FB JUMP JUMPDEST PUSH1 0x40 MLOAD DUP1 SWAP2 SUB SWAP1 RETURN JUMPDEST PUSH1 0x60 PUSH1 0x0 PUSH1 0x1 PUSH1 0x0 DUP5 PUSH20 0xFFFFFFFFFFFFFFFFFFFFFFFFFFFFFFFFFFFFFFFF AND PUSH20 0xFFFFFFFFFFFFFFFFFFFFFFFFFFFFFFFFFFFFFFFF AND DUP2 MSTORE PUSH1 0x20 ADD SWAP1 DUP2 MSTORE PUSH1 0x20 ADD PUSH1 0x0 KECCAK256 DUP1 SLOAD SWAP1 POP GT PUSH2 0x23B JUMPI PUSH1 0x40 MLOAD PUSH32 0x8C379A000000000000000000000000000000000000000000000000000000000 DUP2 MSTORE PUSH1 0x4 ADD PUSH2 0x232 SWAP1 PUSH2 0x14D3 JUMP JUMPDEST PUSH1 0x40 MLOAD DUP1 SWAP2 SUB SWAP1 REVERT JUMPDEST PUSH1 0x0 PUSH1 0x1 PUSH1 0x0 DUP5 PUSH20 0xFFFFFFFFFFFFFFFFFFFFFFFFFFFFFFFFFFFFFFFF AND PUSH20 0xFFFFFFFFFFFFFFFFFFFFFFFFFFFFFFFFFFFFFFFF AND DUP2 MSTORE PUSH1 0x20 ADD SWAP1 DUP2 MSTORE PUSH1 0x20 ADD PUSH1 0x0 KECCAK256 DUP1 SLOAD DUP1 PUSH1 0x20 MUL PUSH1 0x20 ADD PUSH1 0x40 MLOAD SWAP1 DUP2 ADD PUSH1 0x40 MSTORE DUP1 SWAP3 SWAP2 SWAP1 DUP2 DUP2 MSTORE PUSH1 0x20 ADD DUP3 DUP1 SLOAD DUP1 ISZERO PUSH2 0x2C6 JUMPI PUSH1 0x20 MUL DUP3 ADD SWAP2 SWAP1 PUSH1 0x0 MSTORE PUSH1 0x20 PUSH1 0x0 KECCAK256 SWAP1 JUMPDEST DUP2 SLOAD DUP2 MSTORE PUSH1 0x20 ADD SWAP1 PUSH1 0x1 ADD SWAP1 DUP1 DUP4 GT PUSH2 0x2B2 JUMPI JUMPDEST POP POP POP POP POP SWAP1 POP PUSH1 0x0 DUP2 MLOAD PUSH8 0xFFFFFFFFFFFFFFFF DUP2 GT ISZERO PUSH2 0x2EA JUMPI PUSH2 0x2E9 PUSH2 0x1038 JUMP JUMPDEST JUMPDEST PUSH1 0x40 MLOAD SWAP1 DUP1 DUP3 MSTORE DUP1 PUSH1 0x20 MUL PUSH1 0x20 ADD DUP3 ADD PUSH1 0x40 MSTORE DUP1 ISZERO PUSH2 0x323 JUMPI DUP2 PUSH1 0x20 ADD JUMPDEST PUSH2 0x310 PUSH2 0xC24 JUMP JUMPDEST DUP2 MSTORE PUSH1 0x20 ADD SWAP1 PUSH1 0x1 SWAP1 SUB SWAP1 DUP2 PUSH2 0x308 JUMPI SWAP1 POP JUMPDEST POP SWAP1 POP PUSH1 0x0 JUMPDEST DUP3 MLOAD DUP2 LT ISZERO PUSH2 0x380 JUMPI PUSH2 0x355 DUP4 DUP3 DUP2 MLOAD DUP2 LT PUSH2 0x348 JUMPI PUSH2 0x347 PUSH2 0x14F3 JUMP JUMPDEST JUMPDEST PUSH1 0x20 MUL PUSH1 0x20 ADD ADD MLOAD PUSH2 0x779 JUMP JUMPDEST DUP3 DUP3 DUP2 MLOAD DUP2 LT PUSH2 0x368 JUMPI PUSH2 0x367 PUSH2 0x14F3 JUMP JUMPDEST JUMPDEST PUSH1 0x20 MUL PUSH1 0x20 ADD ADD DUP2 SWAP1 MSTORE POP DUP1 DUP1 PUSH1 0x1 ADD SWAP2 POP POP PUSH2 0x329 JUMP JUMPDEST POP PUSH32 0x48DC643358BA0A4EDAAA5A2DA4959E13D9540C569230BC374431F4EE843A4FC9 DUP2 PUSH1 0x40 MLOAD PUSH2 0x3B0 SWAP2 SWAP1 PUSH2 0xF6C JUMP JUMPDEST PUSH1 0x40 MLOAD DUP1 SWAP2 SUB SWAP1 LOG1 DUP1 SWAP3 POP POP POP SWAP2 SWAP1 POP JUMP JUMPDEST PUSH1 0x2 PUSH1 0x0 SWAP1 SLOAD SWAP1 PUSH2 0x100 EXP SWAP1 DIV PUSH20 0xFFFFFFFFFFFFFFFFFFFFFFFFFFFFFFFFFFFFFFFF AND PUSH20 0xFFFFFFFFFFFFFFFFFFFFFFFFFFFFFFFFFFFFFFFF AND CALLER PUSH20 0xFFFFFFFFFFFFFFFFFFFFFFFFFFFFFFFFFFFFFFFF AND EQ PUSH2 0x452 JUMPI PUSH1 0x40 MLOAD PUSH32 0x8C379A000000000000000000000000000000000000000000000000000000000 DUP2 MSTORE PUSH1 0x4 ADD PUSH2 0x449 SWAP1 PUSH2 0x1594 JUMP JUMPDEST PUSH1 0x40 MLOAD DUP1 SWAP2 SUB SWAP1 REVERT JUMPDEST PUSH1 0x2 PUSH1 0x0 SWAP1 SLOAD SWAP1 PUSH2 0x100 EXP SWAP1 DIV PUSH20 0xFFFFFFFFFFFFFFFFFFFFFFFFFFFFFFFFFFFFFFFF AND PUSH20 0xFFFFFFFFFFFFFFFFFFFFFFFFFFFFFFFFFFFFFFFF AND PUSH2 0x8FC SELFBALANCE SWAP1 DUP2 ISZERO MUL SWAP1 PUSH1 0x40 MLOAD PUSH1 0x0 PUSH1 0x40 MLOAD DUP1 DUP4 SUB DUP2 DUP6 DUP9 DUP9 CALL SWAP4 POP POP POP POP ISZERO DUP1 ISZERO PUSH2 0x4BA JUMPI RETURNDATASIZE PUSH1 0x0 DUP1 RETURNDATACOPY RETURNDATASIZE PUSH1 0x0 REVERT JUMPDEST POP JUMP JUMPDEST PUSH1 0x1 PUSH1 0x20 MSTORE DUP2 PUSH1 0x0 MSTORE PUSH1 0x40 PUSH1 0x0 KECCAK256 DUP2 DUP2 SLOAD DUP2 LT PUSH2 0x4D9 JUMPI PUSH1 0x0 DUP1 REVERT JUMPDEST SWAP1 PUSH1 0x0 MSTORE PUSH1 0x20 PUSH1 0x0 KECCAK256 ADD PUSH1 0x0 SWAP2 POP SWAP2 POP POP SLOAD DUP2 JUMP JUMPDEST PUSH1 0x0 DUP3 GT PUSH2 0x531 JUMPI PUSH1 0x40 MLOAD PUSH32 0x8C379A000000000000000000000000000000000000000000000000000000000 DUP2 MSTORE PUSH1 0x4 ADD PUSH2 0x528 SWAP1 PUSH2 0x1626 JUMP JUMPDEST PUSH1 0x40 MLOAD DUP1 SWAP2 SUB SWAP1 REVERT JUMPDEST PUSH1 0x0 DUP3 TIMESTAMP PUSH2 0x53F SWAP2 SWAP1 PUSH2 0x1675 JUMP JUMPDEST SWAP1 POP PUSH1 0x0 CALLER TIMESTAMP PREVRANDAO PUSH1 0x40 MLOAD PUSH1 0x20 ADD PUSH2 0x558 SWAP4 SWAP3 SWAP2 SWAP1 PUSH2 0x1712 JUMP JUMPDEST PUSH1 0x40 MLOAD PUSH1 0x20 DUP2 DUP4 SUB SUB DUP2 MSTORE SWAP1 PUSH1 0x40 MSTORE DUP1 MLOAD SWAP1 PUSH1 0x20 ADD KECCAK256 SWAP1 POP PUSH1 0x40 MLOAD DUP1 PUSH2 0x100 ADD PUSH1 0x40 MSTORE DUP1 CALLER PUSH20 0xFFFFFFFFFFFFFFFFFFFFFFFFFFFFFFFFFFFFFFFF AND DUP2 MSTORE PUSH1 0x20 ADD DUP7 DUP2 MSTORE PUSH1 0x20 ADD TIMESTAMP DUP2 MSTORE PUSH1 0x20 ADD DUP4 DUP2 MSTORE PUSH1 0x20 ADD PUSH1 0x1 ISZERO ISZERO DUP2 MSTORE PUSH1 0x20 ADD DUP5 DUP2 MSTORE PUSH1 0x20 ADD DUP9 DUP2 MSTORE PUSH1 0x20 ADD DUP8 DUP2 MSTORE POP PUSH1 0x0 DUP1 DUP4 DUP2 MSTORE PUSH1 0x20 ADD SWAP1 DUP2 MSTORE PUSH1 0x20 ADD PUSH1 0x0 KECCAK256 PUSH1 0x0 DUP3 ADD MLOAD DUP2 PUSH1 0x0 ADD PUSH1 0x0 PUSH2 0x100 EXP DUP2 SLOAD DUP2 PUSH20 0xFFFFFFFFFFFFFFFFFFFFFFFFFFFFFFFFFFFFFFFF MUL NOT AND SWAP1 DUP4 PUSH20 0xFFFFFFFFFFFFFFFFFFFFFFFFFFFFFFFFFFFFFFFF AND MUL OR SWAP1 SSTORE POP PUSH1 0x20 DUP3 ADD MLOAD DUP2 PUSH1 0x1 ADD SSTORE PUSH1 0x40 DUP3 ADD MLOAD DUP2 PUSH1 0x2 ADD SSTORE PUSH1 0x60 DUP3 ADD MLOAD DUP2 PUSH1 0x3 ADD SSTORE PUSH1 0x80 DUP3 ADD MLOAD DUP2 PUSH1 0x4 ADD PUSH1 0x0 PUSH2 0x100 EXP DUP2 SLOAD DUP2 PUSH1 0xFF MUL NOT AND SWAP1 DUP4 ISZERO ISZERO MUL OR SWAP1 SSTORE POP PUSH1 0xA0 DUP3 ADD MLOAD DUP2 PUSH1 0x5 ADD SSTORE PUSH1 0xC0 DUP3 ADD MLOAD DUP2 PUSH1 0x6 ADD SWAP1 DUP2 PUSH2 0x679 SWAP2 SWAP1 PUSH2 0x195B JUMP JUMPDEST POP PUSH1 0xE0 DUP3 ADD MLOAD DUP2 PUSH1 0x7 ADD SWAP1 DUP2 PUSH2 0x68F SWAP2 SWAP1 PUSH2 0x195B JUMP JUMPDEST POP SWAP1 POP POP PUSH1 0x1 PUSH1 0x0 CALLER PUSH20 0xFFFFFFFFFFFFFFFFFFFFFFFFFFFFFFFFFFFFFFFF AND PUSH20 0xFFFFFFFFFFFFFFFFFFFFFFFFFFFFFFFFFFFFFFFF AND DUP2 MSTORE PUSH1 0x20 ADD SWAP1 DUP2 MSTORE PUSH1 0x20 ADD PUSH1 0x0 KECCAK256 DUP2 SWAP1 DUP1 PUSH1 0x1 DUP2 SLOAD ADD DUP1 DUP3 SSTORE DUP1 SWAP2 POP POP PUSH1 0x1 SWAP1 SUB SWAP1 PUSH1 0x0 MSTORE PUSH1 0x20 PUSH1 0x0 KECCAK256 ADD PUSH1 0x0 SWAP1 SWAP2 SWAP1 SWAP2 SWAP1 SWAP2 POP SSTORE CALLER PUSH20 0xFFFFFFFFFFFFFFFFFFFFFFFFFFFFFFFFFFFFFFFF AND DUP2 PUSH32 0x205277BE9AC92163FE2E90703802F84C6722BF45927714BAA72EA9295C360FF6 TIMESTAMP DUP6 PUSH1 0x40 MLOAD PUSH2 0x742 SWAP3 SWAP2 SWAP1 PUSH2 0x1A2D JUMP JUMPDEST PUSH1 0x40 MLOAD DUP1 SWAP2 SUB SWAP1 LOG3 POP POP POP POP POP POP POP JUMP JUMPDEST PUSH1 0x2 PUSH1 0x0 SWAP1 SLOAD SWAP1 PUSH2 0x100 EXP SWAP1 DIV PUSH20 0xFFFFFFFFFFFFFFFFFFFFFFFFFFFFFFFFFFFFFFFF AND DUP2 JUMP JUMPDEST PUSH2 0x781 PUSH2 0xC24 JUMP JUMPDEST PUSH1 0x0 DUP1 PUSH1 0x0 DUP5 DUP2 MSTORE PUSH1 0x20 ADD SWAP1 DUP2 MSTORE PUSH1 0x20 ADD PUSH1 0x0 KECCAK256 SWAP1 POP DUP1 PUSH1 0x40 MLOAD DUP1 PUSH2 0x100 ADD PUSH1 0x40 MSTORE SWAP1 DUP2 PUSH1 0x0 DUP3 ADD PUSH1 0x0 SWAP1 SLOAD SWAP1 PUSH2 0x100 EXP SWAP1 DIV PUSH20 0xFFFFFFFFFFFFFFFFFFFFFFFFFFFFFFFFFFFFFFFF AND PUSH20 0xFFFFFFFFFFFFFFFFFFFFFFFFFFFFFFFFFFFFFFFF AND PUSH20 0xFFFFFFFFFFFFFFFFFFFFFFFFFFFFFFFFFFFFFFFF AND DUP2 MSTORE PUSH1 0x20 ADD PUSH1 0x1 DUP3 ADD SLOAD DUP2 MSTORE PUSH1 0x20 ADD PUSH1 0x2 DUP3 ADD SLOAD DUP2 MSTORE PUSH1 0x20 ADD PUSH1 0x3 DUP3 ADD SLOAD DUP2 MSTORE PUSH1 0x20 ADD PUSH1 0x4 DUP3 ADD PUSH1 0x0 SWAP1 SLOAD SWAP1 PUSH2 0x100 EXP SWAP1 DIV PUSH1 0xFF AND ISZERO ISZERO ISZERO ISZERO DUP2 MSTORE PUSH1 0x20 ADD PUSH1 0x5 DUP3 ADD SLOAD DUP2 MSTORE PUSH1 0x20 ADD PUSH1 0x6 DUP3 ADD DUP1 SLOAD PUSH2 0x84D SWAP1 PUSH2 0x177E JUMP JUMPDEST DUP1 PUSH1 0x1F ADD PUSH1 0x20 DUP1 SWAP2 DIV MUL PUSH1 0x20 ADD PUSH1 0x40 MLOAD SWAP1 DUP2 ADD PUSH1 0x40 MSTORE DUP1 SWAP3 SWAP2 SWAP1 DUP2 DUP2 MSTORE PUSH1 0x20 ADD DUP3 DUP1 SLOAD PUSH2 0x879 SWAP1 PUSH2 0x177E JUMP JUMPDEST DUP1 ISZERO PUSH2 0x8C6 JUMPI DUP1 PUSH1 0x1F LT PUSH2 0x89B JUMPI PUSH2 0x100 DUP1 DUP4 SLOAD DIV MUL DUP4 MSTORE SWAP2 PUSH1 0x20 ADD SWAP2 PUSH2 0x8C6 JUMP JUMPDEST DUP3 ADD SWAP2 SWAP1 PUSH1 0x0 MSTORE PUSH1 0x20 PUSH1 0x0 KECCAK256 SWAP1 JUMPDEST DUP2 SLOAD DUP2 MSTORE SWAP1 PUSH1 0x1 ADD SWAP1 PUSH1 0x20 ADD DUP1 DUP4 GT PUSH2 0x8A9 JUMPI DUP3 SWAP1 SUB PUSH1 0x1F AND DUP3 ADD SWAP2 JUMPDEST POP POP POP POP POP DUP2 MSTORE PUSH1 0x20 ADD PUSH1 0x7 DUP3 ADD DUP1 SLOAD PUSH2 0x8DF SWAP1 PUSH2 0x177E JUMP JUMPDEST DUP1 PUSH1 0x1F ADD PUSH1 0x20 DUP1 SWAP2 DIV MUL PUSH1 0x20 ADD PUSH1 0x40 MLOAD SWAP1 DUP2 ADD PUSH1 0x40 MSTORE DUP1 SWAP3 SWAP2 SWAP1 DUP2 DUP2 MSTORE PUSH1 0x20 ADD DUP3 DUP1 SLOAD PUSH2 0x90B SWAP1 PUSH2 0x177E JUMP JUMPDEST DUP1 ISZERO PUSH2 0x958 JUMPI DUP1 PUSH1 0x1F LT PUSH2 0x92D JUMPI PUSH2 0x100 DUP1 DUP4 SLOAD DIV MUL DUP4 MSTORE SWAP2 PUSH1 0x20 ADD SWAP2 PUSH2 0x958 JUMP JUMPDEST DUP3 ADD SWAP2 SWAP1 PUSH1 0x0 MSTORE PUSH1 0x20 PUSH1 0x0 KECCAK256 SWAP1 JUMPDEST DUP2 SLOAD DUP2 MSTORE SWAP1 PUSH1 0x1 ADD SWAP1 PUSH1 0x20 ADD DUP1 DUP4 GT PUSH2 0x93B JUMPI DUP3 SWAP1 SUB PUSH1 0x1F AND DUP3 ADD SWAP2 JUMPDEST POP POP POP POP POP DUP2 MSTORE POP POP SWAP2 POP POP SWAP2 SWAP1 POP JUMP JUMPDEST CALLER PUSH20 0xFFFFFFFFFFFFFFFFFFFFFFFFFFFFFFFFFFFFFFFF AND PUSH1 0x0 DUP1 DUP4 DUP2 MSTORE PUSH1 0x20 ADD SWAP1 DUP2 MSTORE PUSH1 0x20 ADD PUSH1 0x0 KECCAK256 PUSH1 0x0 ADD PUSH1 0x0 SWAP1 SLOAD SWAP1 PUSH2 0x100 EXP SWAP1 DIV PUSH20 0xFFFFFFFFFFFFFFFFFFFFFFFFFFFFFFFFFFFFFFFF AND PUSH20 0xFFFFFFFFFFFFFFFFFFFFFFFFFFFFFFFFFFFFFFFF AND EQ PUSH2 0xA0C JUMPI PUSH1 0x40 MLOAD PUSH32 0x8C379A000000000000000000000000000000000000000000000000000000000 DUP2 MSTORE PUSH1 0x4 ADD PUSH2 0xA03 SWAP1 PUSH2 0x1AC8 JUMP JUMPDEST PUSH1 0x40 MLOAD DUP1 SWAP2 SUB SWAP1 REVERT JUMPDEST PUSH1 0x0 DUP1 DUP3 DUP2 MSTORE PUSH1 0x20 ADD SWAP1 DUP2 MSTORE PUSH1 0x20 ADD PUSH1 0x0 KECCAK256 PUSH1 0x4 ADD PUSH1 0x0 SWAP1 SLOAD SWAP1 PUSH2 0x100 EXP SWAP1 DIV PUSH1 0xFF AND PUSH2 0xA6E JUMPI PUSH1 0x40 MLOAD PUSH32 0x8C379A000000000000000000000000000000000000000000000000000000000 DUP2 MSTORE PUSH1 0x4 ADD PUSH2 0xA65 SWAP1 PUSH2 0x1B34 JUMP JUMPDEST PUSH1 0x40 MLOAD DUP1 SWAP2 SUB SWAP1 REVERT JUMPDEST PUSH1 0x0 DUP1 PUSH1 0x0 DUP4 DUP2 MSTORE PUSH1 0x20 ADD SWAP1 DUP2 MSTORE PUSH1 0x20 ADD PUSH1 0x0 KECCAK256 PUSH1 0x4 ADD PUSH1 0x0 PUSH2 0x100 EXP DUP2 SLOAD DUP2 PUSH1 0xFF MUL NOT AND SWAP1 DUP4 ISZERO ISZERO MUL OR SWAP1 SSTORE POP POP JUMP JUMPDEST PUSH1 0x0 PUSH1 0x20 MSTORE DUP1 PUSH1 0x0 MSTORE PUSH1 0x40 PUSH1 0x0 KECCAK256 PUSH1 0x0 SWAP2 POP SWAP1 POP DUP1 PUSH1 0x0 ADD PUSH1 0x0 SWAP1 SLOAD SWAP1 PUSH2 0x100 EXP SWAP1 DIV PUSH20 0xFFFFFFFFFFFFFFFFFFFFFFFFFFFFFFFFFFFFFFFF AND SWAP1 DUP1 PUSH1 0x1 ADD SLOAD SWAP1 DUP1 PUSH1 0x2 ADD SLOAD SWAP1 DUP1 PUSH1 0x3 ADD SLOAD SWAP1 DUP1 PUSH1 0x4 ADD PUSH1 0x0 SWAP1 SLOAD SWAP1 PUSH2 0x100 EXP SWAP1 DIV PUSH1 0xFF AND SWAP1 DUP1 PUSH1 0x5 ADD SLOAD SWAP1 DUP1 PUSH1 0x6 ADD DUP1 SLOAD PUSH2 0xB13 SWAP1 PUSH2 0x177E JUMP JUMPDEST DUP1 PUSH1 0x1F ADD PUSH1 0x20 DUP1 SWAP2 DIV MUL PUSH1 0x20 ADD PUSH1 0x40 MLOAD SWAP1 DUP2 ADD PUSH1 0x40 MSTORE DUP1 SWAP3 SWAP2 SWAP1 DUP2 DUP2 MSTORE PUSH1 0x20 ADD DUP3 DUP1 SLOAD PUSH2 0xB3F SWAP1 PUSH2 0x177E JUMP JUMPDEST DUP1 ISZERO PUSH2 0xB8C JUMPI DUP1 PUSH1 0x1F LT PUSH2 0xB61 JUMPI PUSH2 0x100 DUP1 DUP4 SLOAD DIV MUL DUP4 MSTORE SWAP2 PUSH1 0x20 ADD SWAP2 PUSH2 0xB8C JUMP JUMPDEST DUP3 ADD SWAP2 SWAP1 PUSH1 0x0 MSTORE PUSH1 0x20 PUSH1 0x0 KECCAK256 SWAP1 JUMPDEST DUP2 SLOAD DUP2 MSTORE SWAP1 PUSH1 0x1 ADD SWAP1 PUSH1 0x20 ADD DUP1 DUP4 GT PUSH2 0xB6F JUMPI DUP3 SWAP1 SUB PUSH1 0x1F AND DUP3 ADD SWAP2 JUMPDEST POP POP POP POP POP SWAP1 DUP1 PUSH1 0x7 ADD DUP1 SLOAD PUSH2 0xBA1 SWAP1 PUSH2 0x177E JUMP JUMPDEST DUP1 PUSH1 0x1F ADD PUSH1 0x20 DUP1 SWAP2 DIV MUL PUSH1 0x20 ADD PUSH1 0x40 MLOAD SWAP1 DUP2 ADD PUSH1 0x40 MSTORE DUP1 SWAP3 SWAP2 SWAP1 DUP2 DUP2 MSTORE PUSH1 0x20 ADD DUP3 DUP1 SLOAD PUSH2 0xBCD SWAP1 PUSH2 0x177E JUMP JUMPDEST DUP1 ISZERO PUSH2 0xC1A JUMPI DUP1 PUSH1 0x1F LT PUSH2 0xBEF JUMPI PUSH2 0x100 DUP1 DUP4 SLOAD DIV MUL DUP4 MSTORE SWAP2 PUSH1 0x20 ADD SWAP2 PUSH2 0xC1A JUMP JUMPDEST DUP3 ADD SWAP2 SWAP1 PUSH1 0x0 MSTORE PUSH1 0x20 PUSH1 0x0 KECCAK256 SWAP1 JUMPDEST DUP2 SLOAD DUP2 MSTORE SWAP1 PUSH1 0x1 ADD SWAP1 PUSH1 0x20 ADD DUP1 DUP4 GT PUSH2 0xBFD JUMPI DUP3 SWAP1 SUB PUSH1 0x1F AND DUP3 ADD SWAP2 JUMPDEST POP POP POP POP POP SWAP1 POP DUP9 JUMP JUMPDEST PUSH1 0x40 MLOAD DUP1 PUSH2 0x100 ADD PUSH1 0x40 MSTORE DUP1 PUSH1 0x0 PUSH20 0xFFFFFFFFFFFFFFFFFFFFFFFFFFFFFFFFFFFFFFFF AND DUP2 MSTORE PUSH1 0x20 ADD PUSH1 0x0 DUP2 MSTORE PUSH1 0x20 ADD PUSH1 0x0 DUP2 MSTORE PUSH1 0x20 ADD PUSH1 0x0 DUP2 MSTORE PUSH1 0x20 ADD PUSH1 0x0 ISZERO ISZERO DUP2 MSTORE PUSH1 0x20 ADD PUSH1 0x0 DUP2 MSTORE PUSH1 0x20 ADD PUSH1 0x60 DUP2 MSTORE PUSH1 0x20 ADD PUSH1 0x60 DUP2 MSTORE POP SWAP1 JUMP JUMPDEST PUSH1 0x0 PUSH1 0x40 MLOAD SWAP1 POP SWAP1 JUMP JUMPDEST PUSH1 0x0 DUP1 REVERT JUMPDEST PUSH1 0x0 DUP1 REVERT JUMPDEST PUSH1 0x0 PUSH20 0xFFFFFFFFFFFFFFFFFFFFFFFFFFFFFFFFFFFFFFFF DUP3 AND SWAP1 POP SWAP2 SWAP1 POP JUMP JUMPDEST PUSH1 0x0 PUSH2 0xCC0 DUP3 PUSH2 0xC95 JUMP JUMPDEST SWAP1 POP SWAP2 SWAP1 POP JUMP JUMPDEST PUSH2 0xCD0 DUP2 PUSH2 0xCB5 JUMP JUMPDEST DUP2 EQ PUSH2 0xCDB JUMPI PUSH1 0x0 DUP1 REVERT JUMPDEST POP JUMP JUMPDEST PUSH1 0x0 DUP2 CALLDATALOAD SWAP1 POP PUSH2 0xCED DUP2 PUSH2 0xCC7 JUMP JUMPDEST SWAP3 SWAP2 POP POP JUMP JUMPDEST PUSH1 0x0 PUSH1 0x20 DUP3 DUP5 SUB SLT ISZERO PUSH2 0xD09 JUMPI PUSH2 0xD08 PUSH2 0xC8B JUMP JUMPDEST JUMPDEST PUSH1 0x0 PUSH2 0xD17 DUP5 DUP3 DUP6 ADD PUSH2 0xCDE JUMP JUMPDEST SWAP2 POP POP SWAP3 SWAP2 POP POP JUMP JUMPDEST PUSH1 0x0 DUP2 MLOAD SWAP1 POP SWAP2 SWAP1 POP JUMP JUMPDEST PUSH1 0x0 DUP3 DUP3 MSTORE PUSH1 0x20 DUP3 ADD SWAP1 POP SWAP3 SWAP2 POP POP JUMP JUMPDEST PUSH1 0x0 DUP2 SWAP1 POP PUSH1 0x20 DUP3 ADD SWAP1 POP SWAP2 SWAP1 POP JUMP JUMPDEST PUSH2 0xD55 DUP2 PUSH2 0xCB5 JUMP JUMPDEST DUP3 MSTORE POP POP JUMP JUMPDEST PUSH1 0x0 DUP2 SWAP1 POP SWAP2 SWAP1 POP JUMP JUMPDEST PUSH2 0xD6E DUP2 PUSH2 0xD5B JUMP JUMPDEST DUP3 MSTORE POP POP JUMP JUMPDEST PUSH1 0x0 DUP2 ISZERO ISZERO SWAP1 POP SWAP2 SWAP1 POP JUMP JUMPDEST PUSH2 0xD89 DUP2 PUSH2 0xD74 JUMP JUMPDEST DUP3 MSTORE POP POP JUMP JUMPDEST PUSH1 0x0 DUP2 MLOAD SWAP1 POP SWAP2 SWAP1 POP JUMP JUMPDEST PUSH1 0x0 DUP3 DUP3 MSTORE PUSH1 0x20 DUP3 ADD SWAP1 POP SWAP3 SWAP2 POP POP JUMP JUMPDEST PUSH1 0x0 JUMPDEST DUP4 DUP2 LT ISZERO PUSH2 0xDC9 JUMPI DUP1 DUP3 ADD MLOAD DUP2 DUP5 ADD MSTORE PUSH1 0x20 DUP2 ADD SWAP1 POP PUSH2 0xDAE JUMP JUMPDEST PUSH1 0x0 DUP5 DUP5 ADD MSTORE POP POP POP POP JUMP JUMPDEST PUSH1 0x0 PUSH1 0x1F NOT PUSH1 0x1F DUP4 ADD AND SWAP1 POP SWAP2 SWAP1 POP JUMP JUMPDEST PUSH1 0x0 PUSH2 0xDF1 DUP3 PUSH2 0xD8F JUMP JUMPDEST PUSH2 0xDFB DUP2 DUP6 PUSH2 0xD9A JUMP JUMPDEST SWAP4 POP PUSH2 0xE0B DUP2 DUP6 PUSH1 0x20 DUP7 ADD PUSH2 0xDAB JUMP JUMPDEST PUSH2 0xE14 DUP2 PUSH2 0xDD5 JUMP JUMPDEST DUP5 ADD SWAP2 POP POP SWAP3 SWAP2 POP POP JUMP JUMPDEST PUSH1 0x0 PUSH2 0x100 DUP4 ADD PUSH1 0x0 DUP4 ADD MLOAD PUSH2 0xE38 PUSH1 0x0 DUP7 ADD DUP3 PUSH2 0xD4C JUMP JUMPDEST POP PUSH1 0x20 DUP4 ADD MLOAD PUSH2 0xE4B PUSH1 0x20 DUP7 ADD DUP3 PUSH2 0xD65 JUMP JUMPDEST POP PUSH1 0x40 DUP4 ADD MLOAD PUSH2 0xE5E PUSH1 0x40 DUP7 ADD DUP3 PUSH2 0xD65 JUMP JUMPDEST POP PUSH1 0x60 DUP4 ADD MLOAD PUSH2 0xE71 PUSH1 0x60 DUP7 ADD DUP3 PUSH2 0xD65 JUMP JUMPDEST POP PUSH1 0x80 DUP4 ADD MLOAD PUSH2 0xE84 PUSH1 0x80 DUP7 ADD DUP3 PUSH2 0xD80 JUMP JUMPDEST POP PUSH1 0xA0 DUP4 ADD MLOAD PUSH2 0xE97 PUSH1 0xA0 DUP7 ADD DUP3 PUSH2 0xD65 JUMP JUMPDEST POP PUSH1 0xC0 DUP4 ADD MLOAD DUP5 DUP3 SUB PUSH1 0xC0 DUP7 ADD MSTORE PUSH2 0xEAF DUP3 DUP3 PUSH2 0xDE6 JUMP JUMPDEST SWAP2 POP POP PUSH1 0xE0 DUP4 ADD MLOAD DUP5 DUP3 SUB PUSH1 0xE0 DUP7 ADD MSTORE PUSH2 0xEC9 DUP3 DUP3 PUSH2 0xDE6 JUMP JUMPDEST SWAP2 POP POP DUP1 SWAP2 POP POP SWAP3 SWAP2 POP POP JUMP JUMPDEST PUSH1 0x0 PUSH2 0xEE2 DUP4 DUP4 PUSH2 0xE1F JUMP JUMPDEST SWAP1 POP SWAP3 SWAP2 POP POP JUMP JUMPDEST PUSH1 0x0 PUSH1 0x20 DUP3 ADD SWAP1 POP SWAP2 SWAP1 POP JUMP JUMPDEST PUSH1 0x0 PUSH2 0xF02 DUP3 PUSH2 0xD20 JUMP JUMPDEST PUSH2 0xF0C DUP2 DUP6 PUSH2 0xD2B JUMP JUMPDEST SWAP4 POP DUP4 PUSH1 0x20 DUP3 MUL DUP6 ADD PUSH2 0xF1E DUP6 PUSH2 0xD3C JUMP JUMPDEST DUP1 PUSH1 0x0 JUMPDEST DUP6 DUP2 LT ISZERO PUSH2 0xF5A JUMPI DUP5 DUP5 SUB DUP10 MSTORE DUP2 MLOAD PUSH2 0xF3B DUP6 DUP3 PUSH2 0xED6 JUMP JUMPDEST SWAP5 POP PUSH2 0xF46 DUP4 PUSH2 0xEEA JUMP JUMPDEST SWAP3 POP PUSH1 0x20 DUP11 ADD SWAP10 POP POP PUSH1 0x1 DUP2 ADD SWAP1 POP PUSH2 0xF22 JUMP JUMPDEST POP DUP3 SWAP8 POP DUP8 SWAP6 POP POP POP POP POP POP SWAP3 SWAP2 POP POP JUMP JUMPDEST PUSH1 0x0 PUSH1 0x20 DUP3 ADD SWAP1 POP DUP2 DUP2 SUB PUSH1 0x0 DUP4 ADD MSTORE PUSH2 0xF86 DUP2 DUP5 PUSH2 0xEF7 JUMP JUMPDEST SWAP1 POP SWAP3 SWAP2 POP POP JUMP JUMPDEST PUSH2 0xF97 DUP2 PUSH2 0xD5B JUMP JUMPDEST DUP2 EQ PUSH2 0xFA2 JUMPI PUSH1 0x0 DUP1 REVERT JUMPDEST POP JUMP JUMPDEST PUSH1 0x0 DUP2 CALLDATALOAD SWAP1 POP PUSH2 0xFB4 DUP2 PUSH2 0xF8E JUMP JUMPDEST SWAP3 SWAP2 POP POP JUMP JUMPDEST PUSH1 0x0 DUP1 PUSH1 0x40 DUP4 DUP6 SUB SLT ISZERO PUSH2 0xFD1 JUMPI PUSH2 0xFD0 PUSH2 0xC8B JUMP JUMPDEST JUMPDEST PUSH1 0x0 PUSH2 0xFDF DUP6 DUP3 DUP7 ADD PUSH2 0xCDE JUMP JUMPDEST SWAP3 POP POP PUSH1 0x20 PUSH2 0xFF0 DUP6 DUP3 DUP7 ADD PUSH2 0xFA5 JUMP JUMPDEST SWAP2 POP POP SWAP3 POP SWAP3 SWAP1 POP JUMP JUMPDEST PUSH1 0x0 DUP2 SWAP1 POP SWAP2 SWAP1 POP JUMP JUMPDEST PUSH2 0x100D DUP2 PUSH2 0xFFA JUMP JUMPDEST DUP3 MSTORE POP POP JUMP JUMPDEST PUSH1 0x0 PUSH1 0x20 DUP3 ADD SWAP1 POP PUSH2 0x1028 PUSH1 0x0 DUP4 ADD DUP5 PUSH2 0x1004 JUMP JUMPDEST SWAP3 SWAP2 POP POP JUMP JUMPDEST PUSH1 0x0 DUP1 REVERT JUMPDEST PUSH1 0x0 DUP1 REVERT JUMPDEST PUSH32 0x4E487B7100000000000000000000000000000000000000000000000000000000 PUSH1 0x0 MSTORE PUSH1 0x41 PUSH1 0x4 MSTORE PUSH1 0x24 PUSH1 0x0 REVERT JUMPDEST PUSH2 0x1070 DUP3 PUSH2 0xDD5 JUMP JUMPDEST DUP2 ADD DUP2 DUP2 LT PUSH8 0xFFFFFFFFFFFFFFFF DUP3 GT OR ISZERO PUSH2 0x108F JUMPI PUSH2 0x108E PUSH2 0x1038 JUMP JUMPDEST JUMPDEST DUP1 PUSH1 0x40 MSTORE POP POP POP JUMP JUMPDEST PUSH1 0x0 PUSH2 0x10A2 PUSH2 0xC81 JUMP JUMPDEST SWAP1 POP PUSH2 0x10AE DUP3 DUP3 PUSH2 0x1067 JUMP JUMPDEST SWAP2 SWAP1 POP JUMP JUMPDEST PUSH1 0x0 PUSH8 0xFFFFFFFFFFFFFFFF DUP3 GT ISZERO PUSH2 0x10CE JUMPI PUSH2 0x10CD PUSH2 0x1038 JUMP JUMPDEST JUMPDEST PUSH2 0x10D7 DUP3 PUSH2 0xDD5 JUMP JUMPDEST SWAP1 POP PUSH1 0x20 DUP2 ADD SWAP1 POP SWAP2 SWAP1 POP JUMP JUMPDEST DUP3 DUP2 DUP4 CALLDATACOPY PUSH1 0x0 DUP4 DUP4 ADD MSTORE POP POP POP JUMP JUMPDEST PUSH1 0x0 PUSH2 0x1106 PUSH2 0x1101 DUP5 PUSH2 0x10B3 JUMP JUMPDEST PUSH2 0x1098 JUMP JUMPDEST SWAP1 POP DUP3 DUP2 MSTORE PUSH1 0x20 DUP2 ADD DUP5 DUP5 DUP5 ADD GT ISZERO PUSH2 0x1122 JUMPI PUSH2 0x1121 PUSH2 0x1033 JUMP JUMPDEST JUMPDEST PUSH2 0x112D DUP5 DUP3 DUP6 PUSH2 0x10E4 JUMP JUMPDEST POP SWAP4 SWAP3 POP POP POP JUMP JUMPDEST PUSH1 0x0 DUP3 PUSH1 0x1F DUP4 ADD SLT PUSH2 0x114A JUMPI PUSH2 0x1149 PUSH2 0x102E JUMP JUMPDEST JUMPDEST DUP2 CALLDATALOAD PUSH2 0x115A DUP5 DUP3 PUSH1 0x20 DUP7 ADD PUSH2 0x10F3 JUMP JUMPDEST SWAP2 POP POP SWAP3 SWAP2 POP POP JUMP JUMPDEST PUSH1 0x0 DUP1 PUSH1 0x0 DUP1 PUSH1 0x0 PUSH1 0xA0 DUP7 DUP9 SUB SLT ISZERO PUSH2 0x117F JUMPI PUSH2 0x117E PUSH2 0xC8B JUMP JUMPDEST JUMPDEST PUSH1 0x0 DUP7 ADD CALLDATALOAD PUSH8 0xFFFFFFFFFFFFFFFF DUP2 GT ISZERO PUSH2 0x119D JUMPI PUSH2 0x119C PUSH2 0xC90 JUMP JUMPDEST JUMPDEST PUSH2 0x11A9 DUP9 DUP3 DUP10 ADD PUSH2 0x1135 JUMP JUMPDEST SWAP6 POP POP PUSH1 0x20 DUP7 ADD CALLDATALOAD PUSH8 0xFFFFFFFFFFFFFFFF DUP2 GT ISZERO PUSH2 0x11CA JUMPI PUSH2 0x11C9 PUSH2 0xC90 JUMP JUMPDEST JUMPDEST PUSH2 0x11D6 DUP9 DUP3 DUP10 ADD PUSH2 0x1135 JUMP JUMPDEST SWAP5 POP POP PUSH1 0x40 PUSH2 0x11E7 DUP9 DUP3 DUP10 ADD PUSH2 0xFA5 JUMP JUMPDEST SWAP4 POP POP PUSH1 0x60 PUSH2 0x11F8 DUP9 DUP3 DUP10 ADD PUSH2 0xFA5 JUMP JUMPDEST SWAP3 POP POP PUSH1 0x80 PUSH2 0x1209 DUP9 DUP3 DUP10 ADD PUSH2 0xFA5 JUMP JUMPDEST SWAP2 POP POP SWAP3 SWAP6 POP SWAP3 SWAP6 SWAP1 SWAP4 POP JUMP JUMPDEST PUSH1 0x0 PUSH2 0x1221 DUP3 PUSH2 0xC95 JUMP JUMPDEST SWAP1 POP SWAP2 SWAP1 POP JUMP JUMPDEST PUSH2 0x1231 DUP2 PUSH2 0x1216 JUMP JUMPDEST DUP3 MSTORE POP POP JUMP JUMPDEST PUSH1 0x0 PUSH1 0x20 DUP3 ADD SWAP1 POP PUSH2 0x124C PUSH1 0x0 DUP4 ADD DUP5 PUSH2 0x1228 JUMP JUMPDEST SWAP3 SWAP2 POP POP JUMP JUMPDEST PUSH2 0x125B DUP2 PUSH2 0xFFA JUMP JUMPDEST DUP2 EQ PUSH2 0x1266 JUMPI PUSH1 0x0 DUP1 REVERT JUMPDEST POP JUMP JUMPDEST PUSH1 0x0 DUP2 CALLDATALOAD SWAP1 POP PUSH2 0x1278 DUP2 PUSH2 0x1252 JUMP JUMPDEST SWAP3 SWAP2 POP POP JUMP JUMPDEST PUSH1 0x0 PUSH1 0x20 DUP3 DUP5 SUB SLT ISZERO PUSH2 0x1294 JUMPI PUSH2 0x1293 PUSH2 0xC8B JUMP JUMPDEST JUMPDEST PUSH1 0x0 PUSH2 0x12A2 DUP5 DUP3 DUP6 ADD PUSH2 0x1269 JUMP JUMPDEST SWAP2 POP POP SWAP3 SWAP2 POP POP JUMP JUMPDEST PUSH1 0x0 PUSH2 0x100 DUP4 ADD PUSH1 0x0 DUP4 ADD MLOAD PUSH2 0x12C4 PUSH1 0x0 DUP7 ADD DUP3 PUSH2 0xD4C JUMP JUMPDEST POP PUSH1 0x20 DUP4 ADD MLOAD PUSH2 0x12D7 PUSH1 0x20 DUP7 ADD DUP3 PUSH2 0xD65 JUMP JUMPDEST POP PUSH1 0x40 DUP4 ADD MLOAD PUSH2 0x12EA PUSH1 0x40 DUP7 ADD DUP3 PUSH2 0xD65 JUMP JUMPDEST POP PUSH1 0x60 DUP4 ADD MLOAD PUSH2 0x12FD PUSH1 0x60 DUP7 ADD DUP3 PUSH2 0xD65 JUMP JUMPDEST POP PUSH1 0x80 DUP4 ADD MLOAD PUSH2 0x1310 PUSH1 0x80 DUP7 ADD DUP3 PUSH2 0xD80 JUMP JUMPDEST POP PUSH1 0xA0 DUP4 ADD MLOAD PUSH2 0x1323 PUSH1 0xA0 DUP7 ADD DUP3 PUSH2 0xD65 JUMP JUMPDEST POP PUSH1 0xC0 DUP4 ADD MLOAD DUP5 DUP3 SUB PUSH1 0xC0 DUP7 ADD MSTORE PUSH2 0x133B DUP3 DUP3 PUSH2 0xDE6 JUMP JUMPDEST SWAP2 POP POP PUSH1 0xE0 DUP4 ADD MLOAD DUP5 DUP3 SUB PUSH1 0xE0 DUP7 ADD MSTORE PUSH2 0x1355 DUP3 DUP3 PUSH2 0xDE6 JUMP JUMPDEST SWAP2 POP POP DUP1 SWAP2 POP POP SWAP3 SWAP2 POP POP JUMP JUMPDEST PUSH1 0x0 PUSH1 0x20 DUP3 ADD SWAP1 POP DUP2 DUP2 SUB PUSH1 0x0 DUP4 ADD MSTORE PUSH2 0x137C DUP2 DUP5 PUSH2 0x12AB JUMP JUMPDEST SWAP1 POP SWAP3 SWAP2 POP POP JUMP JUMPDEST PUSH2 0x138D DUP2 PUSH2 0xCB5 JUMP JUMPDEST DUP3 MSTORE POP POP JUMP JUMPDEST PUSH2 0x139C DUP2 PUSH2 0xD5B JUMP JUMPDEST DUP3 MSTORE POP POP JUMP JUMPDEST PUSH2 0x13AB DUP2 PUSH2 0xD74 JUMP JUMPDEST DUP3 MSTORE POP POP JUMP JUMPDEST PUSH1 0x0 DUP3 DUP3 MSTORE PUSH1 0x20 DUP3 ADD SWAP1 POP SWAP3 SWAP2 POP POP JUMP JUMPDEST PUSH1 0x0 PUSH2 0x13CD DUP3 PUSH2 0xD8F JUMP JUMPDEST PUSH2 0x13D7 DUP2 DUP6 PUSH2 0x13B1 JUMP JUMPDEST SWAP4 POP PUSH2 0x13E7 DUP2 DUP6 PUSH1 0x20 DUP7 ADD PUSH2 0xDAB JUMP JUMPDEST PUSH2 0x13F0 DUP2 PUSH2 0xDD5 JUMP JUMPDEST DUP5 ADD SWAP2 POP POP SWAP3 SWAP2 POP POP JUMP JUMPDEST PUSH1 0x0 PUSH2 0x100 DUP3 ADD SWAP1 POP PUSH2 0x1411 PUSH1 0x0 DUP4 ADD DUP12 PUSH2 0x1384 JUMP JUMPDEST PUSH2 0x141E PUSH1 0x20 DUP4 ADD DUP11 PUSH2 0x1393 JUMP JUMPDEST PUSH2 0x142B PUSH1 0x40 DUP4 ADD DUP10 PUSH2 0x1393 JUMP JUMPDEST PUSH2 0x1438 PUSH1 0x60 DUP4 ADD DUP9 PUSH2 0x1393 JUMP JUMPDEST PUSH2 0x1445 PUSH1 0x80 DUP4 ADD DUP8 PUSH2 0x13A2 JUMP JUMPDEST PUSH2 0x1452 PUSH1 0xA0 DUP4 ADD DUP7 PUSH2 0x1393 JUMP JUMPDEST DUP2 DUP2 SUB PUSH1 0xC0 DUP4 ADD MSTORE PUSH2 0x1464 DUP2 DUP6 PUSH2 0x13C2 JUMP JUMPDEST SWAP1 POP DUP2 DUP2 SUB PUSH1 0xE0 DUP4 ADD MSTORE PUSH2 0x1478 DUP2 DUP5 PUSH2 0x13C2 JUMP JUMPDEST SWAP1 POP SWAP10 SWAP9 POP POP POP POP POP POP POP POP POP JUMP JUMPDEST PUSH32 0x5573657220706F6C6963696573206E6F742070726573656E7400000000000000 PUSH1 0x0 DUP3 ADD MSTORE POP JUMP JUMPDEST PUSH1 0x0 PUSH2 0x14BD PUSH1 0x19 DUP4 PUSH2 0x13B1 JUMP JUMPDEST SWAP2 POP PUSH2 0x14C8 DUP3 PUSH2 0x1487 JUMP JUMPDEST PUSH1 0x20 DUP3 ADD SWAP1 POP SWAP2 SWAP1 POP JUMP JUMPDEST PUSH1 0x0 PUSH1 0x20 DUP3 ADD SWAP1 POP DUP2 DUP2 SUB PUSH1 0x0 DUP4 ADD MSTORE PUSH2 0x14EC DUP2 PUSH2 0x14B0 JUMP JUMPDEST SWAP1 POP SWAP2 SWAP1 POP JUMP JUMPDEST PUSH32 0x4E487B7100000000000000000000000000000000000000000000000000000000 PUSH1 0x0 MSTORE PUSH1 0x32 PUSH1 0x4 MSTORE PUSH1 0x24 PUSH1 0x0 REVERT JUMPDEST PUSH32 0x4F6E6C7920746865206F776E65722063616E2077697468647261772066756E64 PUSH1 0x0 DUP3 ADD MSTORE PUSH32 0x7300000000000000000000000000000000000000000000000000000000000000 PUSH1 0x20 DUP3 ADD MSTORE POP JUMP JUMPDEST PUSH1 0x0 PUSH2 0x157E PUSH1 0x21 DUP4 PUSH2 0x13B1 JUMP JUMPDEST SWAP2 POP PUSH2 0x1589 DUP3 PUSH2 0x1522 JUMP JUMPDEST PUSH1 0x40 DUP3 ADD SWAP1 POP SWAP2 SWAP1 POP JUMP JUMPDEST PUSH1 0x0 PUSH1 0x20 DUP3 ADD SWAP1 POP DUP2 DUP2 SUB PUSH1 0x0 DUP4 ADD MSTORE PUSH2 0x15AD DUP2 PUSH2 0x1571 JUMP JUMPDEST SWAP1 POP SWAP2 SWAP1 POP JUMP JUMPDEST PUSH32 0x506F6C696379206475726174696F6E2073686F756C6420626520677265617465 PUSH1 0x0 DUP3 ADD MSTORE PUSH32 0x72207468616E207A65726F000000000000000000000000000000000000000000 PUSH1 0x20 DUP3 ADD MSTORE POP JUMP JUMPDEST PUSH1 0x0 PUSH2 0x1610 PUSH1 0x2B DUP4 PUSH2 0x13B1 JUMP JUMPDEST SWAP2 POP PUSH2 0x161B DUP3 PUSH2 0x15B4 JUMP JUMPDEST PUSH1 0x40 DUP3 ADD SWAP1 POP SWAP2 SWAP1 POP JUMP JUMPDEST PUSH1 0x0 PUSH1 0x20 DUP3 ADD SWAP1 POP DUP2 DUP2 SUB PUSH1 0x0 DUP4 ADD MSTORE PUSH2 0x163F DUP2 PUSH2 0x1603 JUMP JUMPDEST SWAP1 POP SWAP2 SWAP1 POP JUMP JUMPDEST PUSH32 0x4E487B7100000000000000000000000000000000000000000000000000000000 PUSH1 0x0 MSTORE PUSH1 0x11 PUSH1 0x4 MSTORE PUSH1 0x24 PUSH1 0x0 REVERT JUMPDEST PUSH1 0x0 PUSH2 0x1680 DUP3 PUSH2 0xD5B JUMP JUMPDEST SWAP2 POP PUSH2 0x168B DUP4 PUSH2 0xD5B JUMP JUMPDEST SWAP3 POP DUP3 DUP3 ADD SWAP1 POP DUP1 DUP3 GT ISZERO PUSH2 0x16A3 JUMPI PUSH2 0x16A2 PUSH2 0x1646 JUMP JUMPDEST JUMPDEST SWAP3 SWAP2 POP POP JUMP JUMPDEST PUSH1 0x0 DUP2 PUSH1 0x60 SHL SWAP1 POP SWAP2 SWAP1 POP JUMP JUMPDEST PUSH1 0x0 PUSH2 0x16C1 DUP3 PUSH2 0x16A9 JUMP JUMPDEST SWAP1 POP SWAP2 SWAP1 POP JUMP JUMPDEST PUSH1 0x0 PUSH2 0x16D3 DUP3 PUSH2 0x16B6 JUMP JUMPDEST SWAP1 POP SWAP2 SWAP1 POP JUMP JUMPDEST PUSH2 0x16EB PUSH2 0x16E6 DUP3 PUSH2 0xCB5 JUMP JUMPDEST PUSH2 0x16C8 JUMP JUMPDEST DUP3 MSTORE POP POP JUMP JUMPDEST PUSH1 0x0 DUP2 SWAP1 POP SWAP2 SWAP1 POP JUMP JUMPDEST PUSH2 0x170C PUSH2 0x1707 DUP3 PUSH2 0xD5B JUMP JUMPDEST PUSH2 0x16F1 JUMP JUMPDEST DUP3 MSTORE POP POP JUMP JUMPDEST PUSH1 0x0 PUSH2 0x171E DUP3 DUP7 PUSH2 0x16DA JUMP JUMPDEST PUSH1 0x14 DUP3 ADD SWAP2 POP PUSH2 0x172E DUP3 DUP6 PUSH2 0x16FB JUMP JUMPDEST PUSH1 0x20 DUP3 ADD SWAP2 POP PUSH2 0x173E DUP3 DUP5 PUSH2 0x16FB JUMP JUMPDEST PUSH1 0x20 DUP3 ADD SWAP2 POP DUP2 SWAP1 POP SWAP5 SWAP4 POP POP POP POP JUMP JUMPDEST PUSH32 0x4E487B7100000000000000000000000000000000000000000000000000000000 PUSH1 0x0 MSTORE PUSH1 0x22 PUSH1 0x4 MSTORE PUSH1 0x24 PUSH1 0x0 REVERT JUMPDEST PUSH1 0x0 PUSH1 0x2 DUP3 DIV SWAP1 POP PUSH1 0x1 DUP3 AND DUP1 PUSH2 0x1796 JUMPI PUSH1 0x7F DUP3 AND SWAP2 POP JUMPDEST PUSH1 0x20 DUP3 LT DUP2 SUB PUSH2 0x17A9 JUMPI PUSH2 0x17A8 PUSH2 0x174F JUMP JUMPDEST JUMPDEST POP SWAP2 SWAP1 POP JUMP JUMPDEST PUSH1 0x0 DUP2 SWAP1 POP DUP2 PUSH1 0x0 MSTORE PUSH1 0x20 PUSH1 0x0 KECCAK256 SWAP1 POP SWAP2 SWAP1 POP JUMP JUMPDEST PUSH1 0x0 PUSH1 0x20 PUSH1 0x1F DUP4 ADD DIV SWAP1 POP SWAP2 SWAP1 POP JUMP JUMPDEST PUSH1 0x0 DUP3 DUP3 SHL SWAP1 POP SWAP3 SWAP2 POP POP JUMP JUMPDEST PUSH1 0x0 PUSH1 0x8 DUP4 MUL PUSH2 0x1811 PUSH32 0xFFFFFFFFFFFFFFFFFFFFFFFFFFFFFFFFFFFFFFFFFFFFFFFFFFFFFFFFFFFFFFFF DUP3 PUSH2 0x17D4 JUMP JUMPDEST PUSH2 0x181B DUP7 DUP4 PUSH2 0x17D4 JUMP JUMPDEST SWAP6 POP DUP1 NOT DUP5 AND SWAP4 POP DUP1 DUP7 AND DUP5 OR SWAP3 POP POP POP SWAP4 SWAP3 POP POP POP JUMP JUMPDEST PUSH1 0x0 DUP2 SWAP1 POP SWAP2 SWAP1 POP JUMP JUMPDEST PUSH1 0x0 PUSH2 0x1858 PUSH2 0x1853 PUSH2 0x184E DUP5 PUSH2 0xD5B JUMP JUMPDEST PUSH2 0x1833 JUMP JUMPDEST PUSH2 0xD5B JUMP JUMPDEST SWAP1 POP SWAP2 SWAP1 POP JUMP JUMPDEST PUSH1 0x0 DUP2 SWAP1 POP SWAP2 SWAP1 POP JUMP JUMPDEST PUSH2 0x1872 DUP4 PUSH2 0x183D JUMP JUMPDEST PUSH2 0x1886 PUSH2 0x187E DUP3 PUSH2 0x185F JUMP JUMPDEST DUP5 DUP5 SLOAD PUSH2 0x17E1 JUMP JUMPDEST DUP3 SSTORE POP POP POP POP JUMP JUMPDEST PUSH1 0x0 SWAP1 JUMP JUMPDEST PUSH2 0x189B PUSH2 0x188E JUMP JUMPDEST PUSH2 0x18A6 DUP2 DUP5 DUP5 PUSH2 0x1869 JUMP JUMPDEST POP POP POP JUMP JUMPDEST JUMPDEST DUP2 DUP2 LT ISZERO PUSH2 0x18CA JUMPI PUSH2 0x18BF PUSH1 0x0 DUP3 PUSH2 0x1893 JUMP JUMPDEST PUSH1 0x1 DUP2 ADD SWAP1 POP PUSH2 0x18AC JUMP JUMPDEST POP POP JUMP JUMPDEST PUSH1 0x1F DUP3 GT ISZERO PUSH2 0x190F JUMPI PUSH2 0x18E0 DUP2 PUSH2 0x17AF JUMP JUMPDEST PUSH2 0x18E9 DUP5 PUSH2 0x17C4 JUMP JUMPDEST DUP2 ADD PUSH1 0x20 DUP6 LT ISZERO PUSH2 0x18F8 JUMPI DUP2 SWAP1 POP JUMPDEST PUSH2 0x190C PUSH2 0x1904 DUP6 PUSH2 0x17C4 JUMP JUMPDEST DUP4 ADD DUP3 PUSH2 0x18AB JUMP JUMPDEST POP POP JUMPDEST POP POP POP JUMP JUMPDEST PUSH1 0x0 DUP3 DUP3 SHR SWAP1 POP SWAP3 SWAP2 POP POP JUMP JUMPDEST PUSH1 0x0 PUSH2 0x1932 PUSH1 0x0 NOT DUP5 PUSH1 0x8 MUL PUSH2 0x1914 JUMP JUMPDEST NOT DUP1 DUP4 AND SWAP2 POP POP SWAP3 SWAP2 POP POP JUMP JUMPDEST PUSH1 0x0 PUSH2 0x194B DUP4 DUP4 PUSH2 0x1921 JUMP JUMPDEST SWAP2 POP DUP3 PUSH1 0x2 MUL DUP3 OR SWAP1 POP SWAP3 SWAP2 POP POP JUMP JUMPDEST PUSH2 0x1964 DUP3 PUSH2 0xD8F JUMP JUMPDEST PUSH8 0xFFFFFFFFFFFFFFFF DUP2 GT ISZERO PUSH2 0x197D JUMPI PUSH2 0x197C PUSH2 0x1038 JUMP JUMPDEST JUMPDEST PUSH2 0x1987 DUP3 SLOAD PUSH2 0x177E JUMP JUMPDEST PUSH2 0x1992 DUP3 DUP3 DUP6 PUSH2 0x18CE JUMP JUMPDEST PUSH1 0x0 PUSH1 0x20 SWAP1 POP PUSH1 0x1F DUP4 GT PUSH1 0x1 DUP2 EQ PUSH2 0x19C5 JUMPI PUSH1 0x0 DUP5 ISZERO PUSH2 0x19B3 JUMPI DUP3 DUP8 ADD MLOAD SWAP1 POP JUMPDEST PUSH2 0x19BD DUP6 DUP3 PUSH2 0x193F JUMP JUMPDEST DUP7 SSTORE POP PUSH2 0x1A25 JUMP JUMPDEST PUSH1 0x1F NOT DUP5 AND PUSH2 0x19D3 DUP7 PUSH2 0x17AF JUMP JUMPDEST PUSH1 0x0 JUMPDEST DUP3 DUP2 LT ISZERO PUSH2 0x19FB JUMPI DUP5 DUP10 ADD MLOAD DUP3 SSTORE PUSH1 0x1 DUP3 ADD SWAP2 POP PUSH1 0x20 DUP6 ADD SWAP5 POP PUSH1 0x20 DUP2 ADD SWAP1 POP PUSH2 0x19D6 JUMP JUMPDEST DUP7 DUP4 LT ISZERO PUSH2 0x1A18 JUMPI DUP5 DUP10 ADD MLOAD PUSH2 0x1A14 PUSH1 0x1F DUP10 AND DUP3 PUSH2 0x1921 JUMP JUMPDEST DUP4 SSTORE POP JUMPDEST PUSH1 0x1 PUSH1 0x2 DUP9 MUL ADD DUP9 SSTORE POP POP POP JUMPDEST POP POP POP POP POP POP JUMP JUMPDEST PUSH1 0x0 PUSH1 0x40 DUP3 ADD SWAP1 POP PUSH2 0x1A42 PUSH1 0x0 DUP4 ADD DUP6 PUSH2 0x1393 JUMP JUMPDEST PUSH2 0x1A4F PUSH1 0x20 DUP4 ADD DUP5 PUSH2 0x1393 JUMP JUMPDEST SWAP4 SWAP3 POP POP POP JUMP JUMPDEST PUSH32 0x596F7520617265206E6F742074686520686F6C646572206F6620746869732070 PUSH1 0x0 DUP3 ADD MSTORE PUSH32 0x6F6C696379000000000000000000000000000000000000000000000000000000 PUSH1 0x20 DUP3 ADD MSTORE POP JUMP JUMPDEST PUSH1 0x0 PUSH2 0x1AB2 PUSH1 0x25 DUP4 PUSH2 0x13B1 JUMP JUMPDEST SWAP2 POP PUSH2 0x1ABD DUP3 PUSH2 0x1A56 JUMP JUMPDEST PUSH1 0x40 DUP3 ADD SWAP1 POP SWAP2 SWAP1 POP JUMP JUMPDEST PUSH1 0x0 PUSH1 0x20 DUP3 ADD SWAP1 POP DUP2 DUP2 SUB PUSH1 0x0 DUP4 ADD MSTORE PUSH2 0x1AE1 DUP2 PUSH2 0x1AA5 JUMP JUMPDEST SWAP1 POP SWAP2 SWAP1 POP JUMP JUMPDEST PUSH32 0x506F6C69637920697320616C72656164792063616E63656C6564000000000000 PUSH1 0x0 DUP3 ADD MSTORE POP JUMP JUMPDEST PUSH1 0x0 PUSH2 0x1B1E PUSH1 0x1A DUP4 PUSH2 0x13B1 JUMP JUMPDEST SWAP2 POP PUSH2 0x1B29 DUP3 PUSH2 0x1AE8 JUMP JUMPDEST PUSH1 0x20 DUP3 ADD SWAP1 POP SWAP2 SWAP1 POP JUMP JUMPDEST PUSH1 0x0 PUSH1 0x20 DUP3 ADD SWAP1 POP DUP2 DUP2 SUB PUSH1 0x0 DUP4 ADD MSTORE PUSH2 0x1B4D DUP2 PUSH2 0x1B11 JUMP JUMPDEST SWAP1 POP SWAP2 SWAP1 POP JUMP INVALID LOG2 PUSH5 0x6970667358 0x22 SLT KECCAK256 STATICCALL 0xAF PUSH32 0xE182C06C7C562FB76B4930632CA9CC9DF5C2797347D78D430D1576406A64736F PUSH13 0x63430008180033000000000000 "
        },
        "methodIdentifiers": {
          "cancelPolicy(bytes32)": "a86146d0",
          "createPolicy(string,string,uint256,uint256,uint256)": "664ecc2a",
          "getPolicy(bytes32)": "a3f685f9",
          "getUserPolicies(address)": "19ac4614",
          "owner()": "8da5cb5b",
          "policies(bytes32)": "ddbfd8ef",
          "userPolicies(address,uint256)": "3d36adc5",
          "withdraw()": "3ccfd60b"
        }
      }
    }
  }
}