{
  "contracts/MedicalRecords.sol": {
    "MedicalRecords": {
      "abi": [
        {
          "anonymous": false,
          "inputs": [
            {
              "indexed": true,
              "internalType": "uint256",
              "name": "recordID",
              "type": "uint256"
            },
            {
              "indexed": false,
              "internalType": "address",
              "name": "patientAddr",
              "type": "address"
            }
          ],
          "name": "RecordCreated",
          "type": "event"
        },
        {
          "anonymous": false,
          "inputs": [
            {
              "components": [
                {
                  "internalType": "uint256",
                  "name": "_id",
                  "type": "uint256"
                },
                {
                  "internalType": "string",
                  "name": "name",
                  "type": "string"
                },
                {
                  "internalType": "address",
                  "name": "addr",
                  "type": "address"
                },
                {
                  "internalType": "address",
                  "name": "hospitalAddr",
                  "type": "address"
                },
                {
                  "internalType": "string",
                  "name": "aadhaarNo",
                  "type": "string"
                },
                {
                  "internalType": "string",
                  "name": "email",
                  "type": "string"
                },
                {
                  "internalType": "string[]",
                  "name": "medicalRecords",
                  "type": "string[]"
                },
                {
                  "internalType": "uint256",
                  "name": "date",
                  "type": "uint256"
                },
                {
                  "internalType": "string",
                  "name": "diagnosis",
                  "type": "string"
                },
                {
                  "internalType": "string",
                  "name": "typeOfTreatment",
                  "type": "string"
                },
                {
                  "internalType": "uint256",
                  "name": "billAmount",
                  "type": "uint256"
                },
                {
                  "internalType": "bool",
                  "name": "isClaimed",
                  "type": "bool"
                }
              ],
              "indexed": false,
              "internalType": "struct MedicalRecords.PatientRecord[]",
              "name": "patientRecord",
              "type": "tuple[]"
            }
          ],
          "name": "ReturnHospitalRecords",
          "type": "event"
        },
        {
          "anonymous": false,
          "inputs": [
            {
              "components": [
                {
                  "internalType": "uint256",
                  "name": "_id",
                  "type": "uint256"
                },
                {
                  "internalType": "string",
                  "name": "name",
                  "type": "string"
                },
                {
                  "internalType": "address",
                  "name": "addr",
                  "type": "address"
                },
                {
                  "internalType": "address",
                  "name": "hospitalAddr",
                  "type": "address"
                },
                {
                  "internalType": "string",
                  "name": "aadhaarNo",
                  "type": "string"
                },
                {
                  "internalType": "string",
                  "name": "email",
                  "type": "string"
                },
                {
                  "internalType": "string[]",
                  "name": "medicalRecords",
                  "type": "string[]"
                },
                {
                  "internalType": "uint256",
                  "name": "date",
                  "type": "uint256"
                },
                {
                  "internalType": "string",
                  "name": "diagnosis",
                  "type": "string"
                },
                {
                  "internalType": "string",
                  "name": "typeOfTreatment",
                  "type": "string"
                },
                {
                  "internalType": "uint256",
                  "name": "billAmount",
                  "type": "uint256"
                },
                {
                  "internalType": "bool",
                  "name": "isClaimed",
                  "type": "bool"
                }
              ],
              "indexed": false,
              "internalType": "struct MedicalRecords.PatientRecord[]",
              "name": "patientRecord",
              "type": "tuple[]"
            },
            {
              "indexed": false,
              "internalType": "bytes32[]",
              "name": "patientPolicies",
              "type": "bytes32[]"
            }
          ],
          "name": "ReturnPatientRecords",
          "type": "event"
        },
        {
          "anonymous": false,
          "inputs": [
            {
              "components": [
                {
                  "internalType": "uint256",
                  "name": "_id",
                  "type": "uint256"
                },
                {
                  "internalType": "string",
                  "name": "name",
                  "type": "string"
                },
                {
                  "internalType": "address",
                  "name": "addr",
                  "type": "address"
                },
                {
                  "internalType": "address",
                  "name": "hospitalAddr",
                  "type": "address"
                },
                {
                  "internalType": "string",
                  "name": "aadhaarNo",
                  "type": "string"
                },
                {
                  "internalType": "string",
                  "name": "email",
                  "type": "string"
                },
                {
                  "internalType": "string[]",
                  "name": "medicalRecords",
                  "type": "string[]"
                },
                {
                  "internalType": "uint256",
                  "name": "date",
                  "type": "uint256"
                },
                {
                  "internalType": "string",
                  "name": "diagnosis",
                  "type": "string"
                },
                {
                  "internalType": "string",
                  "name": "typeOfTreatment",
                  "type": "string"
                },
                {
                  "internalType": "uint256",
                  "name": "billAmount",
                  "type": "uint256"
                },
                {
                  "internalType": "bool",
                  "name": "isClaimed",
                  "type": "bool"
                }
              ],
              "indexed": false,
              "internalType": "struct MedicalRecords.PatientRecord",
              "name": "patientRecord",
              "type": "tuple"
            }
          ],
          "name": "ReturnRecordById",
          "type": "event"
        },
        {
          "inputs": [
            {
              "internalType": "string",
              "name": "_name",
              "type": "string"
            },
            {
              "internalType": "string",
              "name": "_aadhaarNo",
              "type": "string"
            },
            {
              "internalType": "string",
              "name": "_email",
              "type": "string"
            },
            {
              "internalType": "string",
              "name": "_diagnosis",
              "type": "string"
            },
            {
              "internalType": "string",
              "name": "_typeOfTreatment",
              "type": "string"
            },
            {
              "internalType": "string[]",
              "name": "_medicalRecords",
              "type": "string[]"
            },
            {
              "internalType": "uint256",
              "name": "_billAmount",
              "type": "uint256"
            },
            {
              "internalType": "address",
              "name": "_patientAddr",
              "type": "address"
            }
          ],
          "name": "addPatientRecord",
          "outputs": [],
          "stateMutability": "nonpayable",
          "type": "function"
        },
        {
          "inputs": [
            {
              "internalType": "string",
              "name": "recordFile",
              "type": "string"
            },
            {
              "internalType": "address",
              "name": "_patientAddr",
              "type": "address"
            },
            {
              "internalType": "uint256",
              "name": "_recordId",
              "type": "uint256"
            }
          ],
          "name": "addRecordFiles",
          "outputs": [],
          "stateMutability": "nonpayable",
          "type": "function"
        },
        {
          "inputs": [],
          "name": "getAllRecordsByHospital",
          "outputs": [
            {
              "components": [
                {
                  "internalType": "uint256",
                  "name": "_id",
                  "type": "uint256"
                },
                {
                  "internalType": "string",
                  "name": "name",
                  "type": "string"
                },
                {
                  "internalType": "address",
                  "name": "addr",
                  "type": "address"
                },
                {
                  "internalType": "address",
                  "name": "hospitalAddr",
                  "type": "address"
                },
                {
                  "internalType": "string",
                  "name": "aadhaarNo",
                  "type": "string"
                },
                {
                  "internalType": "string",
                  "name": "email",
                  "type": "string"
                },
                {
                  "internalType": "string[]",
                  "name": "medicalRecords",
                  "type": "string[]"
                },
                {
                  "internalType": "uint256",
                  "name": "date",
                  "type": "uint256"
                },
                {
                  "internalType": "string",
                  "name": "diagnosis",
                  "type": "string"
                },
                {
                  "internalType": "string",
                  "name": "typeOfTreatment",
                  "type": "string"
                },
                {
                  "internalType": "uint256",
                  "name": "billAmount",
                  "type": "uint256"
                },
                {
                  "internalType": "bool",
                  "name": "isClaimed",
                  "type": "bool"
                }
              ],
              "internalType": "struct MedicalRecords.PatientRecord[]",
              "name": "patientRecord",
              "type": "tuple[]"
            }
          ],
          "stateMutability": "nonpayable",
          "type": "function"
        },
        {
          "inputs": [
            {
              "internalType": "address",
              "name": "_patientAddr",
              "type": "address"
            }
          ],
          "name": "getPatientRecords",
          "outputs": [
            {
              "components": [
                {
                  "internalType": "uint256",
                  "name": "_id",
                  "type": "uint256"
                },
                {
                  "internalType": "string",
                  "name": "name",
                  "type": "string"
                },
                {
                  "internalType": "address",
                  "name": "addr",
                  "type": "address"
                },
                {
                  "internalType": "address",
                  "name": "hospitalAddr",
                  "type": "address"
                },
                {
                  "internalType": "string",
                  "name": "aadhaarNo",
                  "type": "string"
                },
                {
                  "internalType": "string",
                  "name": "email",
                  "type": "string"
                },
                {
                  "internalType": "string[]",
                  "name": "medicalRecords",
                  "type": "string[]"
                },
                {
                  "internalType": "uint256",
                  "name": "date",
                  "type": "uint256"
                },
                {
                  "internalType": "string",
                  "name": "diagnosis",
                  "type": "string"
                },
                {
                  "internalType": "string",
                  "name": "typeOfTreatment",
                  "type": "string"
                },
                {
                  "internalType": "uint256",
                  "name": "billAmount",
                  "type": "uint256"
                },
                {
                  "internalType": "bool",
                  "name": "isClaimed",
                  "type": "bool"
                }
              ],
              "internalType": "struct MedicalRecords.PatientRecord[]",
              "name": "patientRecord",
              "type": "tuple[]"
            },
            {
              "internalType": "bytes32[]",
              "name": "patientPolicies",
              "type": "bytes32[]"
            }
          ],
          "stateMutability": "nonpayable",
          "type": "function"
        },
        {
          "inputs": [
            {
              "internalType": "uint256",
              "name": "_recordId",
              "type": "uint256"
            }
          ],
          "name": "getRecordById",
          "outputs": [
            {
              "components": [
                {
                  "internalType": "uint256",
                  "name": "_id",
                  "type": "uint256"
                },
                {
                  "internalType": "string",
                  "name": "name",
                  "type": "string"
                },
                {
                  "internalType": "address",
                  "name": "addr",
                  "type": "address"
                },
                {
                  "internalType": "address",
                  "name": "hospitalAddr",
                  "type": "address"
                },
                {
                  "internalType": "string",
                  "name": "aadhaarNo",
                  "type": "string"
                },
                {
                  "internalType": "string",
                  "name": "email",
                  "type": "string"
                },
                {
                  "internalType": "string[]",
                  "name": "medicalRecords",
                  "type": "string[]"
                },
                {
                  "internalType": "uint256",
                  "name": "date",
                  "type": "uint256"
                },
                {
                  "internalType": "string",
                  "name": "diagnosis",
                  "type": "string"
                },
                {
                  "internalType": "string",
                  "name": "typeOfTreatment",
                  "type": "string"
                },
                {
                  "internalType": "uint256",
                  "name": "billAmount",
                  "type": "uint256"
                },
                {
                  "internalType": "bool",
                  "name": "isClaimed",
                  "type": "bool"
                }
              ],
              "internalType": "struct MedicalRecords.PatientRecord",
              "name": "patientRecord",
              "type": "tuple"
            }
          ],
          "stateMutability": "nonpayable",
          "type": "function"
        },
        {
          "inputs": [
            {
              "internalType": "address",
              "name": "",
              "type": "address"
            },
            {
              "internalType": "uint256",
              "name": "",
              "type": "uint256"
            }
          ],
          "name": "hospitalAddrToRecordId",
          "outputs": [
            {
              "internalType": "uint256",
              "name": "",
              "type": "uint256"
            }
          ],
          "stateMutability": "view",
          "type": "function"
        },
        {
          "inputs": [
            {
              "internalType": "address",
              "name": "",
              "type": "address"
            },
            {
              "internalType": "uint256",
              "name": "",
              "type": "uint256"
            }
          ],
          "name": "insurancePolicies",
          "outputs": [
            {
              "internalType": "bytes32",
              "name": "",
              "type": "bytes32"
            }
          ],
          "stateMutability": "view",
          "type": "function"
        },
        {
          "inputs": [
            {
              "internalType": "address",
              "name": "",
              "type": "address"
            },
            {
              "internalType": "uint256",
              "name": "",
              "type": "uint256"
            }
          ],
          "name": "patientAddrToRecordId",
          "outputs": [
            {
              "internalType": "uint256",
              "name": "",
              "type": "uint256"
            }
          ],
          "stateMutability": "view",
          "type": "function"
        },
        {
          "inputs": [
            {
              "internalType": "uint256",
              "name": "",
              "type": "uint256"
            }
          ],
          "name": "patientRecords",
          "outputs": [
            {
              "internalType": "uint256",
              "name": "_id",
              "type": "uint256"
            },
            {
              "internalType": "string",
              "name": "name",
              "type": "string"
            },
            {
              "internalType": "address",
              "name": "addr",
              "type": "address"
            },
            {
              "internalType": "address",
              "name": "hospitalAddr",
              "type": "address"
            },
            {
              "internalType": "string",
              "name": "aadhaarNo",
              "type": "string"
            },
            {
              "internalType": "string",
              "name": "email",
              "type": "string"
            },
            {
              "internalType": "uint256",
              "name": "date",
              "type": "uint256"
            },
            {
              "internalType": "string",
              "name": "diagnosis",
              "type": "string"
            },
            {
              "internalType": "string",
              "name": "typeOfTreatment",
              "type": "string"
            },
            {
              "internalType": "uint256",
              "name": "billAmount",
              "type": "uint256"
            },
            {
              "internalType": "bool",
              "name": "isClaimed",
              "type": "bool"
            }
          ],
          "stateMutability": "view",
          "type": "function"
        },
        {
          "inputs": [],
          "name": "recordIndex",
          "outputs": [
            {
              "internalType": "uint256",
              "name": "",
              "type": "uint256"
            }
          ],
          "stateMutability": "view",
          "type": "function"
        },
        {
          "inputs": [
            {
              "internalType": "uint256",
              "name": "_recordId",
              "type": "uint256"
            }
          ],
          "name": "updateClaimStatus",
          "outputs": [],
          "stateMutability": "nonpayable",
          "type": "function"
        }
      ],
      "evm": {
        "bytecode": {
          "linkReferences": {},
          "object": "608060405234801561001057600080fd5b50612b83806100206000396000f3fe608060405234801561001057600080fd5b50600436106100a95760003560e01c80636b726805116100715780636b7268051461018b5780638e37f9ca146101a9578063b43fabb9146101c5578063cec5bb24146101e3578063d3d188a1146101ff578063e75b8b2314610239576100a9565b806318bd4847146100ae57806330e94624146100df57806331fcbf591461010f578063531a78b31461012b578063636abb1f1461015b575b600080fd5b6100c860048036038101906100c39190611668565b610269565b6040516100d6929190611adb565b60405180910390f35b6100f960048036038101906100f49190611b3e565b610549565b6040516101069190611b8d565b60405180910390f35b61012960048036038101906101249190611ba8565b61057a565b005b61014560048036038101906101409190611b3e565b6105ab565b6040516101529190611be4565b60405180910390f35b61017560048036038101906101709190611b3e565b6105dc565b6040516101829190611be4565b60405180910390f35b61019361060d565b6040516101a09190611be4565b60405180910390f35b6101c360048036038101906101be9190611e1a565b610613565b005b6101cd61088c565b6040516101da9190611f78565b60405180910390f35b6101fd60048036038101906101f89190611f9a565b610a98565b005b61021960048036038101906102149190611ba8565b610b8a565b6040516102309b9a99989796959493929190612071565b60405180910390f35b610253600480360381019061024e9190611ba8565b610ed9565b6040516102609190612266565b60405180910390f35b6060806000600260008573ffffffffffffffffffffffffffffffffffffffff1673ffffffffffffffffffffffffffffffffffffffff16815260200190815260200160002080549050116102f1576040517f08c379a00000000000000000000000000000000000000000000000000000000081526004016102e8906122d4565b60405180910390fd5b6000600260008573ffffffffffffffffffffffffffffffffffffffff1673ffffffffffffffffffffffffffffffffffffffff16815260200190815260200160002080548060200260200160405190810160405280929190818152602001828054801561037c57602002820191906000526020600020905b815481526020019060010190808311610368575b505050505090506000815167ffffffffffffffff8111156103a05761039f611c09565b5b6040519080825280602002602001820160405280156103d957816020015b6103c661148d565b8152602001906001900390816103be5790505b50905060005b82518110156104365761040b8382815181106103fe576103fd6122f4565b5b6020026020010151610ed9565b82828151811061041e5761041d6122f4565b5b602002602001018190525080806001019150506103df565b507f4c33e7a6255cc5d2a4d010300cb9f9dc34f7d0391cc8892ea8a7bd4186b7a44c816000808873ffffffffffffffffffffffffffffffffffffffff1673ffffffffffffffffffffffffffffffffffffffff1681526020019081526020016000206040516104a59291906123f9565b60405180910390a1806000808773ffffffffffffffffffffffffffffffffffffffff1673ffffffffffffffffffffffffffffffffffffffff1681526020019081526020016000208080548060200260200160405190810160405280929190818152602001828054801561053757602002820191906000526020600020905b815481526020019060010190808311610523575b50505050509050935093505050915091565b6000602052816000526040600020818154811061056557600080fd5b90600052602060002001600091509150505481565b6001806000838152602001908152602001600020600b0160006101000a81548160ff02191690831515021790555050565b600360205281600052604060002081815481106105c757600080fd5b90600052602060002001600091509150505481565b600260205281600052604060002081815481106105f857600080fd5b90600052602060002001600091509150505481565b60045481565b60006001600060045481526020019081526020016000209050600454816000018190555088816001019081610648919061263c565b50818160020160006101000a81548173ffffffffffffffffffffffffffffffffffffffff021916908373ffffffffffffffffffffffffffffffffffffffff1602179055508781600401908161069d919061263c565b50868160050190816106af919061263c565b50428160070181905550858160080190816106ca919061263c565b50848160090190816106dc919061263c565b508281600a0181905550838160060190805190602001906106fe92919061151c565b50338160030160006101000a81548173ffffffffffffffffffffffffffffffffffffffff021916908373ffffffffffffffffffffffffffffffffffffffff160217905550600081600b0160006101000a81548160ff021916908315150217905550600260008373ffffffffffffffffffffffffffffffffffffffff1673ffffffffffffffffffffffffffffffffffffffff1681526020019081526020016000206004549080600181540180825580915050600190039060005260206000200160009091909190915055600360003373ffffffffffffffffffffffffffffffffffffffff1673ffffffffffffffffffffffffffffffffffffffff16815260200190815260200160002060045490806001815401808255809150506001900390600052602060002001600090919091909150556004547f9a96995fdafdb50a11bfbcd015e3313b1a7de85a9a5c033e9ceccc3ee1b4c89383604051610861919061270e565b60405180910390a26004600081548092919061087c90612758565b9190505550505050505050505050565b60606000600360003373ffffffffffffffffffffffffffffffffffffffff1673ffffffffffffffffffffffffffffffffffffffff1681526020019081526020016000208054905011610913576040517f08c379a000000000000000000000000000000000000000000000000000000000815260040161090a906122d4565b60405180910390fd5b6000600360003373ffffffffffffffffffffffffffffffffffffffff1673ffffffffffffffffffffffffffffffffffffffff16815260200190815260200160002080548060200260200160405190810160405280929190818152602001828054801561099e57602002820191906000526020600020905b81548152602001906001019080831161098a575b505050505090506000815167ffffffffffffffff8111156109c2576109c1611c09565b5b6040519080825280602002602001820160405280156109fb57816020015b6109e861148d565b8152602001906001900390816109e05790505b50905060005b8251811015610a5857610a2d838281518110610a2057610a1f6122f4565b5b6020026020010151610ed9565b828281518110610a4057610a3f6122f4565b5b60200260200101819052508080600101915050610a01565b507fb320c0193b4f43ec61792d1d7c78623bc0d3331fba94e1f55c9dddb87819add781604051610a889190611f78565b60405180910390a1809250505090565b8173ffffffffffffffffffffffffffffffffffffffff166001600083815260200190815260200160002060020160009054906101000a900473ffffffffffffffffffffffffffffffffffffffff1673ffffffffffffffffffffffffffffffffffffffff1614610b3c576040517f08c379a0000000000000000000000000000000000000000000000000000000008152600401610b33906127ec565b60405180910390fd5b6001600082815260200190815260200160002060060183908060018154018082558091505060019003906000526020600020016000909190919091509081610b84919061263c565b50505050565b6001602052806000526040600020600091509050806000015490806001018054610bb39061245f565b80601f0160208091040260200160405190810160405280929190818152602001828054610bdf9061245f565b8015610c2c5780601f10610c0157610100808354040283529160200191610c2c565b820191906000526020600020905b815481529060010190602001808311610c0f57829003601f168201915b5050505050908060020160009054906101000a900473ffffffffffffffffffffffffffffffffffffffff16908060030160009054906101000a900473ffffffffffffffffffffffffffffffffffffffff1690806004018054610c8d9061245f565b80601f0160208091040260200160405190810160405280929190818152602001828054610cb99061245f565b8015610d065780601f10610cdb57610100808354040283529160200191610d06565b820191906000526020600020905b815481529060010190602001808311610ce957829003601f168201915b505050505090806005018054610d1b9061245f565b80601f0160208091040260200160405190810160405280929190818152602001828054610d479061245f565b8015610d945780601f10610d6957610100808354040283529160200191610d94565b820191906000526020600020905b815481529060010190602001808311610d7757829003601f168201915b505050505090806007015490806008018054610daf9061245f565b80601f0160208091040260200160405190810160405280929190818152602001828054610ddb9061245f565b8015610e285780601f10610dfd57610100808354040283529160200191610e28565b820191906000526020600020905b815481529060010190602001808311610e0b57829003601f168201915b505050505090806009018054610e3d9061245f565b80601f0160208091040260200160405190810160405280929190818152602001828054610e699061245f565b8015610eb65780601f10610e8b57610100808354040283529160200191610eb6565b820191906000526020600020905b815481529060010190602001808311610e9957829003601f168201915b50505050509080600a01549080600b0160009054906101000a900460ff1690508b565b610ee161148d565b600073ffffffffffffffffffffffffffffffffffffffff166001600084815260200190815260200160002060020160009054906101000a900473ffffffffffffffffffffffffffffffffffffffff1673ffffffffffffffffffffffffffffffffffffffff1603610f86576040517f08c379a0000000000000000000000000000000000000000000000000000000008152600401610f7d906127ec565b60405180910390fd5b7f98092a7fe3b04306aac95485307d8976a8cdc262ccc953080353153f93fabfd160016000848152602001908152602001600020604051610fc79190612b2b565b60405180910390a16001600083815260200190815260200160002060405180610180016040529081600082015481526020016001820180546110089061245f565b80601f01602080910402602001604051908101604052809291908181526020018280546110349061245f565b80156110815780601f1061105657610100808354040283529160200191611081565b820191906000526020600020905b81548152906001019060200180831161106457829003601f168201915b505050505081526020016002820160009054906101000a900473ffffffffffffffffffffffffffffffffffffffff1673ffffffffffffffffffffffffffffffffffffffff1673ffffffffffffffffffffffffffffffffffffffff1681526020016003820160009054906101000a900473ffffffffffffffffffffffffffffffffffffffff1673ffffffffffffffffffffffffffffffffffffffff1673ffffffffffffffffffffffffffffffffffffffff1681526020016004820180546111469061245f565b80601f01602080910402602001604051908101604052809291908181526020018280546111729061245f565b80156111bf5780601f10611194576101008083540402835291602001916111bf565b820191906000526020600020905b8154815290600101906020018083116111a257829003601f168201915b505050505081526020016005820180546111d89061245f565b80601f01602080910402602001604051908101604052809291908181526020018280546112049061245f565b80156112515780601f1061122657610100808354040283529160200191611251565b820191906000526020600020905b81548152906001019060200180831161123457829003601f168201915b5050505050815260200160068201805480602002602001604051908101604052809291908181526020016000905b8282101561132b57838290600052602060002001805461129e9061245f565b80601f01602080910402602001604051908101604052809291908181526020018280546112ca9061245f565b80156113175780601f106112ec57610100808354040283529160200191611317565b820191906000526020600020905b8154815290600101906020018083116112fa57829003601f168201915b50505050508152602001906001019061127f565b5050505081526020016007820154815260200160088201805461134d9061245f565b80601f01602080910402602001604051908101604052809291908181526020018280546113799061245f565b80156113c65780601f1061139b576101008083540402835291602001916113c6565b820191906000526020600020905b8154815290600101906020018083116113a957829003601f168201915b505050505081526020016009820180546113df9061245f565b80601f016020809104026020016040519081016040528092919081815260200182805461140b9061245f565b80156114585780601f1061142d57610100808354040283529160200191611458565b820191906000526020600020905b81548152906001019060200180831161143b57829003601f168201915b50505050508152602001600a8201548152602001600b820160009054906101000a900460ff1615151515815250509050919050565b6040518061018001604052806000815260200160608152602001600073ffffffffffffffffffffffffffffffffffffffff168152602001600073ffffffffffffffffffffffffffffffffffffffff168152602001606081526020016060815260200160608152602001600081526020016060815260200160608152602001600081526020016000151581525090565b828054828255906000526020600020908101928215611564579160200282015b82811115611563578251829081611553919061263c565b509160200191906001019061153c565b5b5090506115719190611575565b5090565b5b80821115611595576000818161158c9190611599565b50600101611576565b5090565b5080546115a59061245f565b6000825580601f106115b757506115d6565b601f0160209004906000526020600020908101906115d591906115d9565b5b50565b5b808211156115f25760008160009055506001016115da565b5090565b6000604051905090565b600080fd5b600080fd5b600073ffffffffffffffffffffffffffffffffffffffff82169050919050565b60006116358261160a565b9050919050565b6116458161162a565b811461165057600080fd5b50565b6000813590506116628161163c565b92915050565b60006020828403121561167e5761167d611600565b5b600061168c84828501611653565b91505092915050565b600081519050919050565b600082825260208201905092915050565b6000819050602082019050919050565b6000819050919050565b6116d4816116c1565b82525050565b600081519050919050565b600082825260208201905092915050565b60005b838110156117145780820151818401526020810190506116f9565b60008484015250505050565b6000601f19601f8301169050919050565b600061173c826116da565b61174681856116e5565b93506117568185602086016116f6565b61175f81611720565b840191505092915050565b6117738161162a565b82525050565b600081519050919050565b600082825260208201905092915050565b6000819050602082019050919050565b60006117b18383611731565b905092915050565b6000602082019050919050565b60006117d182611779565b6117db8185611784565b9350836020820285016117ed85611795565b8060005b85811015611829578484038952815161180a85826117a5565b9450611815836117b9565b925060208a019950506001810190506117f1565b50829750879550505050505092915050565b60008115159050919050565b6118508161183b565b82525050565b60006101808301600083015161186f60008601826116cb565b50602083015184820360208601526118878282611731565b915050604083015161189c604086018261176a565b5060608301516118af606086018261176a565b50608083015184820360808601526118c78282611731565b91505060a083015184820360a08601526118e18282611731565b91505060c083015184820360c08601526118fb82826117c6565b91505060e083015161191060e08601826116cb565b5061010083015184820361010086015261192a8282611731565b9150506101208301518482036101208601526119468282611731565b91505061014083015161195d6101408601826116cb565b50610160830151611972610160860182611847565b508091505092915050565b60006119898383611856565b905092915050565b6000602082019050919050565b60006119a982611695565b6119b381856116a0565b9350836020820285016119c5856116b1565b8060005b85811015611a0157848403895281516119e2858261197d565b94506119ed83611991565b925060208a019950506001810190506119c9565b50829750879550505050505092915050565b600081519050919050565b600082825260208201905092915050565b6000819050602082019050919050565b6000819050919050565b611a5281611a3f565b82525050565b6000611a648383611a49565b60208301905092915050565b6000602082019050919050565b6000611a8882611a13565b611a928185611a1e565b9350611a9d83611a2f565b8060005b83811015611ace578151611ab58882611a58565b9750611ac083611a70565b925050600181019050611aa1565b5085935050505092915050565b60006040820190508181036000830152611af5818561199e565b90508181036020830152611b098184611a7d565b90509392505050565b611b1b816116c1565b8114611b2657600080fd5b50565b600081359050611b3881611b12565b92915050565b60008060408385031215611b5557611b54611600565b5b6000611b6385828601611653565b9250506020611b7485828601611b29565b9150509250929050565b611b8781611a3f565b82525050565b6000602082019050611ba26000830184611b7e565b92915050565b600060208284031215611bbe57611bbd611600565b5b6000611bcc84828501611b29565b91505092915050565b611bde816116c1565b82525050565b6000602082019050611bf96000830184611bd5565b92915050565b600080fd5b600080fd5b7f4e487b7100000000000000000000000000000000000000000000000000000000600052604160045260246000fd5b611c4182611720565b810181811067ffffffffffffffff82111715611c6057611c5f611c09565b5b80604052505050565b6000611c736115f6565b9050611c7f8282611c38565b919050565b600067ffffffffffffffff821115611c9f57611c9e611c09565b5b611ca882611720565b9050602081019050919050565b82818337600083830152505050565b6000611cd7611cd284611c84565b611c69565b905082815260208101848484011115611cf357611cf2611c04565b5b611cfe848285611cb5565b509392505050565b600082601f830112611d1b57611d1a611bff565b5b8135611d2b848260208601611cc4565b91505092915050565b600067ffffffffffffffff821115611d4f57611d4e611c09565b5b602082029050602081019050919050565b600080fd5b6000611d78611d7384611d34565b611c69565b90508083825260208201905060208402830185811115611d9b57611d9a611d60565b5b835b81811015611de257803567ffffffffffffffff811115611dc057611dbf611bff565b5b808601611dcd8982611d06565b85526020850194505050602081019050611d9d565b5050509392505050565b600082601f830112611e0157611e00611bff565b5b8135611e11848260208601611d65565b91505092915050565b600080600080600080600080610100898b031215611e3b57611e3a611600565b5b600089013567ffffffffffffffff811115611e5957611e58611605565b5b611e658b828c01611d06565b985050602089013567ffffffffffffffff811115611e8657611e85611605565b5b611e928b828c01611d06565b975050604089013567ffffffffffffffff811115611eb357611eb2611605565b5b611ebf8b828c01611d06565b965050606089013567ffffffffffffffff811115611ee057611edf611605565b5b611eec8b828c01611d06565b955050608089013567ffffffffffffffff811115611f0d57611f0c611605565b5b611f198b828c01611d06565b94505060a089013567ffffffffffffffff811115611f3a57611f39611605565b5b611f468b828c01611dec565b93505060c0611f578b828c01611b29565b92505060e0611f688b828c01611653565b9150509295985092959890939650565b60006020820190508181036000830152611f92818461199e565b905092915050565b600080600060608486031215611fb357611fb2611600565b5b600084013567ffffffffffffffff811115611fd157611fd0611605565b5b611fdd86828701611d06565b9350506020611fee86828701611653565b9250506040611fff86828701611b29565b9150509250925092565b600082825260208201905092915050565b6000612025826116da565b61202f8185612009565b935061203f8185602086016116f6565b61204881611720565b840191505092915050565b61205c8161162a565b82525050565b61206b8161183b565b82525050565b600061016082019050612087600083018e611bd5565b8181036020830152612099818d61201a565b90506120a8604083018c612053565b6120b5606083018b612053565b81810360808301526120c7818a61201a565b905081810360a08301526120db818961201a565b90506120ea60c0830188611bd5565b81810360e08301526120fc818761201a565b9050818103610100830152612111818661201a565b9050612121610120830185611bd5565b61212f610140830184612062565b9c9b505050505050505050505050565b60006101808301600083015161215860008601826116cb565b50602083015184820360208601526121708282611731565b9150506040830151612185604086018261176a565b506060830151612198606086018261176a565b50608083015184820360808601526121b08282611731565b91505060a083015184820360a08601526121ca8282611731565b91505060c083015184820360c08601526121e482826117c6565b91505060e08301516121f960e08601826116cb565b506101008301518482036101008601526122138282611731565b91505061012083015184820361012086015261222f8282611731565b9150506101408301516122466101408601826116cb565b5061016083015161225b610160860182611847565b508091505092915050565b60006020820190508181036000830152612280818461213f565b905092915050565b7f50617469656e74207265636f726473206e6f742070726573656e740000000000600082015250565b60006122be601b83612009565b91506122c982612288565b602082019050919050565b600060208201905081810360008301526122ed816122b1565b9050919050565b7f4e487b7100000000000000000000000000000000000000000000000000000000600052603260045260246000fd5b600081549050919050565b60008190508160005260206000209050919050565b60008160001c9050919050565b6000819050919050565b600061236d61236883612343565b612350565b9050919050565b6000612380825461235a565b9050919050565b6000600182019050919050565b600061239f82612323565b6123a98185611a1e565b93506123b48361232e565b8060005b838110156123ec576123c982612374565b6123d38882611a58565b97506123de83612387565b9250506001810190506123b8565b5085935050505092915050565b60006040820190508181036000830152612413818561199e565b905081810360208301526124278184612394565b90509392505050565b7f4e487b7100000000000000000000000000000000000000000000000000000000600052602260045260246000fd5b6000600282049050600182168061247757607f821691505b60208210810361248a57612489612430565b5b50919050565b60008190508160005260206000209050919050565b60006020601f8301049050919050565b600082821b905092915050565b6000600883026124f27fffffffffffffffffffffffffffffffffffffffffffffffffffffffffffffffff826124b5565b6124fc86836124b5565b95508019841693508086168417925050509392505050565b6000819050919050565b600061253961253461252f846116c1565b612514565b6116c1565b9050919050565b6000819050919050565b6125538361251e565b61256761255f82612540565b8484546124c2565b825550505050565b600090565b61257c61256f565b61258781848461254a565b505050565b5b818110156125ab576125a0600082612574565b60018101905061258d565b5050565b601f8211156125f0576125c181612490565b6125ca846124a5565b810160208510156125d9578190505b6125ed6125e5856124a5565b83018261258c565b50505b505050565b600082821c905092915050565b6000612613600019846008026125f5565b1980831691505092915050565b600061262c8383612602565b9150826002028217905092915050565b612645826116da565b67ffffffffffffffff81111561265e5761265d611c09565b5b612668825461245f565b6126738282856125af565b600060209050601f8311600181146126a65760008415612694578287015190505b61269e8582612620565b865550612706565b601f1984166126b486612490565b60005b828110156126dc578489015182556001820191506020850194506020810190506126b7565b868310156126f957848901516126f5601f891682612602565b8355505b6001600288020188555050505b505050505050565b60006020820190506127236000830184612053565b92915050565b7f4e487b7100000000000000000000000000000000000000000000000000000000600052601160045260246000fd5b6000612763826116c1565b91507fffffffffffffffffffffffffffffffffffffffffffffffffffffffffffffffff820361279557612794612729565b5b600182019050919050565b7f50617469656e74207265636f7264206e6f742070726573656e74000000000000600082015250565b60006127d6601a83612009565b91506127e1826127a0565b602082019050919050565b60006020820190508181036000830152612805816127c9565b9050919050565b6000819050919050565b600061282961282483612343565b61280c565b9050919050565b6000815461283d8161245f565b61284781866116e5565b945060018216600081146128625760018114612878576128ab565b60ff1983168652811515602002860193506128ab565b61288185612490565b60005b838110156128a357815481890152600182019150602081019050612884565b808801955050505b50505092915050565b600073ffffffffffffffffffffffffffffffffffffffff82169050919050565b60006128e76128e283612343565b6128b4565b9050919050565b600081549050919050565b60008190508160005260206000209050919050565b600061291a8383612830565b905092915050565b6000600182019050919050565b600061293a826128ee565b6129448185611784565b935083602082028501612956856128f9565b8060005b8581101561299157848403895281612972858261290e565b945061297d83612922565b925060208a0199505060018101905061295a565b50829750879550505050505092915050565b600060ff82169050919050565b60006129c36129be83612343565b6129a3565b9050919050565b6000610180830160008084015490506129e281612816565b6129ef60008701826116cb565b50600184018583036020870152612a068382612830565b92505060028401549050612a19816128d4565b612a26604087018261176a565b5060038401549050612a37816128d4565b612a44606087018261176a565b50600484018583036080870152612a5b8382612830565b9250506005840185830360a0870152612a748382612830565b9250506006840185830360c0870152612a8d838261292f565b92505060078401549050612aa081612816565b612aad60e08701826116cb565b5060088401858303610100870152612ac58382612830565b92505060098401858303610120870152612adf8382612830565b925050600a8401549050612af281612816565b612b006101408701826116cb565b50600b8401549050612b11816129b0565b612b1f610160870182611847565b50819250505092915050565b60006020820190508181036000830152612b4581846129ca565b90509291505056fea2646970667358221220b4fe51f25865117a83cfb2c6e3eb70997eeb428a815600aa1216cbdb83f4b00c64736f6c63430008180033",
          "opcodes": "PUSH1 0x80 PUSH1 0x40 MSTORE CALLVALUE DUP1 ISZERO PUSH2 0x10 JUMPI PUSH1 0x0 DUP1 REVERT JUMPDEST POP PUSH2 0x2B83 DUP1 PUSH2 0x20 PUSH1 0x0 CODECOPY PUSH1 0x0 RETURN INVALID PUSH1 0x80 PUSH1 0x40 MSTORE CALLVALUE DUP1 ISZERO PUSH2 0x10 JUMPI PUSH1 0x0 DUP1 REVERT JUMPDEST POP PUSH1 0x4 CALLDATASIZE LT PUSH2 0xA9 JUMPI PUSH1 0x0 CALLDATALOAD PUSH1 0xE0 SHR DUP1 PUSH4 0x6B726805 GT PUSH2 0x71 JUMPI DUP1 PUSH4 0x6B726805 EQ PUSH2 0x18B JUMPI DUP1 PUSH4 0x8E37F9CA EQ PUSH2 0x1A9 JUMPI DUP1 PUSH4 0xB43FABB9 EQ PUSH2 0x1C5 JUMPI DUP1 PUSH4 0xCEC5BB24 EQ PUSH2 0x1E3 JUMPI DUP1 PUSH4 0xD3D188A1 EQ PUSH2 0x1FF JUMPI DUP1 PUSH4 0xE75B8B23 EQ PUSH2 0x239 JUMPI PUSH2 0xA9 JUMP JUMPDEST DUP1 PUSH4 0x18BD4847 EQ PUSH2 0xAE JUMPI DUP1 PUSH4 0x30E94624 EQ PUSH2 0xDF JUMPI DUP1 PUSH4 0x31FCBF59 EQ PUSH2 0x10F JUMPI DUP1 PUSH4 0x531A78B3 EQ PUSH2 0x12B JUMPI DUP1 PUSH4 0x636ABB1F EQ PUSH2 0x15B JUMPI JUMPDEST PUSH1 0x0 DUP1 REVERT JUMPDEST PUSH2 0xC8 PUSH1 0x4 DUP1 CALLDATASIZE SUB DUP2 ADD SWAP1 PUSH2 0xC3 SWAP2 SWAP1 PUSH2 0x1668 JUMP JUMPDEST PUSH2 0x269 JUMP JUMPDEST PUSH1 0x40 MLOAD PUSH2 0xD6 SWAP3 SWAP2 SWAP1 PUSH2 0x1ADB JUMP JUMPDEST PUSH1 0x40 MLOAD DUP1 SWAP2 SUB SWAP1 RETURN JUMPDEST PUSH2 0xF9 PUSH1 0x4 DUP1 CALLDATASIZE SUB DUP2 ADD SWAP1 PUSH2 0xF4 SWAP2 SWAP1 PUSH2 0x1B3E JUMP JUMPDEST PUSH2 0x549 JUMP JUMPDEST PUSH1 0x40 MLOAD PUSH2 0x106 SWAP2 SWAP1 PUSH2 0x1B8D JUMP JUMPDEST PUSH1 0x40 MLOAD DUP1 SWAP2 SUB SWAP1 RETURN JUMPDEST PUSH2 0x129 PUSH1 0x4 DUP1 CALLDATASIZE SUB DUP2 ADD SWAP1 PUSH2 0x124 SWAP2 SWAP1 PUSH2 0x1BA8 JUMP JUMPDEST PUSH2 0x57A JUMP JUMPDEST STOP JUMPDEST PUSH2 0x145 PUSH1 0x4 DUP1 CALLDATASIZE SUB DUP2 ADD SWAP1 PUSH2 0x140 SWAP2 SWAP1 PUSH2 0x1B3E JUMP JUMPDEST PUSH2 0x5AB JUMP JUMPDEST PUSH1 0x40 MLOAD PUSH2 0x152 SWAP2 SWAP1 PUSH2 0x1BE4 JUMP JUMPDEST PUSH1 0x40 MLOAD DUP1 SWAP2 SUB SWAP1 RETURN JUMPDEST PUSH2 0x175 PUSH1 0x4 DUP1 CALLDATASIZE SUB DUP2 ADD SWAP1 PUSH2 0x170 SWAP2 SWAP1 PUSH2 0x1B3E JUMP JUMPDEST PUSH2 0x5DC JUMP JUMPDEST PUSH1 0x40 MLOAD PUSH2 0x182 SWAP2 SWAP1 PUSH2 0x1BE4 JUMP JUMPDEST PUSH1 0x40 MLOAD DUP1 SWAP2 SUB SWAP1 RETURN JUMPDEST PUSH2 0x193 PUSH2 0x60D JUMP JUMPDEST PUSH1 0x40 MLOAD PUSH2 0x1A0 SWAP2 SWAP1 PUSH2 0x1BE4 JUMP JUMPDEST PUSH1 0x40 MLOAD DUP1 SWAP2 SUB SWAP1 RETURN JUMPDEST PUSH2 0x1C3 PUSH1 0x4 DUP1 CALLDATASIZE SUB DUP2 ADD SWAP1 PUSH2 0x1BE SWAP2 SWAP1 PUSH2 0x1E1A JUMP JUMPDEST PUSH2 0x613 JUMP JUMPDEST STOP JUMPDEST PUSH2 0x1CD PUSH2 0x88C JUMP JUMPDEST PUSH1 0x40 MLOAD PUSH2 0x1DA SWAP2 SWAP1 PUSH2 0x1F78 JUMP JUMPDEST PUSH1 0x40 MLOAD DUP1 SWAP2 SUB SWAP1 RETURN JUMPDEST PUSH2 0x1FD PUSH1 0x4 DUP1 CALLDATASIZE SUB DUP2 ADD SWAP1 PUSH2 0x1F8 SWAP2 SWAP1 PUSH2 0x1F9A JUMP JUMPDEST PUSH2 0xA98 JUMP JUMPDEST STOP JUMPDEST PUSH2 0x219 PUSH1 0x4 DUP1 CALLDATASIZE SUB DUP2 ADD SWAP1 PUSH2 0x214 SWAP2 SWAP1 PUSH2 0x1BA8 JUMP JUMPDEST PUSH2 0xB8A JUMP JUMPDEST PUSH1 0x40 MLOAD PUSH2 0x230 SWAP12 SWAP11 SWAP10 SWAP9 SWAP8 SWAP7 SWAP6 SWAP5 SWAP4 SWAP3 SWAP2 SWAP1 PUSH2 0x2071 JUMP JUMPDEST PUSH1 0x40 MLOAD DUP1 SWAP2 SUB SWAP1 RETURN JUMPDEST PUSH2 0x253 PUSH1 0x4 DUP1 CALLDATASIZE SUB DUP2 ADD SWAP1 PUSH2 0x24E SWAP2 SWAP1 PUSH2 0x1BA8 JUMP JUMPDEST PUSH2 0xED9 JUMP JUMPDEST PUSH1 0x40 MLOAD PUSH2 0x260 SWAP2 SWAP1 PUSH2 0x2266 JUMP JUMPDEST PUSH1 0x40 MLOAD DUP1 SWAP2 SUB SWAP1 RETURN JUMPDEST PUSH1 0x60 DUP1 PUSH1 0x0 PUSH1 0x2 PUSH1 0x0 DUP6 PUSH20 0xFFFFFFFFFFFFFFFFFFFFFFFFFFFFFFFFFFFFFFFF AND PUSH20 0xFFFFFFFFFFFFFFFFFFFFFFFFFFFFFFFFFFFFFFFF AND DUP2 MSTORE PUSH1 0x20 ADD SWAP1 DUP2 MSTORE PUSH1 0x20 ADD PUSH1 0x0 KECCAK256 DUP1 SLOAD SWAP1 POP GT PUSH2 0x2F1 JUMPI PUSH1 0x40 MLOAD PUSH32 0x8C379A000000000000000000000000000000000000000000000000000000000 DUP2 MSTORE PUSH1 0x4 ADD PUSH2 0x2E8 SWAP1 PUSH2 0x22D4 JUMP JUMPDEST PUSH1 0x40 MLOAD DUP1 SWAP2 SUB SWAP1 REVERT JUMPDEST PUSH1 0x0 PUSH1 0x2 PUSH1 0x0 DUP6 PUSH20 0xFFFFFFFFFFFFFFFFFFFFFFFFFFFFFFFFFFFFFFFF AND PUSH20 0xFFFFFFFFFFFFFFFFFFFFFFFFFFFFFFFFFFFFFFFF AND DUP2 MSTORE PUSH1 0x20 ADD SWAP1 DUP2 MSTORE PUSH1 0x20 ADD PUSH1 0x0 KECCAK256 DUP1 SLOAD DUP1 PUSH1 0x20 MUL PUSH1 0x20 ADD PUSH1 0x40 MLOAD SWAP1 DUP2 ADD PUSH1 0x40 MSTORE DUP1 SWAP3 SWAP2 SWAP1 DUP2 DUP2 MSTORE PUSH1 0x20 ADD DUP3 DUP1 SLOAD DUP1 ISZERO PUSH2 0x37C JUMPI PUSH1 0x20 MUL DUP3 ADD SWAP2 SWAP1 PUSH1 0x0 MSTORE PUSH1 0x20 PUSH1 0x0 KECCAK256 SWAP1 JUMPDEST DUP2 SLOAD DUP2 MSTORE PUSH1 0x20 ADD SWAP1 PUSH1 0x1 ADD SWAP1 DUP1 DUP4 GT PUSH2 0x368 JUMPI JUMPDEST POP POP POP POP POP SWAP1 POP PUSH1 0x0 DUP2 MLOAD PUSH8 0xFFFFFFFFFFFFFFFF DUP2 GT ISZERO PUSH2 0x3A0 JUMPI PUSH2 0x39F PUSH2 0x1C09 JUMP JUMPDEST JUMPDEST PUSH1 0x40 MLOAD SWAP1 DUP1 DUP3 MSTORE DUP1 PUSH1 0x20 MUL PUSH1 0x20 ADD DUP3 ADD PUSH1 0x40 MSTORE DUP1 ISZERO PUSH2 0x3D9 JUMPI DUP2 PUSH1 0x20 ADD JUMPDEST PUSH2 0x3C6 PUSH2 0x148D JUMP JUMPDEST DUP2 MSTORE PUSH1 0x20 ADD SWAP1 PUSH1 0x1 SWAP1 SUB SWAP1 DUP2 PUSH2 0x3BE JUMPI SWAP1 POP JUMPDEST POP SWAP1 POP PUSH1 0x0 JUMPDEST DUP3 MLOAD DUP2 LT ISZERO PUSH2 0x436 JUMPI PUSH2 0x40B DUP4 DUP3 DUP2 MLOAD DUP2 LT PUSH2 0x3FE JUMPI PUSH2 0x3FD PUSH2 0x22F4 JUMP JUMPDEST JUMPDEST PUSH1 0x20 MUL PUSH1 0x20 ADD ADD MLOAD PUSH2 0xED9 JUMP JUMPDEST DUP3 DUP3 DUP2 MLOAD DUP2 LT PUSH2 0x41E JUMPI PUSH2 0x41D PUSH2 0x22F4 JUMP JUMPDEST JUMPDEST PUSH1 0x20 MUL PUSH1 0x20 ADD ADD DUP2 SWAP1 MSTORE POP DUP1 DUP1 PUSH1 0x1 ADD SWAP2 POP POP PUSH2 0x3DF JUMP JUMPDEST POP PUSH32 0x4C33E7A6255CC5D2A4D010300CB9F9DC34F7D0391CC8892EA8A7BD4186B7A44C DUP2 PUSH1 0x0 DUP1 DUP9 PUSH20 0xFFFFFFFFFFFFFFFFFFFFFFFFFFFFFFFFFFFFFFFF AND PUSH20 0xFFFFFFFFFFFFFFFFFFFFFFFFFFFFFFFFFFFFFFFF AND DUP2 MSTORE PUSH1 0x20 ADD SWAP1 DUP2 MSTORE PUSH1 0x20 ADD PUSH1 0x0 KECCAK256 PUSH1 0x40 MLOAD PUSH2 0x4A5 SWAP3 SWAP2 SWAP1 PUSH2 0x23F9 JUMP JUMPDEST PUSH1 0x40 MLOAD DUP1 SWAP2 SUB SWAP1 LOG1 DUP1 PUSH1 0x0 DUP1 DUP8 PUSH20 0xFFFFFFFFFFFFFFFFFFFFFFFFFFFFFFFFFFFFFFFF AND PUSH20 0xFFFFFFFFFFFFFFFFFFFFFFFFFFFFFFFFFFFFFFFF AND DUP2 MSTORE PUSH1 0x20 ADD SWAP1 DUP2 MSTORE PUSH1 0x20 ADD PUSH1 0x0 KECCAK256 DUP1 DUP1 SLOAD DUP1 PUSH1 0x20 MUL PUSH1 0x20 ADD PUSH1 0x40 MLOAD SWAP1 DUP2 ADD PUSH1 0x40 MSTORE DUP1 SWAP3 SWAP2 SWAP1 DUP2 DUP2 MSTORE PUSH1 0x20 ADD DUP3 DUP1 SLOAD DUP1 ISZERO PUSH2 0x537 JUMPI PUSH1 0x20 MUL DUP3 ADD SWAP2 SWAP1 PUSH1 0x0 MSTORE PUSH1 0x20 PUSH1 0x0 KECCAK256 SWAP1 JUMPDEST DUP2 SLOAD DUP2 MSTORE PUSH1 0x20 ADD SWAP1 PUSH1 0x1 ADD SWAP1 DUP1 DUP4 GT PUSH2 0x523 JUMPI JUMPDEST POP POP POP POP POP SWAP1 POP SWAP4 POP SWAP4 POP POP POP SWAP2 POP SWAP2 JUMP JUMPDEST PUSH1 0x0 PUSH1 0x20 MSTORE DUP2 PUSH1 0x0 MSTORE PUSH1 0x40 PUSH1 0x0 KECCAK256 DUP2 DUP2 SLOAD DUP2 LT PUSH2 0x565 JUMPI PUSH1 0x0 DUP1 REVERT JUMPDEST SWAP1 PUSH1 0x0 MSTORE PUSH1 0x20 PUSH1 0x0 KECCAK256 ADD PUSH1 0x0 SWAP2 POP SWAP2 POP POP SLOAD DUP2 JUMP JUMPDEST PUSH1 0x1 DUP1 PUSH1 0x0 DUP4 DUP2 MSTORE PUSH1 0x20 ADD SWAP1 DUP2 MSTORE PUSH1 0x20 ADD PUSH1 0x0 KECCAK256 PUSH1 0xB ADD PUSH1 0x0 PUSH2 0x100 EXP DUP2 SLOAD DUP2 PUSH1 0xFF MUL NOT AND SWAP1 DUP4 ISZERO ISZERO MUL OR SWAP1 SSTORE POP POP JUMP JUMPDEST PUSH1 0x3 PUSH1 0x20 MSTORE DUP2 PUSH1 0x0 MSTORE PUSH1 0x40 PUSH1 0x0 KECCAK256 DUP2 DUP2 SLOAD DUP2 LT PUSH2 0x5C7 JUMPI PUSH1 0x0 DUP1 REVERT JUMPDEST SWAP1 PUSH1 0x0 MSTORE PUSH1 0x20 PUSH1 0x0 KECCAK256 ADD PUSH1 0x0 SWAP2 POP SWAP2 POP POP SLOAD DUP2 JUMP JUMPDEST PUSH1 0x2 PUSH1 0x20 MSTORE DUP2 PUSH1 0x0 MSTORE PUSH1 0x40 PUSH1 0x0 KECCAK256 DUP2 DUP2 SLOAD DUP2 LT PUSH2 0x5F8 JUMPI PUSH1 0x0 DUP1 REVERT JUMPDEST SWAP1 PUSH1 0x0 MSTORE PUSH1 0x20 PUSH1 0x0 KECCAK256 ADD PUSH1 0x0 SWAP2 POP SWAP2 POP POP SLOAD DUP2 JUMP JUMPDEST PUSH1 0x4 SLOAD DUP2 JUMP JUMPDEST PUSH1 0x0 PUSH1 0x1 PUSH1 0x0 PUSH1 0x4 SLOAD DUP2 MSTORE PUSH1 0x20 ADD SWAP1 DUP2 MSTORE PUSH1 0x20 ADD PUSH1 0x0 KECCAK256 SWAP1 POP PUSH1 0x4 SLOAD DUP2 PUSH1 0x0 ADD DUP2 SWAP1 SSTORE POP DUP9 DUP2 PUSH1 0x1 ADD SWAP1 DUP2 PUSH2 0x648 SWAP2 SWAP1 PUSH2 0x263C JUMP JUMPDEST POP DUP2 DUP2 PUSH1 0x2 ADD PUSH1 0x0 PUSH2 0x100 EXP DUP2 SLOAD DUP2 PUSH20 0xFFFFFFFFFFFFFFFFFFFFFFFFFFFFFFFFFFFFFFFF MUL NOT AND SWAP1 DUP4 PUSH20 0xFFFFFFFFFFFFFFFFFFFFFFFFFFFFFFFFFFFFFFFF AND MUL OR SWAP1 SSTORE POP DUP8 DUP2 PUSH1 0x4 ADD SWAP1 DUP2 PUSH2 0x69D SWAP2 SWAP1 PUSH2 0x263C JUMP JUMPDEST POP DUP7 DUP2 PUSH1 0x5 ADD SWAP1 DUP2 PUSH2 0x6AF SWAP2 SWAP1 PUSH2 0x263C JUMP JUMPDEST POP TIMESTAMP DUP2 PUSH1 0x7 ADD DUP2 SWAP1 SSTORE POP DUP6 DUP2 PUSH1 0x8 ADD SWAP1 DUP2 PUSH2 0x6CA SWAP2 SWAP1 PUSH2 0x263C JUMP JUMPDEST POP DUP5 DUP2 PUSH1 0x9 ADD SWAP1 DUP2 PUSH2 0x6DC SWAP2 SWAP1 PUSH2 0x263C JUMP JUMPDEST POP DUP3 DUP2 PUSH1 0xA ADD DUP2 SWAP1 SSTORE POP DUP4 DUP2 PUSH1 0x6 ADD SWAP1 DUP1 MLOAD SWAP1 PUSH1 0x20 ADD SWAP1 PUSH2 0x6FE SWAP3 SWAP2 SWAP1 PUSH2 0x151C JUMP JUMPDEST POP CALLER DUP2 PUSH1 0x3 ADD PUSH1 0x0 PUSH2 0x100 EXP DUP2 SLOAD DUP2 PUSH20 0xFFFFFFFFFFFFFFFFFFFFFFFFFFFFFFFFFFFFFFFF MUL NOT AND SWAP1 DUP4 PUSH20 0xFFFFFFFFFFFFFFFFFFFFFFFFFFFFFFFFFFFFFFFF AND MUL OR SWAP1 SSTORE POP PUSH1 0x0 DUP2 PUSH1 0xB ADD PUSH1 0x0 PUSH2 0x100 EXP DUP2 SLOAD DUP2 PUSH1 0xFF MUL NOT AND SWAP1 DUP4 ISZERO ISZERO MUL OR SWAP1 SSTORE POP PUSH1 0x2 PUSH1 0x0 DUP4 PUSH20 0xFFFFFFFFFFFFFFFFFFFFFFFFFFFFFFFFFFFFFFFF AND PUSH20 0xFFFFFFFFFFFFFFFFFFFFFFFFFFFFFFFFFFFFFFFF AND DUP2 MSTORE PUSH1 0x20 ADD SWAP1 DUP2 MSTORE PUSH1 0x20 ADD PUSH1 0x0 KECCAK256 PUSH1 0x4 SLOAD SWAP1 DUP1 PUSH1 0x1 DUP2 SLOAD ADD DUP1 DUP3 SSTORE DUP1 SWAP2 POP POP PUSH1 0x1 SWAP1 SUB SWAP1 PUSH1 0x0 MSTORE PUSH1 0x20 PUSH1 0x0 KECCAK256 ADD PUSH1 0x0 SWAP1 SWAP2 SWAP1 SWAP2 SWAP1 SWAP2 POP SSTORE PUSH1 0x3 PUSH1 0x0 CALLER PUSH20 0xFFFFFFFFFFFFFFFFFFFFFFFFFFFFFFFFFFFFFFFF AND PUSH20 0xFFFFFFFFFFFFFFFFFFFFFFFFFFFFFFFFFFFFFFFF AND DUP2 MSTORE PUSH1 0x20 ADD SWAP1 DUP2 MSTORE PUSH1 0x20 ADD PUSH1 0x0 KECCAK256 PUSH1 0x4 SLOAD SWAP1 DUP1 PUSH1 0x1 DUP2 SLOAD ADD DUP1 DUP3 SSTORE DUP1 SWAP2 POP POP PUSH1 0x1 SWAP1 SUB SWAP1 PUSH1 0x0 MSTORE PUSH1 0x20 PUSH1 0x0 KECCAK256 ADD PUSH1 0x0 SWAP1 SWAP2 SWAP1 SWAP2 SWAP1 SWAP2 POP SSTORE PUSH1 0x4 SLOAD PUSH32 0x9A96995FDAFDB50A11BFBCD015E3313B1A7DE85A9A5C033E9CECCC3EE1B4C893 DUP4 PUSH1 0x40 MLOAD PUSH2 0x861 SWAP2 SWAP1 PUSH2 0x270E JUMP JUMPDEST PUSH1 0x40 MLOAD DUP1 SWAP2 SUB SWAP1 LOG2 PUSH1 0x4 PUSH1 0x0 DUP2 SLOAD DUP1 SWAP3 SWAP2 SWAP1 PUSH2 0x87C SWAP1 PUSH2 0x2758 JUMP JUMPDEST SWAP2 SWAP1 POP SSTORE POP POP POP POP POP POP POP POP POP POP JUMP JUMPDEST PUSH1 0x60 PUSH1 0x0 PUSH1 0x3 PUSH1 0x0 CALLER PUSH20 0xFFFFFFFFFFFFFFFFFFFFFFFFFFFFFFFFFFFFFFFF AND PUSH20 0xFFFFFFFFFFFFFFFFFFFFFFFFFFFFFFFFFFFFFFFF AND DUP2 MSTORE PUSH1 0x20 ADD SWAP1 DUP2 MSTORE PUSH1 0x20 ADD PUSH1 0x0 KECCAK256 DUP1 SLOAD SWAP1 POP GT PUSH2 0x913 JUMPI PUSH1 0x40 MLOAD PUSH32 0x8C379A000000000000000000000000000000000000000000000000000000000 DUP2 MSTORE PUSH1 0x4 ADD PUSH2 0x90A SWAP1 PUSH2 0x22D4 JUMP JUMPDEST PUSH1 0x40 MLOAD DUP1 SWAP2 SUB SWAP1 REVERT JUMPDEST PUSH1 0x0 PUSH1 0x3 PUSH1 0x0 CALLER PUSH20 0xFFFFFFFFFFFFFFFFFFFFFFFFFFFFFFFFFFFFFFFF AND PUSH20 0xFFFFFFFFFFFFFFFFFFFFFFFFFFFFFFFFFFFFFFFF AND DUP2 MSTORE PUSH1 0x20 ADD SWAP1 DUP2 MSTORE PUSH1 0x20 ADD PUSH1 0x0 KECCAK256 DUP1 SLOAD DUP1 PUSH1 0x20 MUL PUSH1 0x20 ADD PUSH1 0x40 MLOAD SWAP1 DUP2 ADD PUSH1 0x40 MSTORE DUP1 SWAP3 SWAP2 SWAP1 DUP2 DUP2 MSTORE PUSH1 0x20 ADD DUP3 DUP1 SLOAD DUP1 ISZERO PUSH2 0x99E JUMPI PUSH1 0x20 MUL DUP3 ADD SWAP2 SWAP1 PUSH1 0x0 MSTORE PUSH1 0x20 PUSH1 0x0 KECCAK256 SWAP1 JUMPDEST DUP2 SLOAD DUP2 MSTORE PUSH1 0x20 ADD SWAP1 PUSH1 0x1 ADD SWAP1 DUP1 DUP4 GT PUSH2 0x98A JUMPI JUMPDEST POP POP POP POP POP SWAP1 POP PUSH1 0x0 DUP2 MLOAD PUSH8 0xFFFFFFFFFFFFFFFF DUP2 GT ISZERO PUSH2 0x9C2 JUMPI PUSH2 0x9C1 PUSH2 0x1C09 JUMP JUMPDEST JUMPDEST PUSH1 0x40 MLOAD SWAP1 DUP1 DUP3 MSTORE DUP1 PUSH1 0x20 MUL PUSH1 0x20 ADD DUP3 ADD PUSH1 0x40 MSTORE DUP1 ISZERO PUSH2 0x9FB JUMPI DUP2 PUSH1 0x20 ADD JUMPDEST PUSH2 0x9E8 PUSH2 0x148D JUMP JUMPDEST DUP2 MSTORE PUSH1 0x20 ADD SWAP1 PUSH1 0x1 SWAP1 SUB SWAP1 DUP2 PUSH2 0x9E0 JUMPI SWAP1 POP JUMPDEST POP SWAP1 POP PUSH1 0x0 JUMPDEST DUP3 MLOAD DUP2 LT ISZERO PUSH2 0xA58 JUMPI PUSH2 0xA2D DUP4 DUP3 DUP2 MLOAD DUP2 LT PUSH2 0xA20 JUMPI PUSH2 0xA1F PUSH2 0x22F4 JUMP JUMPDEST JUMPDEST PUSH1 0x20 MUL PUSH1 0x20 ADD ADD MLOAD PUSH2 0xED9 JUMP JUMPDEST DUP3 DUP3 DUP2 MLOAD DUP2 LT PUSH2 0xA40 JUMPI PUSH2 0xA3F PUSH2 0x22F4 JUMP JUMPDEST JUMPDEST PUSH1 0x20 MUL PUSH1 0x20 ADD ADD DUP2 SWAP1 MSTORE POP DUP1 DUP1 PUSH1 0x1 ADD SWAP2 POP POP PUSH2 0xA01 JUMP JUMPDEST POP PUSH32 0xB320C0193B4F43EC61792D1D7C78623BC0D3331FBA94E1F55C9DDDB87819ADD7 DUP2 PUSH1 0x40 MLOAD PUSH2 0xA88 SWAP2 SWAP1 PUSH2 0x1F78 JUMP JUMPDEST PUSH1 0x40 MLOAD DUP1 SWAP2 SUB SWAP1 LOG1 DUP1 SWAP3 POP POP POP SWAP1 JUMP JUMPDEST DUP2 PUSH20 0xFFFFFFFFFFFFFFFFFFFFFFFFFFFFFFFFFFFFFFFF AND PUSH1 0x1 PUSH1 0x0 DUP4 DUP2 MSTORE PUSH1 0x20 ADD SWAP1 DUP2 MSTORE PUSH1 0x20 ADD PUSH1 0x0 KECCAK256 PUSH1 0x2 ADD PUSH1 0x0 SWAP1 SLOAD SWAP1 PUSH2 0x100 EXP SWAP1 DIV PUSH20 0xFFFFFFFFFFFFFFFFFFFFFFFFFFFFFFFFFFFFFFFF AND PUSH20 0xFFFFFFFFFFFFFFFFFFFFFFFFFFFFFFFFFFFFFFFF AND EQ PUSH2 0xB3C JUMPI PUSH1 0x40 MLOAD PUSH32 0x8C379A000000000000000000000000000000000000000000000000000000000 DUP2 MSTORE PUSH1 0x4 ADD PUSH2 0xB33 SWAP1 PUSH2 0x27EC JUMP JUMPDEST PUSH1 0x40 MLOAD DUP1 SWAP2 SUB SWAP1 REVERT JUMPDEST PUSH1 0x1 PUSH1 0x0 DUP3 DUP2 MSTORE PUSH1 0x20 ADD SWAP1 DUP2 MSTORE PUSH1 0x20 ADD PUSH1 0x0 KECCAK256 PUSH1 0x6 ADD DUP4 SWAP1 DUP1 PUSH1 0x1 DUP2 SLOAD ADD DUP1 DUP3 SSTORE DUP1 SWAP2 POP POP PUSH1 0x1 SWAP1 SUB SWAP1 PUSH1 0x0 MSTORE PUSH1 0x20 PUSH1 0x0 KECCAK256 ADD PUSH1 0x0 SWAP1 SWAP2 SWAP1 SWAP2 SWAP1 SWAP2 POP SWAP1 DUP2 PUSH2 0xB84 SWAP2 SWAP1 PUSH2 0x263C JUMP JUMPDEST POP POP POP POP JUMP JUMPDEST PUSH1 0x1 PUSH1 0x20 MSTORE DUP1 PUSH1 0x0 MSTORE PUSH1 0x40 PUSH1 0x0 KECCAK256 PUSH1 0x0 SWAP2 POP SWAP1 POP DUP1 PUSH1 0x0 ADD SLOAD SWAP1 DUP1 PUSH1 0x1 ADD DUP1 SLOAD PUSH2 0xBB3 SWAP1 PUSH2 0x245F JUMP JUMPDEST DUP1 PUSH1 0x1F ADD PUSH1 0x20 DUP1 SWAP2 DIV MUL PUSH1 0x20 ADD PUSH1 0x40 MLOAD SWAP1 DUP2 ADD PUSH1 0x40 MSTORE DUP1 SWAP3 SWAP2 SWAP1 DUP2 DUP2 MSTORE PUSH1 0x20 ADD DUP3 DUP1 SLOAD PUSH2 0xBDF SWAP1 PUSH2 0x245F JUMP JUMPDEST DUP1 ISZERO PUSH2 0xC2C JUMPI DUP1 PUSH1 0x1F LT PUSH2 0xC01 JUMPI PUSH2 0x100 DUP1 DUP4 SLOAD DIV MUL DUP4 MSTORE SWAP2 PUSH1 0x20 ADD SWAP2 PUSH2 0xC2C JUMP JUMPDEST DUP3 ADD SWAP2 SWAP1 PUSH1 0x0 MSTORE PUSH1 0x20 PUSH1 0x0 KECCAK256 SWAP1 JUMPDEST DUP2 SLOAD DUP2 MSTORE SWAP1 PUSH1 0x1 ADD SWAP1 PUSH1 0x20 ADD DUP1 DUP4 GT PUSH2 0xC0F JUMPI DUP3 SWAP1 SUB PUSH1 0x1F AND DUP3 ADD SWAP2 JUMPDEST POP POP POP POP POP SWAP1 DUP1 PUSH1 0x2 ADD PUSH1 0x0 SWAP1 SLOAD SWAP1 PUSH2 0x100 EXP SWAP1 DIV PUSH20 0xFFFFFFFFFFFFFFFFFFFFFFFFFFFFFFFFFFFFFFFF AND SWAP1 DUP1 PUSH1 0x3 ADD PUSH1 0x0 SWAP1 SLOAD SWAP1 PUSH2 0x100 EXP SWAP1 DIV PUSH20 0xFFFFFFFFFFFFFFFFFFFFFFFFFFFFFFFFFFFFFFFF AND SWAP1 DUP1 PUSH1 0x4 ADD DUP1 SLOAD PUSH2 0xC8D SWAP1 PUSH2 0x245F JUMP JUMPDEST DUP1 PUSH1 0x1F ADD PUSH1 0x20 DUP1 SWAP2 DIV MUL PUSH1 0x20 ADD PUSH1 0x40 MLOAD SWAP1 DUP2 ADD PUSH1 0x40 MSTORE DUP1 SWAP3 SWAP2 SWAP1 DUP2 DUP2 MSTORE PUSH1 0x20 ADD DUP3 DUP1 SLOAD PUSH2 0xCB9 SWAP1 PUSH2 0x245F JUMP JUMPDEST DUP1 ISZERO PUSH2 0xD06 JUMPI DUP1 PUSH1 0x1F LT PUSH2 0xCDB JUMPI PUSH2 0x100 DUP1 DUP4 SLOAD DIV MUL DUP4 MSTORE SWAP2 PUSH1 0x20 ADD SWAP2 PUSH2 0xD06 JUMP JUMPDEST DUP3 ADD SWAP2 SWAP1 PUSH1 0x0 MSTORE PUSH1 0x20 PUSH1 0x0 KECCAK256 SWAP1 JUMPDEST DUP2 SLOAD DUP2 MSTORE SWAP1 PUSH1 0x1 ADD SWAP1 PUSH1 0x20 ADD DUP1 DUP4 GT PUSH2 0xCE9 JUMPI DUP3 SWAP1 SUB PUSH1 0x1F AND DUP3 ADD SWAP2 JUMPDEST POP POP POP POP POP SWAP1 DUP1 PUSH1 0x5 ADD DUP1 SLOAD PUSH2 0xD1B SWAP1 PUSH2 0x245F JUMP JUMPDEST DUP1 PUSH1 0x1F ADD PUSH1 0x20 DUP1 SWAP2 DIV MUL PUSH1 0x20 ADD PUSH1 0x40 MLOAD SWAP1 DUP2 ADD PUSH1 0x40 MSTORE DUP1 SWAP3 SWAP2 SWAP1 DUP2 DUP2 MSTORE PUSH1 0x20 ADD DUP3 DUP1 SLOAD PUSH2 0xD47 SWAP1 PUSH2 0x245F JUMP JUMPDEST DUP1 ISZERO PUSH2 0xD94 JUMPI DUP1 PUSH1 0x1F LT PUSH2 0xD69 JUMPI PUSH2 0x100 DUP1 DUP4 SLOAD DIV MUL DUP4 MSTORE SWAP2 PUSH1 0x20 ADD SWAP2 PUSH2 0xD94 JUMP JUMPDEST DUP3 ADD SWAP2 SWAP1 PUSH1 0x0 MSTORE PUSH1 0x20 PUSH1 0x0 KECCAK256 SWAP1 JUMPDEST DUP2 SLOAD DUP2 MSTORE SWAP1 PUSH1 0x1 ADD SWAP1 PUSH1 0x20 ADD DUP1 DUP4 GT PUSH2 0xD77 JUMPI DUP3 SWAP1 SUB PUSH1 0x1F AND DUP3 ADD SWAP2 JUMPDEST POP POP POP POP POP SWAP1 DUP1 PUSH1 0x7 ADD SLOAD SWAP1 DUP1 PUSH1 0x8 ADD DUP1 SLOAD PUSH2 0xDAF SWAP1 PUSH2 0x245F JUMP JUMPDEST DUP1 PUSH1 0x1F ADD PUSH1 0x20 DUP1 SWAP2 DIV MUL PUSH1 0x20 ADD PUSH1 0x40 MLOAD SWAP1 DUP2 ADD PUSH1 0x40 MSTORE DUP1 SWAP3 SWAP2 SWAP1 DUP2 DUP2 MSTORE PUSH1 0x20 ADD DUP3 DUP1 SLOAD PUSH2 0xDDB SWAP1 PUSH2 0x245F JUMP JUMPDEST DUP1 ISZERO PUSH2 0xE28 JUMPI DUP1 PUSH1 0x1F LT PUSH2 0xDFD JUMPI PUSH2 0x100 DUP1 DUP4 SLOAD DIV MUL DUP4 MSTORE SWAP2 PUSH1 0x20 ADD SWAP2 PUSH2 0xE28 JUMP JUMPDEST DUP3 ADD SWAP2 SWAP1 PUSH1 0x0 MSTORE PUSH1 0x20 PUSH1 0x0 KECCAK256 SWAP1 JUMPDEST DUP2 SLOAD DUP2 MSTORE SWAP1 PUSH1 0x1 ADD SWAP1 PUSH1 0x20 ADD DUP1 DUP4 GT PUSH2 0xE0B JUMPI DUP3 SWAP1 SUB PUSH1 0x1F AND DUP3 ADD SWAP2 JUMPDEST POP POP POP POP POP SWAP1 DUP1 PUSH1 0x9 ADD DUP1 SLOAD PUSH2 0xE3D SWAP1 PUSH2 0x245F JUMP JUMPDEST DUP1 PUSH1 0x1F ADD PUSH1 0x20 DUP1 SWAP2 DIV MUL PUSH1 0x20 ADD PUSH1 0x40 MLOAD SWAP1 DUP2 ADD PUSH1 0x40 MSTORE DUP1 SWAP3 SWAP2 SWAP1 DUP2 DUP2 MSTORE PUSH1 0x20 ADD DUP3 DUP1 SLOAD PUSH2 0xE69 SWAP1 PUSH2 0x245F JUMP JUMPDEST DUP1 ISZERO PUSH2 0xEB6 JUMPI DUP1 PUSH1 0x1F LT PUSH2 0xE8B JUMPI PUSH2 0x100 DUP1 DUP4 SLOAD DIV MUL DUP4 MSTORE SWAP2 PUSH1 0x20 ADD SWAP2 PUSH2 0xEB6 JUMP JUMPDEST DUP3 ADD SWAP2 SWAP1 PUSH1 0x0 MSTORE PUSH1 0x20 PUSH1 0x0 KECCAK256 SWAP1 JUMPDEST DUP2 SLOAD DUP2 MSTORE SWAP1 PUSH1 0x1 ADD SWAP1 PUSH1 0x20 ADD DUP1 DUP4 GT PUSH2 0xE99 JUMPI DUP3 SWAP1 SUB PUSH1 0x1F AND DUP3 ADD SWAP2 JUMPDEST POP POP POP POP POP SWAP1 DUP1 PUSH1 0xA ADD SLOAD SWAP1 DUP1 PUSH1 0xB ADD PUSH1 0x0 SWAP1 SLOAD SWAP1 PUSH2 0x100 EXP SWAP1 DIV PUSH1 0xFF AND SWAP1 POP DUP12 JUMP JUMPDEST PUSH2 0xEE1 PUSH2 0x148D JUMP JUMPDEST PUSH1 0x0 PUSH20 0xFFFFFFFFFFFFFFFFFFFFFFFFFFFFFFFFFFFFFFFF AND PUSH1 0x1 PUSH1 0x0 DUP5 DUP2 MSTORE PUSH1 0x20 ADD SWAP1 DUP2 MSTORE PUSH1 0x20 ADD PUSH1 0x0 KECCAK256 PUSH1 0x2 ADD PUSH1 0x0 SWAP1 SLOAD SWAP1 PUSH2 0x100 EXP SWAP1 DIV PUSH20 0xFFFFFFFFFFFFFFFFFFFFFFFFFFFFFFFFFFFFFFFF AND PUSH20 0xFFFFFFFFFFFFFFFFFFFFFFFFFFFFFFFFFFFFFFFF AND SUB PUSH2 0xF86 JUMPI PUSH1 0x40 MLOAD PUSH32 0x8C379A000000000000000000000000000000000000000000000000000000000 DUP2 MSTORE PUSH1 0x4 ADD PUSH2 0xF7D SWAP1 PUSH2 0x27EC JUMP JUMPDEST PUSH1 0x40 MLOAD DUP1 SWAP2 SUB SWAP1 REVERT JUMPDEST PUSH32 0x98092A7FE3B04306AAC95485307D8976A8CDC262CCC953080353153F93FABFD1 PUSH1 0x1 PUSH1 0x0 DUP5 DUP2 MSTORE PUSH1 0x20 ADD SWAP1 DUP2 MSTORE PUSH1 0x20 ADD PUSH1 0x0 KECCAK256 PUSH1 0x40 MLOAD PUSH2 0xFC7 SWAP2 SWAP1 PUSH2 0x2B2B JUMP JUMPDEST PUSH1 0x40 MLOAD DUP1 SWAP2 SUB SWAP1 LOG1 PUSH1 0x1 PUSH1 0x0 DUP4 DUP2 MSTORE PUSH1 0x20 ADD SWAP1 DUP2 MSTORE PUSH1 0x20 ADD PUSH1 0x0 KECCAK256 PUSH1 0x40 MLOAD DUP1 PUSH2 0x180 ADD PUSH1 0x40 MSTORE SWAP1 DUP2 PUSH1 0x0 DUP3 ADD SLOAD DUP2 MSTORE PUSH1 0x20 ADD PUSH1 0x1 DUP3 ADD DUP1 SLOAD PUSH2 0x1008 SWAP1 PUSH2 0x245F JUMP JUMPDEST DUP1 PUSH1 0x1F ADD PUSH1 0x20 DUP1 SWAP2 DIV MUL PUSH1 0x20 ADD PUSH1 0x40 MLOAD SWAP1 DUP2 ADD PUSH1 0x40 MSTORE DUP1 SWAP3 SWAP2 SWAP1 DUP2 DUP2 MSTORE PUSH1 0x20 ADD DUP3 DUP1 SLOAD PUSH2 0x1034 SWAP1 PUSH2 0x245F JUMP JUMPDEST DUP1 ISZERO PUSH2 0x1081 JUMPI DUP1 PUSH1 0x1F LT PUSH2 0x1056 JUMPI PUSH2 0x100 DUP1 DUP4 SLOAD DIV MUL DUP4 MSTORE SWAP2 PUSH1 0x20 ADD SWAP2 PUSH2 0x1081 JUMP JUMPDEST DUP3 ADD SWAP2 SWAP1 PUSH1 0x0 MSTORE PUSH1 0x20 PUSH1 0x0 KECCAK256 SWAP1 JUMPDEST DUP2 SLOAD DUP2 MSTORE SWAP1 PUSH1 0x1 ADD SWAP1 PUSH1 0x20 ADD DUP1 DUP4 GT PUSH2 0x1064 JUMPI DUP3 SWAP1 SUB PUSH1 0x1F AND DUP3 ADD SWAP2 JUMPDEST POP POP POP POP POP DUP2 MSTORE PUSH1 0x20 ADD PUSH1 0x2 DUP3 ADD PUSH1 0x0 SWAP1 SLOAD SWAP1 PUSH2 0x100 EXP SWAP1 DIV PUSH20 0xFFFFFFFFFFFFFFFFFFFFFFFFFFFFFFFFFFFFFFFF AND PUSH20 0xFFFFFFFFFFFFFFFFFFFFFFFFFFFFFFFFFFFFFFFF AND PUSH20 0xFFFFFFFFFFFFFFFFFFFFFFFFFFFFFFFFFFFFFFFF AND DUP2 MSTORE PUSH1 0x20 ADD PUSH1 0x3 DUP3 ADD PUSH1 0x0 SWAP1 SLOAD SWAP1 PUSH2 0x100 EXP SWAP1 DIV PUSH20 0xFFFFFFFFFFFFFFFFFFFFFFFFFFFFFFFFFFFFFFFF AND PUSH20 0xFFFFFFFFFFFFFFFFFFFFFFFFFFFFFFFFFFFFFFFF AND PUSH20 0xFFFFFFFFFFFFFFFFFFFFFFFFFFFFFFFFFFFFFFFF AND DUP2 MSTORE PUSH1 0x20 ADD PUSH1 0x4 DUP3 ADD DUP1 SLOAD PUSH2 0x1146 SWAP1 PUSH2 0x245F JUMP JUMPDEST DUP1 PUSH1 0x1F ADD PUSH1 0x20 DUP1 SWAP2 DIV MUL PUSH1 0x20 ADD PUSH1 0x40 MLOAD SWAP1 DUP2 ADD PUSH1 0x40 MSTORE DUP1 SWAP3 SWAP2 SWAP1 DUP2 DUP2 MSTORE PUSH1 0x20 ADD DUP3 DUP1 SLOAD PUSH2 0x1172 SWAP1 PUSH2 0x245F JUMP JUMPDEST DUP1 ISZERO PUSH2 0x11BF JUMPI DUP1 PUSH1 0x1F LT PUSH2 0x1194 JUMPI PUSH2 0x100 DUP1 DUP4 SLOAD DIV MUL DUP4 MSTORE SWAP2 PUSH1 0x20 ADD SWAP2 PUSH2 0x11BF JUMP JUMPDEST DUP3 ADD SWAP2 SWAP1 PUSH1 0x0 MSTORE PUSH1 0x20 PUSH1 0x0 KECCAK256 SWAP1 JUMPDEST DUP2 SLOAD DUP2 MSTORE SWAP1 PUSH1 0x1 ADD SWAP1 PUSH1 0x20 ADD DUP1 DUP4 GT PUSH2 0x11A2 JUMPI DUP3 SWAP1 SUB PUSH1 0x1F AND DUP3 ADD SWAP2 JUMPDEST POP POP POP POP POP DUP2 MSTORE PUSH1 0x20 ADD PUSH1 0x5 DUP3 ADD DUP1 SLOAD PUSH2 0x11D8 SWAP1 PUSH2 0x245F JUMP JUMPDEST DUP1 PUSH1 0x1F ADD PUSH1 0x20 DUP1 SWAP2 DIV MUL PUSH1 0x20 ADD PUSH1 0x40 MLOAD SWAP1 DUP2 ADD PUSH1 0x40 MSTORE DUP1 SWAP3 SWAP2 SWAP1 DUP2 DUP2 MSTORE PUSH1 0x20 ADD DUP3 DUP1 SLOAD PUSH2 0x1204 SWAP1 PUSH2 0x245F JUMP JUMPDEST DUP1 ISZERO PUSH2 0x1251 JUMPI DUP1 PUSH1 0x1F LT PUSH2 0x1226 JUMPI PUSH2 0x100 DUP1 DUP4 SLOAD DIV MUL DUP4 MSTORE SWAP2 PUSH1 0x20 ADD SWAP2 PUSH2 0x1251 JUMP JUMPDEST DUP3 ADD SWAP2 SWAP1 PUSH1 0x0 MSTORE PUSH1 0x20 PUSH1 0x0 KECCAK256 SWAP1 JUMPDEST DUP2 SLOAD DUP2 MSTORE SWAP1 PUSH1 0x1 ADD SWAP1 PUSH1 0x20 ADD DUP1 DUP4 GT PUSH2 0x1234 JUMPI DUP3 SWAP1 SUB PUSH1 0x1F AND DUP3 ADD SWAP2 JUMPDEST POP POP POP POP POP DUP2 MSTORE PUSH1 0x20 ADD PUSH1 0x6 DUP3 ADD DUP1 SLOAD DUP1 PUSH1 0x20 MUL PUSH1 0x20 ADD PUSH1 0x40 MLOAD SWAP1 DUP2 ADD PUSH1 0x40 MSTORE DUP1 SWAP3 SWAP2 SWAP1 DUP2 DUP2 MSTORE PUSH1 0x20 ADD PUSH1 0x0 SWAP1 JUMPDEST DUP3 DUP3 LT ISZERO PUSH2 0x132B JUMPI DUP4 DUP3 SWAP1 PUSH1 0x0 MSTORE PUSH1 0x20 PUSH1 0x0 KECCAK256 ADD DUP1 SLOAD PUSH2 0x129E SWAP1 PUSH2 0x245F JUMP JUMPDEST DUP1 PUSH1 0x1F ADD PUSH1 0x20 DUP1 SWAP2 DIV MUL PUSH1 0x20 ADD PUSH1 0x40 MLOAD SWAP1 DUP2 ADD PUSH1 0x40 MSTORE DUP1 SWAP3 SWAP2 SWAP1 DUP2 DUP2 MSTORE PUSH1 0x20 ADD DUP3 DUP1 SLOAD PUSH2 0x12CA SWAP1 PUSH2 0x245F JUMP JUMPDEST DUP1 ISZERO PUSH2 0x1317 JUMPI DUP1 PUSH1 0x1F LT PUSH2 0x12EC JUMPI PUSH2 0x100 DUP1 DUP4 SLOAD DIV MUL DUP4 MSTORE SWAP2 PUSH1 0x20 ADD SWAP2 PUSH2 0x1317 JUMP JUMPDEST DUP3 ADD SWAP2 SWAP1 PUSH1 0x0 MSTORE PUSH1 0x20 PUSH1 0x0 KECCAK256 SWAP1 JUMPDEST DUP2 SLOAD DUP2 MSTORE SWAP1 PUSH1 0x1 ADD SWAP1 PUSH1 0x20 ADD DUP1 DUP4 GT PUSH2 0x12FA JUMPI DUP3 SWAP1 SUB PUSH1 0x1F AND DUP3 ADD SWAP2 JUMPDEST POP POP POP POP POP DUP2 MSTORE PUSH1 0x20 ADD SWAP1 PUSH1 0x1 ADD SWAP1 PUSH2 0x127F JUMP JUMPDEST POP POP POP POP DUP2 MSTORE PUSH1 0x20 ADD PUSH1 0x7 DUP3 ADD SLOAD DUP2 MSTORE PUSH1 0x20 ADD PUSH1 0x8 DUP3 ADD DUP1 SLOAD PUSH2 0x134D SWAP1 PUSH2 0x245F JUMP JUMPDEST DUP1 PUSH1 0x1F ADD PUSH1 0x20 DUP1 SWAP2 DIV MUL PUSH1 0x20 ADD PUSH1 0x40 MLOAD SWAP1 DUP2 ADD PUSH1 0x40 MSTORE DUP1 SWAP3 SWAP2 SWAP1 DUP2 DUP2 MSTORE PUSH1 0x20 ADD DUP3 DUP1 SLOAD PUSH2 0x1379 SWAP1 PUSH2 0x245F JUMP JUMPDEST DUP1 ISZERO PUSH2 0x13C6 JUMPI DUP1 PUSH1 0x1F LT PUSH2 0x139B JUMPI PUSH2 0x100 DUP1 DUP4 SLOAD DIV MUL DUP4 MSTORE SWAP2 PUSH1 0x20 ADD SWAP2 PUSH2 0x13C6 JUMP JUMPDEST DUP3 ADD SWAP2 SWAP1 PUSH1 0x0 MSTORE PUSH1 0x20 PUSH1 0x0 KECCAK256 SWAP1 JUMPDEST DUP2 SLOAD DUP2 MSTORE SWAP1 PUSH1 0x1 ADD SWAP1 PUSH1 0x20 ADD DUP1 DUP4 GT PUSH2 0x13A9 JUMPI DUP3 SWAP1 SUB PUSH1 0x1F AND DUP3 ADD SWAP2 JUMPDEST POP POP POP POP POP DUP2 MSTORE PUSH1 0x20 ADD PUSH1 0x9 DUP3 ADD DUP1 SLOAD PUSH2 0x13DF SWAP1 PUSH2 0x245F JUMP JUMPDEST DUP1 PUSH1 0x1F ADD PUSH1 0x20 DUP1 SWAP2 DIV MUL PUSH1 0x20 ADD PUSH1 0x40 MLOAD SWAP1 DUP2 ADD PUSH1 0x40 MSTORE DUP1 SWAP3 SWAP2 SWAP1 DUP2 DUP2 MSTORE PUSH1 0x20 ADD DUP3 DUP1 SLOAD PUSH2 0x140B SWAP1 PUSH2 0x245F JUMP JUMPDEST DUP1 ISZERO PUSH2 0x1458 JUMPI DUP1 PUSH1 0x1F LT PUSH2 0x142D JUMPI PUSH2 0x100 DUP1 DUP4 SLOAD DIV MUL DUP4 MSTORE SWAP2 PUSH1 0x20 ADD SWAP2 PUSH2 0x1458 JUMP JUMPDEST DUP3 ADD SWAP2 SWAP1 PUSH1 0x0 MSTORE PUSH1 0x20 PUSH1 0x0 KECCAK256 SWAP1 JUMPDEST DUP2 SLOAD DUP2 MSTORE SWAP1 PUSH1 0x1 ADD SWAP1 PUSH1 0x20 ADD DUP1 DUP4 GT PUSH2 0x143B JUMPI DUP3 SWAP1 SUB PUSH1 0x1F AND DUP3 ADD SWAP2 JUMPDEST POP POP POP POP POP DUP2 MSTORE PUSH1 0x20 ADD PUSH1 0xA DUP3 ADD SLOAD DUP2 MSTORE PUSH1 0x20 ADD PUSH1 0xB DUP3 ADD PUSH1 0x0 SWAP1 SLOAD SWAP1 PUSH2 0x100 EXP SWAP1 DIV PUSH1 0xFF AND ISZERO ISZERO ISZERO ISZERO DUP2 MSTORE POP POP SWAP1 POP SWAP2 SWAP1 POP JUMP JUMPDEST PUSH1 0x40 MLOAD DUP1 PUSH2 0x180 ADD PUSH1 0x40 MSTORE DUP1 PUSH1 0x0 DUP2 MSTORE PUSH1 0x20 ADD PUSH1 0x60 DUP2 MSTORE PUSH1 0x20 ADD PUSH1 0x0 PUSH20 0xFFFFFFFFFFFFFFFFFFFFFFFFFFFFFFFFFFFFFFFF AND DUP2 MSTORE PUSH1 0x20 ADD PUSH1 0x0 PUSH20 0xFFFFFFFFFFFFFFFFFFFFFFFFFFFFFFFFFFFFFFFF AND DUP2 MSTORE PUSH1 0x20 ADD PUSH1 0x60 DUP2 MSTORE PUSH1 0x20 ADD PUSH1 0x60 DUP2 MSTORE PUSH1 0x20 ADD PUSH1 0x60 DUP2 MSTORE PUSH1 0x20 ADD PUSH1 0x0 DUP2 MSTORE PUSH1 0x20 ADD PUSH1 0x60 DUP2 MSTORE PUSH1 0x20 ADD PUSH1 0x60 DUP2 MSTORE PUSH1 0x20 ADD PUSH1 0x0 DUP2 MSTORE PUSH1 0x20 ADD PUSH1 0x0 ISZERO ISZERO DUP2 MSTORE POP SWAP1 JUMP JUMPDEST DUP3 DUP1 SLOAD DUP3 DUP3 SSTORE SWAP1 PUSH1 0x0 MSTORE PUSH1 0x20 PUSH1 0x0 KECCAK256 SWAP1 DUP2 ADD SWAP3 DUP3 ISZERO PUSH2 0x1564 JUMPI SWAP2 PUSH1 0x20 MUL DUP3 ADD JUMPDEST DUP3 DUP2 GT ISZERO PUSH2 0x1563 JUMPI DUP3 MLOAD DUP3 SWAP1 DUP2 PUSH2 0x1553 SWAP2 SWAP1 PUSH2 0x263C JUMP JUMPDEST POP SWAP2 PUSH1 0x20 ADD SWAP2 SWAP1 PUSH1 0x1 ADD SWAP1 PUSH2 0x153C JUMP JUMPDEST JUMPDEST POP SWAP1 POP PUSH2 0x1571 SWAP2 SWAP1 PUSH2 0x1575 JUMP JUMPDEST POP SWAP1 JUMP JUMPDEST JUMPDEST DUP1 DUP3 GT ISZERO PUSH2 0x1595 JUMPI PUSH1 0x0 DUP2 DUP2 PUSH2 0x158C SWAP2 SWAP1 PUSH2 0x1599 JUMP JUMPDEST POP PUSH1 0x1 ADD PUSH2 0x1576 JUMP JUMPDEST POP SWAP1 JUMP JUMPDEST POP DUP1 SLOAD PUSH2 0x15A5 SWAP1 PUSH2 0x245F JUMP JUMPDEST PUSH1 0x0 DUP3 SSTORE DUP1 PUSH1 0x1F LT PUSH2 0x15B7 JUMPI POP PUSH2 0x15D6 JUMP JUMPDEST PUSH1 0x1F ADD PUSH1 0x20 SWAP1 DIV SWAP1 PUSH1 0x0 MSTORE PUSH1 0x20 PUSH1 0x0 KECCAK256 SWAP1 DUP2 ADD SWAP1 PUSH2 0x15D5 SWAP2 SWAP1 PUSH2 0x15D9 JUMP JUMPDEST JUMPDEST POP JUMP JUMPDEST JUMPDEST DUP1 DUP3 GT ISZERO PUSH2 0x15F2 JUMPI PUSH1 0x0 DUP2 PUSH1 0x0 SWAP1 SSTORE POP PUSH1 0x1 ADD PUSH2 0x15DA JUMP JUMPDEST POP SWAP1 JUMP JUMPDEST PUSH1 0x0 PUSH1 0x40 MLOAD SWAP1 POP SWAP1 JUMP JUMPDEST PUSH1 0x0 DUP1 REVERT JUMPDEST PUSH1 0x0 DUP1 REVERT JUMPDEST PUSH1 0x0 PUSH20 0xFFFFFFFFFFFFFFFFFFFFFFFFFFFFFFFFFFFFFFFF DUP3 AND SWAP1 POP SWAP2 SWAP1 POP JUMP JUMPDEST PUSH1 0x0 PUSH2 0x1635 DUP3 PUSH2 0x160A JUMP JUMPDEST SWAP1 POP SWAP2 SWAP1 POP JUMP JUMPDEST PUSH2 0x1645 DUP2 PUSH2 0x162A JUMP JUMPDEST DUP2 EQ PUSH2 0x1650 JUMPI PUSH1 0x0 DUP1 REVERT JUMPDEST POP JUMP JUMPDEST PUSH1 0x0 DUP2 CALLDATALOAD SWAP1 POP PUSH2 0x1662 DUP2 PUSH2 0x163C JUMP JUMPDEST SWAP3 SWAP2 POP POP JUMP JUMPDEST PUSH1 0x0 PUSH1 0x20 DUP3 DUP5 SUB SLT ISZERO PUSH2 0x167E JUMPI PUSH2 0x167D PUSH2 0x1600 JUMP JUMPDEST JUMPDEST PUSH1 0x0 PUSH2 0x168C DUP5 DUP3 DUP6 ADD PUSH2 0x1653 JUMP JUMPDEST SWAP2 POP POP SWAP3 SWAP2 POP POP JUMP JUMPDEST PUSH1 0x0 DUP2 MLOAD SWAP1 POP SWAP2 SWAP1 POP JUMP JUMPDEST PUSH1 0x0 DUP3 DUP3 MSTORE PUSH1 0x20 DUP3 ADD SWAP1 POP SWAP3 SWAP2 POP POP JUMP JUMPDEST PUSH1 0x0 DUP2 SWAP1 POP PUSH1 0x20 DUP3 ADD SWAP1 POP SWAP2 SWAP1 POP JUMP JUMPDEST PUSH1 0x0 DUP2 SWAP1 POP SWAP2 SWAP1 POP JUMP JUMPDEST PUSH2 0x16D4 DUP2 PUSH2 0x16C1 JUMP JUMPDEST DUP3 MSTORE POP POP JUMP JUMPDEST PUSH1 0x0 DUP2 MLOAD SWAP1 POP SWAP2 SWAP1 POP JUMP JUMPDEST PUSH1 0x0 DUP3 DUP3 MSTORE PUSH1 0x20 DUP3 ADD SWAP1 POP SWAP3 SWAP2 POP POP JUMP JUMPDEST PUSH1 0x0 JUMPDEST DUP4 DUP2 LT ISZERO PUSH2 0x1714 JUMPI DUP1 DUP3 ADD MLOAD DUP2 DUP5 ADD MSTORE PUSH1 0x20 DUP2 ADD SWAP1 POP PUSH2 0x16F9 JUMP JUMPDEST PUSH1 0x0 DUP5 DUP5 ADD MSTORE POP POP POP POP JUMP JUMPDEST PUSH1 0x0 PUSH1 0x1F NOT PUSH1 0x1F DUP4 ADD AND SWAP1 POP SWAP2 SWAP1 POP JUMP JUMPDEST PUSH1 0x0 PUSH2 0x173C DUP3 PUSH2 0x16DA JUMP JUMPDEST PUSH2 0x1746 DUP2 DUP6 PUSH2 0x16E5 JUMP JUMPDEST SWAP4 POP PUSH2 0x1756 DUP2 DUP6 PUSH1 0x20 DUP7 ADD PUSH2 0x16F6 JUMP JUMPDEST PUSH2 0x175F DUP2 PUSH2 0x1720 JUMP JUMPDEST DUP5 ADD SWAP2 POP POP SWAP3 SWAP2 POP POP JUMP JUMPDEST PUSH2 0x1773 DUP2 PUSH2 0x162A JUMP JUMPDEST DUP3 MSTORE POP POP JUMP JUMPDEST PUSH1 0x0 DUP2 MLOAD SWAP1 POP SWAP2 SWAP1 POP JUMP JUMPDEST PUSH1 0x0 DUP3 DUP3 MSTORE PUSH1 0x20 DUP3 ADD SWAP1 POP SWAP3 SWAP2 POP POP JUMP JUMPDEST PUSH1 0x0 DUP2 SWAP1 POP PUSH1 0x20 DUP3 ADD SWAP1 POP SWAP2 SWAP1 POP JUMP JUMPDEST PUSH1 0x0 PUSH2 0x17B1 DUP4 DUP4 PUSH2 0x1731 JUMP JUMPDEST SWAP1 POP SWAP3 SWAP2 POP POP JUMP JUMPDEST PUSH1 0x0 PUSH1 0x20 DUP3 ADD SWAP1 POP SWAP2 SWAP1 POP JUMP JUMPDEST PUSH1 0x0 PUSH2 0x17D1 DUP3 PUSH2 0x1779 JUMP JUMPDEST PUSH2 0x17DB DUP2 DUP6 PUSH2 0x1784 JUMP JUMPDEST SWAP4 POP DUP4 PUSH1 0x20 DUP3 MUL DUP6 ADD PUSH2 0x17ED DUP6 PUSH2 0x1795 JUMP JUMPDEST DUP1 PUSH1 0x0 JUMPDEST DUP6 DUP2 LT ISZERO PUSH2 0x1829 JUMPI DUP5 DUP5 SUB DUP10 MSTORE DUP2 MLOAD PUSH2 0x180A DUP6 DUP3 PUSH2 0x17A5 JUMP JUMPDEST SWAP5 POP PUSH2 0x1815 DUP4 PUSH2 0x17B9 JUMP JUMPDEST SWAP3 POP PUSH1 0x20 DUP11 ADD SWAP10 POP POP PUSH1 0x1 DUP2 ADD SWAP1 POP PUSH2 0x17F1 JUMP JUMPDEST POP DUP3 SWAP8 POP DUP8 SWAP6 POP POP POP POP POP POP SWAP3 SWAP2 POP POP JUMP JUMPDEST PUSH1 0x0 DUP2 ISZERO ISZERO SWAP1 POP SWAP2 SWAP1 POP JUMP JUMPDEST PUSH2 0x1850 DUP2 PUSH2 0x183B JUMP JUMPDEST DUP3 MSTORE POP POP JUMP JUMPDEST PUSH1 0x0 PUSH2 0x180 DUP4 ADD PUSH1 0x0 DUP4 ADD MLOAD PUSH2 0x186F PUSH1 0x0 DUP7 ADD DUP3 PUSH2 0x16CB JUMP JUMPDEST POP PUSH1 0x20 DUP4 ADD MLOAD DUP5 DUP3 SUB PUSH1 0x20 DUP7 ADD MSTORE PUSH2 0x1887 DUP3 DUP3 PUSH2 0x1731 JUMP JUMPDEST SWAP2 POP POP PUSH1 0x40 DUP4 ADD MLOAD PUSH2 0x189C PUSH1 0x40 DUP7 ADD DUP3 PUSH2 0x176A JUMP JUMPDEST POP PUSH1 0x60 DUP4 ADD MLOAD PUSH2 0x18AF PUSH1 0x60 DUP7 ADD DUP3 PUSH2 0x176A JUMP JUMPDEST POP PUSH1 0x80 DUP4 ADD MLOAD DUP5 DUP3 SUB PUSH1 0x80 DUP7 ADD MSTORE PUSH2 0x18C7 DUP3 DUP3 PUSH2 0x1731 JUMP JUMPDEST SWAP2 POP POP PUSH1 0xA0 DUP4 ADD MLOAD DUP5 DUP3 SUB PUSH1 0xA0 DUP7 ADD MSTORE PUSH2 0x18E1 DUP3 DUP3 PUSH2 0x1731 JUMP JUMPDEST SWAP2 POP POP PUSH1 0xC0 DUP4 ADD MLOAD DUP5 DUP3 SUB PUSH1 0xC0 DUP7 ADD MSTORE PUSH2 0x18FB DUP3 DUP3 PUSH2 0x17C6 JUMP JUMPDEST SWAP2 POP POP PUSH1 0xE0 DUP4 ADD MLOAD PUSH2 0x1910 PUSH1 0xE0 DUP7 ADD DUP3 PUSH2 0x16CB JUMP JUMPDEST POP PUSH2 0x100 DUP4 ADD MLOAD DUP5 DUP3 SUB PUSH2 0x100 DUP7 ADD MSTORE PUSH2 0x192A DUP3 DUP3 PUSH2 0x1731 JUMP JUMPDEST SWAP2 POP POP PUSH2 0x120 DUP4 ADD MLOAD DUP5 DUP3 SUB PUSH2 0x120 DUP7 ADD MSTORE PUSH2 0x1946 DUP3 DUP3 PUSH2 0x1731 JUMP JUMPDEST SWAP2 POP POP PUSH2 0x140 DUP4 ADD MLOAD PUSH2 0x195D PUSH2 0x140 DUP7 ADD DUP3 PUSH2 0x16CB JUMP JUMPDEST POP PUSH2 0x160 DUP4 ADD MLOAD PUSH2 0x1972 PUSH2 0x160 DUP7 ADD DUP3 PUSH2 0x1847 JUMP JUMPDEST POP DUP1 SWAP2 POP POP SWAP3 SWAP2 POP POP JUMP JUMPDEST PUSH1 0x0 PUSH2 0x1989 DUP4 DUP4 PUSH2 0x1856 JUMP JUMPDEST SWAP1 POP SWAP3 SWAP2 POP POP JUMP JUMPDEST PUSH1 0x0 PUSH1 0x20 DUP3 ADD SWAP1 POP SWAP2 SWAP1 POP JUMP JUMPDEST PUSH1 0x0 PUSH2 0x19A9 DUP3 PUSH2 0x1695 JUMP JUMPDEST PUSH2 0x19B3 DUP2 DUP6 PUSH2 0x16A0 JUMP JUMPDEST SWAP4 POP DUP4 PUSH1 0x20 DUP3 MUL DUP6 ADD PUSH2 0x19C5 DUP6 PUSH2 0x16B1 JUMP JUMPDEST DUP1 PUSH1 0x0 JUMPDEST DUP6 DUP2 LT ISZERO PUSH2 0x1A01 JUMPI DUP5 DUP5 SUB DUP10 MSTORE DUP2 MLOAD PUSH2 0x19E2 DUP6 DUP3 PUSH2 0x197D JUMP JUMPDEST SWAP5 POP PUSH2 0x19ED DUP4 PUSH2 0x1991 JUMP JUMPDEST SWAP3 POP PUSH1 0x20 DUP11 ADD SWAP10 POP POP PUSH1 0x1 DUP2 ADD SWAP1 POP PUSH2 0x19C9 JUMP JUMPDEST POP DUP3 SWAP8 POP DUP8 SWAP6 POP POP POP POP POP POP SWAP3 SWAP2 POP POP JUMP JUMPDEST PUSH1 0x0 DUP2 MLOAD SWAP1 POP SWAP2 SWAP1 POP JUMP JUMPDEST PUSH1 0x0 DUP3 DUP3 MSTORE PUSH1 0x20 DUP3 ADD SWAP1 POP SWAP3 SWAP2 POP POP JUMP JUMPDEST PUSH1 0x0 DUP2 SWAP1 POP PUSH1 0x20 DUP3 ADD SWAP1 POP SWAP2 SWAP1 POP JUMP JUMPDEST PUSH1 0x0 DUP2 SWAP1 POP SWAP2 SWAP1 POP JUMP JUMPDEST PUSH2 0x1A52 DUP2 PUSH2 0x1A3F JUMP JUMPDEST DUP3 MSTORE POP POP JUMP JUMPDEST PUSH1 0x0 PUSH2 0x1A64 DUP4 DUP4 PUSH2 0x1A49 JUMP JUMPDEST PUSH1 0x20 DUP4 ADD SWAP1 POP SWAP3 SWAP2 POP POP JUMP JUMPDEST PUSH1 0x0 PUSH1 0x20 DUP3 ADD SWAP1 POP SWAP2 SWAP1 POP JUMP JUMPDEST PUSH1 0x0 PUSH2 0x1A88 DUP3 PUSH2 0x1A13 JUMP JUMPDEST PUSH2 0x1A92 DUP2 DUP6 PUSH2 0x1A1E JUMP JUMPDEST SWAP4 POP PUSH2 0x1A9D DUP4 PUSH2 0x1A2F JUMP JUMPDEST DUP1 PUSH1 0x0 JUMPDEST DUP4 DUP2 LT ISZERO PUSH2 0x1ACE JUMPI DUP2 MLOAD PUSH2 0x1AB5 DUP9 DUP3 PUSH2 0x1A58 JUMP JUMPDEST SWAP8 POP PUSH2 0x1AC0 DUP4 PUSH2 0x1A70 JUMP JUMPDEST SWAP3 POP POP PUSH1 0x1 DUP2 ADD SWAP1 POP PUSH2 0x1AA1 JUMP JUMPDEST POP DUP6 SWAP4 POP POP POP POP SWAP3 SWAP2 POP POP JUMP JUMPDEST PUSH1 0x0 PUSH1 0x40 DUP3 ADD SWAP1 POP DUP2 DUP2 SUB PUSH1 0x0 DUP4 ADD MSTORE PUSH2 0x1AF5 DUP2 DUP6 PUSH2 0x199E JUMP JUMPDEST SWAP1 POP DUP2 DUP2 SUB PUSH1 0x20 DUP4 ADD MSTORE PUSH2 0x1B09 DUP2 DUP5 PUSH2 0x1A7D JUMP JUMPDEST SWAP1 POP SWAP4 SWAP3 POP POP POP JUMP JUMPDEST PUSH2 0x1B1B DUP2 PUSH2 0x16C1 JUMP JUMPDEST DUP2 EQ PUSH2 0x1B26 JUMPI PUSH1 0x0 DUP1 REVERT JUMPDEST POP JUMP JUMPDEST PUSH1 0x0 DUP2 CALLDATALOAD SWAP1 POP PUSH2 0x1B38 DUP2 PUSH2 0x1B12 JUMP JUMPDEST SWAP3 SWAP2 POP POP JUMP JUMPDEST PUSH1 0x0 DUP1 PUSH1 0x40 DUP4 DUP6 SUB SLT ISZERO PUSH2 0x1B55 JUMPI PUSH2 0x1B54 PUSH2 0x1600 JUMP JUMPDEST JUMPDEST PUSH1 0x0 PUSH2 0x1B63 DUP6 DUP3 DUP7 ADD PUSH2 0x1653 JUMP JUMPDEST SWAP3 POP POP PUSH1 0x20 PUSH2 0x1B74 DUP6 DUP3 DUP7 ADD PUSH2 0x1B29 JUMP JUMPDEST SWAP2 POP POP SWAP3 POP SWAP3 SWAP1 POP JUMP JUMPDEST PUSH2 0x1B87 DUP2 PUSH2 0x1A3F JUMP JUMPDEST DUP3 MSTORE POP POP JUMP JUMPDEST PUSH1 0x0 PUSH1 0x20 DUP3 ADD SWAP1 POP PUSH2 0x1BA2 PUSH1 0x0 DUP4 ADD DUP5 PUSH2 0x1B7E JUMP JUMPDEST SWAP3 SWAP2 POP POP JUMP JUMPDEST PUSH1 0x0 PUSH1 0x20 DUP3 DUP5 SUB SLT ISZERO PUSH2 0x1BBE JUMPI PUSH2 0x1BBD PUSH2 0x1600 JUMP JUMPDEST JUMPDEST PUSH1 0x0 PUSH2 0x1BCC DUP5 DUP3 DUP6 ADD PUSH2 0x1B29 JUMP JUMPDEST SWAP2 POP POP SWAP3 SWAP2 POP POP JUMP JUMPDEST PUSH2 0x1BDE DUP2 PUSH2 0x16C1 JUMP JUMPDEST DUP3 MSTORE POP POP JUMP JUMPDEST PUSH1 0x0 PUSH1 0x20 DUP3 ADD SWAP1 POP PUSH2 0x1BF9 PUSH1 0x0 DUP4 ADD DUP5 PUSH2 0x1BD5 JUMP JUMPDEST SWAP3 SWAP2 POP POP JUMP JUMPDEST PUSH1 0x0 DUP1 REVERT JUMPDEST PUSH1 0x0 DUP1 REVERT JUMPDEST PUSH32 0x4E487B7100000000000000000000000000000000000000000000000000000000 PUSH1 0x0 MSTORE PUSH1 0x41 PUSH1 0x4 MSTORE PUSH1 0x24 PUSH1 0x0 REVERT JUMPDEST PUSH2 0x1C41 DUP3 PUSH2 0x1720 JUMP JUMPDEST DUP2 ADD DUP2 DUP2 LT PUSH8 0xFFFFFFFFFFFFFFFF DUP3 GT OR ISZERO PUSH2 0x1C60 JUMPI PUSH2 0x1C5F PUSH2 0x1C09 JUMP JUMPDEST JUMPDEST DUP1 PUSH1 0x40 MSTORE POP POP POP JUMP JUMPDEST PUSH1 0x0 PUSH2 0x1C73 PUSH2 0x15F6 JUMP JUMPDEST SWAP1 POP PUSH2 0x1C7F DUP3 DUP3 PUSH2 0x1C38 JUMP JUMPDEST SWAP2 SWAP1 POP JUMP JUMPDEST PUSH1 0x0 PUSH8 0xFFFFFFFFFFFFFFFF DUP3 GT ISZERO PUSH2 0x1C9F JUMPI PUSH2 0x1C9E PUSH2 0x1C09 JUMP JUMPDEST JUMPDEST PUSH2 0x1CA8 DUP3 PUSH2 0x1720 JUMP JUMPDEST SWAP1 POP PUSH1 0x20 DUP2 ADD SWAP1 POP SWAP2 SWAP1 POP JUMP JUMPDEST DUP3 DUP2 DUP4 CALLDATACOPY PUSH1 0x0 DUP4 DUP4 ADD MSTORE POP POP POP JUMP JUMPDEST PUSH1 0x0 PUSH2 0x1CD7 PUSH2 0x1CD2 DUP5 PUSH2 0x1C84 JUMP JUMPDEST PUSH2 0x1C69 JUMP JUMPDEST SWAP1 POP DUP3 DUP2 MSTORE PUSH1 0x20 DUP2 ADD DUP5 DUP5 DUP5 ADD GT ISZERO PUSH2 0x1CF3 JUMPI PUSH2 0x1CF2 PUSH2 0x1C04 JUMP JUMPDEST JUMPDEST PUSH2 0x1CFE DUP5 DUP3 DUP6 PUSH2 0x1CB5 JUMP JUMPDEST POP SWAP4 SWAP3 POP POP POP JUMP JUMPDEST PUSH1 0x0 DUP3 PUSH1 0x1F DUP4 ADD SLT PUSH2 0x1D1B JUMPI PUSH2 0x1D1A PUSH2 0x1BFF JUMP JUMPDEST JUMPDEST DUP2 CALLDATALOAD PUSH2 0x1D2B DUP5 DUP3 PUSH1 0x20 DUP7 ADD PUSH2 0x1CC4 JUMP JUMPDEST SWAP2 POP POP SWAP3 SWAP2 POP POP JUMP JUMPDEST PUSH1 0x0 PUSH8 0xFFFFFFFFFFFFFFFF DUP3 GT ISZERO PUSH2 0x1D4F JUMPI PUSH2 0x1D4E PUSH2 0x1C09 JUMP JUMPDEST JUMPDEST PUSH1 0x20 DUP3 MUL SWAP1 POP PUSH1 0x20 DUP2 ADD SWAP1 POP SWAP2 SWAP1 POP JUMP JUMPDEST PUSH1 0x0 DUP1 REVERT JUMPDEST PUSH1 0x0 PUSH2 0x1D78 PUSH2 0x1D73 DUP5 PUSH2 0x1D34 JUMP JUMPDEST PUSH2 0x1C69 JUMP JUMPDEST SWAP1 POP DUP1 DUP4 DUP3 MSTORE PUSH1 0x20 DUP3 ADD SWAP1 POP PUSH1 0x20 DUP5 MUL DUP4 ADD DUP6 DUP2 GT ISZERO PUSH2 0x1D9B JUMPI PUSH2 0x1D9A PUSH2 0x1D60 JUMP JUMPDEST JUMPDEST DUP4 JUMPDEST DUP2 DUP2 LT ISZERO PUSH2 0x1DE2 JUMPI DUP1 CALLDATALOAD PUSH8 0xFFFFFFFFFFFFFFFF DUP2 GT ISZERO PUSH2 0x1DC0 JUMPI PUSH2 0x1DBF PUSH2 0x1BFF JUMP JUMPDEST JUMPDEST DUP1 DUP7 ADD PUSH2 0x1DCD DUP10 DUP3 PUSH2 0x1D06 JUMP JUMPDEST DUP6 MSTORE PUSH1 0x20 DUP6 ADD SWAP5 POP POP POP PUSH1 0x20 DUP2 ADD SWAP1 POP PUSH2 0x1D9D JUMP JUMPDEST POP POP POP SWAP4 SWAP3 POP POP POP JUMP JUMPDEST PUSH1 0x0 DUP3 PUSH1 0x1F DUP4 ADD SLT PUSH2 0x1E01 JUMPI PUSH2 0x1E00 PUSH2 0x1BFF JUMP JUMPDEST JUMPDEST DUP2 CALLDATALOAD PUSH2 0x1E11 DUP5 DUP3 PUSH1 0x20 DUP7 ADD PUSH2 0x1D65 JUMP JUMPDEST SWAP2 POP POP SWAP3 SWAP2 POP POP JUMP JUMPDEST PUSH1 0x0 DUP1 PUSH1 0x0 DUP1 PUSH1 0x0 DUP1 PUSH1 0x0 DUP1 PUSH2 0x100 DUP10 DUP12 SUB SLT ISZERO PUSH2 0x1E3B JUMPI PUSH2 0x1E3A PUSH2 0x1600 JUMP JUMPDEST JUMPDEST PUSH1 0x0 DUP10 ADD CALLDATALOAD PUSH8 0xFFFFFFFFFFFFFFFF DUP2 GT ISZERO PUSH2 0x1E59 JUMPI PUSH2 0x1E58 PUSH2 0x1605 JUMP JUMPDEST JUMPDEST PUSH2 0x1E65 DUP12 DUP3 DUP13 ADD PUSH2 0x1D06 JUMP JUMPDEST SWAP9 POP POP PUSH1 0x20 DUP10 ADD CALLDATALOAD PUSH8 0xFFFFFFFFFFFFFFFF DUP2 GT ISZERO PUSH2 0x1E86 JUMPI PUSH2 0x1E85 PUSH2 0x1605 JUMP JUMPDEST JUMPDEST PUSH2 0x1E92 DUP12 DUP3 DUP13 ADD PUSH2 0x1D06 JUMP JUMPDEST SWAP8 POP POP PUSH1 0x40 DUP10 ADD CALLDATALOAD PUSH8 0xFFFFFFFFFFFFFFFF DUP2 GT ISZERO PUSH2 0x1EB3 JUMPI PUSH2 0x1EB2 PUSH2 0x1605 JUMP JUMPDEST JUMPDEST PUSH2 0x1EBF DUP12 DUP3 DUP13 ADD PUSH2 0x1D06 JUMP JUMPDEST SWAP7 POP POP PUSH1 0x60 DUP10 ADD CALLDATALOAD PUSH8 0xFFFFFFFFFFFFFFFF DUP2 GT ISZERO PUSH2 0x1EE0 JUMPI PUSH2 0x1EDF PUSH2 0x1605 JUMP JUMPDEST JUMPDEST PUSH2 0x1EEC DUP12 DUP3 DUP13 ADD PUSH2 0x1D06 JUMP JUMPDEST SWAP6 POP POP PUSH1 0x80 DUP10 ADD CALLDATALOAD PUSH8 0xFFFFFFFFFFFFFFFF DUP2 GT ISZERO PUSH2 0x1F0D JUMPI PUSH2 0x1F0C PUSH2 0x1605 JUMP JUMPDEST JUMPDEST PUSH2 0x1F19 DUP12 DUP3 DUP13 ADD PUSH2 0x1D06 JUMP JUMPDEST SWAP5 POP POP PUSH1 0xA0 DUP10 ADD CALLDATALOAD PUSH8 0xFFFFFFFFFFFFFFFF DUP2 GT ISZERO PUSH2 0x1F3A JUMPI PUSH2 0x1F39 PUSH2 0x1605 JUMP JUMPDEST JUMPDEST PUSH2 0x1F46 DUP12 DUP3 DUP13 ADD PUSH2 0x1DEC JUMP JUMPDEST SWAP4 POP POP PUSH1 0xC0 PUSH2 0x1F57 DUP12 DUP3 DUP13 ADD PUSH2 0x1B29 JUMP JUMPDEST SWAP3 POP POP PUSH1 0xE0 PUSH2 0x1F68 DUP12 DUP3 DUP13 ADD PUSH2 0x1653 JUMP JUMPDEST SWAP2 POP POP SWAP3 SWAP6 SWAP9 POP SWAP3 SWAP6 SWAP9 SWAP1 SWAP4 SWAP7 POP JUMP JUMPDEST PUSH1 0x0 PUSH1 0x20 DUP3 ADD SWAP1 POP DUP2 DUP2 SUB PUSH1 0x0 DUP4 ADD MSTORE PUSH2 0x1F92 DUP2 DUP5 PUSH2 0x199E JUMP JUMPDEST SWAP1 POP SWAP3 SWAP2 POP POP JUMP JUMPDEST PUSH1 0x0 DUP1 PUSH1 0x0 PUSH1 0x60 DUP5 DUP7 SUB SLT ISZERO PUSH2 0x1FB3 JUMPI PUSH2 0x1FB2 PUSH2 0x1600 JUMP JUMPDEST JUMPDEST PUSH1 0x0 DUP5 ADD CALLDATALOAD PUSH8 0xFFFFFFFFFFFFFFFF DUP2 GT ISZERO PUSH2 0x1FD1 JUMPI PUSH2 0x1FD0 PUSH2 0x1605 JUMP JUMPDEST JUMPDEST PUSH2 0x1FDD DUP7 DUP3 DUP8 ADD PUSH2 0x1D06 JUMP JUMPDEST SWAP4 POP POP PUSH1 0x20 PUSH2 0x1FEE DUP7 DUP3 DUP8 ADD PUSH2 0x1653 JUMP JUMPDEST SWAP3 POP POP PUSH1 0x40 PUSH2 0x1FFF DUP7 DUP3 DUP8 ADD PUSH2 0x1B29 JUMP JUMPDEST SWAP2 POP POP SWAP3 POP SWAP3 POP SWAP3 JUMP JUMPDEST PUSH1 0x0 DUP3 DUP3 MSTORE PUSH1 0x20 DUP3 ADD SWAP1 POP SWAP3 SWAP2 POP POP JUMP JUMPDEST PUSH1 0x0 PUSH2 0x2025 DUP3 PUSH2 0x16DA JUMP JUMPDEST PUSH2 0x202F DUP2 DUP6 PUSH2 0x2009 JUMP JUMPDEST SWAP4 POP PUSH2 0x203F DUP2 DUP6 PUSH1 0x20 DUP7 ADD PUSH2 0x16F6 JUMP JUMPDEST PUSH2 0x2048 DUP2 PUSH2 0x1720 JUMP JUMPDEST DUP5 ADD SWAP2 POP POP SWAP3 SWAP2 POP POP JUMP JUMPDEST PUSH2 0x205C DUP2 PUSH2 0x162A JUMP JUMPDEST DUP3 MSTORE POP POP JUMP JUMPDEST PUSH2 0x206B DUP2 PUSH2 0x183B JUMP JUMPDEST DUP3 MSTORE POP POP JUMP JUMPDEST PUSH1 0x0 PUSH2 0x160 DUP3 ADD SWAP1 POP PUSH2 0x2087 PUSH1 0x0 DUP4 ADD DUP15 PUSH2 0x1BD5 JUMP JUMPDEST DUP2 DUP2 SUB PUSH1 0x20 DUP4 ADD MSTORE PUSH2 0x2099 DUP2 DUP14 PUSH2 0x201A JUMP JUMPDEST SWAP1 POP PUSH2 0x20A8 PUSH1 0x40 DUP4 ADD DUP13 PUSH2 0x2053 JUMP JUMPDEST PUSH2 0x20B5 PUSH1 0x60 DUP4 ADD DUP12 PUSH2 0x2053 JUMP JUMPDEST DUP2 DUP2 SUB PUSH1 0x80 DUP4 ADD MSTORE PUSH2 0x20C7 DUP2 DUP11 PUSH2 0x201A JUMP JUMPDEST SWAP1 POP DUP2 DUP2 SUB PUSH1 0xA0 DUP4 ADD MSTORE PUSH2 0x20DB DUP2 DUP10 PUSH2 0x201A JUMP JUMPDEST SWAP1 POP PUSH2 0x20EA PUSH1 0xC0 DUP4 ADD DUP9 PUSH2 0x1BD5 JUMP JUMPDEST DUP2 DUP2 SUB PUSH1 0xE0 DUP4 ADD MSTORE PUSH2 0x20FC DUP2 DUP8 PUSH2 0x201A JUMP JUMPDEST SWAP1 POP DUP2 DUP2 SUB PUSH2 0x100 DUP4 ADD MSTORE PUSH2 0x2111 DUP2 DUP7 PUSH2 0x201A JUMP JUMPDEST SWAP1 POP PUSH2 0x2121 PUSH2 0x120 DUP4 ADD DUP6 PUSH2 0x1BD5 JUMP JUMPDEST PUSH2 0x212F PUSH2 0x140 DUP4 ADD DUP5 PUSH2 0x2062 JUMP JUMPDEST SWAP13 SWAP12 POP POP POP POP POP POP POP POP POP POP POP POP JUMP JUMPDEST PUSH1 0x0 PUSH2 0x180 DUP4 ADD PUSH1 0x0 DUP4 ADD MLOAD PUSH2 0x2158 PUSH1 0x0 DUP7 ADD DUP3 PUSH2 0x16CB JUMP JUMPDEST POP PUSH1 0x20 DUP4 ADD MLOAD DUP5 DUP3 SUB PUSH1 0x20 DUP7 ADD MSTORE PUSH2 0x2170 DUP3 DUP3 PUSH2 0x1731 JUMP JUMPDEST SWAP2 POP POP PUSH1 0x40 DUP4 ADD MLOAD PUSH2 0x2185 PUSH1 0x40 DUP7 ADD DUP3 PUSH2 0x176A JUMP JUMPDEST POP PUSH1 0x60 DUP4 ADD MLOAD PUSH2 0x2198 PUSH1 0x60 DUP7 ADD DUP3 PUSH2 0x176A JUMP JUMPDEST POP PUSH1 0x80 DUP4 ADD MLOAD DUP5 DUP3 SUB PUSH1 0x80 DUP7 ADD MSTORE PUSH2 0x21B0 DUP3 DUP3 PUSH2 0x1731 JUMP JUMPDEST SWAP2 POP POP PUSH1 0xA0 DUP4 ADD MLOAD DUP5 DUP3 SUB PUSH1 0xA0 DUP7 ADD MSTORE PUSH2 0x21CA DUP3 DUP3 PUSH2 0x1731 JUMP JUMPDEST SWAP2 POP POP PUSH1 0xC0 DUP4 ADD MLOAD DUP5 DUP3 SUB PUSH1 0xC0 DUP7 ADD MSTORE PUSH2 0x21E4 DUP3 DUP3 PUSH2 0x17C6 JUMP JUMPDEST SWAP2 POP POP PUSH1 0xE0 DUP4 ADD MLOAD PUSH2 0x21F9 PUSH1 0xE0 DUP7 ADD DUP3 PUSH2 0x16CB JUMP JUMPDEST POP PUSH2 0x100 DUP4 ADD MLOAD DUP5 DUP3 SUB PUSH2 0x100 DUP7 ADD MSTORE PUSH2 0x2213 DUP3 DUP3 PUSH2 0x1731 JUMP JUMPDEST SWAP2 POP POP PUSH2 0x120 DUP4 ADD MLOAD DUP5 DUP3 SUB PUSH2 0x120 DUP7 ADD MSTORE PUSH2 0x222F DUP3 DUP3 PUSH2 0x1731 JUMP JUMPDEST SWAP2 POP POP PUSH2 0x140 DUP4 ADD MLOAD PUSH2 0x2246 PUSH2 0x140 DUP7 ADD DUP3 PUSH2 0x16CB JUMP JUMPDEST POP PUSH2 0x160 DUP4 ADD MLOAD PUSH2 0x225B PUSH2 0x160 DUP7 ADD DUP3 PUSH2 0x1847 JUMP JUMPDEST POP DUP1 SWAP2 POP POP SWAP3 SWAP2 POP POP JUMP JUMPDEST PUSH1 0x0 PUSH1 0x20 DUP3 ADD SWAP1 POP DUP2 DUP2 SUB PUSH1 0x0 DUP4 ADD MSTORE PUSH2 0x2280 DUP2 DUP5 PUSH2 0x213F JUMP JUMPDEST SWAP1 POP SWAP3 SWAP2 POP POP JUMP JUMPDEST PUSH32 0x50617469656E74207265636F726473206E6F742070726573656E740000000000 PUSH1 0x0 DUP3 ADD MSTORE POP JUMP JUMPDEST PUSH1 0x0 PUSH2 0x22BE PUSH1 0x1B DUP4 PUSH2 0x2009 JUMP JUMPDEST SWAP2 POP PUSH2 0x22C9 DUP3 PUSH2 0x2288 JUMP JUMPDEST PUSH1 0x20 DUP3 ADD SWAP1 POP SWAP2 SWAP1 POP JUMP JUMPDEST PUSH1 0x0 PUSH1 0x20 DUP3 ADD SWAP1 POP DUP2 DUP2 SUB PUSH1 0x0 DUP4 ADD MSTORE PUSH2 0x22ED DUP2 PUSH2 0x22B1 JUMP JUMPDEST SWAP1 POP SWAP2 SWAP1 POP JUMP JUMPDEST PUSH32 0x4E487B7100000000000000000000000000000000000000000000000000000000 PUSH1 0x0 MSTORE PUSH1 0x32 PUSH1 0x4 MSTORE PUSH1 0x24 PUSH1 0x0 REVERT JUMPDEST PUSH1 0x0 DUP2 SLOAD SWAP1 POP SWAP2 SWAP1 POP JUMP JUMPDEST PUSH1 0x0 DUP2 SWAP1 POP DUP2 PUSH1 0x0 MSTORE PUSH1 0x20 PUSH1 0x0 KECCAK256 SWAP1 POP SWAP2 SWAP1 POP JUMP JUMPDEST PUSH1 0x0 DUP2 PUSH1 0x0 SHR SWAP1 POP SWAP2 SWAP1 POP JUMP JUMPDEST PUSH1 0x0 DUP2 SWAP1 POP SWAP2 SWAP1 POP JUMP JUMPDEST PUSH1 0x0 PUSH2 0x236D PUSH2 0x2368 DUP4 PUSH2 0x2343 JUMP JUMPDEST PUSH2 0x2350 JUMP JUMPDEST SWAP1 POP SWAP2 SWAP1 POP JUMP JUMPDEST PUSH1 0x0 PUSH2 0x2380 DUP3 SLOAD PUSH2 0x235A JUMP JUMPDEST SWAP1 POP SWAP2 SWAP1 POP JUMP JUMPDEST PUSH1 0x0 PUSH1 0x1 DUP3 ADD SWAP1 POP SWAP2 SWAP1 POP JUMP JUMPDEST PUSH1 0x0 PUSH2 0x239F DUP3 PUSH2 0x2323 JUMP JUMPDEST PUSH2 0x23A9 DUP2 DUP6 PUSH2 0x1A1E JUMP JUMPDEST SWAP4 POP PUSH2 0x23B4 DUP4 PUSH2 0x232E JUMP JUMPDEST DUP1 PUSH1 0x0 JUMPDEST DUP4 DUP2 LT ISZERO PUSH2 0x23EC JUMPI PUSH2 0x23C9 DUP3 PUSH2 0x2374 JUMP JUMPDEST PUSH2 0x23D3 DUP9 DUP3 PUSH2 0x1A58 JUMP JUMPDEST SWAP8 POP PUSH2 0x23DE DUP4 PUSH2 0x2387 JUMP JUMPDEST SWAP3 POP POP PUSH1 0x1 DUP2 ADD SWAP1 POP PUSH2 0x23B8 JUMP JUMPDEST POP DUP6 SWAP4 POP POP POP POP SWAP3 SWAP2 POP POP JUMP JUMPDEST PUSH1 0x0 PUSH1 0x40 DUP3 ADD SWAP1 POP DUP2 DUP2 SUB PUSH1 0x0 DUP4 ADD MSTORE PUSH2 0x2413 DUP2 DUP6 PUSH2 0x199E JUMP JUMPDEST SWAP1 POP DUP2 DUP2 SUB PUSH1 0x20 DUP4 ADD MSTORE PUSH2 0x2427 DUP2 DUP5 PUSH2 0x2394 JUMP JUMPDEST SWAP1 POP SWAP4 SWAP3 POP POP POP JUMP JUMPDEST PUSH32 0x4E487B7100000000000000000000000000000000000000000000000000000000 PUSH1 0x0 MSTORE PUSH1 0x22 PUSH1 0x4 MSTORE PUSH1 0x24 PUSH1 0x0 REVERT JUMPDEST PUSH1 0x0 PUSH1 0x2 DUP3 DIV SWAP1 POP PUSH1 0x1 DUP3 AND DUP1 PUSH2 0x2477 JUMPI PUSH1 0x7F DUP3 AND SWAP2 POP JUMPDEST PUSH1 0x20 DUP3 LT DUP2 SUB PUSH2 0x248A JUMPI PUSH2 0x2489 PUSH2 0x2430 JUMP JUMPDEST JUMPDEST POP SWAP2 SWAP1 POP JUMP JUMPDEST PUSH1 0x0 DUP2 SWAP1 POP DUP2 PUSH1 0x0 MSTORE PUSH1 0x20 PUSH1 0x0 KECCAK256 SWAP1 POP SWAP2 SWAP1 POP JUMP JUMPDEST PUSH1 0x0 PUSH1 0x20 PUSH1 0x1F DUP4 ADD DIV SWAP1 POP SWAP2 SWAP1 POP JUMP JUMPDEST PUSH1 0x0 DUP3 DUP3 SHL SWAP1 POP SWAP3 SWAP2 POP POP JUMP JUMPDEST PUSH1 0x0 PUSH1 0x8 DUP4 MUL PUSH2 0x24F2 PUSH32 0xFFFFFFFFFFFFFFFFFFFFFFFFFFFFFFFFFFFFFFFFFFFFFFFFFFFFFFFFFFFFFFFF DUP3 PUSH2 0x24B5 JUMP JUMPDEST PUSH2 0x24FC DUP7 DUP4 PUSH2 0x24B5 JUMP JUMPDEST SWAP6 POP DUP1 NOT DUP5 AND SWAP4 POP DUP1 DUP7 AND DUP5 OR SWAP3 POP POP POP SWAP4 SWAP3 POP POP POP JUMP JUMPDEST PUSH1 0x0 DUP2 SWAP1 POP SWAP2 SWAP1 POP JUMP JUMPDEST PUSH1 0x0 PUSH2 0x2539 PUSH2 0x2534 PUSH2 0x252F DUP5 PUSH2 0x16C1 JUMP JUMPDEST PUSH2 0x2514 JUMP JUMPDEST PUSH2 0x16C1 JUMP JUMPDEST SWAP1 POP SWAP2 SWAP1 POP JUMP JUMPDEST PUSH1 0x0 DUP2 SWAP1 POP SWAP2 SWAP1 POP JUMP JUMPDEST PUSH2 0x2553 DUP4 PUSH2 0x251E JUMP JUMPDEST PUSH2 0x2567 PUSH2 0x255F DUP3 PUSH2 0x2540 JUMP JUMPDEST DUP5 DUP5 SLOAD PUSH2 0x24C2 JUMP JUMPDEST DUP3 SSTORE POP POP POP POP JUMP JUMPDEST PUSH1 0x0 SWAP1 JUMP JUMPDEST PUSH2 0x257C PUSH2 0x256F JUMP JUMPDEST PUSH2 0x2587 DUP2 DUP5 DUP5 PUSH2 0x254A JUMP JUMPDEST POP POP POP JUMP JUMPDEST JUMPDEST DUP2 DUP2 LT ISZERO PUSH2 0x25AB JUMPI PUSH2 0x25A0 PUSH1 0x0 DUP3 PUSH2 0x2574 JUMP JUMPDEST PUSH1 0x1 DUP2 ADD SWAP1 POP PUSH2 0x258D JUMP JUMPDEST POP POP JUMP JUMPDEST PUSH1 0x1F DUP3 GT ISZERO PUSH2 0x25F0 JUMPI PUSH2 0x25C1 DUP2 PUSH2 0x2490 JUMP JUMPDEST PUSH2 0x25CA DUP5 PUSH2 0x24A5 JUMP JUMPDEST DUP2 ADD PUSH1 0x20 DUP6 LT ISZERO PUSH2 0x25D9 JUMPI DUP2 SWAP1 POP JUMPDEST PUSH2 0x25ED PUSH2 0x25E5 DUP6 PUSH2 0x24A5 JUMP JUMPDEST DUP4 ADD DUP3 PUSH2 0x258C JUMP JUMPDEST POP POP JUMPDEST POP POP POP JUMP JUMPDEST PUSH1 0x0 DUP3 DUP3 SHR SWAP1 POP SWAP3 SWAP2 POP POP JUMP JUMPDEST PUSH1 0x0 PUSH2 0x2613 PUSH1 0x0 NOT DUP5 PUSH1 0x8 MUL PUSH2 0x25F5 JUMP JUMPDEST NOT DUP1 DUP4 AND SWAP2 POP POP SWAP3 SWAP2 POP POP JUMP JUMPDEST PUSH1 0x0 PUSH2 0x262C DUP4 DUP4 PUSH2 0x2602 JUMP JUMPDEST SWAP2 POP DUP3 PUSH1 0x2 MUL DUP3 OR SWAP1 POP SWAP3 SWAP2 POP POP JUMP JUMPDEST PUSH2 0x2645 DUP3 PUSH2 0x16DA JUMP JUMPDEST PUSH8 0xFFFFFFFFFFFFFFFF DUP2 GT ISZERO PUSH2 0x265E JUMPI PUSH2 0x265D PUSH2 0x1C09 JUMP JUMPDEST JUMPDEST PUSH2 0x2668 DUP3 SLOAD PUSH2 0x245F JUMP JUMPDEST PUSH2 0x2673 DUP3 DUP3 DUP6 PUSH2 0x25AF JUMP JUMPDEST PUSH1 0x0 PUSH1 0x20 SWAP1 POP PUSH1 0x1F DUP4 GT PUSH1 0x1 DUP2 EQ PUSH2 0x26A6 JUMPI PUSH1 0x0 DUP5 ISZERO PUSH2 0x2694 JUMPI DUP3 DUP8 ADD MLOAD SWAP1 POP JUMPDEST PUSH2 0x269E DUP6 DUP3 PUSH2 0x2620 JUMP JUMPDEST DUP7 SSTORE POP PUSH2 0x2706 JUMP JUMPDEST PUSH1 0x1F NOT DUP5 AND PUSH2 0x26B4 DUP7 PUSH2 0x2490 JUMP JUMPDEST PUSH1 0x0 JUMPDEST DUP3 DUP2 LT ISZERO PUSH2 0x26DC JUMPI DUP5 DUP10 ADD MLOAD DUP3 SSTORE PUSH1 0x1 DUP3 ADD SWAP2 POP PUSH1 0x20 DUP6 ADD SWAP5 POP PUSH1 0x20 DUP2 ADD SWAP1 POP PUSH2 0x26B7 JUMP JUMPDEST DUP7 DUP4 LT ISZERO PUSH2 0x26F9 JUMPI DUP5 DUP10 ADD MLOAD PUSH2 0x26F5 PUSH1 0x1F DUP10 AND DUP3 PUSH2 0x2602 JUMP JUMPDEST DUP4 SSTORE POP JUMPDEST PUSH1 0x1 PUSH1 0x2 DUP9 MUL ADD DUP9 SSTORE POP POP POP JUMPDEST POP POP POP POP POP POP JUMP JUMPDEST PUSH1 0x0 PUSH1 0x20 DUP3 ADD SWAP1 POP PUSH2 0x2723 PUSH1 0x0 DUP4 ADD DUP5 PUSH2 0x2053 JUMP JUMPDEST SWAP3 SWAP2 POP POP JUMP JUMPDEST PUSH32 0x4E487B7100000000000000000000000000000000000000000000000000000000 PUSH1 0x0 MSTORE PUSH1 0x11 PUSH1 0x4 MSTORE PUSH1 0x24 PUSH1 0x0 REVERT JUMPDEST PUSH1 0x0 PUSH2 0x2763 DUP3 PUSH2 0x16C1 JUMP JUMPDEST SWAP2 POP PUSH32 0xFFFFFFFFFFFFFFFFFFFFFFFFFFFFFFFFFFFFFFFFFFFFFFFFFFFFFFFFFFFFFFFF DUP3 SUB PUSH2 0x2795 JUMPI PUSH2 0x2794 PUSH2 0x2729 JUMP JUMPDEST JUMPDEST PUSH1 0x1 DUP3 ADD SWAP1 POP SWAP2 SWAP1 POP JUMP JUMPDEST PUSH32 0x50617469656E74207265636F7264206E6F742070726573656E74000000000000 PUSH1 0x0 DUP3 ADD MSTORE POP JUMP JUMPDEST PUSH1 0x0 PUSH2 0x27D6 PUSH1 0x1A DUP4 PUSH2 0x2009 JUMP JUMPDEST SWAP2 POP PUSH2 0x27E1 DUP3 PUSH2 0x27A0 JUMP JUMPDEST PUSH1 0x20 DUP3 ADD SWAP1 POP SWAP2 SWAP1 POP JUMP JUMPDEST PUSH1 0x0 PUSH1 0x20 DUP3 ADD SWAP1 POP DUP2 DUP2 SUB PUSH1 0x0 DUP4 ADD MSTORE PUSH2 0x2805 DUP2 PUSH2 0x27C9 JUMP JUMPDEST SWAP1 POP SWAP2 SWAP1 POP JUMP JUMPDEST PUSH1 0x0 DUP2 SWAP1 POP SWAP2 SWAP1 POP JUMP JUMPDEST PUSH1 0x0 PUSH2 0x2829 PUSH2 0x2824 DUP4 PUSH2 0x2343 JUMP JUMPDEST PUSH2 0x280C JUMP JUMPDEST SWAP1 POP SWAP2 SWAP1 POP JUMP JUMPDEST PUSH1 0x0 DUP2 SLOAD PUSH2 0x283D DUP2 PUSH2 0x245F JUMP JUMPDEST PUSH2 0x2847 DUP2 DUP7 PUSH2 0x16E5 JUMP JUMPDEST SWAP5 POP PUSH1 0x1 DUP3 AND PUSH1 0x0 DUP2 EQ PUSH2 0x2862 JUMPI PUSH1 0x1 DUP2 EQ PUSH2 0x2878 JUMPI PUSH2 0x28AB JUMP JUMPDEST PUSH1 0xFF NOT DUP4 AND DUP7 MSTORE DUP2 ISZERO ISZERO PUSH1 0x20 MUL DUP7 ADD SWAP4 POP PUSH2 0x28AB JUMP JUMPDEST PUSH2 0x2881 DUP6 PUSH2 0x2490 JUMP JUMPDEST PUSH1 0x0 JUMPDEST DUP4 DUP2 LT ISZERO PUSH2 0x28A3 JUMPI DUP2 SLOAD DUP2 DUP10 ADD MSTORE PUSH1 0x1 DUP3 ADD SWAP2 POP PUSH1 0x20 DUP2 ADD SWAP1 POP PUSH2 0x2884 JUMP JUMPDEST DUP1 DUP9 ADD SWAP6 POP POP POP JUMPDEST POP POP POP SWAP3 SWAP2 POP POP JUMP JUMPDEST PUSH1 0x0 PUSH20 0xFFFFFFFFFFFFFFFFFFFFFFFFFFFFFFFFFFFFFFFF DUP3 AND SWAP1 POP SWAP2 SWAP1 POP JUMP JUMPDEST PUSH1 0x0 PUSH2 0x28E7 PUSH2 0x28E2 DUP4 PUSH2 0x2343 JUMP JUMPDEST PUSH2 0x28B4 JUMP JUMPDEST SWAP1 POP SWAP2 SWAP1 POP JUMP JUMPDEST PUSH1 0x0 DUP2 SLOAD SWAP1 POP SWAP2 SWAP1 POP JUMP JUMPDEST PUSH1 0x0 DUP2 SWAP1 POP DUP2 PUSH1 0x0 MSTORE PUSH1 0x20 PUSH1 0x0 KECCAK256 SWAP1 POP SWAP2 SWAP1 POP JUMP JUMPDEST PUSH1 0x0 PUSH2 0x291A DUP4 DUP4 PUSH2 0x2830 JUMP JUMPDEST SWAP1 POP SWAP3 SWAP2 POP POP JUMP JUMPDEST PUSH1 0x0 PUSH1 0x1 DUP3 ADD SWAP1 POP SWAP2 SWAP1 POP JUMP JUMPDEST PUSH1 0x0 PUSH2 0x293A DUP3 PUSH2 0x28EE JUMP JUMPDEST PUSH2 0x2944 DUP2 DUP6 PUSH2 0x1784 JUMP JUMPDEST SWAP4 POP DUP4 PUSH1 0x20 DUP3 MUL DUP6 ADD PUSH2 0x2956 DUP6 PUSH2 0x28F9 JUMP JUMPDEST DUP1 PUSH1 0x0 JUMPDEST DUP6 DUP2 LT ISZERO PUSH2 0x2991 JUMPI DUP5 DUP5 SUB DUP10 MSTORE DUP2 PUSH2 0x2972 DUP6 DUP3 PUSH2 0x290E JUMP JUMPDEST SWAP5 POP PUSH2 0x297D DUP4 PUSH2 0x2922 JUMP JUMPDEST SWAP3 POP PUSH1 0x20 DUP11 ADD SWAP10 POP POP PUSH1 0x1 DUP2 ADD SWAP1 POP PUSH2 0x295A JUMP JUMPDEST POP DUP3 SWAP8 POP DUP8 SWAP6 POP POP POP POP POP POP SWAP3 SWAP2 POP POP JUMP JUMPDEST PUSH1 0x0 PUSH1 0xFF DUP3 AND SWAP1 POP SWAP2 SWAP1 POP JUMP JUMPDEST PUSH1 0x0 PUSH2 0x29C3 PUSH2 0x29BE DUP4 PUSH2 0x2343 JUMP JUMPDEST PUSH2 0x29A3 JUMP JUMPDEST SWAP1 POP SWAP2 SWAP1 POP JUMP JUMPDEST PUSH1 0x0 PUSH2 0x180 DUP4 ADD PUSH1 0x0 DUP1 DUP5 ADD SLOAD SWAP1 POP PUSH2 0x29E2 DUP2 PUSH2 0x2816 JUMP JUMPDEST PUSH2 0x29EF PUSH1 0x0 DUP8 ADD DUP3 PUSH2 0x16CB JUMP JUMPDEST POP PUSH1 0x1 DUP5 ADD DUP6 DUP4 SUB PUSH1 0x20 DUP8 ADD MSTORE PUSH2 0x2A06 DUP4 DUP3 PUSH2 0x2830 JUMP JUMPDEST SWAP3 POP POP PUSH1 0x2 DUP5 ADD SLOAD SWAP1 POP PUSH2 0x2A19 DUP2 PUSH2 0x28D4 JUMP JUMPDEST PUSH2 0x2A26 PUSH1 0x40 DUP8 ADD DUP3 PUSH2 0x176A JUMP JUMPDEST POP PUSH1 0x3 DUP5 ADD SLOAD SWAP1 POP PUSH2 0x2A37 DUP2 PUSH2 0x28D4 JUMP JUMPDEST PUSH2 0x2A44 PUSH1 0x60 DUP8 ADD DUP3 PUSH2 0x176A JUMP JUMPDEST POP PUSH1 0x4 DUP5 ADD DUP6 DUP4 SUB PUSH1 0x80 DUP8 ADD MSTORE PUSH2 0x2A5B DUP4 DUP3 PUSH2 0x2830 JUMP JUMPDEST SWAP3 POP POP PUSH1 0x5 DUP5 ADD DUP6 DUP4 SUB PUSH1 0xA0 DUP8 ADD MSTORE PUSH2 0x2A74 DUP4 DUP3 PUSH2 0x2830 JUMP JUMPDEST SWAP3 POP POP PUSH1 0x6 DUP5 ADD DUP6 DUP4 SUB PUSH1 0xC0 DUP8 ADD MSTORE PUSH2 0x2A8D DUP4 DUP3 PUSH2 0x292F JUMP JUMPDEST SWAP3 POP POP PUSH1 0x7 DUP5 ADD SLOAD SWAP1 POP PUSH2 0x2AA0 DUP2 PUSH2 0x2816 JUMP JUMPDEST PUSH2 0x2AAD PUSH1 0xE0 DUP8 ADD DUP3 PUSH2 0x16CB JUMP JUMPDEST POP PUSH1 0x8 DUP5 ADD DUP6 DUP4 SUB PUSH2 0x100 DUP8 ADD MSTORE PUSH2 0x2AC5 DUP4 DUP3 PUSH2 0x2830 JUMP JUMPDEST SWAP3 POP POP PUSH1 0x9 DUP5 ADD DUP6 DUP4 SUB PUSH2 0x120 DUP8 ADD MSTORE PUSH2 0x2ADF DUP4 DUP3 PUSH2 0x2830 JUMP JUMPDEST SWAP3 POP POP PUSH1 0xA DUP5 ADD SLOAD SWAP1 POP PUSH2 0x2AF2 DUP2 PUSH2 0x2816 JUMP JUMPDEST PUSH2 0x2B00 PUSH2 0x140 DUP8 ADD DUP3 PUSH2 0x16CB JUMP JUMPDEST POP PUSH1 0xB DUP5 ADD SLOAD SWAP1 POP PUSH2 0x2B11 DUP2 PUSH2 0x29B0 JUMP JUMPDEST PUSH2 0x2B1F PUSH2 0x160 DUP8 ADD DUP3 PUSH2 0x1847 JUMP JUMPDEST POP DUP2 SWAP3 POP POP POP SWAP3 SWAP2 POP POP JUMP JUMPDEST PUSH1 0x0 PUSH1 0x20 DUP3 ADD SWAP1 POP DUP2 DUP2 SUB PUSH1 0x0 DUP4 ADD MSTORE PUSH2 0x2B45 DUP2 DUP5 PUSH2 0x29CA JUMP JUMPDEST SWAP1 POP SWAP3 SWAP2 POP POP JUMP INVALID LOG2 PUSH5 0x6970667358 0x22 SLT KECCAK256 0xB4 INVALID MLOAD CALLCODE PC PUSH6 0x117A83CFB2C6 0xE3 0xEB PUSH17 0x997EEB428A815600AA1216CBDB83F4B00C PUSH5 0x736F6C6343 STOP ADDMOD XOR STOP CALLER "
        },
        "methodIdentifiers": {
          "addPatientRecord(string,string,string,string,string,string[],uint256,address)": "8e37f9ca",
          "addRecordFiles(string,address,uint256)": "cec5bb24",
          "getAllRecordsByHospital()": "b43fabb9",
          "getPatientRecords(address)": "18bd4847",
          "getRecordById(uint256)": "e75b8b23",
          "hospitalAddrToRecordId(address,uint256)": "531a78b3",
          "insurancePolicies(address,uint256)": "30e94624",
          "patientAddrToRecordId(address,uint256)": "636abb1f",
          "patientRecords(uint256)": "d3d188a1",
          "recordIndex()": "6b726805",
          "updateClaimStatus(uint256)": "31fcbf59"
        }
      }
    }
  }
}