{
  "_format": "hh-sol-artifact-1",
  "contractName": "ClaimsContract",
  "sourceName": "contracts/ClaimsContract.sol",
  "abi": [
    {
      "inputs": [
        {
          "internalType": "address",
          "name": "_policyContractAddr",
          "type": "address"
        },
        {
          "internalType": "address",
          "name": "_medicalRecordAddr",
          "type": "address"
        }
      ],
      "stateMutability": "nonpayable",
      "type": "constructor"
    },
    {
      "anonymous": false,
      "inputs": [
        {
          "indexed": true,
          "internalType": "bytes32",
          "name": "claimId",
          "type": "bytes32"
        },
        {
          "indexed": false,
          "internalType": "uint256",
          "name": "amount",
          "type": "uint256"
        }
      ],
      "name": "ClaimApproved",
      "type": "event"
    },
    {
      "anonymous": false,
      "inputs": [
        {
          "indexed": true,
          "internalType": "bytes32",
          "name": "claimId",
          "type": "bytes32"
        },
        {
          "indexed": false,
          "internalType": "uint256",
          "name": "recordId",
          "type": "uint256"
        }
      ],
      "name": "ClaimPaid",
      "type": "event"
    },
    {
      "anonymous": false,
      "inputs": [
        {
          "indexed": true,
          "internalType": "bytes32",
          "name": "claimId",
          "type": "bytes32"
        },
        {
          "indexed": true,
          "internalType": "address",
          "name": "holder",
          "type": "address"
        },
        {
          "indexed": false,
          "internalType": "bytes32",
          "name": "policyId",
          "type": "bytes32"
        },
        {
          "indexed": false,
          "internalType": "uint256",
          "name": "amount",
          "type": "uint256"
        }
      ],
      "name": "ClaimSubmitted",
      "type": "event"
    },
    {
      "anonymous": false,
      "inputs": [
        {
          "components": [
            {
              "internalType": "bytes32",
              "name": "_id",
              "type": "bytes32"
            },
            {
              "internalType": "address",
              "name": "holder",
              "type": "address"
            },
            {
              "internalType": "address",
              "name": "insurerAddr",
              "type": "address"
            },
            {
              "internalType": "string",
              "name": "typeOfTreatment",
              "type": "string"
            },
            {
              "internalType": "bytes32",
              "name": "policyId",
              "type": "bytes32"
            },
            {
              "internalType": "uint256",
              "name": "recordId",
              "type": "uint256"
            },
            {
              "internalType": "uint256",
              "name": "amount",
              "type": "uint256"
            },
            {
              "internalType": "uint256",
              "name": "date",
              "type": "uint256"
            },
            {
              "internalType": "bool",
              "name": "isApproved",
              "type": "bool"
            },
            {
              "internalType": "bool",
              "name": "isRejected",
              "type": "bool"
            },
            {
              "internalType": "bool",
              "name": "isPaid",
              "type": "bool"
            }
          ],
          "indexed": false,
          "internalType": "struct ClaimsContract.Claim[]",
          "name": "insurerClaims",
          "type": "tuple[]"
        }
      ],
      "name": "ReturnInsurerClaims",
      "type": "event"
    },
    {
      "anonymous": false,
      "inputs": [
        {
          "components": [
            {
              "internalType": "bytes32",
              "name": "_id",
              "type": "bytes32"
            },
            {
              "internalType": "address",
              "name": "holder",
              "type": "address"
            },
            {
              "internalType": "address",
              "name": "insurerAddr",
              "type": "address"
            },
            {
              "internalType": "string",
              "name": "typeOfTreatment",
              "type": "string"
            },
            {
              "internalType": "bytes32",
              "name": "policyId",
              "type": "bytes32"
            },
            {
              "internalType": "uint256",
              "name": "recordId",
              "type": "uint256"
            },
            {
              "internalType": "uint256",
              "name": "amount",
              "type": "uint256"
            },
            {
              "internalType": "uint256",
              "name": "date",
              "type": "uint256"
            },
            {
              "internalType": "bool",
              "name": "isApproved",
              "type": "bool"
            },
            {
              "internalType": "bool",
              "name": "isRejected",
              "type": "bool"
            },
            {
              "internalType": "bool",
              "name": "isPaid",
              "type": "bool"
            }
          ],
          "indexed": false,
          "internalType": "struct ClaimsContract.Claim[]",
          "name": "userClaims",
          "type": "tuple[]"
        }
      ],
      "name": "ReturnUserClaims",
      "type": "event"
    },
    {
      "inputs": [],
      "name": "MContract",
      "outputs": [
        {
          "internalType": "contract MedicalRecordInterface",
          "name": "",
          "type": "address"
        }
      ],
      "stateMutability": "view",
      "type": "function"
    },
    {
      "inputs": [],
      "name": "PContract",
      "outputs": [
        {
          "internalType": "contract PolicyContractInterFace",
          "name": "",
          "type": "address"
        }
      ],
      "stateMutability": "view",
      "type": "function"
    },
    {
      "inputs": [
        {
          "internalType": "bytes32",
          "name": "",
          "type": "bytes32"
        }
      ],
      "name": "claims",
      "outputs": [
        {
          "internalType": "bytes32",
          "name": "_id",
          "type": "bytes32"
        },
        {
          "internalType": "address",
          "name": "holder",
          "type": "address"
        },
        {
          "internalType": "address",
          "name": "insurerAddr",
          "type": "address"
        },
        {
          "internalType": "string",
          "name": "typeOfTreatment",
          "type": "string"
        },
        {
          "internalType": "bytes32",
          "name": "policyId",
          "type": "bytes32"
        },
        {
          "internalType": "uint256",
          "name": "recordId",
          "type": "uint256"
        },
        {
          "internalType": "uint256",
          "name": "amount",
          "type": "uint256"
        },
        {
          "internalType": "uint256",
          "name": "date",
          "type": "uint256"
        },
        {
          "internalType": "bool",
          "name": "isApproved",
          "type": "bool"
        },
        {
          "internalType": "bool",
          "name": "isRejected",
          "type": "bool"
        },
        {
          "internalType": "bool",
          "name": "isPaid",
          "type": "bool"
        }
      ],
      "stateMutability": "view",
      "type": "function"
    },
    {
      "inputs": [
        {
          "internalType": "bytes32",
          "name": "_claimId",
          "type": "bytes32"
        }
      ],
      "name": "getClaim",
      "outputs": [
        {
          "components": [
            {
              "internalType": "bytes32",
              "name": "_id",
              "type": "bytes32"
            },
            {
              "internalType": "address",
              "name": "holder",
              "type": "address"
            },
            {
              "internalType": "address",
              "name": "insurerAddr",
              "type": "address"
            },
            {
              "internalType": "string",
              "name": "typeOfTreatment",
              "type": "string"
            },
            {
              "internalType": "bytes32",
              "name": "policyId",
              "type": "bytes32"
            },
            {
              "internalType": "uint256",
              "name": "recordId",
              "type": "uint256"
            },
            {
              "internalType": "uint256",
              "name": "amount",
              "type": "uint256"
            },
            {
              "internalType": "uint256",
              "name": "date",
              "type": "uint256"
            },
            {
              "internalType": "bool",
              "name": "isApproved",
              "type": "bool"
            },
            {
              "internalType": "bool",
              "name": "isRejected",
              "type": "bool"
            },
            {
              "internalType": "bool",
              "name": "isPaid",
              "type": "bool"
            }
          ],
          "internalType": "struct ClaimsContract.Claim",
          "name": "userClaim",
          "type": "tuple"
        }
      ],
      "stateMutability": "view",
      "type": "function"
    },
    {
      "inputs": [
        {
          "internalType": "address",
          "name": "_insurerAddr",
          "type": "address"
        }
      ],
      "name": "getInsurerClaims",
      "outputs": [
        {
          "components": [
            {
              "internalType": "bytes32",
              "name": "_id",
              "type": "bytes32"
            },
            {
              "internalType": "address",
              "name": "holder",
              "type": "address"
            },
            {
              "internalType": "address",
              "name": "insurerAddr",
              "type": "address"
            },
            {
              "internalType": "string",
              "name": "typeOfTreatment",
              "type": "string"
            },
            {
              "internalType": "bytes32",
              "name": "policyId",
              "type": "bytes32"
            },
            {
              "internalType": "uint256",
              "name": "recordId",
              "type": "uint256"
            },
            {
              "internalType": "uint256",
              "name": "amount",
              "type": "uint256"
            },
            {
              "internalType": "uint256",
              "name": "date",
              "type": "uint256"
            },
            {
              "internalType": "bool",
              "name": "isApproved",
              "type": "bool"
            },
            {
              "internalType": "bool",
              "name": "isRejected",
              "type": "bool"
            },
            {
              "internalType": "bool",
              "name": "isPaid",
              "type": "bool"
            }
          ],
          "internalType": "struct ClaimsContract.Claim[]",
          "name": "InsurerClaims",
          "type": "tuple[]"
        }
      ],
      "stateMutability": "nonpayable",
      "type": "function"
    },
    {
      "inputs": [
        {
          "internalType": "address",
          "name": "_userAddr",
          "type": "address"
        }
      ],
      "name": "getUserClaims",
      "outputs": [
        {
          "components": [
            {
              "internalType": "bytes32",
              "name": "_id",
              "type": "bytes32"
            },
            {
              "internalType": "address",
              "name": "holder",
              "type": "address"
            },
            {
              "internalType": "address",
              "name": "insurerAddr",
              "type": "address"
            },
            {
              "internalType": "string",
              "name": "typeOfTreatment",
              "type": "string"
            },
            {
              "internalType": "bytes32",
              "name": "policyId",
              "type": "bytes32"
            },
            {
              "internalType": "uint256",
              "name": "recordId",
              "type": "uint256"
            },
            {
              "internalType": "uint256",
              "name": "amount",
              "type": "uint256"
            },
            {
              "internalType": "uint256",
              "name": "date",
              "type": "uint256"
            },
            {
              "internalType": "bool",
              "name": "isApproved",
              "type": "bool"
            },
            {
              "internalType": "bool",
              "name": "isRejected",
              "type": "bool"
            },
            {
              "internalType": "bool",
              "name": "isPaid",
              "type": "bool"
            }
          ],
          "internalType": "struct ClaimsContract.Claim[]",
          "name": "UserClaims",
          "type": "tuple[]"
        }
      ],
      "stateMutability": "nonpayable",
      "type": "function"
    },
    {
      "inputs": [
        {
          "internalType": "address",
          "name": "",
          "type": "address"
        },
        {
          "internalType": "uint256",
          "name": "",
          "type": "uint256"
        }
      ],
      "name": "insurerClaims",
      "outputs": [
        {
          "internalType": "bytes32",
          "name": "",
          "type": "bytes32"
        }
      ],
      "stateMutability": "view",
      "type": "function"
    },
    {
      "inputs": [
        {
          "internalType": "bytes32",
          "name": "_claimId",
          "type": "bytes32"
        }
      ],
      "name": "payClaim",
      "outputs": [],
      "stateMutability": "nonpayable",
      "type": "function"
    },
    {
      "inputs": [
        {
          "internalType": "bytes32",
          "name": "_claimId",
          "type": "bytes32"
        }
      ],
      "name": "processClaim",
      "outputs": [],
      "stateMutability": "nonpayable",
      "type": "function"
    },
    {
      "inputs": [
        {
          "internalType": "address",
          "name": "_insurerAddr",
          "type": "address"
        },
        {
          "internalType": "bytes32",
          "name": "_policyId",
          "type": "bytes32"
        },
        {
          "internalType": "uint256",
          "name": "_recordId",
          "type": "uint256"
        },
        {
          "internalType": "uint256",
          "name": "_amount",
          "type": "uint256"
        },
        {
          "internalType": "string",
          "name": "_typeOfTreatment",
          "type": "string"
        }
      ],
      "name": "submitClaim",
      "outputs": [],
      "stateMutability": "nonpayable",
      "type": "function"
    },
    {
      "inputs": [
        {
          "internalType": "address",
          "name": "",
          "type": "address"
        },
        {
          "internalType": "uint256",
          "name": "",
          "type": "uint256"
        }
      ],
      "name": "userClaims",
      "outputs": [
        {
          "internalType": "bytes32",
          "name": "",
          "type": "bytes32"
        }
      ],
      "stateMutability": "view",
      "type": "function"
    }
  ],
  "bytecode": "0x60806040523480156200001157600080fd5b50604051620031733803806200317383398181016040528101906200003791906200012b565b81600360006101000a81548173ffffffffffffffffffffffffffffffffffffffff021916908373ffffffffffffffffffffffffffffffffffffffff16021790555080600460006101000a81548173ffffffffffffffffffffffffffffffffffffffff021916908373ffffffffffffffffffffffffffffffffffffffff160217905550505062000172565b600080fd5b600073ffffffffffffffffffffffffffffffffffffffff82169050919050565b6000620000f382620000c6565b9050919050565b6200010581620000e6565b81146200011157600080fd5b50565b6000815190506200012581620000fa565b92915050565b60008060408385031215620001455762000144620000c1565b5b6000620001558582860162000114565b9250506020620001688582860162000114565b9150509250929050565b612ff180620001826000396000f3fe608060405234801561001057600080fd5b50600436106100a95760003560e01c8063b5a3848011610071578063b5a3848014610166578063c9100bcb14610182578063ca9748ea146101b2578063cd10b92e146101e2578063def4f13d14610212578063eff0f5921461022e576100a9565b806318d9ba00146100ae57806320c8bb4b146100ca5780632b84b64b146100fa5780635958c399146101185780637bcb4a6414610136575b600080fd5b6100c860048036038101906100c391906116d3565b610268565b005b6100e460048036038101906100df9190611794565b6104fa565b6040516100f191906117e3565b60405180910390f35b61010261052b565b60405161010f919061185d565b60405180910390f35b610120610551565b60405161012d9190611899565b60405180910390f35b610150600480360381019061014b91906118b4565b610577565b60405161015d9190611b6a565b60405180910390f35b610180600480360381019061017b91906116d3565b610785565b005b61019c600480360381019061019791906116d3565b610c71565b6040516101a99190611c7b565b60405180910390f35b6101cc60048036038101906101c79190611794565b610f09565b6040516101d991906117e3565b60405180910390f35b6101fc60048036038101906101f791906118b4565b610f3a565b6040516102099190611b6a565b60405180910390f35b61022c60048036038101906102279190611dd2565b611148565b005b610248600480360381019061024391906116d3565b6114ae565b60405161025f9b9a99989796959493929190611ee0565b60405180910390f35b60008082815260200190815260200160002060020160009054906101000a900473ffffffffffffffffffffffffffffffffffffffff1673ffffffffffffffffffffffffffffffffffffffff163373ffffffffffffffffffffffffffffffffffffffff161461030b576040517f08c379a000000000000000000000000000000000000000000000000000000000815260040161030290611fde565b60405180910390fd5b60008082815260200190815260200160002060080160009054906101000a900460ff1661036d576040517f08c379a00000000000000000000000000000000000000000000000000000000081526004016103649061204a565b60405180910390fd5b60008082815260200190815260200160002060080160029054906101000a900460ff16156103d0576040517f08c379a00000000000000000000000000000000000000000000000000000000081526004016103c7906120b6565b60405180910390fd5b600160008083815260200190815260200160002060080160026101000a81548160ff0219169083151502179055506000600460009054906101000a900473ffffffffffffffffffffffffffffffffffffffff1673ffffffffffffffffffffffffffffffffffffffff1663e75b8b23600080858152602001908152602001600020600501546040518263ffffffff1660e01b815260040161047091906120d6565b6000604051808303816000875af115801561048f573d6000803e3d6000fd5b505050506040513d6000823e3d601f19601f820116820180604052508101906104b891906124a3565b9050817fd5f55ff5d4fb61f42bbcd23202076cc1c7840f2d2813ee48a5f6523d40cba7ef82600001516040516104ee91906120d6565b60405180910390a25050565b6002602052816000526040600020818154811061051657600080fd5b90600052602060002001600091509150505481565b600360009054906101000a900473ffffffffffffffffffffffffffffffffffffffff1681565b600460009054906101000a900473ffffffffffffffffffffffffffffffffffffffff1681565b60606000600160008473ffffffffffffffffffffffffffffffffffffffff1673ffffffffffffffffffffffffffffffffffffffff16815260200190815260200160002080549050116105fe576040517f08c379a00000000000000000000000000000000000000000000000000000000081526004016105f590612538565b60405180910390fd5b6000600160008473ffffffffffffffffffffffffffffffffffffffff1673ffffffffffffffffffffffffffffffffffffffff16815260200190815260200160002080548060200260200160405190810160405280929190818152602001828054801561068957602002820191906000526020600020905b815481526020019060010190808311610675575b505050505090506000815167ffffffffffffffff8111156106ad576106ac611ca7565b5b6040519080825280602002602001820160405280156106e657816020015b6106d36115f7565b8152602001906001900390816106cb5790505b50905060005b82518110156107435761071883828151811061070b5761070a612558565b5b6020026020010151610c71565b82828151811061072b5761072a612558565b5b602002602001018190525080806001019150506106ec565b507fe43277bcc1c5414dd7030e7f91625ec328b52a10816b62730469a62ba8af94ba816040516107739190611b6a565b60405180910390a18092505050919050565b60008082815260200190815260200160002060020160009054906101000a900473ffffffffffffffffffffffffffffffffffffffff1673ffffffffffffffffffffffffffffffffffffffff163373ffffffffffffffffffffffffffffffffffffffff1614610828576040517f08c379a000000000000000000000000000000000000000000000000000000000815260040161081f90611fde565b60405180910390fd5b60008082815260200190815260200160002060080160009054906101000a900460ff161561088b576040517f08c379a0000000000000000000000000000000000000000000000000000000008152600401610882906125d3565b60405180910390fd5b60008082815260200190815260200160002060080160019054906101000a900460ff16156108ee576040517f08c379a00000000000000000000000000000000000000000000000000000000081526004016108e59061263f565b60405180910390fd5b6000600360009054906101000a900473ffffffffffffffffffffffffffffffffffffffff1673ffffffffffffffffffffffffffffffffffffffff1663a3f685f9600080858152602001908152602001600020600401546040518263ffffffff1660e01b815260040161096091906117e3565b600060405180830381865afa15801561097d573d6000803e3d6000fd5b505050506040513d6000823e3d601f19601f820116820180604052508101906109a691906127a2565b90506000600460009054906101000a900473ffffffffffffffffffffffffffffffffffffffff1673ffffffffffffffffffffffffffffffffffffffff1663e75b8b23600080868152602001908152602001600020600501546040518263ffffffff1660e01b8152600401610a1a91906120d6565b6000604051808303816000875af1158015610a39573d6000803e3d6000fd5b505050506040513d6000823e3d601f19601f82011682018060405250810190610a6291906124a3565b90508160c00151610aa8576040517f08c379a0000000000000000000000000000000000000000000000000000000008152600401610a9f90612837565b60405180910390fd5b8160e00151600080858152602001908152602001600020600601541115610b04576040517f08c379a0000000000000000000000000000000000000000000000000000000008152600401610afb906128a3565b60405180910390fd5b816101200151604051602001610b1a91906128ff565b60405160208183030381529060405280519060200120600080858152602001908152602001600020600301604051602001610b559190612a0e565b6040516020818303038152906040528051906020012014610bab576040517f08c379a0000000000000000000000000000000000000000000000000000000008152600401610ba290612a97565b60405180910390fd5b80610180015115610bf1576040517f08c379a0000000000000000000000000000000000000000000000000000000008152600401610be890612b03565b60405180910390fd5b600160008085815260200190815260200160002060080160006101000a81548160ff021916908315150217905550827f18ecd6d8c2fbfbfadaa27444d213869784ae2265484a2d9e31f15a909096e03e60008086815260200190815260200160002060060154604051610c6491906120d6565b60405180910390a2505050565b610c796115f7565b600073ffffffffffffffffffffffffffffffffffffffff1660008084815260200190815260200160002060010160009054906101000a900473ffffffffffffffffffffffffffffffffffffffff1673ffffffffffffffffffffffffffffffffffffffff1603610d1d576040517f08c379a0000000000000000000000000000000000000000000000000000000008152600401610d1490612b6f565b60405180910390fd5b600080600084815260200190815260200160002090508060405180610160016040529081600082015481526020016001820160009054906101000a900473ffffffffffffffffffffffffffffffffffffffff1673ffffffffffffffffffffffffffffffffffffffff1673ffffffffffffffffffffffffffffffffffffffff1681526020016002820160009054906101000a900473ffffffffffffffffffffffffffffffffffffffff1673ffffffffffffffffffffffffffffffffffffffff1673ffffffffffffffffffffffffffffffffffffffff168152602001600382018054610e0690612945565b80601f0160208091040260200160405190810160405280929190818152602001828054610e3290612945565b8015610e7f5780601f10610e5457610100808354040283529160200191610e7f565b820191906000526020600020905b815481529060010190602001808311610e6257829003601f168201915b50505050508152602001600482015481526020016005820154815260200160068201548152602001600782015481526020016008820160009054906101000a900460ff161515151581526020016008820160019054906101000a900460ff161515151581526020016008820160029054906101000a900460ff161515151581525050915050919050565b60016020528160005260406000208181548110610f2557600080fd5b90600052602060002001600091509150505481565b60606000600260008473ffffffffffffffffffffffffffffffffffffffff1673ffffffffffffffffffffffffffffffffffffffff1681526020019081526020016000208054905011610fc1576040517f08c379a0000000000000000000000000000000000000000000000000000000008152600401610fb890612bdb565b60405180910390fd5b6000600260008473ffffffffffffffffffffffffffffffffffffffff1673ffffffffffffffffffffffffffffffffffffffff16815260200190815260200160002080548060200260200160405190810160405280929190818152602001828054801561104c57602002820191906000526020600020905b815481526020019060010190808311611038575b505050505090506000815167ffffffffffffffff8111156110705761106f611ca7565b5b6040519080825280602002602001820160405280156110a957816020015b6110966115f7565b81526020019060019003908161108e5790505b50905060005b8251811015611106576110db8382815181106110ce576110cd612558565b5b6020026020010151610c71565b8282815181106110ee576110ed612558565b5b602002602001018190525080806001019150506110af565b507f916a90d03cde2ab261437c6ece843d0faad47e9af18a80cb3729df63901a0a0a816040516111369190611b6a565b60405180910390a18092505050919050565b6000821161118b576040517f08c379a000000000000000000000000000000000000000000000000000000000815260040161118290612c6d565b60405180910390fd5b60003342446040516020016111a293929190612cf6565b6040516020818303038152906040528051906020012090506040518061016001604052808281526020013373ffffffffffffffffffffffffffffffffffffffff1681526020018773ffffffffffffffffffffffffffffffffffffffff168152602001838152602001868152602001858152602001848152602001428152602001600015158152602001600015158152602001600015158152506000808381526020019081526020016000206000820151816000015560208201518160010160006101000a81548173ffffffffffffffffffffffffffffffffffffffff021916908373ffffffffffffffffffffffffffffffffffffffff16021790555060408201518160020160006101000a81548173ffffffffffffffffffffffffffffffffffffffff021916908373ffffffffffffffffffffffffffffffffffffffff16021790555060608201518160030190816112fa9190612ec0565b506080820151816004015560a0820151816005015560c0820151816006015560e082015181600701556101008201518160080160006101000a81548160ff0219169083151502179055506101208201518160080160016101000a81548160ff0219169083151502179055506101408201518160080160026101000a81548160ff021916908315150217905550905050600160003373ffffffffffffffffffffffffffffffffffffffff1673ffffffffffffffffffffffffffffffffffffffff168152602001908152602001600020819080600181540180825580915050600190039060005260206000200160009091909190915055600260008773ffffffffffffffffffffffffffffffffffffffff1673ffffffffffffffffffffffffffffffffffffffff1681526020019081526020016000208190806001815401808255809150506001900390600052602060002001600090919091909150553373ffffffffffffffffffffffffffffffffffffffff16817f58e1e88c287270014b1b34c220c54d8e5feb69259793da509a6ffcf1e4face62878660405161149e929190612f92565b60405180910390a3505050505050565b60006020528060005260406000206000915090508060000154908060010160009054906101000a900473ffffffffffffffffffffffffffffffffffffffff16908060020160009054906101000a900473ffffffffffffffffffffffffffffffffffffffff169080600301805461152390612945565b80601f016020809104026020016040519081016040528092919081815260200182805461154f90612945565b801561159c5780601f106115715761010080835404028352916020019161159c565b820191906000526020600020905b81548152906001019060200180831161157f57829003601f168201915b5050505050908060040154908060050154908060060154908060070154908060080160009054906101000a900460ff16908060080160019054906101000a900460ff16908060080160029054906101000a900460ff1690508b565b60405180610160016040528060008019168152602001600073ffffffffffffffffffffffffffffffffffffffff168152602001600073ffffffffffffffffffffffffffffffffffffffff16815260200160608152602001600080191681526020016000815260200160008152602001600081526020016000151581526020016000151581526020016000151581525090565b6000604051905090565b600080fd5b600080fd5b6000819050919050565b6116b08161169d565b81146116bb57600080fd5b50565b6000813590506116cd816116a7565b92915050565b6000602082840312156116e9576116e8611693565b5b60006116f7848285016116be565b91505092915050565b600073ffffffffffffffffffffffffffffffffffffffff82169050919050565b600061172b82611700565b9050919050565b61173b81611720565b811461174657600080fd5b50565b60008135905061175881611732565b92915050565b6000819050919050565b6117718161175e565b811461177c57600080fd5b50565b60008135905061178e81611768565b92915050565b600080604083850312156117ab576117aa611693565b5b60006117b985828601611749565b92505060206117ca8582860161177f565b9150509250929050565b6117dd8161169d565b82525050565b60006020820190506117f860008301846117d4565b92915050565b6000819050919050565b600061182361181e61181984611700565b6117fe565b611700565b9050919050565b600061183582611808565b9050919050565b60006118478261182a565b9050919050565b6118578161183c565b82525050565b6000602082019050611872600083018461184e565b92915050565b60006118838261182a565b9050919050565b61189381611878565b82525050565b60006020820190506118ae600083018461188a565b92915050565b6000602082840312156118ca576118c9611693565b5b60006118d884828501611749565b91505092915050565b600081519050919050565b600082825260208201905092915050565b6000819050602082019050919050565b6119168161169d565b82525050565b61192581611720565b82525050565b600081519050919050565b600082825260208201905092915050565b60005b8381101561196557808201518184015260208101905061194a565b60008484015250505050565b6000601f19601f8301169050919050565b600061198d8261192b565b6119978185611936565b93506119a7818560208601611947565b6119b081611971565b840191505092915050565b6119c48161175e565b82525050565b60008115159050919050565b6119df816119ca565b82525050565b6000610160830160008301516119fe600086018261190d565b506020830151611a11602086018261191c565b506040830151611a24604086018261191c565b5060608301518482036060860152611a3c8282611982565b9150506080830151611a51608086018261190d565b5060a0830151611a6460a08601826119bb565b5060c0830151611a7760c08601826119bb565b5060e0830151611a8a60e08601826119bb565b50610100830151611a9f6101008601826119d6565b50610120830151611ab46101208601826119d6565b50610140830151611ac96101408601826119d6565b508091505092915050565b6000611ae083836119e5565b905092915050565b6000602082019050919050565b6000611b00826118e1565b611b0a81856118ec565b935083602082028501611b1c856118fd565b8060005b85811015611b585784840389528151611b398582611ad4565b9450611b4483611ae8565b925060208a01995050600181019050611b20565b50829750879550505050505092915050565b60006020820190508181036000830152611b848184611af5565b905092915050565b600061016083016000830151611ba5600086018261190d565b506020830151611bb8602086018261191c565b506040830151611bcb604086018261191c565b5060608301518482036060860152611be38282611982565b9150506080830151611bf8608086018261190d565b5060a0830151611c0b60a08601826119bb565b5060c0830151611c1e60c08601826119bb565b5060e0830151611c3160e08601826119bb565b50610100830151611c466101008601826119d6565b50610120830151611c5b6101208601826119d6565b50610140830151611c706101408601826119d6565b508091505092915050565b60006020820190508181036000830152611c958184611b8c565b905092915050565b600080fd5b600080fd5b7f4e487b7100000000000000000000000000000000000000000000000000000000600052604160045260246000fd5b611cdf82611971565b810181811067ffffffffffffffff82111715611cfe57611cfd611ca7565b5b80604052505050565b6000611d11611689565b9050611d1d8282611cd6565b919050565b600067ffffffffffffffff821115611d3d57611d3c611ca7565b5b611d4682611971565b9050602081019050919050565b82818337600083830152505050565b6000611d75611d7084611d22565b611d07565b905082815260208101848484011115611d9157611d90611ca2565b5b611d9c848285611d53565b509392505050565b600082601f830112611db957611db8611c9d565b5b8135611dc9848260208601611d62565b91505092915050565b600080600080600060a08688031215611dee57611ded611693565b5b6000611dfc88828901611749565b9550506020611e0d888289016116be565b9450506040611e1e8882890161177f565b9350506060611e2f8882890161177f565b925050608086013567ffffffffffffffff811115611e5057611e4f611698565b5b611e5c88828901611da4565b9150509295509295909350565b611e7281611720565b82525050565b600082825260208201905092915050565b6000611e948261192b565b611e9e8185611e78565b9350611eae818560208601611947565b611eb781611971565b840191505092915050565b611ecb8161175e565b82525050565b611eda816119ca565b82525050565b600061016082019050611ef6600083018e6117d4565b611f03602083018d611e69565b611f10604083018c611e69565b8181036060830152611f22818b611e89565b9050611f31608083018a6117d4565b611f3e60a0830189611ec2565b611f4b60c0830188611ec2565b611f5860e0830187611ec2565b611f66610100830186611ed1565b611f74610120830185611ed1565b611f82610140830184611ed1565b9c9b505050505050505050505050565b7f556e617574686f72697a65642061636365737300000000000000000000000000600082015250565b6000611fc8601383611e78565b9150611fd382611f92565b602082019050919050565b60006020820190508181036000830152611ff781611fbb565b9050919050565b7f436c61696d206973206e6f7420617070726f7665642079657400000000000000600082015250565b6000612034601983611e78565b915061203f82611ffe565b602082019050919050565b6000602082019050818103600083015261206381612027565b9050919050565b7f436c61696d20697320616c726561647920706169640000000000000000000000600082015250565b60006120a0601583611e78565b91506120ab8261206a565b602082019050919050565b600060208201905081810360008301526120cf81612093565b9050919050565b60006020820190506120eb6000830184611ec2565b92915050565b600080fd5b600080fd5b60008151905061210a81611768565b92915050565b600061212361211e84611d22565b611d07565b90508281526020810184848401111561213f5761213e611ca2565b5b61214a848285611947565b509392505050565b600082601f83011261216757612166611c9d565b5b8151612177848260208601612110565b91505092915050565b60008151905061218f81611732565b92915050565b600067ffffffffffffffff8211156121b0576121af611ca7565b5b602082029050602081019050919050565b600080fd5b60006121d96121d484612195565b611d07565b905080838252602082019050602084028301858111156121fc576121fb6121c1565b5b835b8181101561224357805167ffffffffffffffff81111561222157612220611c9d565b5b80860161222e8982612152565b855260208501945050506020810190506121fe565b5050509392505050565b600082601f83011261226257612261611c9d565b5b81516122728482602086016121c6565b91505092915050565b612284816119ca565b811461228f57600080fd5b50565b6000815190506122a18161227b565b92915050565b60006101a082840312156122be576122bd6120f1565b5b6122c96101a0611d07565b905060006122d9848285016120fb565b600083015250602082015167ffffffffffffffff8111156122fd576122fc6120f6565b5b61230984828501612152565b602083015250604061231d84828501612180565b604083015250606061233184828501612180565b606083015250608082015167ffffffffffffffff811115612355576123546120f6565b5b61236184828501612152565b60808301525060a082015167ffffffffffffffff811115612385576123846120f6565b5b61239184828501612152565b60a08301525060c082015167ffffffffffffffff8111156123b5576123b46120f6565b5b6123c184828501612152565b60c08301525060e082015167ffffffffffffffff8111156123e5576123e46120f6565b5b6123f184828501612152565b60e08301525061010082015167ffffffffffffffff811115612416576124156120f6565b5b6124228482850161224d565b61010083015250610120612438848285016120fb565b6101208301525061014082015167ffffffffffffffff81111561245e5761245d6120f6565b5b61246a84828501612152565b61014083015250610160612480848285016120fb565b6101608301525061018061249684828501612292565b6101808301525092915050565b6000602082840312156124b9576124b8611693565b5b600082015167ffffffffffffffff8111156124d7576124d6611698565b5b6124e3848285016122a7565b91505092915050565b7f5573657220636c61696d73206e6f742070726573656e74000000000000000000600082015250565b6000612522601783611e78565b915061252d826124ec565b602082019050919050565b6000602082019050818103600083015261255181612515565b9050919050565b7f4e487b7100000000000000000000000000000000000000000000000000000000600052603260045260246000fd5b7f436c61696d20697320616c726561647920617070726f7665642e000000000000600082015250565b60006125bd601a83611e78565b91506125c882612587565b602082019050919050565b600060208201905081810360008301526125ec816125b0565b9050919050565b7f436c61696d20697320616c72656164792072656a656374656400000000000000600082015250565b6000612629601983611e78565b9150612634826125f3565b602082019050919050565b600060208201905081810360008301526126588161261c565b9050919050565b60008151905061266e816116a7565b92915050565b6000610140828403121561268b5761268a6120f1565b5b612696610140611d07565b905060006126a68482850161265f565b60008301525060206126ba84828501612180565b60208301525060406126ce84828501612180565b60408301525060606126e2848285016120fb565b60608301525060806126f6848285016120fb565b60808301525060a061270a848285016120fb565b60a08301525060c061271e84828501612292565b60c08301525060e0612732848285016120fb565b60e08301525061010082015167ffffffffffffffff811115612757576127566120f6565b5b61276384828501612152565b6101008301525061012082015167ffffffffffffffff811115612789576127886120f6565b5b61279584828501612152565b6101208301525092915050565b6000602082840312156127b8576127b7611693565b5b600082015167ffffffffffffffff8111156127d6576127d5611698565b5b6127e284828501612674565b91505092915050565b7f506f6c696379206973206e6f74206163746976652e0000000000000000000000600082015250565b6000612821601583611e78565b915061282c826127eb565b602082019050919050565b6000602082019050818103600083015261285081612814565b9050919050565b7f436c61696d20616d6f756e74206578636565647320636f7665726167652e0000600082015250565b600061288d601e83611e78565b915061289882612857565b602082019050919050565b600060208201905081810360008301526128bc81612880565b9050919050565b600081905092915050565b60006128d98261192b565b6128e381856128c3565b93506128f3818560208601611947565b80840191505092915050565b600061290b82846128ce565b915081905092915050565b7f4e487b7100000000000000000000000000000000000000000000000000000000600052602260045260246000fd5b6000600282049050600182168061295d57607f821691505b6020821081036129705761296f612916565b5b50919050565b60008190508160005260206000209050919050565b6000815461299881612945565b6129a281866128c3565b945060018216600081146129bd57600181146129d257612a05565b60ff1983168652811515820286019350612a05565b6129db85612976565b60005b838110156129fd578154818901526001820191506020810190506129de565b838801955050505b50505092915050565b6000612a1a828461298b565b915081905092915050565b7f54726561746d656e742074797065206e6f7420636f766572656420696e20746860008201527f6520706f6c6963792e0000000000000000000000000000000000000000000000602082015250565b6000612a81602983611e78565b9150612a8c82612a25565b604082019050919050565b60006020820190508181036000830152612ab081612a74565b9050919050565b7f54726561746d656e7420616c726561647920636c61696d65642e000000000000600082015250565b6000612aed601a83611e78565b9150612af882612ab7565b602082019050919050565b60006020820190508181036000830152612b1c81612ae0565b9050919050565b7f436c61696d20646f6573206e6f74206578697374000000000000000000000000600082015250565b6000612b59601483611e78565b9150612b6482612b23565b602082019050919050565b60006020820190508181036000830152612b8881612b4c565b9050919050565b7f496e737572657220636c61696d73206e6f742070726573656e74000000000000600082015250565b6000612bc5601a83611e78565b9150612bd082612b8f565b602082019050919050565b60006020820190508181036000830152612bf481612bb8565b9050919050565b7f436c61696d20616d6f756e742073686f756c642062652067726561746572207460008201527f68616e207a65726f000000000000000000000000000000000000000000000000602082015250565b6000612c57602883611e78565b9150612c6282612bfb565b604082019050919050565b60006020820190508181036000830152612c8681612c4a565b9050919050565b60008160601b9050919050565b6000612ca582612c8d565b9050919050565b6000612cb782612c9a565b9050919050565b612ccf612cca82611720565b612cac565b82525050565b6000819050919050565b612cf0612ceb8261175e565b612cd5565b82525050565b6000612d028286612cbe565b601482019150612d128285612cdf565b602082019150612d228284612cdf565b602082019150819050949350505050565b60006020601f8301049050919050565b600082821b905092915050565b600060088302612d807fffffffffffffffffffffffffffffffffffffffffffffffffffffffffffffffff82612d43565b612d8a8683612d43565b95508019841693508086168417925050509392505050565b6000612dbd612db8612db38461175e565b6117fe565b61175e565b9050919050565b6000819050919050565b612dd783612da2565b612deb612de382612dc4565b848454612d50565b825550505050565b600090565b612e00612df3565b612e0b818484612dce565b505050565b5b81811015612e2f57612e24600082612df8565b600181019050612e11565b5050565b601f821115612e7457612e4581612976565b612e4e84612d33565b81016020851015612e5d578190505b612e71612e6985612d33565b830182612e10565b50505b505050565b600082821c905092915050565b6000612e9760001984600802612e79565b1980831691505092915050565b6000612eb08383612e86565b9150826002028217905092915050565b612ec98261192b565b67ffffffffffffffff811115612ee257612ee1611ca7565b5b612eec8254612945565b612ef7828285612e33565b600060209050601f831160018114612f2a5760008415612f18578287015190505b612f228582612ea4565b865550612f8a565b601f198416612f3886612976565b60005b82811015612f6057848901518255600182019150602085019450602081019050612f3b565b86831015612f7d5784890151612f79601f891682612e86565b8355505b6001600288020188555050505b505050505050565b6000604082019050612fa760008301856117d4565b612fb46020830184611ec2565b939250505056fea2646970667358221220db0da1dbe6330aff87a5cc9cda8a1e494973af3f3fcb2365aee94072621d5bbd64736f6c63430008180033",
  "linkReferences": {},
  "deployedLinkReferences": {}
}