{
  "_format": "hh-sol-artifact-1",
  "contractName": "MedicalRecords",
  "sourceName": "contracts/MedicalRecords.sol",
  "abi": [
    {
      "anonymous": false,
      "inputs": [
        {
          "indexed": true,
          "internalType": "uint256",
          "name": "recordID",
          "type": "uint256"
        },
        {
          "indexed": false,
          "internalType": "address",
          "name": "patientAddr",
          "type": "address"
        }
      ],
      "name": "RecordCreated",
      "type": "event"
    },
    {
      "anonymous": false,
      "inputs": [
        {
          "components": [
            {
              "internalType": "uint256",
              "name": "_id",
              "type": "uint256"
            },
            {
              "internalType": "string",
              "name": "name",
              "type": "string"
            },
            {
              "internalType": "address",
              "name": "addr",
              "type": "address"
            },
            {
              "internalType": "address",
              "name": "hospitalAddr",
              "type": "address"
            },
            {
              "internalType": "string",
              "name": "aadhaarNo",
              "type": "string"
            },
            {
              "internalType": "string",
              "name": "phoneNo",
              "type": "string"
            },
            {
              "internalType": "string",
              "name": "bloodGroup",
              "type": "string"
            },
            {
              "internalType": "string",
              "name": "email",
              "type": "string"
            },
            {
              "internalType": "string[]",
              "name": "medicalRecords",
              "type": "string[]"
            },
            {
              "internalType": "uint256",
              "name": "date",
              "type": "uint256"
            },
            {
              "internalType": "string",
              "name": "diagnosis",
              "type": "string"
            },
            {
              "internalType": "uint256",
              "name": "billAmount",
              "type": "uint256"
            },
            {
              "internalType": "bool",
              "name": "isClaimed",
              "type": "bool"
            }
          ],
          "indexed": false,
          "internalType": "struct MedicalRecords.PatientRecord[]",
          "name": "patientRecord",
          "type": "tuple[]"
        }
      ],
      "name": "ReturnHospitalRecords",
      "type": "event"
    },
    {
      "anonymous": false,
      "inputs": [
        {
          "components": [
            {
              "internalType": "uint256",
              "name": "_id",
              "type": "uint256"
            },
            {
              "internalType": "string",
              "name": "name",
              "type": "string"
            },
            {
              "internalType": "address",
              "name": "addr",
              "type": "address"
            },
            {
              "internalType": "address",
              "name": "hospitalAddr",
              "type": "address"
            },
            {
              "internalType": "string",
              "name": "aadhaarNo",
              "type": "string"
            },
            {
              "internalType": "string",
              "name": "phoneNo",
              "type": "string"
            },
            {
              "internalType": "string",
              "name": "bloodGroup",
              "type": "string"
            },
            {
              "internalType": "string",
              "name": "email",
              "type": "string"
            },
            {
              "internalType": "string[]",
              "name": "medicalRecords",
              "type": "string[]"
            },
            {
              "internalType": "uint256",
              "name": "date",
              "type": "uint256"
            },
            {
              "internalType": "string",
              "name": "diagnosis",
              "type": "string"
            },
            {
              "internalType": "uint256",
              "name": "billAmount",
              "type": "uint256"
            },
            {
              "internalType": "bool",
              "name": "isClaimed",
              "type": "bool"
            }
          ],
          "indexed": false,
          "internalType": "struct MedicalRecords.PatientRecord[]",
          "name": "patientRecord",
          "type": "tuple[]"
        },
        {
          "indexed": false,
          "internalType": "bytes32[]",
          "name": "patientPolicies",
          "type": "bytes32[]"
        }
      ],
      "name": "ReturnPatientRecords",
      "type": "event"
    },
    {
      "anonymous": false,
      "inputs": [
        {
          "components": [
            {
              "internalType": "uint256",
              "name": "_id",
              "type": "uint256"
            },
            {
              "internalType": "string",
              "name": "name",
              "type": "string"
            },
            {
              "internalType": "address",
              "name": "addr",
              "type": "address"
            },
            {
              "internalType": "address",
              "name": "hospitalAddr",
              "type": "address"
            },
            {
              "internalType": "string",
              "name": "aadhaarNo",
              "type": "string"
            },
            {
              "internalType": "string",
              "name": "phoneNo",
              "type": "string"
            },
            {
              "internalType": "string",
              "name": "bloodGroup",
              "type": "string"
            },
            {
              "internalType": "string",
              "name": "email",
              "type": "string"
            },
            {
              "internalType": "string[]",
              "name": "medicalRecords",
              "type": "string[]"
            },
            {
              "internalType": "uint256",
              "name": "date",
              "type": "uint256"
            },
            {
              "internalType": "string",
              "name": "diagnosis",
              "type": "string"
            },
            {
              "internalType": "uint256",
              "name": "billAmount",
              "type": "uint256"
            },
            {
              "internalType": "bool",
              "name": "isClaimed",
              "type": "bool"
            }
          ],
          "indexed": false,
          "internalType": "struct MedicalRecords.PatientRecord",
          "name": "patientRecord",
          "type": "tuple"
        }
      ],
      "name": "ReturnRecordById",
      "type": "event"
    },
    {
      "inputs": [
        {
          "internalType": "string",
          "name": "_name",
          "type": "string"
        },
        {
          "internalType": "string",
          "name": "_aadhaarNo",
          "type": "string"
        },
        {
          "internalType": "string",
          "name": "_phoneNo",
          "type": "string"
        },
        {
          "internalType": "string",
          "name": "_bloodGroup",
          "type": "string"
        },
        {
          "internalType": "string",
          "name": "_email",
          "type": "string"
        },
        {
          "internalType": "string",
          "name": "_diagnosis",
          "type": "string"
        },
        {
          "internalType": "string[]",
          "name": "_medicalRecords",
          "type": "string[]"
        },
        {
          "internalType": "uint256",
          "name": "_billAmount",
          "type": "uint256"
        },
        {
          "internalType": "address",
          "name": "_patientAddr",
          "type": "address"
        }
      ],
      "name": "addPatientRecord",
      "outputs": [],
      "stateMutability": "nonpayable",
      "type": "function"
    },
    {
      "inputs": [
        {
          "internalType": "string",
          "name": "recordFile",
          "type": "string"
        },
        {
          "internalType": "address",
          "name": "_patientAddr",
          "type": "address"
        },
        {
          "internalType": "uint256",
          "name": "_recordId",
          "type": "uint256"
        }
      ],
      "name": "addRecordFiles",
      "outputs": [],
      "stateMutability": "nonpayable",
      "type": "function"
    },
    {
      "inputs": [],
      "name": "getAllRecordsByHospital",
      "outputs": [
        {
          "components": [
            {
              "internalType": "uint256",
              "name": "_id",
              "type": "uint256"
            },
            {
              "internalType": "string",
              "name": "name",
              "type": "string"
            },
            {
              "internalType": "address",
              "name": "addr",
              "type": "address"
            },
            {
              "internalType": "address",
              "name": "hospitalAddr",
              "type": "address"
            },
            {
              "internalType": "string",
              "name": "aadhaarNo",
              "type": "string"
            },
            {
              "internalType": "string",
              "name": "phoneNo",
              "type": "string"
            },
            {
              "internalType": "string",
              "name": "bloodGroup",
              "type": "string"
            },
            {
              "internalType": "string",
              "name": "email",
              "type": "string"
            },
            {
              "internalType": "string[]",
              "name": "medicalRecords",
              "type": "string[]"
            },
            {
              "internalType": "uint256",
              "name": "date",
              "type": "uint256"
            },
            {
              "internalType": "string",
              "name": "diagnosis",
              "type": "string"
            },
            {
              "internalType": "uint256",
              "name": "billAmount",
              "type": "uint256"
            },
            {
              "internalType": "bool",
              "name": "isClaimed",
              "type": "bool"
            }
          ],
          "internalType": "struct MedicalRecords.PatientRecord[]",
          "name": "patientRecord",
          "type": "tuple[]"
        }
      ],
      "stateMutability": "nonpayable",
      "type": "function"
    },
    {
      "inputs": [
        {
          "internalType": "address",
          "name": "_patientAddr",
          "type": "address"
        }
      ],
      "name": "getPatientRecords",
      "outputs": [
        {
          "components": [
            {
              "internalType": "uint256",
              "name": "_id",
              "type": "uint256"
            },
            {
              "internalType": "string",
              "name": "name",
              "type": "string"
            },
            {
              "internalType": "address",
              "name": "addr",
              "type": "address"
            },
            {
              "internalType": "address",
              "name": "hospitalAddr",
              "type": "address"
            },
            {
              "internalType": "string",
              "name": "aadhaarNo",
              "type": "string"
            },
            {
              "internalType": "string",
              "name": "phoneNo",
              "type": "string"
            },
            {
              "internalType": "string",
              "name": "bloodGroup",
              "type": "string"
            },
            {
              "internalType": "string",
              "name": "email",
              "type": "string"
            },
            {
              "internalType": "string[]",
              "name": "medicalRecords",
              "type": "string[]"
            },
            {
              "internalType": "uint256",
              "name": "date",
              "type": "uint256"
            },
            {
              "internalType": "string",
              "name": "diagnosis",
              "type": "string"
            },
            {
              "internalType": "uint256",
              "name": "billAmount",
              "type": "uint256"
            },
            {
              "internalType": "bool",
              "name": "isClaimed",
              "type": "bool"
            }
          ],
          "internalType": "struct MedicalRecords.PatientRecord[]",
          "name": "patientRecord",
          "type": "tuple[]"
        },
        {
          "internalType": "bytes32[]",
          "name": "patientPolicies",
          "type": "bytes32[]"
        }
      ],
      "stateMutability": "nonpayable",
      "type": "function"
    },
    {
      "inputs": [
        {
          "internalType": "uint256",
          "name": "_recordId",
          "type": "uint256"
        }
      ],
      "name": "getRecordById",
      "outputs": [
        {
          "components": [
            {
              "internalType": "uint256",
              "name": "_id",
              "type": "uint256"
            },
            {
              "internalType": "string",
              "name": "name",
              "type": "string"
            },
            {
              "internalType": "address",
              "name": "addr",
              "type": "address"
            },
            {
              "internalType": "address",
              "name": "hospitalAddr",
              "type": "address"
            },
            {
              "internalType": "string",
              "name": "aadhaarNo",
              "type": "string"
            },
            {
              "internalType": "string",
              "name": "phoneNo",
              "type": "string"
            },
            {
              "internalType": "string",
              "name": "bloodGroup",
              "type": "string"
            },
            {
              "internalType": "string",
              "name": "email",
              "type": "string"
            },
            {
              "internalType": "string[]",
              "name": "medicalRecords",
              "type": "string[]"
            },
            {
              "internalType": "uint256",
              "name": "date",
              "type": "uint256"
            },
            {
              "internalType": "string",
              "name": "diagnosis",
              "type": "string"
            },
            {
              "internalType": "uint256",
              "name": "billAmount",
              "type": "uint256"
            },
            {
              "internalType": "bool",
              "name": "isClaimed",
              "type": "bool"
            }
          ],
          "internalType": "struct MedicalRecords.PatientRecord",
          "name": "patientRecord",
          "type": "tuple"
        }
      ],
      "stateMutability": "nonpayable",
      "type": "function"
    },
    {
      "inputs": [
        {
          "internalType": "address",
          "name": "",
          "type": "address"
        },
        {
          "internalType": "uint256",
          "name": "",
          "type": "uint256"
        }
      ],
      "name": "hospitalAddrToRecordId",
      "outputs": [
        {
          "internalType": "uint256",
          "name": "",
          "type": "uint256"
        }
      ],
      "stateMutability": "view",
      "type": "function"
    },
    {
      "inputs": [
        {
          "internalType": "address",
          "name": "",
          "type": "address"
        },
        {
          "internalType": "uint256",
          "name": "",
          "type": "uint256"
        }
      ],
      "name": "insurancePolicies",
      "outputs": [
        {
          "internalType": "bytes32",
          "name": "",
          "type": "bytes32"
        }
      ],
      "stateMutability": "view",
      "type": "function"
    },
    {
      "inputs": [
        {
          "internalType": "address",
          "name": "",
          "type": "address"
        },
        {
          "internalType": "uint256",
          "name": "",
          "type": "uint256"
        }
      ],
      "name": "patientAddrToRecordId",
      "outputs": [
        {
          "internalType": "uint256",
          "name": "",
          "type": "uint256"
        }
      ],
      "stateMutability": "view",
      "type": "function"
    },
    {
      "inputs": [
        {
          "internalType": "uint256",
          "name": "",
          "type": "uint256"
        }
      ],
      "name": "patientRecords",
      "outputs": [
        {
          "internalType": "uint256",
          "name": "_id",
          "type": "uint256"
        },
        {
          "internalType": "string",
          "name": "name",
          "type": "string"
        },
        {
          "internalType": "address",
          "name": "addr",
          "type": "address"
        },
        {
          "internalType": "address",
          "name": "hospitalAddr",
          "type": "address"
        },
        {
          "internalType": "string",
          "name": "aadhaarNo",
          "type": "string"
        },
        {
          "internalType": "string",
          "name": "phoneNo",
          "type": "string"
        },
        {
          "internalType": "string",
          "name": "bloodGroup",
          "type": "string"
        },
        {
          "internalType": "string",
          "name": "email",
          "type": "string"
        },
        {
          "internalType": "uint256",
          "name": "date",
          "type": "uint256"
        },
        {
          "internalType": "string",
          "name": "diagnosis",
          "type": "string"
        },
        {
          "internalType": "uint256",
          "name": "billAmount",
          "type": "uint256"
        },
        {
          "internalType": "bool",
          "name": "isClaimed",
          "type": "bool"
        }
      ],
      "stateMutability": "view",
      "type": "function"
    },
    {
      "inputs": [],
      "name": "recordIndex",
      "outputs": [
        {
          "internalType": "uint256",
          "name": "",
          "type": "uint256"
        }
      ],
      "stateMutability": "view",
      "type": "function"
    },
    {
      "inputs": [
        {
          "internalType": "uint256",
          "name": "_recordId",
          "type": "uint256"
        }
      ],
      "name": "updateClaimStatus",
      "outputs": [],
      "stateMutability": "nonpayable",
      "type": "function"
    }
  ],
  "bytecode": "0x608060405234801561001057600080fd5b50612d56806100206000396000f3fe608060405234801561001057600080fd5b50600436106100a95760003560e01c8063636abb1f11610071578063636abb1f146101775780636b726805146101a7578063b43fabb9146101c5578063cec5bb24146101e3578063d3d188a1146101ff578063e75b8b231461023a576100a9565b806303e9dc3e146100ae57806318bd4847146100ca57806330e94624146100fb57806331fcbf591461012b578063531a78b314610147575b600080fd5b6100c860048036038101906100c39190611a05565b61026a565b005b6100e460048036038101906100df9190611b93565b6104f6565b6040516100f2929190612007565b60405180910390f35b6101156004803603810190610110919061203e565b6107d6565b604051610122919061208d565b60405180910390f35b610145600480360381019061014091906120a8565b610807565b005b610161600480360381019061015c919061203e565b610838565b60405161016e91906120e4565b60405180910390f35b610191600480360381019061018c919061203e565b610869565b60405161019e91906120e4565b60405180910390f35b6101af61089a565b6040516101bc91906120e4565b60405180910390f35b6101cd6108a0565b6040516101da91906120ff565b60405180910390f35b6101fd60048036038101906101f89190612121565b610aac565b005b610219600480360381019061021491906120a8565b610b9e565b6040516102319c9b9a999897969594939291906121f8565b60405180910390f35b610254600480360381019061024f91906120a8565b610f7b565b604051610261919061241f565b60405180910390f35b6000600160006004548152602001908152602001600020905060045481600001819055508981600101908161029f919061264d565b50818160020160006101000a81548173ffffffffffffffffffffffffffffffffffffffff021916908373ffffffffffffffffffffffffffffffffffffffff160217905550888160040190816102f4919061264d565b5087816005019081610306919061264d565b5086816006019081610318919061264d565b508581600701908161032a919061264d565b504281600901819055508481600a019081610345919061264d565b508281600b0181905550838160080190805190602001906103679291906115c1565b50338160030160006101000a81548173ffffffffffffffffffffffffffffffffffffffff021916908373ffffffffffffffffffffffffffffffffffffffff160217905550600081600c0160006101000a81548160ff021916908315150217905550600260008373ffffffffffffffffffffffffffffffffffffffff1673ffffffffffffffffffffffffffffffffffffffff1681526020019081526020016000206004549080600181540180825580915050600190039060005260206000200160009091909190915055600360003373ffffffffffffffffffffffffffffffffffffffff1673ffffffffffffffffffffffffffffffffffffffff16815260200190815260200160002060045490806001815401808255809150506001900390600052602060002001600090919091909150556004547f9a96995fdafdb50a11bfbcd015e3313b1a7de85a9a5c033e9ceccc3ee1b4c893836040516104ca919061271f565b60405180910390a2600460008154809291906104e590612769565b919050555050505050505050505050565b6060806000600260008573ffffffffffffffffffffffffffffffffffffffff1673ffffffffffffffffffffffffffffffffffffffff168152602001908152602001600020805490501161057e576040517f08c379a0000000000000000000000000000000000000000000000000000000008152600401610575906127fd565b60405180910390fd5b6000600260008573ffffffffffffffffffffffffffffffffffffffff1673ffffffffffffffffffffffffffffffffffffffff16815260200190815260200160002080548060200260200160405190810160405280929190818152602001828054801561060957602002820191906000526020600020905b8154815260200190600101908083116105f5575b505050505090506000815167ffffffffffffffff81111561062d5761062c611760565b5b60405190808252806020026020018201604052801561066657816020015b61065361161a565b81526020019060019003908161064b5790505b50905060005b82518110156106c35761069883828151811061068b5761068a61281d565b5b6020026020010151610f7b565b8282815181106106ab576106aa61281d565b5b6020026020010181905250808060010191505061066c565b507f76a484008a0ede273a3e1257a1531a0a0f12426e2d6f5e65ab359ccc89666bec816000808873ffffffffffffffffffffffffffffffffffffffff1673ffffffffffffffffffffffffffffffffffffffff168152602001908152602001600020604051610732929190612922565b60405180910390a1806000808773ffffffffffffffffffffffffffffffffffffffff1673ffffffffffffffffffffffffffffffffffffffff168152602001908152602001600020808054806020026020016040519081016040528092919081815260200182805480156107c457602002820191906000526020600020905b8154815260200190600101908083116107b0575b50505050509050935093505050915091565b600060205281600052604060002081815481106107f257600080fd5b90600052602060002001600091509150505481565b6001806000838152602001908152602001600020600c0160006101000a81548160ff02191690831515021790555050565b6003602052816000526040600020818154811061085457600080fd5b90600052602060002001600091509150505481565b6002602052816000526040600020818154811061088557600080fd5b90600052602060002001600091509150505481565b60045481565b60606000600360003373ffffffffffffffffffffffffffffffffffffffff1673ffffffffffffffffffffffffffffffffffffffff1681526020019081526020016000208054905011610927576040517f08c379a000000000000000000000000000000000000000000000000000000000815260040161091e906127fd565b60405180910390fd5b6000600360003373ffffffffffffffffffffffffffffffffffffffff1673ffffffffffffffffffffffffffffffffffffffff1681526020019081526020016000208054806020026020016040519081016040528092919081815260200182805480156109b257602002820191906000526020600020905b81548152602001906001019080831161099e575b505050505090506000815167ffffffffffffffff8111156109d6576109d5611760565b5b604051908082528060200260200182016040528015610a0f57816020015b6109fc61161a565b8152602001906001900390816109f45790505b50905060005b8251811015610a6c57610a41838281518110610a3457610a3361281d565b5b6020026020010151610f7b565b828281518110610a5457610a5361281d565b5b60200260200101819052508080600101915050610a15565b507f08181786b336758460ae4a72895650834f7fc10f9ac5aee2848e07fd57052fe181604051610a9c91906120ff565b60405180910390a1809250505090565b8173ffffffffffffffffffffffffffffffffffffffff166001600083815260200190815260200160002060020160009054906101000a900473ffffffffffffffffffffffffffffffffffffffff1673ffffffffffffffffffffffffffffffffffffffff1614610b50576040517f08c379a0000000000000000000000000000000000000000000000000000000008152600401610b47906129a5565b60405180910390fd5b6001600082815260200190815260200160002060080183908060018154018082558091505060019003906000526020600020016000909190919091509081610b98919061264d565b50505050565b6001602052806000526040600020600091509050806000015490806001018054610bc790612470565b80601f0160208091040260200160405190810160405280929190818152602001828054610bf390612470565b8015610c405780601f10610c1557610100808354040283529160200191610c40565b820191906000526020600020905b815481529060010190602001808311610c2357829003601f168201915b5050505050908060020160009054906101000a900473ffffffffffffffffffffffffffffffffffffffff16908060030160009054906101000a900473ffffffffffffffffffffffffffffffffffffffff1690806004018054610ca190612470565b80601f0160208091040260200160405190810160405280929190818152602001828054610ccd90612470565b8015610d1a5780601f10610cef57610100808354040283529160200191610d1a565b820191906000526020600020905b815481529060010190602001808311610cfd57829003601f168201915b505050505090806005018054610d2f90612470565b80601f0160208091040260200160405190810160405280929190818152602001828054610d5b90612470565b8015610da85780601f10610d7d57610100808354040283529160200191610da8565b820191906000526020600020905b815481529060010190602001808311610d8b57829003601f168201915b505050505090806006018054610dbd90612470565b80601f0160208091040260200160405190810160405280929190818152602001828054610de990612470565b8015610e365780601f10610e0b57610100808354040283529160200191610e36565b820191906000526020600020905b815481529060010190602001808311610e1957829003601f168201915b505050505090806007018054610e4b90612470565b80601f0160208091040260200160405190810160405280929190818152602001828054610e7790612470565b8015610ec45780601f10610e9957610100808354040283529160200191610ec4565b820191906000526020600020905b815481529060010190602001808311610ea757829003601f168201915b50505050509080600901549080600a018054610edf90612470565b80601f0160208091040260200160405190810160405280929190818152602001828054610f0b90612470565b8015610f585780601f10610f2d57610100808354040283529160200191610f58565b820191906000526020600020905b815481529060010190602001808311610f3b57829003601f168201915b50505050509080600b01549080600c0160009054906101000a900460ff1690508c565b610f8361161a565b600073ffffffffffffffffffffffffffffffffffffffff166001600084815260200190815260200160002060020160009054906101000a900473ffffffffffffffffffffffffffffffffffffffff1673ffffffffffffffffffffffffffffffffffffffff1603611028576040517f08c379a000000000000000000000000000000000000000000000000000000000815260040161101f906129a5565b60405180910390fd5b7f585b7a8f903fdddc6e12cf3aa4bcbcc5d28f43dbe4a85abe4e4d70bfac67f806600160008481526020019081526020016000206040516110699190612cfe565b60405180910390a160016000838152602001908152602001600020604051806101a0016040529081600082015481526020016001820180546110aa90612470565b80601f01602080910402602001604051908101604052809291908181526020018280546110d690612470565b80156111235780601f106110f857610100808354040283529160200191611123565b820191906000526020600020905b81548152906001019060200180831161110657829003601f168201915b505050505081526020016002820160009054906101000a900473ffffffffffffffffffffffffffffffffffffffff1673ffffffffffffffffffffffffffffffffffffffff1673ffffffffffffffffffffffffffffffffffffffff1681526020016003820160009054906101000a900473ffffffffffffffffffffffffffffffffffffffff1673ffffffffffffffffffffffffffffffffffffffff1673ffffffffffffffffffffffffffffffffffffffff1681526020016004820180546111e890612470565b80601f016020809104026020016040519081016040528092919081815260200182805461121490612470565b80156112615780601f1061123657610100808354040283529160200191611261565b820191906000526020600020905b81548152906001019060200180831161124457829003601f168201915b5050505050815260200160058201805461127a90612470565b80601f01602080910402602001604051908101604052809291908181526020018280546112a690612470565b80156112f35780601f106112c8576101008083540402835291602001916112f3565b820191906000526020600020905b8154815290600101906020018083116112d657829003601f168201915b5050505050815260200160068201805461130c90612470565b80601f016020809104026020016040519081016040528092919081815260200182805461133890612470565b80156113855780601f1061135a57610100808354040283529160200191611385565b820191906000526020600020905b81548152906001019060200180831161136857829003601f168201915b5050505050815260200160078201805461139e90612470565b80601f01602080910402602001604051908101604052809291908181526020018280546113ca90612470565b80156114175780601f106113ec57610100808354040283529160200191611417565b820191906000526020600020905b8154815290600101906020018083116113fa57829003601f168201915b5050505050815260200160088201805480602002602001604051908101604052809291908181526020016000905b828210156114f157838290600052602060002001805461146490612470565b80601f016020809104026020016040519081016040528092919081815260200182805461149090612470565b80156114dd5780601f106114b2576101008083540402835291602001916114dd565b820191906000526020600020905b8154815290600101906020018083116114c057829003601f168201915b505050505081526020019060010190611445565b50505050815260200160098201548152602001600a8201805461151390612470565b80601f016020809104026020016040519081016040528092919081815260200182805461153f90612470565b801561158c5780601f106115615761010080835404028352916020019161158c565b820191906000526020600020905b81548152906001019060200180831161156f57829003601f168201915b50505050508152602001600b8201548152602001600c820160009054906101000a900460ff1615151515815250509050919050565b828054828255906000526020600020908101928215611609579160200282015b828111156116085782518290816115f8919061264d565b50916020019190600101906115e1565b5b50905061161691906116b0565b5090565b604051806101a001604052806000815260200160608152602001600073ffffffffffffffffffffffffffffffffffffffff168152602001600073ffffffffffffffffffffffffffffffffffffffff16815260200160608152602001606081526020016060815260200160608152602001606081526020016000815260200160608152602001600081526020016000151581525090565b5b808211156116d057600081816116c791906116d4565b506001016116b1565b5090565b5080546116e090612470565b6000825580601f106116f25750611711565b601f0160209004906000526020600020908101906117109190611714565b5b50565b5b8082111561172d576000816000905550600101611715565b5090565b6000604051905090565b600080fd5b600080fd5b600080fd5b600080fd5b6000601f19601f8301169050919050565b7f4e487b7100000000000000000000000000000000000000000000000000000000600052604160045260246000fd5b6117988261174f565b810181811067ffffffffffffffff821117156117b7576117b6611760565b5b80604052505050565b60006117ca611731565b90506117d6828261178f565b919050565b600067ffffffffffffffff8211156117f6576117f5611760565b5b6117ff8261174f565b9050602081019050919050565b82818337600083830152505050565b600061182e611829846117db565b6117c0565b90508281526020810184848401111561184a5761184961174a565b5b61185584828561180c565b509392505050565b600082601f83011261187257611871611745565b5b813561188284826020860161181b565b91505092915050565b600067ffffffffffffffff8211156118a6576118a5611760565b5b602082029050602081019050919050565b600080fd5b60006118cf6118ca8461188b565b6117c0565b905080838252602082019050602084028301858111156118f2576118f16118b7565b5b835b8181101561193957803567ffffffffffffffff81111561191757611916611745565b5b808601611924898261185d565b855260208501945050506020810190506118f4565b5050509392505050565b600082601f83011261195857611957611745565b5b81356119688482602086016118bc565b91505092915050565b6000819050919050565b61198481611971565b811461198f57600080fd5b50565b6000813590506119a18161197b565b92915050565b600073ffffffffffffffffffffffffffffffffffffffff82169050919050565b60006119d2826119a7565b9050919050565b6119e2816119c7565b81146119ed57600080fd5b50565b6000813590506119ff816119d9565b92915050565b60008060008060008060008060006101208a8c031215611a2857611a2761173b565b5b60008a013567ffffffffffffffff811115611a4657611a45611740565b5b611a528c828d0161185d565b99505060208a013567ffffffffffffffff811115611a7357611a72611740565b5b611a7f8c828d0161185d565b98505060408a013567ffffffffffffffff811115611aa057611a9f611740565b5b611aac8c828d0161185d565b97505060608a013567ffffffffffffffff811115611acd57611acc611740565b5b611ad98c828d0161185d565b96505060808a013567ffffffffffffffff811115611afa57611af9611740565b5b611b068c828d0161185d565b95505060a08a013567ffffffffffffffff811115611b2757611b26611740565b5b611b338c828d0161185d565b94505060c08a013567ffffffffffffffff811115611b5457611b53611740565b5b611b608c828d01611943565b93505060e0611b718c828d01611992565b925050610100611b838c828d016119f0565b9150509295985092959850929598565b600060208284031215611ba957611ba861173b565b5b6000611bb7848285016119f0565b91505092915050565b600081519050919050565b600082825260208201905092915050565b6000819050602082019050919050565b611bf581611971565b82525050565b600081519050919050565b600082825260208201905092915050565b60005b83811015611c35578082015181840152602081019050611c1a565b60008484015250505050565b6000611c4c82611bfb565b611c568185611c06565b9350611c66818560208601611c17565b611c6f8161174f565b840191505092915050565b611c83816119c7565b82525050565b600081519050919050565b600082825260208201905092915050565b6000819050602082019050919050565b6000611cc18383611c41565b905092915050565b6000602082019050919050565b6000611ce182611c89565b611ceb8185611c94565b935083602082028501611cfd85611ca5565b8060005b85811015611d395784840389528151611d1a8582611cb5565b9450611d2583611cc9565b925060208a01995050600181019050611d01565b50829750879550505050505092915050565b60008115159050919050565b611d6081611d4b565b82525050565b60006101a083016000830151611d7f6000860182611bec565b5060208301518482036020860152611d978282611c41565b9150506040830151611dac6040860182611c7a565b506060830151611dbf6060860182611c7a565b5060808301518482036080860152611dd78282611c41565b91505060a083015184820360a0860152611df18282611c41565b91505060c083015184820360c0860152611e0b8282611c41565b91505060e083015184820360e0860152611e258282611c41565b915050610100830151848203610100860152611e418282611cd6565b915050610120830151611e58610120860182611bec565b50610140830151848203610140860152611e728282611c41565b915050610160830151611e89610160860182611bec565b50610180830151611e9e610180860182611d57565b508091505092915050565b6000611eb58383611d66565b905092915050565b6000602082019050919050565b6000611ed582611bc0565b611edf8185611bcb565b935083602082028501611ef185611bdc565b8060005b85811015611f2d5784840389528151611f0e8582611ea9565b9450611f1983611ebd565b925060208a01995050600181019050611ef5565b50829750879550505050505092915050565b600081519050919050565b600082825260208201905092915050565b6000819050602082019050919050565b6000819050919050565b611f7e81611f6b565b82525050565b6000611f908383611f75565b60208301905092915050565b6000602082019050919050565b6000611fb482611f3f565b611fbe8185611f4a565b9350611fc983611f5b565b8060005b83811015611ffa578151611fe18882611f84565b9750611fec83611f9c565b925050600181019050611fcd565b5085935050505092915050565b600060408201905081810360008301526120218185611eca565b905081810360208301526120358184611fa9565b90509392505050565b600080604083850312156120555761205461173b565b5b6000612063858286016119f0565b925050602061207485828601611992565b9150509250929050565b61208781611f6b565b82525050565b60006020820190506120a2600083018461207e565b92915050565b6000602082840312156120be576120bd61173b565b5b60006120cc84828501611992565b91505092915050565b6120de81611971565b82525050565b60006020820190506120f960008301846120d5565b92915050565b600060208201905081810360008301526121198184611eca565b905092915050565b60008060006060848603121561213a5761213961173b565b5b600084013567ffffffffffffffff81111561215857612157611740565b5b6121648682870161185d565b9350506020612175868287016119f0565b925050604061218686828701611992565b9150509250925092565b600082825260208201905092915050565b60006121ac82611bfb565b6121b68185612190565b93506121c6818560208601611c17565b6121cf8161174f565b840191505092915050565b6121e3816119c7565b82525050565b6121f281611d4b565b82525050565b60006101808201905061220e600083018f6120d5565b8181036020830152612220818e6121a1565b905061222f604083018d6121da565b61223c606083018c6121da565b818103608083015261224e818b6121a1565b905081810360a0830152612262818a6121a1565b905081810360c083015261227681896121a1565b905081810360e083015261228a81886121a1565b905061229a6101008301876120d5565b8181036101208301526122ad81866121a1565b90506122bd6101408301856120d5565b6122cb6101608301846121e9565b9d9c50505050505050505050505050565b60006101a0830160008301516122f56000860182611bec565b506020830151848203602086015261230d8282611c41565b91505060408301516123226040860182611c7a565b5060608301516123356060860182611c7a565b506080830151848203608086015261234d8282611c41565b91505060a083015184820360a08601526123678282611c41565b91505060c083015184820360c08601526123818282611c41565b91505060e083015184820360e086015261239b8282611c41565b9150506101008301518482036101008601526123b78282611cd6565b9150506101208301516123ce610120860182611bec565b506101408301518482036101408601526123e88282611c41565b9150506101608301516123ff610160860182611bec565b50610180830151612414610180860182611d57565b508091505092915050565b6000602082019050818103600083015261243981846122dc565b905092915050565b7f4e487b7100000000000000000000000000000000000000000000000000000000600052602260045260246000fd5b6000600282049050600182168061248857607f821691505b60208210810361249b5761249a612441565b5b50919050565b60008190508160005260206000209050919050565b60006020601f8301049050919050565b600082821b905092915050565b6000600883026125037fffffffffffffffffffffffffffffffffffffffffffffffffffffffffffffffff826124c6565b61250d86836124c6565b95508019841693508086168417925050509392505050565b6000819050919050565b600061254a61254561254084611971565b612525565b611971565b9050919050565b6000819050919050565b6125648361252f565b61257861257082612551565b8484546124d3565b825550505050565b600090565b61258d612580565b61259881848461255b565b505050565b5b818110156125bc576125b1600082612585565b60018101905061259e565b5050565b601f821115612601576125d2816124a1565b6125db846124b6565b810160208510156125ea578190505b6125fe6125f6856124b6565b83018261259d565b50505b505050565b600082821c905092915050565b600061262460001984600802612606565b1980831691505092915050565b600061263d8383612613565b9150826002028217905092915050565b61265682611bfb565b67ffffffffffffffff81111561266f5761266e611760565b5b6126798254612470565b6126848282856125c0565b600060209050601f8311600181146126b757600084156126a5578287015190505b6126af8582612631565b865550612717565b601f1984166126c5866124a1565b60005b828110156126ed578489015182556001820191506020850194506020810190506126c8565b8683101561270a5784890151612706601f891682612613565b8355505b6001600288020188555050505b505050505050565b600060208201905061273460008301846121da565b92915050565b7f4e487b7100000000000000000000000000000000000000000000000000000000600052601160045260246000fd5b600061277482611971565b91507fffffffffffffffffffffffffffffffffffffffffffffffffffffffffffffffff82036127a6576127a561273a565b5b600182019050919050565b7f50617469656e74207265636f726473206e6f742070726573656e740000000000600082015250565b60006127e7601b83612190565b91506127f2826127b1565b602082019050919050565b60006020820190508181036000830152612816816127da565b9050919050565b7f4e487b7100000000000000000000000000000000000000000000000000000000600052603260045260246000fd5b600081549050919050565b60008190508160005260206000209050919050565b60008160001c9050919050565b6000819050919050565b60006128966128918361286c565b612879565b9050919050565b60006128a98254612883565b9050919050565b6000600182019050919050565b60006128c88261284c565b6128d28185611f4a565b93506128dd83612857565b8060005b83811015612915576128f28261289d565b6128fc8882611f84565b9750612907836128b0565b9250506001810190506128e1565b5085935050505092915050565b6000604082019050818103600083015261293c8185611eca565b9050818103602083015261295081846128bd565b90509392505050565b7f50617469656e74207265636f7264206e6f742070726573656e74000000000000600082015250565b600061298f601a83612190565b915061299a82612959565b602082019050919050565b600060208201905081810360008301526129be81612982565b9050919050565b6000819050919050565b60006129e26129dd8361286c565b6129c5565b9050919050565b600081546129f681612470565b612a008186611c06565b94506001821660008114612a1b5760018114612a3157612a64565b60ff198316865281151560200286019350612a64565b612a3a856124a1565b60005b83811015612a5c57815481890152600182019150602081019050612a3d565b808801955050505b50505092915050565b600073ffffffffffffffffffffffffffffffffffffffff82169050919050565b6000612aa0612a9b8361286c565b612a6d565b9050919050565b600081549050919050565b60008190508160005260206000209050919050565b6000612ad383836129e9565b905092915050565b6000600182019050919050565b6000612af382612aa7565b612afd8185611c94565b935083602082028501612b0f85612ab2565b8060005b85811015612b4a57848403895281612b2b8582612ac7565b9450612b3683612adb565b925060208a01995050600181019050612b13565b50829750879550505050505092915050565b600060ff82169050919050565b6000612b7c612b778361286c565b612b5c565b9050919050565b60006101a083016000808401549050612b9b816129cf565b612ba86000870182611bec565b50600184018583036020870152612bbf83826129e9565b92505060028401549050612bd281612a8d565b612bdf6040870182611c7a565b5060038401549050612bf081612a8d565b612bfd6060870182611c7a565b50600484018583036080870152612c1483826129e9565b9250506005840185830360a0870152612c2d83826129e9565b9250506006840185830360c0870152612c4683826129e9565b9250506007840185830360e0870152612c5f83826129e9565b92505060088401858303610100870152612c798382612ae8565b92505060098401549050612c8c816129cf565b612c9a610120870182611bec565b50600a8401858303610140870152612cb283826129e9565b925050600b8401549050612cc5816129cf565b612cd3610160870182611bec565b50600c8401549050612ce481612b69565b612cf2610180870182611d57565b50819250505092915050565b60006020820190508181036000830152612d188184612b83565b90509291505056fea26469706673582212206fe65b37b5b10c1d992914c81637ff6b0d54c8b28c877a67c210ba56a714f75964736f6c63430008180033",
  "linkReferences": {},
  "deployedLinkReferences": {}
}