{
  "_format": "hh-sol-artifact-1",
  "contractName": "PolicyContract",
  "sourceName": "contracts/PolicyContract.sol",
  "abi": [
    {
      "inputs": [],
      "stateMutability": "nonpayable",
      "type": "constructor"
    },
    {
      "anonymous": false,
      "inputs": [
        {
          "indexed": true,
          "internalType": "bytes32",
          "name": "policyId",
          "type": "bytes32"
        },
        {
          "indexed": true,
          "internalType": "address",
          "name": "holder",
          "type": "address"
        },
        {
          "indexed": false,
          "internalType": "uint256",
          "name": "startDate",
          "type": "uint256"
        },
        {
          "indexed": false,
          "internalType": "uint256",
          "name": "endDate",
          "type": "uint256"
        }
      ],
      "name": "PolicyCreated",
      "type": "event"
    },
    {
      "anonymous": false,
      "inputs": [
        {
          "components": [
            {
              "internalType": "bytes32",
              "name": "_id",
              "type": "bytes32"
            },
            {
              "internalType": "address",
              "name": "holder",
              "type": "address"
            },
            {
              "internalType": "address",
              "name": "insurerAddr",
              "type": "address"
            },
            {
              "internalType": "uint256",
              "name": "premiumAmount",
              "type": "uint256"
            },
            {
              "internalType": "uint256",
              "name": "startDate",
              "type": "uint256"
            },
            {
              "internalType": "uint256",
              "name": "endDate",
              "type": "uint256"
            },
            {
              "internalType": "bool",
              "name": "isActive",
              "type": "bool"
            },
            {
              "internalType": "uint256",
              "name": "maturityAmount",
              "type": "uint256"
            },
            {
              "internalType": "string",
              "name": "name",
              "type": "string"
            },
            {
              "internalType": "string",
              "name": "typeOfTreatment",
              "type": "string"
            }
          ],
          "indexed": false,
          "internalType": "struct PolicyContract.Policy[]",
          "name": "insurerPolicies",
          "type": "tuple[]"
        }
      ],
      "name": "ReturnInsurerPolicies",
      "type": "event"
    },
    {
      "anonymous": false,
      "inputs": [
        {
          "components": [
            {
              "internalType": "bytes32",
              "name": "_id",
              "type": "bytes32"
            },
            {
              "internalType": "address",
              "name": "holder",
              "type": "address"
            },
            {
              "internalType": "address",
              "name": "insurerAddr",
              "type": "address"
            },
            {
              "internalType": "uint256",
              "name": "premiumAmount",
              "type": "uint256"
            },
            {
              "internalType": "uint256",
              "name": "startDate",
              "type": "uint256"
            },
            {
              "internalType": "uint256",
              "name": "endDate",
              "type": "uint256"
            },
            {
              "internalType": "bool",
              "name": "isActive",
              "type": "bool"
            },
            {
              "internalType": "uint256",
              "name": "maturityAmount",
              "type": "uint256"
            },
            {
              "internalType": "string",
              "name": "name",
              "type": "string"
            },
            {
              "internalType": "string",
              "name": "typeOfTreatment",
              "type": "string"
            }
          ],
          "indexed": false,
          "internalType": "struct PolicyContract.Policy[]",
          "name": "userPolicies",
          "type": "tuple[]"
        }
      ],
      "name": "ReturnUserPolicies",
      "type": "event"
    },
    {
      "inputs": [
        {
          "internalType": "bytes32",
          "name": "_policyId",
          "type": "bytes32"
        }
      ],
      "name": "cancelPolicy",
      "outputs": [],
      "stateMutability": "nonpayable",
      "type": "function"
    },
    {
      "inputs": [
        {
          "internalType": "address",
          "name": "_insurerAddr",
          "type": "address"
        },
        {
          "internalType": "string",
          "name": "_name",
          "type": "string"
        },
        {
          "internalType": "string",
          "name": "_typeOfTreatment",
          "type": "string"
        },
        {
          "internalType": "uint256",
          "name": "_premiumAmount",
          "type": "uint256"
        },
        {
          "internalType": "uint256",
          "name": "_duration",
          "type": "uint256"
        },
        {
          "internalType": "uint256",
          "name": "_maturityAmount",
          "type": "uint256"
        }
      ],
      "name": "createPolicy",
      "outputs": [],
      "stateMutability": "nonpayable",
      "type": "function"
    },
    {
      "inputs": [
        {
          "internalType": "address",
          "name": "_insurerAddr",
          "type": "address"
        }
      ],
      "name": "getInsurerPolicies",
      "outputs": [
        {
          "components": [
            {
              "internalType": "bytes32",
              "name": "_id",
              "type": "bytes32"
            },
            {
              "internalType": "address",
              "name": "holder",
              "type": "address"
            },
            {
              "internalType": "address",
              "name": "insurerAddr",
              "type": "address"
            },
            {
              "internalType": "uint256",
              "name": "premiumAmount",
              "type": "uint256"
            },
            {
              "internalType": "uint256",
              "name": "startDate",
              "type": "uint256"
            },
            {
              "internalType": "uint256",
              "name": "endDate",
              "type": "uint256"
            },
            {
              "internalType": "bool",
              "name": "isActive",
              "type": "bool"
            },
            {
              "internalType": "uint256",
              "name": "maturityAmount",
              "type": "uint256"
            },
            {
              "internalType": "string",
              "name": "name",
              "type": "string"
            },
            {
              "internalType": "string",
              "name": "typeOfTreatment",
              "type": "string"
            }
          ],
          "internalType": "struct PolicyContract.Policy[]",
          "name": "InsurerPolicies",
          "type": "tuple[]"
        }
      ],
      "stateMutability": "nonpayable",
      "type": "function"
    },
    {
      "inputs": [
        {
          "internalType": "bytes32",
          "name": "_policyId",
          "type": "bytes32"
        }
      ],
      "name": "getPolicy",
      "outputs": [
        {
          "components": [
            {
              "internalType": "bytes32",
              "name": "_id",
              "type": "bytes32"
            },
            {
              "internalType": "address",
              "name": "holder",
              "type": "address"
            },
            {
              "internalType": "address",
              "name": "insurerAddr",
              "type": "address"
            },
            {
              "internalType": "uint256",
              "name": "premiumAmount",
              "type": "uint256"
            },
            {
              "internalType": "uint256",
              "name": "startDate",
              "type": "uint256"
            },
            {
              "internalType": "uint256",
              "name": "endDate",
              "type": "uint256"
            },
            {
              "internalType": "bool",
              "name": "isActive",
              "type": "bool"
            },
            {
              "internalType": "uint256",
              "name": "maturityAmount",
              "type": "uint256"
            },
            {
              "internalType": "string",
              "name": "name",
              "type": "string"
            },
            {
              "internalType": "string",
              "name": "typeOfTreatment",
              "type": "string"
            }
          ],
          "internalType": "struct PolicyContract.Policy",
          "name": "",
          "type": "tuple"
        }
      ],
      "stateMutability": "view",
      "type": "function"
    },
    {
      "inputs": [
        {
          "internalType": "address",
          "name": "_userAddr",
          "type": "address"
        }
      ],
      "name": "getUserPolicies",
      "outputs": [
        {
          "components": [
            {
              "internalType": "bytes32",
              "name": "_id",
              "type": "bytes32"
            },
            {
              "internalType": "address",
              "name": "holder",
              "type": "address"
            },
            {
              "internalType": "address",
              "name": "insurerAddr",
              "type": "address"
            },
            {
              "internalType": "uint256",
              "name": "premiumAmount",
              "type": "uint256"
            },
            {
              "internalType": "uint256",
              "name": "startDate",
              "type": "uint256"
            },
            {
              "internalType": "uint256",
              "name": "endDate",
              "type": "uint256"
            },
            {
              "internalType": "bool",
              "name": "isActive",
              "type": "bool"
            },
            {
              "internalType": "uint256",
              "name": "maturityAmount",
              "type": "uint256"
            },
            {
              "internalType": "string",
              "name": "name",
              "type": "string"
            },
            {
              "internalType": "string",
              "name": "typeOfTreatment",
              "type": "string"
            }
          ],
          "internalType": "struct PolicyContract.Policy[]",
          "name": "UserPolicies",
          "type": "tuple[]"
        }
      ],
      "stateMutability": "nonpayable",
      "type": "function"
    },
    {
      "inputs": [
        {
          "internalType": "address",
          "name": "",
          "type": "address"
        },
        {
          "internalType": "uint256",
          "name": "",
          "type": "uint256"
        }
      ],
      "name": "insurerPolicies",
      "outputs": [
        {
          "internalType": "bytes32",
          "name": "",
          "type": "bytes32"
        }
      ],
      "stateMutability": "view",
      "type": "function"
    },
    {
      "inputs": [],
      "name": "owner",
      "outputs": [
        {
          "internalType": "address payable",
          "name": "",
          "type": "address"
        }
      ],
      "stateMutability": "view",
      "type": "function"
    },
    {
      "inputs": [
        {
          "internalType": "bytes32",
          "name": "",
          "type": "bytes32"
        }
      ],
      "name": "policies",
      "outputs": [
        {
          "internalType": "bytes32",
          "name": "_id",
          "type": "bytes32"
        },
        {
          "internalType": "address",
          "name": "holder",
          "type": "address"
        },
        {
          "internalType": "address",
          "name": "insurerAddr",
          "type": "address"
        },
        {
          "internalType": "uint256",
          "name": "premiumAmount",
          "type": "uint256"
        },
        {
          "internalType": "uint256",
          "name": "startDate",
          "type": "uint256"
        },
        {
          "internalType": "uint256",
          "name": "endDate",
          "type": "uint256"
        },
        {
          "internalType": "bool",
          "name": "isActive",
          "type": "bool"
        },
        {
          "internalType": "uint256",
          "name": "maturityAmount",
          "type": "uint256"
        },
        {
          "internalType": "string",
          "name": "name",
          "type": "string"
        },
        {
          "internalType": "string",
          "name": "typeOfTreatment",
          "type": "string"
        }
      ],
      "stateMutability": "view",
      "type": "function"
    },
    {
      "inputs": [
        {
          "internalType": "address",
          "name": "",
          "type": "address"
        },
        {
          "internalType": "uint256",
          "name": "",
          "type": "uint256"
        }
      ],
      "name": "userPolicies",
      "outputs": [
        {
          "internalType": "bytes32",
          "name": "",
          "type": "bytes32"
        }
      ],
      "stateMutability": "view",
      "type": "function"
    },
    {
      "inputs": [],
      "name": "withdraw",
      "outputs": [],
      "stateMutability": "nonpayable",
      "type": "function"
    }
  ],
  "bytecode": "0x608060405234801561001057600080fd5b5033600360006101000a81548173ffffffffffffffffffffffffffffffffffffffff021916908373ffffffffffffffffffffffffffffffffffffffff16021790555061211f806100616000396000f3fe608060405234801561001057600080fd5b506004361061009e5760003560e01c80638da5cb5b116100665780638da5cb5b14610159578063a3f685f914610177578063a86146d0146101a7578063d24d3d9f146101c3578063ddbfd8ef146101f35761009e565b806319ac4614146100a35780632e6cd30d146100d35780633ccfd60b146101035780633d36adc51461010d578063853bc2e41461013d575b600080fd5b6100bd60048036038101906100b89190611147565b61022c565b6040516100ca9190611403565b60405180910390f35b6100ed60048036038101906100e89190611147565b61043a565b6040516100fa9190611403565b60405180910390f35b61010b610648565b005b61012760048036038101906101229190611451565b610743565b60405161013491906114a0565b60405180910390f35b610157600480360381019061015291906115f0565b610774565b005b610161610ac3565b60405161016e91906116d6565b60405180910390f35b610191600480360381019061018c919061171d565b610ae9565b60405161019e919061182b565b60405180910390f35b6101c160048036038101906101bc919061171d565b610d39565b005b6101dd60048036038101906101d89190611451565b610e6f565b6040516101ea91906114a0565b60405180910390f35b61020d6004803603810190610208919061171d565b610ea0565b6040516102239a999897969594939291906118c4565b60405180910390f35b60606000600160008473ffffffffffffffffffffffffffffffffffffffff1673ffffffffffffffffffffffffffffffffffffffff16815260200190815260200160002080549050116102b3576040517f08c379a00000000000000000000000000000000000000000000000000000000081526004016102aa906119ba565b60405180910390fd5b6000600160008473ffffffffffffffffffffffffffffffffffffffff1673ffffffffffffffffffffffffffffffffffffffff16815260200190815260200160002080548060200260200160405190810160405280929190818152602001828054801561033e57602002820191906000526020600020905b81548152602001906001019080831161032a575b505050505090506000815167ffffffffffffffff811115610362576103616114c5565b5b60405190808252806020026020018201604052801561039b57816020015b610388611051565b8152602001906001900390816103805790505b50905060005b82518110156103f8576103cd8382815181106103c0576103bf6119da565b5b6020026020010151610ae9565b8282815181106103e0576103df6119da565b5b602002602001018190525080806001019150506103a1565b507f36346df1c88870c8ea7ee8fce1a6efb94f6bdf1ea765147c3bc2d54694175563816040516104289190611403565b60405180910390a18092505050919050565b60606000600260008473ffffffffffffffffffffffffffffffffffffffff1673ffffffffffffffffffffffffffffffffffffffff16815260200190815260200160002080549050116104c1576040517f08c379a00000000000000000000000000000000000000000000000000000000081526004016104b890611a55565b60405180910390fd5b6000600260008473ffffffffffffffffffffffffffffffffffffffff1673ffffffffffffffffffffffffffffffffffffffff16815260200190815260200160002080548060200260200160405190810160405280929190818152602001828054801561054c57602002820191906000526020600020905b815481526020019060010190808311610538575b505050505090506000815167ffffffffffffffff8111156105705761056f6114c5565b5b6040519080825280602002602001820160405280156105a957816020015b610596611051565b81526020019060019003908161058e5790505b50905060005b8251811015610606576105db8382815181106105ce576105cd6119da565b5b6020026020010151610ae9565b8282815181106105ee576105ed6119da565b5b602002602001018190525080806001019150506105af565b507f74a9b41239b522d59c33fe00a053c0e05a798004392eba56e33b5d3d113cc5bd816040516106369190611403565b60405180910390a18092505050919050565b600360009054906101000a900473ffffffffffffffffffffffffffffffffffffffff1673ffffffffffffffffffffffffffffffffffffffff163373ffffffffffffffffffffffffffffffffffffffff16146106d8576040517f08c379a00000000000000000000000000000000000000000000000000000000081526004016106cf90611ae7565b60405180910390fd5b600360009054906101000a900473ffffffffffffffffffffffffffffffffffffffff1673ffffffffffffffffffffffffffffffffffffffff166108fc479081150290604051600060405180830381858888f19350505050158015610740573d6000803e3d6000fd5b50565b6001602052816000526040600020818154811061075f57600080fd5b90600052602060002001600091509150505481565b600082116107b7576040517f08c379a00000000000000000000000000000000000000000000000000000000081526004016107ae90611b79565b60405180910390fd5b600062015180836107c89190611bc8565b426107d39190611c0a565b905060003342446040516020016107ec93929190611ca7565b6040516020818303038152906040528051906020012090506040518061014001604052808281526020013373ffffffffffffffffffffffffffffffffffffffff1681526020018973ffffffffffffffffffffffffffffffffffffffff168152602001868152602001428152602001838152602001600115158152602001848152602001888152602001878152506000808381526020019081526020016000206000820151816000015560208201518160010160006101000a81548173ffffffffffffffffffffffffffffffffffffffff021916908373ffffffffffffffffffffffffffffffffffffffff16021790555060408201518160020160006101000a81548173ffffffffffffffffffffffffffffffffffffffff021916908373ffffffffffffffffffffffffffffffffffffffff160217905550606082015181600301556080820151816004015560a0820151816005015560c08201518160060160006101000a81548160ff02191690831515021790555060e082015181600701556101008201518160080190816109819190611ef0565b506101208201518160090190816109989190611ef0565b50905050600160003373ffffffffffffffffffffffffffffffffffffffff1673ffffffffffffffffffffffffffffffffffffffff168152602001908152602001600020819080600181540180825580915050600190039060005260206000200160009091909190915055600260008973ffffffffffffffffffffffffffffffffffffffff1673ffffffffffffffffffffffffffffffffffffffff1681526020019081526020016000208190806001815401808255809150506001900390600052602060002001600090919091909150553373ffffffffffffffffffffffffffffffffffffffff16817f205277be9ac92163fe2e90703802f84c6722bf45927714baa72ea9295c360ff64285604051610ab1929190611fc2565b60405180910390a35050505050505050565b600360009054906101000a900473ffffffffffffffffffffffffffffffffffffffff1681565b610af1611051565b600080600084815260200190815260200160002090508060405180610140016040529081600082015481526020016001820160009054906101000a900473ffffffffffffffffffffffffffffffffffffffff1673ffffffffffffffffffffffffffffffffffffffff1673ffffffffffffffffffffffffffffffffffffffff1681526020016002820160009054906101000a900473ffffffffffffffffffffffffffffffffffffffff1673ffffffffffffffffffffffffffffffffffffffff1673ffffffffffffffffffffffffffffffffffffffff1681526020016003820154815260200160048201548152602001600582015481526020016006820160009054906101000a900460ff1615151515815260200160078201548152602001600882018054610c1d90611d13565b80601f0160208091040260200160405190810160405280929190818152602001828054610c4990611d13565b8015610c965780601f10610c6b57610100808354040283529160200191610c96565b820191906000526020600020905b815481529060010190602001808311610c7957829003601f168201915b50505050508152602001600982018054610caf90611d13565b80601f0160208091040260200160405190810160405280929190818152602001828054610cdb90611d13565b8015610d285780601f10610cfd57610100808354040283529160200191610d28565b820191906000526020600020905b815481529060010190602001808311610d0b57829003601f168201915b505050505081525050915050919050565b3373ffffffffffffffffffffffffffffffffffffffff1660008083815260200190815260200160002060010160009054906101000a900473ffffffffffffffffffffffffffffffffffffffff1673ffffffffffffffffffffffffffffffffffffffff1614610ddc576040517f08c379a0000000000000000000000000000000000000000000000000000000008152600401610dd39061205d565b60405180910390fd5b60008082815260200190815260200160002060060160009054906101000a900460ff16610e3e576040517f08c379a0000000000000000000000000000000000000000000000000000000008152600401610e35906120c9565b60405180910390fd5b600080600083815260200190815260200160002060060160006101000a81548160ff02191690831515021790555050565b60026020528160005260406000208181548110610e8b57600080fd5b90600052602060002001600091509150505481565b60006020528060005260406000206000915090508060000154908060010160009054906101000a900473ffffffffffffffffffffffffffffffffffffffff16908060020160009054906101000a900473ffffffffffffffffffffffffffffffffffffffff16908060030154908060040154908060050154908060060160009054906101000a900460ff1690806007015490806008018054610f4090611d13565b80601f0160208091040260200160405190810160405280929190818152602001828054610f6c90611d13565b8015610fb95780601f10610f8e57610100808354040283529160200191610fb9565b820191906000526020600020905b815481529060010190602001808311610f9c57829003601f168201915b505050505090806009018054610fce90611d13565b80601f0160208091040260200160405190810160405280929190818152602001828054610ffa90611d13565b80156110475780601f1061101c57610100808354040283529160200191611047565b820191906000526020600020905b81548152906001019060200180831161102a57829003601f168201915b505050505090508a565b60405180610140016040528060008019168152602001600073ffffffffffffffffffffffffffffffffffffffff168152602001600073ffffffffffffffffffffffffffffffffffffffff1681526020016000815260200160008152602001600081526020016000151581526020016000815260200160608152602001606081525090565b6000604051905090565b600080fd5b600080fd5b600073ffffffffffffffffffffffffffffffffffffffff82169050919050565b6000611114826110e9565b9050919050565b61112481611109565b811461112f57600080fd5b50565b6000813590506111418161111b565b92915050565b60006020828403121561115d5761115c6110df565b5b600061116b84828501611132565b91505092915050565b600081519050919050565b600082825260208201905092915050565b6000819050602082019050919050565b6000819050919050565b6111b3816111a0565b82525050565b6111c281611109565b82525050565b6000819050919050565b6111db816111c8565b82525050565b60008115159050919050565b6111f6816111e1565b82525050565b600081519050919050565b600082825260208201905092915050565b60005b8381101561123657808201518184015260208101905061121b565b60008484015250505050565b6000601f19601f8301169050919050565b600061125e826111fc565b6112688185611207565b9350611278818560208601611218565b61128181611242565b840191505092915050565b6000610140830160008301516112a560008601826111aa565b5060208301516112b860208601826111b9565b5060408301516112cb60408601826111b9565b5060608301516112de60608601826111d2565b5060808301516112f160808601826111d2565b5060a083015161130460a08601826111d2565b5060c083015161131760c08601826111ed565b5060e083015161132a60e08601826111d2565b506101008301518482036101008601526113448282611253565b9150506101208301518482036101208601526113608282611253565b9150508091505092915050565b6000611379838361128c565b905092915050565b6000602082019050919050565b600061139982611174565b6113a3818561117f565b9350836020820285016113b585611190565b8060005b858110156113f157848403895281516113d2858261136d565b94506113dd83611381565b925060208a019950506001810190506113b9565b50829750879550505050505092915050565b6000602082019050818103600083015261141d818461138e565b905092915050565b61142e816111c8565b811461143957600080fd5b50565b60008135905061144b81611425565b92915050565b60008060408385031215611468576114676110df565b5b600061147685828601611132565b92505060206114878582860161143c565b9150509250929050565b61149a816111a0565b82525050565b60006020820190506114b56000830184611491565b92915050565b600080fd5b600080fd5b7f4e487b7100000000000000000000000000000000000000000000000000000000600052604160045260246000fd5b6114fd82611242565b810181811067ffffffffffffffff8211171561151c5761151b6114c5565b5b80604052505050565b600061152f6110d5565b905061153b82826114f4565b919050565b600067ffffffffffffffff82111561155b5761155a6114c5565b5b61156482611242565b9050602081019050919050565b82818337600083830152505050565b600061159361158e84611540565b611525565b9050828152602081018484840111156115af576115ae6114c0565b5b6115ba848285611571565b509392505050565b600082601f8301126115d7576115d66114bb565b5b81356115e7848260208601611580565b91505092915050565b60008060008060008060c0878903121561160d5761160c6110df565b5b600061161b89828a01611132565b965050602087013567ffffffffffffffff81111561163c5761163b6110e4565b5b61164889828a016115c2565b955050604087013567ffffffffffffffff811115611669576116686110e4565b5b61167589828a016115c2565b945050606061168689828a0161143c565b935050608061169789828a0161143c565b92505060a06116a889828a0161143c565b9150509295509295509295565b60006116c0826110e9565b9050919050565b6116d0816116b5565b82525050565b60006020820190506116eb60008301846116c7565b92915050565b6116fa816111a0565b811461170557600080fd5b50565b600081359050611717816116f1565b92915050565b600060208284031215611733576117326110df565b5b600061174184828501611708565b91505092915050565b60006101408301600083015161176360008601826111aa565b50602083015161177660208601826111b9565b50604083015161178960408601826111b9565b50606083015161179c60608601826111d2565b5060808301516117af60808601826111d2565b5060a08301516117c260a08601826111d2565b5060c08301516117d560c08601826111ed565b5060e08301516117e860e08601826111d2565b506101008301518482036101008601526118028282611253565b91505061012083015184820361012086015261181e8282611253565b9150508091505092915050565b60006020820190508181036000830152611845818461174a565b905092915050565b61185681611109565b82525050565b611865816111c8565b82525050565b611874816111e1565b82525050565b600082825260208201905092915050565b6000611896826111fc565b6118a0818561187a565b93506118b0818560208601611218565b6118b981611242565b840191505092915050565b6000610140820190506118da600083018d611491565b6118e7602083018c61184d565b6118f4604083018b61184d565b611901606083018a61185c565b61190e608083018961185c565b61191b60a083018861185c565b61192860c083018761186b565b61193560e083018661185c565b818103610100830152611948818561188b565b905081810361012083015261195d818461188b565b90509b9a5050505050505050505050565b7f5573657220706f6c6963696573206e6f742070726573656e7400000000000000600082015250565b60006119a460198361187a565b91506119af8261196e565b602082019050919050565b600060208201905081810360008301526119d381611997565b9050919050565b7f4e487b7100000000000000000000000000000000000000000000000000000000600052603260045260246000fd5b7f496e737572657220706f6c6963696573206e6f742070726573656e7400000000600082015250565b6000611a3f601c8361187a565b9150611a4a82611a09565b602082019050919050565b60006020820190508181036000830152611a6e81611a32565b9050919050565b7f4f6e6c7920746865206f776e65722063616e2077697468647261772066756e6460008201527f7300000000000000000000000000000000000000000000000000000000000000602082015250565b6000611ad160218361187a565b9150611adc82611a75565b604082019050919050565b60006020820190508181036000830152611b0081611ac4565b9050919050565b7f506f6c696379206475726174696f6e2073686f756c642062652067726561746560008201527f72207468616e207a65726f000000000000000000000000000000000000000000602082015250565b6000611b63602b8361187a565b9150611b6e82611b07565b604082019050919050565b60006020820190508181036000830152611b9281611b56565b9050919050565b7f4e487b7100000000000000000000000000000000000000000000000000000000600052601160045260246000fd5b6000611bd3826111c8565b9150611bde836111c8565b9250828202611bec816111c8565b91508282048414831517611c0357611c02611b99565b5b5092915050565b6000611c15826111c8565b9150611c20836111c8565b9250828201905080821115611c3857611c37611b99565b5b92915050565b60008160601b9050919050565b6000611c5682611c3e565b9050919050565b6000611c6882611c4b565b9050919050565b611c80611c7b82611109565b611c5d565b82525050565b6000819050919050565b611ca1611c9c826111c8565b611c86565b82525050565b6000611cb38286611c6f565b601482019150611cc38285611c90565b602082019150611cd38284611c90565b602082019150819050949350505050565b7f4e487b7100000000000000000000000000000000000000000000000000000000600052602260045260246000fd5b60006002820490506001821680611d2b57607f821691505b602082108103611d3e57611d3d611ce4565b5b50919050565b60008190508160005260206000209050919050565b60006020601f8301049050919050565b600082821b905092915050565b600060088302611da67fffffffffffffffffffffffffffffffffffffffffffffffffffffffffffffffff82611d69565b611db08683611d69565b95508019841693508086168417925050509392505050565b6000819050919050565b6000611ded611de8611de3846111c8565b611dc8565b6111c8565b9050919050565b6000819050919050565b611e0783611dd2565b611e1b611e1382611df4565b848454611d76565b825550505050565b600090565b611e30611e23565b611e3b818484611dfe565b505050565b5b81811015611e5f57611e54600082611e28565b600181019050611e41565b5050565b601f821115611ea457611e7581611d44565b611e7e84611d59565b81016020851015611e8d578190505b611ea1611e9985611d59565b830182611e40565b50505b505050565b600082821c905092915050565b6000611ec760001984600802611ea9565b1980831691505092915050565b6000611ee08383611eb6565b9150826002028217905092915050565b611ef9826111fc565b67ffffffffffffffff811115611f1257611f116114c5565b5b611f1c8254611d13565b611f27828285611e63565b600060209050601f831160018114611f5a5760008415611f48578287015190505b611f528582611ed4565b865550611fba565b601f198416611f6886611d44565b60005b82811015611f9057848901518255600182019150602085019450602081019050611f6b565b86831015611fad5784890151611fa9601f891682611eb6565b8355505b6001600288020188555050505b505050505050565b6000604082019050611fd7600083018561185c565b611fe4602083018461185c565b9392505050565b7f596f7520617265206e6f742074686520686f6c646572206f662074686973207060008201527f6f6c696379000000000000000000000000000000000000000000000000000000602082015250565b600061204760258361187a565b915061205282611feb565b604082019050919050565b600060208201905081810360008301526120768161203a565b9050919050565b7f506f6c69637920697320616c72656164792063616e63656c6564000000000000600082015250565b60006120b3601a8361187a565b91506120be8261207d565b602082019050919050565b600060208201905081810360008301526120e2816120a6565b905091905056fea2646970667358221220255d6ef2c214b8678107409ccf616b50f5360e811082c5797d312938c1f2410364736f6c63430008180033",
  "linkReferences": {},
  "deployedLinkReferences": {}
}